:100000000C9437010C94F01A0C94C91A0C945F01EB
:100010000C945F010C945F010C94E20A0C945F0154
:100020000C945F010C945F010C945F010C945F01D0
:100030000C945F010C945F010C945F010C945F01C0
:100040000C947F1A0C945F010C94EC180C94C61855
:100050000C945F010C945F010C945F010C945F01A0
:100060000C94B9220C945F014E414E494E495459AB
:10007000494E46CDCCCC3D0AD7233C17B7D1387773
:10008000CC2B329595E6241FB14F0A000020410089
:1000900000C84200401C4620BCBE4CCA1B0E5AAED3
:1000A000C59D7420543D005052455320493D0020C9
:1000B000463D0020493D0020533D0020543D002096
:1000C000433D0020493D0053454E4420443D00201F
:1000D000463D002064503D00204D3D00424D5020E3
:1000E000493D0020503D00424D4520493D002048FB
:1000F0003D00424D4520493D0020543D00424D45C4
:1001000020493D004932433D004E4F20424D4500BD
:1001100020553D0020543D004C4F4144534C50204D
:100120004D3D00494E5432204D3D00494E54312042
:100130004D3D004E6F64654D616E6167657220765E
:1001400000524541445900524144494F204F4B0011
:10015000204D3D004D5920493D004157414B450040
:100160002C204D3D0057414B4520503D007300531E
:100170004C454550200020503D0020543D00204378
:100180003D0020493D005245435620533D00205438
:100190003D0020503D0020503D0052454720493D44
:1001A0000057414B4555500020553D00534C4545A7
:1001B0005020543D00534C454550204D3D004D5975
:1001C00020493D00434C454152005245424F4F5457
:1001D0000020503D004241545420563D0020463DF1
:1001E0000020493D0020533D0020543D0020433D68
:1001F0000020493D0053454E4420443D002C2054EE
:100200003D005052455320493D00000000002400AD
:1002100027002A0000000000250028002B0004040D
:10022000040404040404020202020202030303039E
:10023000030301020408102040800102040810207A
:100240000102040810200000000800020100000361
:100250000407000000000000000054494D452054F0
:100260003D0000000000230026002900252711245E
:100270001FBECFEFD8E0DEBFCDBF24E0A6E3B2E0E3
:1002800001C01D92AF35B207E1F712E0A0E0B1E086
:10029000E6EFF6E602C005900D92A633B107D9F756
:1002A00011E0C7E3D1E004C02197FE010E947A2F3C
:1002B000C633D107C9F70E9403280C9479330C94F4
:1002C000000020917A002F7720937A00309160000F
:1002D0008A309105B1F083FD02C028E001C028E218
:1002E0008770822B98E10FB6F894A89590936000E0
:1002F0000FBE8093600080916000806580936000F5
:100300000BC00FB6F894A895809160008861809327
:100310006000109260000FBE83B7817F846083BF4E
:10032000F89483B7816083BF85B7806685BF8F7D72
:1003300085BF7894889583B78E7F83BFF894A895FE
:1003400080916000886180936000309360007894B1
:1003500080917A00806880937A0008958F929F92AE
:10036000AF92BF92CF92DF92EF92FF920F931F93C3
:10037000CF93DF93FC01E15AFF4FC081D181C12CA3
:10038000D12CE12CF12C812C912C54018C010F5992
:100390001F4FEC16FD06B4F4D801ED91FC91EC0D65
:1003A000FD1D2081318142815381C501B4010E942C
:1003B000512C4B015C01BFEFEB1AFB0A84E0C80E25
:1003C000D11CE7CFBE01DD0F880B990B0E94A52A37
:1003D0009B01AC01C501B4010E94BD2CDF91CF91FE
:1003E0001F910F91FF90EF90DF90CF90BF90AF9053
:1003F0009F908F900895DC01FB019481977092305B
:1004000041F4ED91FC9111970684F785E02DCD0123
:100410000994089508950895DB0116962C91169776
:1004200030E0FC0147A150A52417350779F4159653
:100430002C9130E043A554A52417350739F40190D9
:10044000F081E02D0680F781E02D09940895DC010C
:1004500095962D913C9196972F3F3F4F39F0DC01B7
:10046000ED91FC910484F585E02D09940895DC015B
:1004700095962D913C9196972F3F3F4F39F0DC0197
:10048000ED91FC910284F385E02D0994089580910B
:1004900038028F3F59F080E090E0892B21F087E00F
:1004A00090E00E94000080E191E018C00E94BC260C
:1004B000613D77408105910598F080910C0480366C
:1004C00018F48CE091E00AC080E090E0892B21F0E4
:1004D00089E690E00E94000088E091E00C94CF262D
:1004E00008950E94BC26613D77408105910520F466
:1004F00080910C0481FF0895809139028F3F81F033
:1005000080910C048E7F80930C0480E090E0892B16
:1005100021F085E090E00E9400008CE091E011C0A5
:1005200080910C04803618F482E291E00AC080E0E9
:1005300090E0892B21F088E690E00E94000088E09E
:1005400091E00C94CF2680910E048F3FA1F00E9481
:10055000731A609308047093090480930A049093BB
:100560000B0480910E0490913A02891380933A0211
:1005700084E191E01BC00E94BC26613D774081056B
:100580009105B0F080910C04803618F480E191E080
:100590000DC0877F80930C0480E090E0892B21F0D0
:1005A0008AE690E00E94000082E291E00C94CF265F
:1005B00008950F9380E090E0892B21F088E090E08F
:1005C0000E9400008FEF80930E0480910C048860DD
:1005D00080930C0400E028E143E06FEF80E00E948C
:1005E0004A1161E00E946B1E0F910C9450240F93EE
:1005F000809138028F3FB1F480E090E0892B21F0A8
:1006000086E090E00E94000000E023E043E06FEF0E
:1006100080E00E944A116FEC71E00E94771E0F91FA
:100620000C9450240F9108950F9380E090E0892B53
:1006300021F084E090E00E94000080910C04897F0A
:10064000816080930C048FEF80933A02809339028B
:1006500000E027E043E06FEF0E944A116FEC71E089
:100660000E94771E0F910C945024CF93219A229AC6
:100670000E94E72329982A9A6EE080E20E94021FD6
:1006800065E070E080E090E00E94391A63E083E268
:100690000E94021F6FE584E20E94021F6CE485E263
:1006A0000E94021F67E286E20E94021F63E780E564
:1006B0000E94021F66E08DE30E94021F21E041E0DC
:1006C00060E070E086E00E94CC1EC82F21E041E08F
:1006D00060E070E085E00E94CC1E8C3409F040C0E0
:1006E000C732F1F562E082E20E94021F60E081E21F
:1006F0000E94021F63E08CE30E94021F8FEF809331
:10070000030120E045E063E071E08BE20E94CC1E33
:1007100020E045E063E071E08AE20E94CC1E20E028
:1007200045E063E071E080E30E94CC1E82EE0E940F
:10073000251F81EE0E94251F60E787E20E94021FAD
:1007400080910C04806180930C04809138028F3F6B
:1007500081F00E94E32481110CC088E091E00BC07D
:1007600080E090E0892BC9F387E690E00E940000CA
:10077000F4CF82E291E0CF910C94CF26ECE0F4E04C
:100780008081877F8F7E80831092080410920904F5
:1007900010920A0410920B0443E050E060E070E015
:1007A00088E392E00C94C52B809102010E94171BF4
:1007B000809101018F3F21F0809101010E94171B60
:1007C00080910201809300010895809101010E94AF
:1007D000171B809102018F3F21F0809102010E943E
:1007E000171B809101018093000108954F925F9241
:1007F0006F927F928F929F92AF92BF92CF92DF9231
:10080000EF92FF920F931F93CF93DF93EC01FC01C4
:10081000EF5AFF4F80819181009731F5B196808129
:1008200091810E94491B6B017C01809136028111EC
:1008300010C026E636E646EE5FE3C701B6010E9429
:10084000042B20E030E040E052E40E94512C6B0188
:100850007C018DEF90E00E94F2118FA198A50E947B
:10086000131289EF90E0FAC08130910509F005C1BB
:10087000FE01EE58FF4F00811181C8010E94491B03
:100880006DEFC8010E94CA21A0E0B0E0811520E808
:100890009207A105B10509F4D1C0F80185809680C1
:1008A000A780B084FCE29F1AF1E0AF0AB1086EE0C5
:1008B000880F991FAA1FBB1F6A95D1F7F80141A5A0
:1008C00052A5052E000C660B770B24E1440F551F33
:1008D000661F771F2A95D1F76C017D01C41AD50ACE
:1008E000E60AF70AA3A5B4A5A50194010E94102E5B
:1008F000C61AD70AE80AF90AF0E4DF0EE11CF11C77
:100900006FE0F594E794D794C7946A95D1F7F8010E
:10091000A5A50A2E000CBB0B0E94102E2B013C013A
:100920007AE075946794579447947A95D1F7A0A587
:10093000B0E00E94FF2BDC01CB011BE0B595A79531
:10094000979587951A95D1F7BC01CD0170588F4FB7
:100950009F4FA30192010E94C32DDC01CB010AE04D
:10096000B595A795979587950A95D1F79C01AD0107
:10097000405E5F4FA6A1B7A10E94102EDC01CB0103
:10098000905EAF4FBF4FBC01CD012EE0959587958E
:10099000779567952A95D1F7A70196010E94C32DF7
:1009A0006B017C013FE095958795779567953A9522
:1009B000D1F79B01AC010E94C32D9B01AC0167E004
:1009C00055954795379527956A95D1F7A5A1B0E03C
:1009D0000E94FF2BDC01CB0174E0B595A79597959C
:1009E00087957A95D1F7A7019601281B390B4A0BF9
:1009F0005B0BDA01C90157FF03C080E090E0DC0126
:100A000081309105A10539E1B30724F080E090E041
:100A1000A0E0B9E1BC01CD015CE0959587957795A3
:100A200067955A95D1F70E94A52A20E030E040E86A
:100A30005AE30E94042B6B017C0106C0C12CD12C0F
:100A400040ECE42E4FE7F42E82EF90E00E94F2118A
:100A50008FA198A50E9413128EEE90E00E94F211D1
:100A6000C701B6010E94ED12A7019601C701B601A8
:100A70000E94BE2D882349F110C28230910561F594
:100A8000FE01EE58FF4F808191810E94E01B20E023
:100A900030E048EC52E40E94BD2C6B017C019B01CC
:100AA000AC010E94BE2D8111F8C187EE90E00E943A
:100AB000F2118FA198A50E94131283EE90E00E947C
:100AC000F211C701B6010E94ED12CF5BDF4FC88261
:100AD000D982EA82FB82E1C1039709F0DEC1FE01FF
:100AE000EE58FF4F808191810E94E01B20E030E0B2
:100AF00048EC52E40E94BD2C4B015C019B01AC010F
:100B00000E94BE2D8111C9C17E0143E6E40EF11C95
:100B1000D701ED91FC91119714976D917C91CF01C4
:100B20000E94D32D880F991F880F991FDE01AF599E
:100B3000BF4F0D90BC91A02DA80FB91F8D929D9213
:100B4000AD92BC9213973196EA3BF10524F4D7019C
:100B5000ED93FC9305C086E090E0F70191838083DC
:100B6000D7018D919C91FE01EB59FF4F5F019E01D2
:100B70002F583F4F69018E0103591F4FAE0147594E
:100B80005F4F4A018530910509F4D1C08332910548
:100B9000F1F4CE010E94AE01D5012D913D914D9110
:100BA0005C910E94502C2DEC3CEC4CEC5DE30E94DF
:100BB000042BF6012081222329F09B01AC010E9425
:100BC000512CAFC020E030E040EC5FE39CC08134AA
:100BD0009105A9F4CE010E94AE01D5012D913D9160
:100BE0004D915C910E94502C2DEC3CEC4CEC5DE363
:100BF0000E94042BF60120812223D9F192C08F3567
:100C00009105D1F4CE010E94AE01D5012D913D9107
:100C10004D915C910E94502C2DEC3CEC4CEC5DE332
:100C20000E94042BF6012081222309F445C020E014
:100C300030E040EC5FE349C08D37910531F5CE01DE
:100C40000E94AE01D4016D937D938D939C93139775
:100C5000F50120813181428153810E94502C2DEC7D
:100C60003CEC4CEC5DE30E94042BD6012C9122233A
:100C700039F020E030E040E05FE30E94042B45C003
:100C800020E030E040E450E420C08B39910501F5CC
:100C9000CE010E94AE01F501208131814281538154
:100CA0000E94502C2DEC3CEC4CEC5DE30E94042B9C
:100CB000D6012C91222329F020E030E040E250E4DC
:100CC00022C020E030E040E650E40E94BD2C29C064
:100CD000893B910561F5CE010E94AE01F5012081AD
:100CE0003181428153810E94502C2DEC3CEC4CEC24
:100CF0005DE30E94042BD6012C91222361F020E0B9
:100D000030E040E450E40E94BD2CF8016083718320
:100D1000828393830CC020E030E040E85EE30E94D1
:100D2000042BD8016D937D938D939C931397F401BD
:100D300080819181A281B381F50180839183A28317
:100D4000B383D6011C92F80180809180A280B38089
:100D500020E030E040E85EEBC501B4010E949E2A2D
:100D600087FD53C020E030E040E85EE3C501B401F8
:100D70000E94B92D18160CF43FC020E030E040E886
:100D80005EEBC501B4010E94B92D181654F42DEC88
:100D90003CEC4CE45DEBC501B4010E949E2A87FD4A
:100DA0002EC02DEC3CEC4CE45DE3C501B4010E9487
:100DB000B92D181654F420E030E040E85EE3C50198
:100DC000B4010E949E2A87FD1DC02DEC3CEC4CE432
:100DD0005DEBC501B4010E94B92D1816B4F42DECD9
:100DE0003CEC4CE45DE3C501B4010E949E2A87FF00
:100DF0000CC080E090E00BC084E090E008C082E08E
:100E000090E005C081E090E002C085E090E06E01D6
:100E1000F5E4CF0ED11C880F991F8C0F9D1FFC018C
:100E2000ED5AFF4F80819181D6018D939C938CED7B
:100E300090E00E94F2118FA198A50E94131288EDF4
:100E400090E00E94F211F701808191810E941312BB
:100E500083ED90E00E94F211D8016D917D918D910A
:100E60009C9142E00E9419128FEC90E00E94F211D6
:100E7000F60180819181DF91CF911F910F91FF90B9
:100E8000EF90DF90CF90BF90AF909F908F907F902A
:100E90006F905F904F900C941113DF91CF911F9141
:100EA0000F91FF90EF90DF90CF90BF90AF909F9009
:100EB0008F907F906F905F904F900895CF93DF93C6
:100EC000EC01FC01E15AFF4F20813181213C8FE18F
:100ED000380730F4C901880F991F880F991F02C085
:100EE0008FEF9FEF0E94802FCF59DF4F9983888328
:100EF000DF91CF910895CF92DF92EF92FF920F93FF
:100F00001F93CF93DF936C01EB01E12CF12C8B014C
:100F1000095F1F4FF60180A991A9E816F9060CF0A8
:100F200072C0F60163A174A11616170634F4072ED9
:100F3000000C880B990B0E94681387EC90E00E94CC
:100F4000F2118A810E94FC1283EC90E00E94F2115F
:100F50008E810E94FC128FEB90E00E94F2118C8136
:100F600087700E94FC128BEB90E00E94F2118D8141
:100F70000E94FC1287EB90E00E94F2118C81829516
:100F80008695877011F4C80102C080E090E00E944D
:100F9000631183EB90E00E94F2119C8192959695EB
:100FA0009770923019F48F81988508C0911104C010
:100FB000C8010E94BE2802C080E090E00E94131287
:100FC0008FEA90E00E94F2119C819295969597701D
:100FD000973029F46F81788589859A8509C09111A8
:100FE00004C0C8010E94BA2803C060E070E0CB01D1
:100FF0000E94ED12F60167A5CE010E940120FFEFCD
:10100000EF1AFF0A87CFDF91CF911F910F91FF90C9
:10101000EF90DF90CF9008954F925F926F927F9202
:101020008F929F92AF92BF92CF92DF92EF92FF92F8
:101030000F931F93CF93DF93EC018DA19EA1019697
:1010400009F43DC189AD9AAD181619062CF48FA983
:1010500098AD019698AF8FAB8B01C12CD12C412C50
:10106000512C32014E0131E4830E911C5E018FE35D
:10107000A80EB11CEAA8FBA8CE14DF040CF048C0EF
:10108000D80111968C911197E881F981811110C1D5
:1010900016968C91169781110BC114968C9114970A
:1010A000877009F005C115968C91811101C10684E4
:1010B000F785E02DCE0109958BAD9CAD009761F4CD
:1010C000F50160817181072E000C880B990B0E943D
:1010D000A52A9B01AC0107C0019759F4D4012D91B9
:1010E0003D914D915C91C301B2010E94512C2B01A5
:1010F0003C016CA97DA91616170634F4072E000CC6
:10110000880B990B0E94431EBFEFCB1ADB0AB2CFAC
:101110008BAD9CAD009709F03FC020E030E040E887
:101120005FEBC301B2010E94B92D18160CF0C7C0C5
:10113000B701FF0C880B990B0E94A52A9B01AC01FB
:10114000C301B2010E94BD2C0E942F2D4EA9FE01A9
:10115000E95BFF4F442389F0408151816417750793
:1011600061F449AD5AAD141615060CF0A8C02FA9AC
:1011700038AD421753070CF0A2C018AE1FAA7183F6
:1011800060832E812F7120642E832D812770206132
:101190002D837A8769874BC08130910509F04BC058
:1011A00020E030E040E85FEBC301B2010E94B92DBE
:1011B00018160CF084C0B701FF0C880B990B0E9425
:1011C000A52A9B01AC01C301B2010E94BD2C6B0199
:1011D0007C018EA98E01075B1F4F882399F0F801CF
:1011E0002081318142815381C701B6010E949E2A2C
:1011F000811108C02FA938AD89AD9AAD28173907DC
:101200000CF45DC018AE1FAAD801CD92DD92ED920C
:10121000FC9213979DAD8D81877088628D838E813E
:10122000806E8E83C986DA86EB86FC869D87BE013A
:101230006E5F7F4F2AC0029709F041C08EA98E01D0
:10124000035B1F4FFE01EB5BFF4F7F01882381F0A3
:10125000D8016D917C91808191810E94B230892B5F
:1012600039F42FA938AD89AD9AAD281739073CF16B
:1012700018AE1FAAF70160817181D8016D937C932C
:10128000CE0102960E94771EBC01CE01DF91CF9164
:101290001F910F91FF90EF90DF90CF90BF90AF9094
:1012A0009F908F907F906F905F904F900C947B07F2
:1012B0000088F189E02DB801CE010995FDCEDF91BE
:1012C000CF911F910F91FF90EF90DF90CF90BF9043
:1012D000AF909F908F907F906F905F904F90089508
:1012E000CF93DF93EC0187EA90E00E94F2118FA187
:1012F00098A50E94131283EA90E00E94F21189A53A
:101300009AA50E94E0114DA55EA52FA569A58FA104
:10131000DF91CF910C94321F8F929F92AF92BF9228
:10132000CF92DF92EF92FF924B015C018BE392E050
:101330000E94B817809100018F3F91F480E48816D5
:101340008FE19806A104B10458F089E090E00E9472
:10135000610180E4881A8FE1980AA108B108EACFF8
:1013600075016401809100018F3F41F480EA881685
:101370008FE09806A104B10408F068C080910001D4
:101380008F3F41F480EDC81687E0D806E104F104F0
:1013900008F069C0809100018F3F41F488EEC816C3
:1013A00083E0D806E104F10408F068C080910001F0
:1013B0008F3F41F484EFC81681E0D806E104F104C0
:1013C00008F067C0809100018F3F39F48AEFC8169A
:1013D000D104E104F10408F067C0809100018F3F5F
:1013E00039F48DE7C816D104E104F10408F066C0B1
:1013F000809100018F3F39F480E4C816D104E104E4
:10140000F10408F065C0809100018F3F39F480E25B
:10141000C816D104E104F10408F064C08091000111
:101420008F3F09F069C080E1C816D104E104F104DE
:1014300008F462C080E090E0FF90EF90DF90CF90E2
:10144000BF90AF909F908F900C94610188E090E0E6
:101450000E9461017501640180EAC81A8FE0D80A10
:10146000E108F1088BCF87E090E00E94610180EDF8
:10147000C81A87E0D80AE108F1088CCF86E090E02E
:101480000E94610188EEC81A83E0D80AE108F108D9
:101490008DCF85E090E00E94610184EFC81A81E061
:1014A000D80AE108F1088ECF84E090E00E94610143
:1014B0008AEFC81AD108E108F1088FCF83E090E0E5
:1014C0000E94610188E7C81AD108E108F10890CFAD
:1014D00082E090E00E9461018CE3C81AD108E10823
:1014E000F10891CF81E090E00E9461018EE1C81A7D
:1014F000D108E108F10892CFFF90EF90DF90CF90F4
:10150000BF90AF909F908F900895AF92BF92CF926F
:10151000DF92EF92FF920F931F93CF93DF931F926F
:10152000CDB7DEB7B82EA42E67017801F89480936A
:101530000201409301018FEFB81649F0462F50E0A9
:1015400064ED73E08B2D29830E94291B29818FEF85
:10155000A81639F0422F50E065EE73E08A2D0E9404
:10156000291BC114D104E104F10429F0C701B6011B
:101570000E948C0904C08AE090E00E9461018FEF14
:10158000B81619F08B2D0E94171B8FEFA81619F0B3
:101590008A2D0E94171B809100018F3F19F08091C6
:1015A000000101C08FEF9FEF909300010F90DF913A
:1015B000CF911F910F91FF90EF90DF90CF90BF9050
:1015C000AF9008951F920F920FB60F9211240F90B3
:1015D0000FBE0F901F9018956F927F928F929F92DF
:1015E000AF92BF92CF92DF92EF92FF920F931F9331
:1015F000CF93DF93CDB7DEB7A1970FB6F894DEBFD8
:101600000FBECDBF8C01762E672E7A018CE391E060
:10161000F801819391935F01CF010E94AC1EF80104
:1016200014A213A287E190E092A781A780E390E043
:1016300094A783A72FEC31E036A725A717A6CC24C3
:10164000C394D12CD1AAC0AAD3AAC2AA15AA14AAFB
:1016500016AA10AE17AA8FEF9FEF92AF81AF14AE0C
:1016600013AE42E0842E912C96AE85AEFF96918308
:101670008083329640E050E060E87FEB4083518306
:10168000628373833496318320833296918380837F
:1016900032964083518362837383349631832083EF
:1016A000329691838083F80177A260A682E190E070
:1016B00096A385A3CE0101960E94AC1E7F8280E393
:1016C0008E8381E2FE013196D50101900D928A95BB
:1016D000E1F782E591E0F80191838083D801AD5A6A
:1016E000BF4F8CE0ECE2F1E001900D928A95E1F7BA
:1016F000F801E15AFF4F85E090E0918380833496B2
:10170000118210823E9621E02083B097F182E08220
:10171000E114F10449F486E090E0F80192A781A772
:1017200014A613A617821DC0F1E0EF16F10459F4B8
:1017300087E090E0F80192A781A7F4A6E3A62783AB
:10174000F4AEE3AE20C0F2E0EF16F10469F488E0F5
:1017500090E0F80192A781A784E090E094A783A786
:101760008783D4AEC3AE0FC0F3E0EF16F10459F493
:1017700028E030E0F80132A721A794A783A785E0ED
:10178000878394AE83AEA1960FB6F894DEBF0FBEEA
:10179000CDBFDF91CF911F910F91FF90EF90DF9020
:1017A000CF90BF90AF909F908F907F906F90089553
:1017B000CF93DF93EC0186E891E00E94F2118981DA
:1017C0000E94FC1282E891E00E94F2118E810E9438
:1017D000FC128EE791E00E94F2118C8187700E94CA
:1017E000FC128AE791E00E94F2118D810E94FC12A6
:1017F00086E791E00E94F2118C8182958695877030
:1018000019F4CE01079602C080E090E00E94111307
:10181000EE81E83CA9F48C81982F9770923029F5DD
:101820009D81903311F582958695877031F4CE01B4
:101830000796DF91CF910C943C1480E090E0F9CFB3
:10184000EB3098F4F0E0EE0FFF1FED5CFC4F808171
:101850009181009751F0DC01ED91FC910084F185BC
:10186000E02DBE01DF91CF910994DF91CF910895D2
:101870008F929F92AF92BF92CF92DF92EF92FF92A0
:101880000F931F93CF93DF93CDB7DEB7A1970FB61A
:10189000F894DEBF0FBECDBFCE0101960E94AC1EF4
:1018A0008091190390911A03009709F418C10197C8
:1018B000029718F005E313E01EC080911B0390917E
:1018C0001C03892B09F40BC1F5CF20912D03309116
:1018D0002E032F3FBFEF3B0709F4F6C0FC01E15B8D
:1018E000FF4F408151814217530709F4EDC0E3E0F7
:1018F00009341E0739F0D8018D919D918D01009713
:1019000021F7F5CF8091190390911A03019702975F
:1019100008F0E5C08FEF9FEF90932E0380932D0387
:10192000A0911B03B0911C036D010B2E000CEE085F
:10193000FF0880911D0390911E038130910519F4D9
:101940002CE330E005C08230910529F420E13EE02F
:101950000E94092E08C0039741F4A0ECB8EAA70141
:1019600096010E94FF2B6B017C01A8EEB3E0A7015A
:1019700096010E94FF2B4B015C018FE691E00E94D3
:10198000F211C701B6010E94B6118DE691E00E94E6
:1019900003138FEC91E00E94111380911903909131
:1019A0001A038230910549F4C501B4010E94431E17
:1019B000809149030E944A1F5DC0019709F05AC0F7
:1019C00000912503109126030F3F110511F021E02E
:1019D00001C02FEFC0902703D0902803FFEFCF1650
:1019E000D10411F0E12C02C0EE24EA9441E0C501DB
:1019F000B4010E946F1F082F880F110B17FD3CC008
:101A00000130110541F4C0902503D090260333E046
:101A1000E32EF12C11C00115110541F4C0902703EC
:101A2000D090280322E0E22EF12C06C0CC24CA94E8
:101A3000DC2CEE24EA94FE2CF0922E03E0922D038F
:101A400085E691E00E94F211C7010E94131280E620
:101A500091E00E94F211C6010E94E01180911F03E3
:101A6000909120038E159F0539F410921A0310925D
:101A7000190302C00FEF1FEF8AE591E00E940313E4
:101A80000F3F1F4F21F08091EE02882349F0809193
:101A9000F6029091F70201969093F7028093F60276
:101AA0002091EC023091ED028091F6029091F702C4
:101AB00028173907A1F485EC91E00E943C1410929C
:101AC000F7021092F6020BC0DC01ED91FC9106804A
:101AD000F781E02DBE016F5F7F4F099508CFA1967A
:101AE0000FB6F894DEBF0FBECDBFDF91CF911F912F
:101AF0000F91FF90EF90DF90CF90BF90AF909F90AD
:101B00008F900895CF93DF9384E591E00E94F211C6
:101B1000809138020E94FC1280E591E00E94F2114F
:101B20006091360270E080E090E04AE00E9475111A
:101B30008DEC91E00E946311C5E3D3E08991999106
:101B4000009739F0DC01ED91FC910480F581E02DE6
:101B50000995B3E0C934DB0789F7DF91CF91089588
:101B60000F93CF93DF9387E491E00E94031360917A
:101B70002103709122031616170634F4072E000C69
:101B8000880B990B0E94681300E02BE043E06FEF95
:101B900080E00E944A1160ED71E00E94771E0E9471
:101BA0002B1F2CE043E06FEF80E00E944A116FEDA5
:101BB00071E00E94771E0E942B1F67E170E088ECA5
:101BC00090E00E9478136EE170E089EC90E00E9452
:101BD000781385EC91E00E943C14C5E3D3E0888142
:101BE0009981892BB1F0609121037091220316161F
:101BF000170634F4072E000C880B990B0E9468130B
:101C000088819981DC01ED91FC910280F381E02DC6
:101C100009952296B3E0C934DB0709F781E491E026
:101C20000E9403138FEC91E0DF91CF910F910C9400
:101C30001113AF92BF92CF92DF92EF92FF920F9368
:101C40001F93CF93DF9300D0CDB7DEB781E090E054
:101C500090931A038093190390931C0380931B03A2
:101C600090931E0380931D0386E696E6A6EEBFE3DF
:101C70008093E4029093E502A093E602B093E7021A
:101C800083E393E3A3E5B0E48093E8029093E90251
:101C9000A093EA02B093EB020E94B4187C0181E3A6
:101CA00090E00E94802F8C018FEFD80119968C93C1
:101CB00019971A968C931A971B968C931B971C96C0
:101CC0008C9387E7898386E78A83FE0131965F01DB
:101CD000CC24C394F501D1905F01C0928C03D092C3
:101CE000AE0310928D031092AF0360ED88ED92E089
:101CF0000E9420210E94571861E08D2D0E940C182F
:101D000088ED92E00E94D420803621F784E091E0B3
:101D10000E94F2116D2D70E080E090E04AE00E9498
:101D200075118DEC91E00E946311D801DC92199637
:101D30008C918F3F41F51092D8031092D7031092E7
:101D40008D031092AF031092D60381E08093D503E8
:101D50001092D00361E082E10E94471961E083E1C3
:101D60000E9447198091B9008E7F8093B9008091BD
:101D7000B9008D7F8093B9008DEF8093B80085E422
:101D80008093BC001EC061E00E94471961E0D80149
:101D900019968C910E94FD19F80184858F3F19F4E2
:101DA0000E94E7230EC061E00E94FD1961E0D801A6
:101DB0001A968C910E94FD1960E0F80183850E94BB
:101DC000FD1960EDC8010E942B22803609F052C235
:101DD00046EB60EEC8010E9470226CE271E080E088
:101DE00090E00E94391A63EFC8010E942B2280FF05
:101DF00005C064E670E080E090E0F3CF68E8C801D9
:101E00000E943D1ED8011E969C938E931D976AE8F2
:101E1000C8010E943D1EF801908B87876CE8C801BD
:101E20000E943D1ED80152969C938E9351976EE866
:101E3000C8010E943D1EF801948B838B60E9C801A4
:101E40000E943D1ED80156969C938E93559762E949
:101E5000C8010E943D1EF801908F878B64E9C8017C
:101E60000E943D1ED8015A969C938E93599766E91D
:101E7000C8010E943D1EF801948F838F68E9C80154
:101E80000E943D1ED8015E969C938E935D976AE9F1
:101E9000C8010E943D1EF80190A3878F6CE9C8011C
:101EA0000E943D1ED80192969C938E9391976EE965
:101EB000C8010E943D1EF80194A383A361EAC801F2
:101EC0000E942B22D80195968C9361EEC8010E9446
:101ED0003D1EF80197A386A363EEC8010E942B2242
:101EE000D80198968C9364EEC8010E942B22D82EBC
:101EF00065EEC8010E942B22282F2F70B0E1DB9ED7
:101F0000C0011124822BF80192A781A766EEC801B7
:101F10000E942B22D82E65EEC8010E942B2290E051
:101F200024E0959587952A95E1F7F0E1DF9E9001F1
:101F30001124822B932BD8019C969C938E939B9774
:101F400067EEC8010E942B22F80185A78DEE87A7B6
:101F500080A98F71806A80AB86A5807C86A745E0CA
:101F600062EFC8010E947022D8019E969C91492F71
:101F70004770B0E24B9F90011124892F869586957A
:101F800086958770E8E08E9FA0011124422B532B89
:101F900097FB992790F9492B65EFC8010E947022A1
:101FA000D8019F968C91482F4770B0E24B9F9001CB
:101FB0001124982F9695969596959770E8E09E9F98
:101FC000A0011124422B532B829586958695837010
:101FD000482B64EFC8010E94702284E790E00E94C1
:101FE000802F5C0140E050E0B7010E94EC0A38E627
:101FF000C32E31E0D32ED501CD92DC92F501EE58FF
:10200000FF4F11830083C5010E94B6160E94B418C9
:102010005C0184E790E00E94802F7C0141E050E069
:10202000B5010E94EC0AF701D182C082EE58FF4F41
:1020300011830083C7010E94B6160E94B4185C0188
:1020400084E790E00E94802F7C0142E050E0B501DF
:102050000E94EC0AD701CD92DC92F701EE58FF4FB7
:1020600011830083C7010E94B6160E94B4185C0158
:1020700084E790E00E94802F7C0143E050E0B501AE
:102080000E94EC0AF701D182C082EE58FF4F118303
:102090000083C7010E94B61683E391E00E94F2110B
:1020A00084EE91E00E94111380911F039091200310
:1020B00097FD1DC08330910569F482E090E0909314
:1020C00026038093250381E090E090932A03809378
:1020D00029030DC08230910551F490932803809319
:1020E000270381E090E090932C0380932B03809151
:1020F0002503909126038F3F910569F060E083E00E
:102100000E94FD196091290370912A0377FD03C095
:1021100083E00E94471980912703909128038F3F05
:10212000910569F060E082E00E94FD1960912B0347
:1021300070912C0377FD03C082E00E9447198BE267
:1021400091E00E94F21180912503909126030E9454
:10215000E01183E291E00E94F211809127039091B7
:1021600028030E94E0118DE991E00E94D52B813077
:1021700009F053C08EE991E00E94D52B90E0909336
:102180001A038093190380EA91E00E94D52B082F4F
:1021900010E010931C0300931B038FE991E00E9451
:1021A000D52B90E08130910519F406501F4F0AC0DD
:1021B0008230910519F40C501E4F04C0039731F47E
:1021C00002511D4F10931C0300931B0381EA91E001
:1021D0000E94D52B90E090931E0380931D0388E10D
:1021E00091E00E94F2118091190390911A030E94CC
:1021F000131284E191E00E94F21180911B039091EF
:102200001C030E94131280E191E00E94F211809160
:102210001D0390911E030E94E0118091EF02811135
:1022200009C08091F0029091F10297FD03C083E014
:102230008093180105E313E0D8018D919D918D01E4
:10224000009739F0DC01ED91FC910190F081E02DD7
:102250000995B3E009341B0779F70F900F90DF91D0
:10226000CF911F910F91FF90EF90DF90CF90BF9093
:10227000AF90089589E091E00E9403130DCFE091A3
:102280003B02F0913C020190F081E02D682F8BE33E
:1022900092E009940F931F93EAE4F3E090913802DF
:1022A000918382836683258347708481807F482B56
:1022B00088E0089F80011124042B0F7E0483CF0146
:1022C0001F910F910895009769F0FC010190002083
:1022D000E9F73197AF01481B590BBC018BE392E042
:1022E0000C94ED1680E090E008958F929F92AF924B
:1022F000BF920F931F93CF93DF93CDB7DEB7A19714
:102300000FB6F894DEBF0FBECDBF19A2423008F45D
:102310004AE08E010F5D1F4F842E912CA12CB12C11
:10232000A50194010E94E72DE62FB901CA010150D1
:102330001109EA3014F4E05D01C0E95CD801EC93C6
:10234000232B242B252B61F7C8010E946311A19632
:102350000FB6F894DEBF0FBECDBFDF91CF911F91B6
:102360000F91BF90AF909F908F900895CF92DF9282
:10237000EF92FF92CF93DF9397FF19C06B017C011F
:102380008DE20E943F11EC0166277727CB016C1983
:102390007D098E099F094AE00E9475118C0F9D1FCF
:1023A000DF91CF91FF90EF90DF90CF9008954AE0BA
:1023B000DF91CF91FF90EF90DF90CF900C9475114B
:1023C000CF93DF93BC01990F880B990B0E94B61134
:1023D000EC018DEC91E00E9463118C0F9D1FDF9149
:1023E000CF9108950F931F93CF93DF938C01C0E09B
:1023F000D0E0F801EC0FFD1F6491662371F0E091CD
:102400003B02F0913C020190F081E02D8BE392E0E1
:102410000995892B11F02196ECCFCE01DF91CF9158
:102420001F910F910895BC01990F880B990B0C9483
:10243000B6114F925F926F927F928F929F92AF925E
:10244000BF92CF92DF92EF92FF926B017C01B42E8C
:102450009B01AC010E94BE2D882319F08AEE91E009
:1024600027C026013701E89477F82FEF3FEF4FE7B9
:102470005FE7C301B2010E94BE2D81110DC02FEF95
:102480003FEF4FE75FE7C301B2010E949E2A181693
:102490001CF48EEE91E00CC02FEF3FEF4FE75FE4AE
:1024A000C701B6010E94B92D181684F482EF91E09D
:1024B000FF90EF90DF90CF90BF90AF909F908F9064
:1024C0007F906F905F904F900C9463112FEF3FEFD0
:1024D0004FE75FECC701B6010E949E2A87FDE6CF59
:1024E00020E030E0A901C701B6010E949E2A87FFC3
:1024F00009C08DE20E943F114C01F7FAF094F7F801
:10250000F09402C0812C912CA12C60E070E080E05E
:102510009FE3AB1441F020E030E040E251E40E9440
:10252000BD2CA394F6CF9B01AC01C701B6010E945C
:10253000512C2B013C010E94362D6B017C010E9425
:10254000A32A9B01AC01C301B2010E94502C2B01B4
:102550003C014AE0C701B6010E9475117C01E80CFC
:10256000F91CBB2029F08EE20E943F11E80EF91EF3
:10257000DB2CDD2021F120E030E040E251E4C3011A
:10258000B2010E94042B2B013C010E94362D4B010D
:10259000A12CB12C4AE0C501B4010E947511E80ECE
:1025A000F91EC501B4010E94A32A9B01AC01C3011D
:1025B000B2010E94502C2B013C01DA94DACFC70102
:1025C000FF90EF90DF90CF90BF90AF909F908F9053
:1025D0007F906F905F904F900895CF93DF9342E08C
:1025E0000E941912EC018DEC91E00E9463118C0F96
:1025F0009D1FDF91CF910895682F70E080E090E0FB
:102600004AE00C947511CF93DF930E94F211EC0114
:102610008DEC91E00E9463118C0F9D1FDF91CF9193
:102620000895CF93DF930E946311EC018DEC91E04C
:102630000E9463118C0F9D1FDF91CF9108958091AF
:102640006F03829586958770813019F480917203AB
:102650000895811105C082E793E00E94BE28089585
:1026600080E00895CF92DF92EF92FF92CF93DF93B5
:10267000D82F0E94731A6B017C0181E0D11180E098
:1026800080937003C0E00E94731AAB01BC014C1927
:102690005D096E097F09403D57406105710580F471
:1026A000C1110EC0A8950E940C2590916F039770E0
:1026B000933049F7C1E0809170038D13E3CFE3CFEE
:1026C0008C2FDF91CF91FF90EF90DF90CF90089506
:1026D000CF92EF920F93CC24CA94EE24EA940FEF9A
:1026E0002FEF40E00E946F1F0F91EF90CF90089561
:1026F000FF920F931F93CF93DF931F92CDB7DEB757
:102700008C01F62E82E092E079830E94F211C801DA
:102710000E9413128DEF91E00E94F2118F2D7981AA
:10272000972F0E94E01160912103709122031616E9
:10273000170634F4072E000C880B990B0E946813BF
:10274000209149034FEC51E06F2D802F0F90DF91C6
:10275000CF911F910F91FF900C94321FEF92FF9237
:102760000F931F93CF93DF93EC01E12CF12C8C019D
:10277000095F1F4F8091230390912403E816F90607
:102780000CF073C060912103709122031616170696
:1027900034F4072E000C880B990B0E94681385EF08
:1027A00091E00E94F2118A810E94FC1281EF91E077
:1027B0000E94F2118E810E94FC128DEE91E00E9427
:1027C000F2118C8187700E94FC1289EE91E00E94C8
:1027D000F2118D810E94FC1285EE91E00E94F211AF
:1027E0008C8182958695877011F4C80102C080E0C3
:1027F00090E00E94631181EE91E00E94F2118C81C1
:10280000829586958770823019F48F81988508C0EB
:10281000811104C0C8010E94BE2802C080E090E07F
:102820000E9413128DED91E00E94F2118C8182952D
:1028300086958770873029F46F81788589859A8598
:1028400009C0811104C0C8010E94BA2803C060E019
:1028500070E0CB010E94ED1260914903CE010E940D
:1028600001208FEFE81AF80A85CFDF91CF911F91F1
:102870000F91FF90EF9008954F925F926F927F9229
:102880008F929F92AF92BF92CF92DF92EF92FF9280
:102890000F931F93CF93DF93CDB7DEB7A3970FB6F8
:1028A000F894DEBF0FBECDBF8C0166EF71E00E94D1
:1028B000B230892B09F425C265EC71E0C8010E9491
:1028C000B230892B09F0D1C08091EF02811108C08C
:1028D0002091F0023091F1022F3F8FEF380749F538
:1028E0008EE480937C0066E470E080E090E00E94DB
:1028F000431E80917A00806480937A0080917A00F0
:1029000086FDFCCF209178003091790040E050E0C6
:1029100064EB7BE281E190E00E94E72DCA01B901FE
:102920000E94A32A20E030E04AE754E40E94BD2C34
:102930002FC0822F2E3010F082EF820F282F2770A9
:1029400090911801E0E49E9FC0011124822B809396
:102950007C0080917A00806480937A0080917A0074
:1029600086FDFCCF609178008091790070E0782B33
:10297000072E000C880B990B0E94A52A2091F202C9
:102980003091F3024091F4025091F5020E94042B21
:102990004B015C01C090E402D090E502E090E602B9
:1029A000F090E702A70196010E94502C2B013C01F8
:1029B000A70196016091E8027091E9028091EA0214
:1029C0009091EB020E94502C9B01AC01C301B2011B
:1029D0000E94BD2C20E030E048EC52E40E94042B21
:1029E0000E942F2D7B01653671052CF477FF06C000
:1029F000E12CF12C03C054E6E52EF12C85ED91E09D
:102A00000E94F21142E0C501B4010E94191281ED49
:102A100091E00E94F211C7010E94E011CE010196DF
:102A20000E94AC1E89EC8F8386E28E838C81877036
:102A300088628C838D81806E8D8388869986AA8634
:102A4000BB8682E08C87CE0101960E94AE13009176
:102A5000490320E043E06FEF80E00E944A116E2DB1
:102A60000E946B1E0E942B1F6AC16CEF71E0C801AF
:102A70000E94B230892BA1F48AEC91E00E940313EA
:102A8000B80188EF92E00E94771E0E94AE138091F9
:102A9000600088618093600088E080936000FFCFD1
:102AA00063E072E0C8010E94B230892BA9F484EC83
:102AB00091E00E9403134DE9E42EFF24F3946FEF9D
:102AC000C7010E94ED2B2FEFE21AF20A32EAE31659
:102AD00031E0F306A1F715C169E072E0C8010E9478
:102AE000B230892B19F464EE71E00CC1F801019049
:102AF0000020E9F73197E01BF10BE530F10509F013
:102B00004CC042E050E0B80181E192E00E94BB304D
:102B1000892BC9F4F8018281898383818A83848126
:102B20008B831C82CE0101960E94BE288C018EEB05
:102B300091E00E94F211C8010E94E0118CEF91E037
:102B40000E943C14FCC044E050E0B80184E192E0F3
:102B50000E94BB30892B09F0DCC0F8018481898395
:102B60001A82CE0101960E94BE2890931A03809388
:102B7000190385EB91E00E94F21180911903909165
:102B80001A030E94E01161E08DE991E00E94ED2BB3
:102B9000609119038EE991E0B2C0399709F0B9C08C
:102BA00045E050E0B80189E192E00E94BB30892BFA
:102BB00009F0AFC0F8018085282F082E000C330BD8
:102BC0003F938F938FE192E09F938F937E01F2E288
:102BD000EF0EF11CFF92EF920E94D8301BA262E22E
:102BE00072E0C7010E94B2300F900F900F900F90CB
:102BF0000F900F90892B29F410921E0310921D0341
:102C000022C064E272E0C7010E94B230892B19F43D
:102C100081E090E014C066E272E0C7010E94B23029
:102C2000892B19F482E090E00AC062E172E0C701EA
:102C30000E94B230892B09F082C083E090E090932B
:102C40001E0380931D03F8018581898386818A8311
:102C500087818B831C82CE0101960E94BE289093AF
:102C60001C0380931B038CEA91E00E94F211809177
:102C70001B0390911C030E94131288EA91E00E94AA
:102C8000F21180911D0390911E030E94E01160914A
:102C90001D0381EA91E00E94ED2B80911B0390912E
:102CA0001C038F3EF2E09F076CF4853F21E0920702
:102CB0006CF431E020E08B3F91050CF430E0E32E22
:102CC000F22E07C033E0E32EF12C03C022E0E22E07
:102CD000F12C26E02E9D50012F9DB00CBE18112422
:102CE000A80EB91E61E08DE991E00E94ED2B6A2DDE
:102CF00080EA91E00E94ED2B6E2D8FE991E00E9419
:102D0000ED2BB80188EF92E00E94771E0E94AE136F
:102D100016C068E272E0C8010E94B230892B79F4D3
:102D200081EA91E00E940313B80188EF92E00E94CB
:102D3000771E0E94AE1310921A0310921903A396E5
:102D40000FB6F894DEBF0FBECDBFDF91CF911F91BC
:102D50000F91FF90EF90DF90CF90BF90AF909F903A
:102D60008F907F906F905F904F900895CF93DF93F7
:102D7000FC0127A130A52B30310564F5EC018AE96F
:102D800091E00E94F2118FA198A50E94131286E98A
:102D900091E00E94F2118DA19EA10E94131282E97E
:102DA00091E00E94F21189A59AA50E9413128EE863
:102DB00091E00E94F2118BA59CA50E94E0112FA129
:102DC00038A5F901EE0FFF1FED5CFC4FD183C083E6
:102DD000C90100C0DF91CF910895CF92DF92EF92A9
:102DE000FF920F931F93CF93DF936C017A018B01B6
:102DF000C0E0D0E0CE15DF0589F0D8016D918D01DE
:102E0000D601ED91FC910190F081E02DC60109956C
:102E1000892B11F47E0102C02196ECCFC701DF910E
:102E2000CF911F910F91FF90EF90DF90CF90089579
:102E3000FC01918D828D981761F0828DDF01A80FC2
:102E4000B11D5D968C91928D9F5F9F73928F90E0E4
:102E500008958FEF9FEF0895FC01918D828D981753
:102E600031F0828DE80FF11D858D90E008958FEF90
:102E70009FEF0895FC01918D228D892F90E0805C59
:102E80009F4F821B91098F73992708958BE392E0DE
:102E90000E943A1721E0892B09F420E0822F08953F
:102EA000FC01848DDF01A80FB11DA35ABF4F2C91E7
:102EB000848D90E001968F739927848FA689B789B6
:102EC0002C93A089B1898C9180648C93938D848D8F
:102ED000981306C00288F389E02D80818F7D80835E
:102EE0000895EF92FF920F931F93CF93DF93EC011E
:102EF00081E0888F9B8D8C8D981305C0E889F989B6
:102F0000808185FD24C0F62E0B8D10E00F5F1F4FD2
:102F10000F731127E02E8C8DE8120CC00FB607FC42
:102F2000FACFE889F989808185FFF5CFCE010E942B
:102F30005017F1CF8B8DFE01E80FF11DE35AFF4FC3
:102F4000F0820B8FEA89FB898081806207C0EE895D
:102F5000FF896083E889F98980818064808381E0CA
:102F600090E0DF91CF911F910F91FF90EF90089526
:102F7000CF93DF93EC01888D8823C9F0EA89FB8920
:102F8000808185FD05C0A889B9898C9186FD0FC017
:102F90000FB607FCF5CF808185FFF2CFA889B989EC
:102FA0008C9185FFEDCFCE010E945017E7CFDF91C6
:102FB000CF91089580E090E0892B29F00E94461778
:102FC00081110C94000008953FB7F8948091FE039E
:102FD0009091FF03A0910004B091010426B5A89B35
:102FE00005C02F3F19F00196A11DB11D3FBFBA2F9B
:102FF000A92F982F8827820F911DA11DB11DBC01FB
:10300000CD0146E0660F771F881F991F4A95D1F7BB
:10301000089508950E94AD309091D6039111FCCF90
:10302000613208F060E291E09093D6039093D5036B
:103030002FEF2093D4031092D303260F2093D203B3
:103040009093D1039091D103880F892B8093D10362
:103050008091D003813061F41092D0038091D1032C
:103060008093BB008091BC0083FDF8CF85EC01C04C
:1030700085EE8093BC008091D6038130E1F380918E
:10308000D303861710F46091D303A0EBB3E029EDCE
:1030900033E0F9018E2F821B861718F48D918193EE
:1030A000F9CF1092D8036093D703862F089520910B
:1030B000AF039091AE03213208F04AC08091D6034D
:1030C0008111FCCF32E03093D60331E03093D50349
:1030D0003FEF3093D4031092D3032093D203AEE892
:1030E000B3E040EB53E0FA013E2F341B321718F4E3
:1030F0003D913193F9CF1092D1032091D103990FD3
:10310000922B9093D1039091D003913061F410925F
:10311000D0039091D1039093BB009091BC0093FD9C
:10312000F8CF95EC01C095EE9093BC009091D6033A
:103130009230E1F39091D4039F3F79F08091D403D2
:10314000803241F08091D403803331F084E005C0B7
:1031500081E003C082E001C083E010928D031092F1
:10316000AF0310928C030895E5E3F3E021E030E033
:1031700081919191892B41F02F5F3F4F2B30310589
:10318000B9F78AE090E00895C90108951F920F925F
:103190000FB60F9211242F933F934F935F936F932A
:1031A0007F938F939F93AF93BF93EF93FF938BE3A3
:1031B00092E00E945017FF91EF91BF91AF919F91C4
:1031C0008F917F916F915F914F913F912F910F90D0
:1031D0000FBE0F901F9018951F920F920FB60F926F
:1031E00011242F938F939F93EF93FF93E0914B02C2
:1031F000F0914C028081E0915102F091520282FDE7
:1032000012C09081809154028F5F8F73209155027C
:10321000821751F0E0915402F0E0E55CFD4F958F8C
:103220008093540201C08081FF91EF919F918F9113
:103230002F910F900FBE0F901F901895833081F043
:1032400028F4813099F08230A1F008958730A9F0F8
:103250008830B9F08430D1F4809180008F7D03C034
:10326000809180008F7780938000089584B58F7758
:1032700002C084B58F7D84BD08958091B0008F77A2
:1032800003C08091B0008F7D8093B00008951F939C
:10329000CF93DF93282F30E0F901EA5BFD4F849153
:1032A000F901EE5CFD4FD491F901E25EFD4FC4914E
:1032B000CC23C9F0162F81110E941E19EC2FF0E0CB
:1032C000EE0FFF1FEC5EFD4FA591B4918FB7F89400
:1032D000111105C09C91ED2FE095E92302C0EC91FE
:1032E000ED2BEC938FBFDF91CF911F910895CF927B
:1032F000DF92EF92FF921F93CF93DF93EC01162F93
:1033000089858F3FE9F5888191E090938C038093C4
:10331000AE0310928D031092AF0388ED92E00E94ED
:1033200020210E94571863E088810E940C1888EDC4
:1033300092E00E94D4206C01990FEE08FF08FE2C49
:10334000ED2CDC2CCC2488ED92E00E94D420AC0142
:10335000990F660B770BC42AD52AE62AF72AFE2C8A
:10336000ED2CDC2CCC2488ED92E00E94D420AC0122
:10337000990F660B770BC42AD52AE62AF72A33C0A1
:103380008C858F3F21F480E591E00E94C91E60E0AA
:1033900089850E944719612F6068CE010E946321D0
:1033A00060E0CE010E946321C82ED12CE12CF12CCB
:1033B000FE2CED2CDC2CCC2460E0CE010E9463219D
:1033C000C82AFE2CED2CDC2CCC2460E0CE010E941F
:1033D0006321C82A61E089850E9447198C858F3F47
:1033E00011F40E94C11EC701B601DF91CF911F9158
:1033F000FF90EF90DF90CF900895CF93DF9390E010
:10340000FC01EE5CFD4F2491FC01E25EFD4F8491D6
:10341000882361F190E0880F991FFC01E65FFD4F62
:10342000C591D491FC01EC5EFD4FA591B491611161
:1034300009C09FB7F8948881209582238883EC91F6
:103440002E230BC0623061F49FB7F8943881822F2D
:10345000809583238883EC912E2B2C939FBF06C0ED
:103460008FB7F894E8812E2B28838FBFDF91CF91FF
:1034700008958F929F92AF92BF92CF92DF92EF9278
:10348000FF926B017C010E94E4174B015C01C114A7
:10349000D104E104F104F1F00E94E417DC01CB0156
:1034A00088199909AA09BB09883E9340A105B1056D
:1034B00070F321E0C21AD108E108F10888EE880E05
:1034C00083E0981EA11CB11CC114D104E104F104D5
:1034D00019F7DDCFFF90EF90DF90CF90BF90AF90C6
:1034E0009F908F9008952FB7F8946091FA03709190
:1034F000FB038091FC039091FD032FBF08951F9261
:103500000F920FB60F9211242F933F938F939F9397
:10351000AF93BF938091FA039091FB03A091FC03BA
:10352000B091FD033091F90320E3230F2D3720F4F0
:103530004096A11DB11D05C023EB230F4196A11D8F
:10354000B11D2093F9038093FA039093FB03A0939A
:10355000FC03B093FD038091FE039091FF03A091C3
:103560000004B09101040196A11DB11D8093FE03DA
:103570009093FF03A0930004B0930104BF91AF9117
:103580009F918F913F912F910F900FBE0F901F90A1
:1035900018951F920F920FB60F9211242F933F93FD
:1035A0004F935F936F937F938F939F93AF93BF934B
:1035B000EF93FF93E0911B01F0911C010995FF919E
:1035C000EF91BF91AF919F918F917F916F915F919B
:1035D0004F913F912F910F900FBE0F901F90189514
:1035E0001F920F920FB60F9211242F933F934F9378
:1035F0005F936F937F938F939F93AF93BF93EF935B
:10360000FF93E0911901F0911A010995FF91EF9153
:10361000BF91AF919F918F917F916F915F914F91EA
:103620003F912F910F900FBE0F901F9018958230F1
:1036300078F4813011F0E89801C0E998E82FF0E0C3
:10364000EE0FFF1FE75EFE4F89E098E191838083D4
:1036500008958230E8F4E82FF0E0EE0FFF1FE75EF8
:10366000FE4F71836083813041F0809169008C7FCF
:10367000482B40936900E89A089580916900440FAF
:10368000551F440F551F837F482B40936900E99ACB
:1036900008958F929F92AF92BF92CF92DF92EF9256
:1036A000FF920F931F93CF93DF93EC016AEF0E9479
:1036B00077196115710520E88207910509F46FC03B
:1036C0000D851E8520E030E0C72ED82EE92EFF2480
:1036D000E7FCFA94C01AD10AE20AF30AAB01BC0172
:1036E000E7E07595679557954795EA95D1F7000FEF
:1036F000111F221F331FDB01CA01801B910BA20B7C
:10370000B30B9C01AD01AF85B8890E94102E4B010F
:103710005C01ABE0B594A79497948794AA95D1F7F0
:10372000A7019601C701B6010E94C32D9B01AC0100
:10373000BCE05595479537952795BA95D1F7A98956
:10374000BA890E94102EAB01BC011EE075956795E9
:10375000579547951A95D1F79A01AB01280D391D58
:103760004A1D5B1D2D833E834F835887A5E0B0E043
:103770000E94FF2BDC01CB0180589F4FAF4FBF4F02
:10378000692F7A2F8B2F992787FD9A950E94A52A5A
:1037900020E030E048EC52E40E94BD2C04C060E020
:1037A00070E080EC9FE7DF91CF911F910F91FF9028
:1037B000EF90DF90CF90BF90AF909F908F90089543
:1037C0002F923F924F925F926F927F928F929F9231
:1037D000AF92BF92CF92DF92EF92FF920F931F931F
:1037E000CF93DF93CDB7DEB7A4970FB6F894DEBFC3
:1037F0000FBECDBF9CA38BA30E94491B67EF8BA17B
:103800009CA10E94771969877A878B879C876115AD
:1038100071058048910509F40FC2EBA1FCA18581D7
:103820009681A781B0856C017D01FF0CCC08DC2C52
:1038300076019C01AD016C2D7C2D8C2D9C2D345F6F
:1038400041405109610971098109910929833A832C
:103850004B835C836D837E838F83988759016A01D4
:103860007B018C010E94182E288F398F4A8F5B8F25
:103870006C8F7D8F8E8F9F8FABA1BCA15D96BC910D
:10388000B8A3EBA1FCA1F68DFD87ABA1BCA15B9613
:10389000BC91B9A3EBA1FCA1F48DFE87ABA1BCA1A7
:1038A0005996BC91BAA3EBA1FCA1F28DFF87ABA105
:1038B000BCA15696BC9056975596AC901B2D110FF7
:1038C000110BC12ED12EE12EF12E012F29813A812B
:1038D0004B815C816D817E818F8198850E94182E3D
:1038E0000CE00E94112F19012A013B014C01EBA1B0
:1038F000FCA1B08CA7881B2D110F110BC12ED12E4E
:10390000E12EF12E012F288D398D4A8D5B8D6C8D26
:103910007D8D8E8D9F8D0E94182E08E00E942A2F8B
:1039200051016201730184010E94482F70588F4F2A
:103930009F4FABA1BCA153962D903C905497510141
:10394000C12CD12CE12CF12C00E010E00E94182EAB
:1039500001E20E942A2F288B398B4A8B5B8B6C8B60
:103960007D8B8E8B9F8BA0E00E945A2F09F469C13A
:10397000A8A01D85110F110BBD84C12ED12EE12EE3
:10398000F12E012F288D398D4A8D5B8D6C8D7D8DAB
:103990008E8D9F8D0E94182E19012A013B014C012A
:1039A000A9A01E85110F110BBE84C12ED12EE12EB0
:1039B000F12E012F29813A814B815C816D817E81BD
:1039C0008F8198850E94182E01E10E94112F5901C4
:1039D0006A017B018C019101A201B301C4010E9423
:1039E000482F19012A013B014C0149855A856B85F5
:1039F0007C8584E075956795579547958A95D1F7AD
:103A000080E090E0A0E1B0E0841B950BA60BB70B23
:103A10006C017D01FF0CCC08DC2C76019C01AD0112
:103A20006C2D7C2D8C2D9C2D0FE10E94112FF90106
:103A3000B42FA52F6D837E838B839C832AA19F85C2
:103A4000990F990B3F85492F592F692F792F892F6E
:103A500003E20E94112F59016A017B018C0191013F
:103A6000A201B301C4010E94482F59016A017B01E0
:103A70008C019F014B2F5A2F6D817E818B819C8100
:103A80000E94512F4901542E652EB62FA72FF82FD3
:103A9000E92F03E00E94112F5401C52CD62CEB2EE8
:103AA000FA2E0F2F1E2F0E94512F59016A017B0100
:103AB000782E192F03E00E94112F072D0E94512FFD
:103AC00003E00E94112F5401C52CD62CEB2EFA2EA8
:103AD0000F2F1E2F0E94512F02E00E94112F0F2F37
:103AE0000E94512F01E00E94112F0F2F0E94512F91
:103AF000A888B988CA88DB88EC88FD880E891F8968
:103B00000E94732E29833A834B835C836D837E836B
:103B10008F8398870DE00E942A2F922E832E742E79
:103B2000652E562E472E382E292EEBA1FCA134A14E
:103B300023A1932F990F990BA92CB82CC72CD62C05
:103B4000E52CF42C032D122D492F592F692F792F95
:103B5000892F0E94182E0E94182E09E10E942A2FF8
:103B600059016A017B018C0129813A814B815C8179
:103B70006D817E818F8198850E94482F19012A01CD
:103B80003B014C01ABA1BCA192963C9192979196BE
:103B90002C91932F990F990BA980BA80CB80DC8050
:103BA000ED80FE800F811885492F592F692F792FBD
:103BB000892F0E94182E03E10E942A2F59016A01C1
:103BC0007B018C019101A201B301C4010E94482F25
:103BD00008E00E942A2F522E632E742E852E962ED8
:103BE000F72FE82F492EABA1BCA190963C9190975E
:103BF0005F962C91932F990F990B492F592F692F6D
:103C0000792F892F04E00E94112F59016A017B014D
:103C10008C01252D362D472D582D692D7F2F8E2F68
:103C2000942D0E94482F0E94652D20E030E040E84E
:103C30005BE30E94042B08C060E070E080EC9FE72B
:103C400003C060E070E0CB01A4960FB6F894DEBF2D
:103C50000FBECDBFDF91CF911F910F91FF90EF90DD
:103C6000DF90CF90BF90AF909F908F907F906F909C
:103C70005F904F903F902F9008950E94CA219827FF
:103C80008927982708958F929F92AF92BF92CF92E3
:103C9000DF92EF92FF926B017C010E94731A4B013D
:103CA0005C010E94731ADC01CB0188199909AA09E9
:103CB000BB098C159D05AE05BF0520F4A8950E9493
:103CC0000C25EFCFFF90EF90DF90CF90BF90AF909B
:103CD0009F908F900895FC01838187708860838313
:103CE00084818F71806284836783CF0108950F93ED
:103CF0001F93CF93DF93EC016115710561F0FB0118
:103D000001900020E9F73197E61BF70BE931F10547
:103D100018F0E9E101C0E0E00E2F10E0C80123E057
:103D2000880F991F2A95E1F79B819770892B8B83C8
:103D30008C818F718C83EE2329F0A801CE01079628
:103D40000E94C930FE01E00FF11F1782CE01DF9102
:103D5000CF911F910F910895CF93DF93FC011082B3
:103D600011821282148215821682DC0117968AE172
:103D7000ED0119928A95E9F782E08383DF91CF9173
:103D8000089508958EBD00000DB407FEFDCF8EB5D9
:103D900008958CBD9DBD0895CF92DF92EF92FF9262
:103DA0000F931F93CF93DF93C82F7B01142F022F04
:103DB00080E591E00E94C91E2A988C2F0E94C21EA5
:103DC000E7011123A9F0002349F08FEF0E94C21EE2
:103DD000E114F10459F08883219608C06E018FEF39
:103DE000C81AD80A88810E94C21EE6011150E9CF84
:103DF0002A9ADF91CF911F910F91FF90EF90DF9062
:103E0000CF900895CF93DF931F92CDB7DEB769832C
:103E100020E041E0BE016F5F7F4F0E94CC1E0F90FB
:103E2000DF91CF91089529986CE080E20C94021FF5
:103E30006FE080E20E94021F60911D016F3F19F048
:103E40008AE20E94021F299A089520E040E060E083
:103E500070E00C94CC1E20910C0422FD0C94502494
:103E600080E008950F93CF93DF938F3F11F0EA0125
:103E700002C0CFE2D2E0022F262F40E0682F80E080
:103E80000E944A11BE010E94771EDF91CF910F91CF
:103E90000C942B1FCF92DF92EF92FF920F93082F7B
:103EA0000E94BC266B017C0126E143E06FEF80E0BD
:103EB0000E944A11FC0184818F71806A848383810E
:103EC000877080628383C782D086E186F286CF01C5
:103ED0000F91FF90EF90DF90CF900C942B1F4F929B
:103EE0005F926F927F928F929F92AF92BF92CF928A
:103EF000DF92EF92FF920F931F93CF93DF934B01CB
:103F00005C01142FC22FD02EDE2D80910C0482FD77
:103F10001BC00E94731A2B013C0180E090E0DC0181
:103F200020910C0422FD55C088159905AA05BB05F2
:103F300008F055C0803127E29207A105B105E8F1EC
:103F4000881A990AAA0ABB0A112349F080E00E9444
:103F50004A1F64EF71E080E090E00E94431E0E94DF
:103F6000131F80E090E0892B21F08EE090E00E940A
:103F70000000CF3F79F085017401DF3F19F02C2D4F
:103F80004D2F02C020E04FEF6D2D8C2F0E94850A2F
:103F9000C82F09C0DF3F31F4C501B4010E948C096C
:103FA000CFEF01C0CEEF80E090E0892B21F08FE0D1
:103FB00090E00E9400008C2F13C0A8950E940C2551
:103FC0000E94731ADC01CB0184199509A609B7096F
:103FD000A7CF88159905AA05BB0508F4B1CF8EEFC8
:103FE000DF91CF911F910F91FF90EF90DF90CF90D5
:103FF000BF90AF909F908F907F906F905F904F9009
:104000000895FC01962F8091380281836481607F3E
:10401000262F216088E0989FB0011124622B6483D1
:104020008091370280FF03C0CF010C942B1F80E0EA
:1040300008950F93CF9380E090E0892B21F08CE0DE
:1040400090E00E94000000E02FE043E06FEF80E08E
:104050000E944A116FEC71E00E94771E80914D031F
:104060008770806180934D0380914E038F71806CC7
:1040700080934E0381E080935103109252038AE4AF
:1040800093E00E942B1F8FE00E94321320E04FEC40
:1040900051E061E18FEF0E94321FC091390226E0AA
:1040A00043E06FEF80E00E944A116C2F0E946B1E6C
:1040B0000E942B1F86E00E943213CF910F910C9427
:1040C000B00D0F93CF938091370281FD28C00E94DD
:1040D000192080E090E0892B21F089E090E00E9497
:1040E000000080913702816080933702C4E000E0D5
:1040F0002AE143E06FEF80E00E944A1162E00E94F3
:104100006B1E0E942B1F8BE10E943213811102C093
:10411000C15069F780913702826080933702CF9156
:104120000F91089585ED8093BC008091BC0084FDC3
:10413000FCCF1092D603089540913404262F30E02E
:10414000240F311D21323105DCF42091D6032430B7
:10415000C9F4FC0180E090E0861758F430913404F3
:104160002191DC01AE5EBB4FA30FB11D2C930196D4
:10417000F3CF80913404680F6093340480E0089595
:1041800081E0089582E008950895E091D803809138
:10419000D703E81730F4F0E0E752FC4F808190E05D
:1041A00008958FEF9FEF08959091D8038091D703E2
:1041B000981750F4E92FF0E0E752FC4F208130E0EF
:1041C0009F5F9093D80302C02FEF3FEFC90108957E
:1041D0008091D70390E02091D803821B9109089524
:1041E000CF92DF92EF92FF920F931F93CF93DF93C3
:1041F0007C01262F972F8A0180918C03882391F0D0
:10420000C62FD72F6E01C40ED51ECC15DD0571F05B
:104210006991D701ED91FC910190F081E02DC701EA
:104220000995F3CF642F822F0E949C20C801DF9153
:10423000CF911F910F91FF90EF90DF90CF90089555
:10424000CF93DF931F92CDB7DEB7698320918C03A4
:104250002223D1F02091AF03203240F021E030E062
:10426000FC013383228380E090E015C080918D03B0
:10427000E82FF0E0E257FC4F998190838F5F8093A5
:104280008D038093AF0305C061E0CE0101960E94CB
:104290009C2081E090E00F90DF91CF910895CF9323
:1042A000DF93CFE2D3E0688379838A839B838AE5B7
:1042B00092E00E94F211688179818A819B81DF916D
:1042C000CF910C94B611AF92BF92CF92DF92EF9242
:1042D000FF920F931F93CF93DF93EC01862F9C8562
:1042E0009F3F61F4DF91CF911F910F91FF90EF906D
:1042F000DF90CF90BF90AF900C94C21ED62E07E0F7
:1043000010E0B12CEE24E394F12CBB0C60E08C8522
:104310000E944719B701002E01C0660F0A94EAF700
:104320006D218A850E94471961E08C850E9447199A
:104330002B8530E0F901EA5BFD4F8491F901EE5CD9
:10434000FD4FA490F901E25EFD4FC490CC2071F0C6
:1043500081110E941E19EC2DF0E0EE0FFF1FEE59A7
:10436000FD4FA591B491EC91AE2281F40150110959
:1043700008F0CBCF8B2DDF91CF911F910F91FF9044
:10438000EF90DF90CF90BF90AF9008958B2D81601C
:10439000B82EECCF0F931F93CF93DF938C01C62FD2
:1043A000FC0181858F3F29F5808191E090938C03FA
:1043B0008093AE0310928D031092AF0388ED92E0CC
:1043C0000E9420210E94571862E0F80180810E941B
:1043D0000C1888ED92E00E94D420C82F88ED92E05E
:1043E0000E94D42020E030E03C2FE901C82BD92BDB
:1043F0002CC0F80184858F3F21F480E591E00E9474
:10440000C91E60E0F80181850E9447196C2F606821
:10441000C8010E94632160E0C8010E946321C82F87
:1044200060E0C8010E9463212C2F30E0322F222748
:10443000E901C82B61E0F80181850E944719F80164
:1044400084858F3F11F40E94C11ECE01DF91CF9170
:104450001F910F9108951F93CF93DF93EC01162FB7
:1044600089858F3FD1F4888191E090938C0380936C
:10447000AE0310928D031092AF0388ED92E00E947C
:1044800020210E94571861E088810E940C1888ED55
:1044900092E00E94D420182F1EC08C858F3F21F4FB
:1044A00080E591E00E94C91E60E089850E9447195D
:1044B000612F6068CE010E94632160E0CE010E94FE
:1044C0006321182F61E089850E9447198C858F3FF1
:1044D00011F40E94C11E812FDF91CF911F91089589
:1044E0000F931F93CF93DF93EC01162F042F898531
:1044F0008F3FC9F4888191E090938C038093AE0341
:1045000010928D031092AF0388ED92E00E9420215B
:10451000602F88ED92E00E942021DF91CF911F91C2
:104520000F910C9457188C858F3F21F480E591E012
:104530000E94C91E60E089850E944719612F6F772C
:10454000CE010E946321602FCE010E94632161E0B1
:1045500089850E9447198C858F3F31F4DF91CF9177
:104560001F910F910C94C11EDF91CF911F910F915C
:1045700008951F920F920FB60F9211242F933F931D
:104580004F935F936F937F938F939F93AF93BF935B
:10459000EF93FF938091B900887F803609F49CC027
:1045A00068F5883209F45BC090F4803109F454C096
:1045B00038F4882309F4F6C0883009F44DC0F6C0F9
:1045C000883109F44CC0803209F45DC0EFC08034FA
:1045D00009F468C048F4803309F455C0883309F001
:1045E000E5C08093D403D8C0803509F44FC0883526
:1045F00009F45DC0883409F0D9C0D6C0883909F4FF
:10460000C7C0A8F4883709F467C038F4883609F4BD
:1046100063C0803709F460C0C9C0883809F4B8C0E5
:10462000803909F45FC0803809F0C0C05BC0803BAE
:1046300009F486C038F4803A09F466C0883A09F46F
:104640007FC0B4C0803C09F4A7C0883C09F4A4C072
:10465000883B09F48AC0AAC08091D10310C0909110
:10466000D3038091D203981770F5E091D30381E0D2
:104670008E0F8093D303F0E0E055FC4F8081809350
:10468000BB0085EC86C08093D4038EC0E091D30339
:1046900081E08E0F8093D3038091BB00F0E0E05562
:1046A000FC4F80839091D3038091D2036EC0E09140
:1046B000D30381E08E0F8093D3038091BB00F0E0A1
:1046C000E055FC4F80838091D50381116DC081E05E
:1046D0008093D00384EA61C083E08093D603109274
:1046E0005804CFCF80915804803208F051C0E09137
:1046F000580481E08E0F809358048091BB00F0E055
:10470000E85CFB4F8083BDCF85EC8093BC001092AA
:10471000D60380915804803230F4E0915804F0E0E0
:10472000E85CFB4F10826091580470E0E091360421
:10473000F091370488E394E009951092580436C04C
:1047400084E08093D6031092350410923404E091F3
:104750003204F0913304099580913404811105C02D
:1047600081E08093340410921204E091350481E0DA
:104770008E0F80933504F0E0EE5EFB4F80818093D6
:10478000BB009091350480913404981708F479CFD8
:1047900085E88093BC000AC085EC8093BC00109231
:1047A000D60304C01092D4030E949220FF91EF918F
:1047B000BF91AF919F918F917F916F915F914F9139
:1047C0003F912F910F900FBE0F901F901895CF9390
:1047D000CFB7F89480911104811127C0E8E2F2E08C
:1047E0008491ECE3F2E09491E82FF0E0EE0FFF1FEC
:1047F000E65FFD4FA591B491EC91E92321F461E0CE
:104800008AE00E94471961E08AE00E94FD198CB598
:1048100080618CBD8CB580648CBD61E08DE00E94B0
:10482000FD1961E08BE00E94FD19809111048F5FFA
:1048300080931104CFBFCF91089580910C048460C0
:1048400080930C0480910D04807880930D04E09196
:104850000F04F0911004309709F0099408958091A5
:104860000D04982F9077903759F0982F92959F705C
:104870009F5F97709295907F8F78892B80930D041E
:1048800080910C048B7F8F7E80930C0480E090E0FD
:10489000892B21F087E690E00E9400000C94131F02
:1048A0000F931F93CF93DF93FC01828190910C04AF
:1048B00090FF04C08F3F09F04FC005C08F3F19F033
:1048C000D091390201C0DFEF8091380280834381AB
:1048D00042FD06C0469546954695C7E0C40F01C007
:1048E000C0E28F0180E090E0892B21F080E090E031
:1048F0000E94000029988BE190E00197F1F76EE0AB
:1049000080E20E94021F83E190E00197F1F76D2F92
:104910008AE20E94021F6D2F80E30E94021F81EE37
:104920000E94251FDF3F11F080EA01C080EB4C2F71
:10493000C13208F040E220E0B8010E94CC1E299A62
:1049400000E010E08FEF0E94251FC82F807331F424
:1049500001501109B9F702C0C0E02FC0299860E3E7
:1049600087E20E94021FC4FF03C081EE0E94251F40
:104970000E94181FC5FBCC27C0F991E0DF3F09F06A
:1049800090E0C92B80913902D81317C0C11110C013
:1049900080E090E0892B21F085E690E00E94000005
:1049A00080910D0491E0980F9F70807F892B03C048
:1049B00080910D04807F80930D048C2FDF91CF9127
:1049C0001F910F910895CF93C82F8FEF8C0F8E3FBB
:1049D000A8F4C0933802C0931D0163E082E20E94F4
:1049E000021F61E081E20E94021F0E94181F6C2FCB
:1049F00080E090E00E94ED2B81E00CC080E090E030
:104A0000892B21F08EE690E00E9400008FEF8093CA
:104A1000380280E0CF910895CF92DF92EF92FF921B
:104A20000F931F93CF93DF93E0910204F09103045F
:104A30000280F381E02D309709F0099580910C04F4
:104A400084FBDD24D0F884FF8EC116E080E0E82EE0
:104A500080E0F82E91E2C92E21E041E060E070E0B4
:104A600087E10E94CC1E80FD7EC1115009F47BC1FC
:104A7000E114F10421F081E090E00E94000021E0C7
:104A800041E060E070E080E60E94CC1E082F813299
:104A900020F082EE0E94251F00E021E0402F6BE60F
:104AA00073E081E60E94CC1E60E487E20E94021F50
:104AB00090916E03292F2695269526952A3108F088
:104AC00029E192FD03C037E0320F01C030E250917E
:104AD0006F03C0917003D0916C0380916B03409180
:104AE0006D03031739F0E114F10409F4B5CF8CE636
:104AF00090E00AC0392F3370323049F0E114F104EC
:104B000009F4AACF8DE690E00E940000A5CF052F02
:104B1000077030910D04306830930D0430913802E5
:104B2000431344C030E0B901E3E0660F771FEA9514
:104B3000E1F79770962B90936E03F901E559FC4FBE
:104B4000178253FF17C0EBE6F3E0AAE4B3E08C2D25
:104B500001900D928A95E1F780914E03877F8061E5
:104B600080934E0340934B03D0934C038AE493E02D
:104B70000E942B1F80916F0384FD13C0033089F4C2
:104B80009091700321EF290F233008F040C064CFCB
:104B9000913009F4C9C09A3009F45ECF9C3109F410
:104BA0005BCF8BE693E00E94D80B56CF4F3F09F0C6
:104BB00053CF033039F590910C0492FF03C0C730F6
:104BC00009F44ACFC83009F447CFC43109F044CFC3
:104BD00090913902891340CF0E94731A737088270D
:104BE00099270E94391AC091390200E025E143E07B
:104BF0006FEF8D2F0E944A116C2F0E946B1E0E9436
:104C000050242ACF90913902891326CFCACFC430BD
:104C100029F40E941F130E94E3241ECFC830D1F450
:104C2000C0910C04C0FF18CF0E941F138F3F09F4DE
:104C300013CF91E0980F9F3F09F40ECF80913A0275
:104C4000981708F009CFC1FD07CF90933A02D0938F
:104C5000390202CFC83149F400E029E143E06FEFA7
:104C60008D2F0E944A1161E0C8CFC93161F4809153
:104C70000C0483FFF1CE877F80930C040E941F13E6
:104C800080930E04E9CE20916C03211168C09D3001
:104C900099F480E090E0892B21F08BE090E00E9475
:104CA000000098E088E10FB6F894A8958093600022
:104CB0000FBE90936000FFCF9B3199F40E941F13A9
:104CC00091E0811101C090E08091370290FB80F962
:104CD00080933702E114F10409F4BECE8AE090E03B
:104CE00013CF9630A9F490917203992329F081E0B3
:104CF0009D3419F080E001C08D2D8093360241E093
:104D000050E063E071E086E392E00E94DD2BA4CEE8
:104D1000933119F40E9419209FCE923109F038CFB7
:104D200080E00E944A1F98CE8295869587708530D4
:104D300049F46091720370917303809174039091B0
:104D400075030AC0811105C082E793E00E94DC2848
:104D500003C060E070E0CB010E944F217DCE9A310C
:104D600009F01FCF79CEDF91CF911F910F91FF9066
:104D7000EF90DF90CF9008950F931F930E94731AC6
:104D80000091040410910504209106043091070459
:104D9000601B710B820B930B1F910F9108959C0167
:104DA00080910204909103048217930751F090912F
:104DB0000C049F7190930C0430930304209302041D
:104DC00005C080910C04805E80930C04E091020485
:104DD000F09103040190F081E02D309709F00995DE
:104DE0000E94731A60930404709305048093060470
:104DF0009093070408950F931F930E94BC2620915F
:104E00000D042077203729F000E117E220E030E0A0
:104E100004C000E61AEE20E030E006171707280766
:104E2000390730F48EE191E01F910F910C94CF2659
:104E30001F910F91089580910D048F70863020F09E
:104E400082E291E00C94CF260895EF92FF920F93A7
:104E50001F93CF93DF93CDB7DEB7A1970FB6F8942A
:104E6000DEBF0FBECDBFEBE3F2E01382128288EE0D
:104E700093E0A0E0B0E084839583A683B7832EE718
:104E800031E03183208325EC30E03587248724EC22
:104E900030E03787268720EC30E0318B208B21EC07
:104EA00030E0338B228B22EC30E0358B248B26ECE8
:104EB00030E0378B268B118E128E138E148EE8ED18
:104EC000F2E01382128284839583A683B7838EE8EF
:104ED00091E0918380838BE693E00E94AC1E8AE48C
:104EE00093E00E94AC1E04EE12E086E696E6A6E28F
:104EF000B0E4F80180839183A283B38383E393E3D7
:104F0000A3E5B0E484839583A683B7838AE090E029
:104F10009187808781E082878387EE24EA94FE2C44
:104F2000F586E48689E097E6ACE5BBE3868797875C
:104F3000A08BB18B138A128A88EF92E00E94AC1E7C
:104F4000D801D6961C921E92D597D8961C921E9286
:104F5000D79781E090E0DA969C938E93D997DC9670
:104F6000FC92EE92DB971092220310922103909311
:104F70002403809323038FEF90E090932603809384
:104F800025039093280380932703F0922A03E0924D
:104F90002903F0922C03E0922B03F0922E03E0926F
:104FA0002D038FEF9FEFDC0180932F03909330034D
:104FB000A0933103B093320386E1E3E3F3E0DF0132
:104FC0001D928A95E9F710924903CE0101960E943D
:104FD000AC1E88EC8F8380E38E8381E2FE013196E4
:104FE000A8EFB2E001900D928A95E1F7A1960FB675
:104FF000F894DEBF0FBECDBFDF91CF911F910F910F
:10500000FF90EF900895789484B5826084BD84B554
:10501000816084BD85B5826085BD85B5816085BDB3
:1050200080916E00816080936E001092810080916B
:1050300081008260809381008091800081608093F4
:1050400080008091B10084608093B1008091B000B5
:1050500081608093B00080917A008B7F80937A008A
:1050600080917A00826080937A0080917A008160DA
:1050700080937A0080917A00806880937A00109201
:10508000C100A89580E090E0892B11F00E940000FB
:10509000E0914B02F0914C0282E08083E091470264
:1050A000F09148021082E0914902F0914A028CE0AE
:1050B000808310925302E0914F02F091500286E0FB
:1050C0008083E0914D02F0914E0280818061808367
:1050D000E0914D02F0914E02808188608083E091E2
:1050E0004D02F0914E02808180688083E0914D02F4
:1050F000F0914E0280818F7D8083809137028D7F79
:10510000809337020E94190E41E050E063E071E0A5
:1051100086E392E00E94C52B6FEF81E090E00E9451
:10512000ED2B80910D048F7880930D041092030471
:10513000109202048EE191E00E94CF2681E690E277
:105140009093100480930F040E94731A0E94731AA4
:105150000E940C25A89580910C0482FFF7CF0E9435
:10516000820DA895A8950E940C250E94380C0E94DB
:10517000DA17F8CF662777270C942029FC018827B7
:105180009927E89421912032E9F3293010F02E304C
:10519000C8F32B3241F02D3239F4689404C00E94D8
:1051A0001829820F911D219120532A30C0F31EF43B
:1051B000909581959F4F08951F93FC01992788270B
:1051C000BC01E89411911032E9F3193010F01E304F
:1051D000C8F31B3251F01D3249F4689406C00E9496
:1051E0000329610F711D811D911D119110531A30FA
:1051F000B0F33EF490958095709561957F4F8F4FF9
:105200009F4F1F910895592F482F372F262F660F34
:10521000771F881F991F660F771F881F991F620FBE
:10522000731F841F951F660F771F881F991F08958E
:105230007AE0979F902D879F802D910D11240895DE
:10524000A0E0B0E0E6E2F9E20C940E2CEC017B0168
:105250006115710519F0DB018D939C938E010F5F31
:105260001F4F7880872D90E00E947D2A892B11F0B6
:10527000E801F4CFBDE27B1205C00F5F1F4F7980BC
:10528000C1E008C0EBE27E1204C08E010E5F1F4F2A
:105290007980C0E06801F1E0CF1AD10843E050E026
:1052A00060E770E0C6010E94862A892BF1F468014C
:1052B00022E0C20ED11C45E050E06BE670E0C60172
:1052C0000E94862A892B21F4680187E0C80ED11C30
:1052D000E114F10419F0D701CD92DC92C111FFC0A5
:1052E00060E070E080E89FE703C143E050E068E6DB
:1052F00070E0C6010E94862A892B51F4E114F10462
:1053000009F4F2C00E5F1F4FF70111830083ECC058
:10531000680160E070E0CB0100E010E0F601D0ED44
:10532000D70DDA3058F52C2F2260622E2C2F2870E2
:10533000C2FF05C0211128C00F5F1F4F25C02223C7
:1053400011F001501109A5E0B0E09B01AC010E94F1
:10535000FF2B4B015C01880C991CAA1CBB1CC501CE
:10536000B4016D0F711D811D911D6839A9E97A077E
:105370008A07A9E19A0740F0C66005C0DE3F51F4F4
:10538000C3FD44C0C8606C2EBFEFCB1ADB0A70802F
:10539000C62DC4CF2D2F2F7D2531C1F540814D3233
:1053A00011F4C06106C04B3221F0319621E030E0AB
:1053B00006C03296D60111964C9122E030E0A0ED65
:1053C000A40FAA3018F0E21BF30B20C040E050E01D
:1053D0004038BCE05B075CF49A01220F331F220FB8
:1053E000331F420F531F440F551F4A0F511D319653
:1053F000DF0111972C91A0EDA20FAA3048F3C4FF52
:1054000003C0519541955109040F151FC1FF07C0F5
:10541000E114F10421F03197D701ED93FC930E9440
:10542000A32AC370C33019F06B017C0106C06B0165
:105430007C01F7FAF094F7F8F09420E030E0A9014D
:10544000C701B6010E949E2A882309F445C017FFB0
:1054500006C0119501951109C7E8D0E002C0CFE957
:10546000D0E05E01B8E1AB1AB1084601BE2DAF2D08
:1054700090E2E92EF12C0E151F0584F0FE01259116
:10548000359145915491B4018B2F9A2F0E94042B92
:105490004B01B82FA92F0E191F09EDCF2497F594B2
:1054A000E794CA15DB0539F76401EB2EFA2E8E2D31
:1054B000880F8F2D881F8F3F49F020E030E0A90131
:1054C000C701B6010E949E2A811106C082E290E0C7
:1054D00090935A0480935904C701B60109C060E053
:1054E00070E080E89FEF04C060E070E080EC9FE730
:1054F000CDB7DEB7EEE00C942A2C91110C94712BF1
:10550000803219F089508550C8F70895FB01DC01FD
:105510004150504088F08D9181341CF08B350CF453
:10552000805E659161341CF06B350CF4605E861B07
:10553000611171F3990B0895881BFCCF0E94E02A3A
:1055400008F481E00895E89409C097FB3EF4909533
:105550008095709561957F4F8F4F9F4F9923A9F04C
:10556000F92F96E9BB279395F695879577956795DB
:10557000B795F111F8CFFAF4BB0F11F460FF1BC01F
:105580006F5F7F4F8F4F9F4F16C0882311F096E9B2
:1055900011C0772321F09EE8872F762F05C0662360
:1055A00071F096E8862F70E060E02AF09A95660F19
:1055B000771F881FDAF7880F9695879597F90895D2
:1055C000990F0008550FAA0BE0E8FEEF1616170614
:1055D000E807F907C0F012161306E407F50798F07C
:1055E000621B730B840B950B39F40A2661F0232B95
:1055F000242B252B21F408950A2609F4A140A69511
:105600008FEF811D811D08950E94172B0C948B2B09
:105610000E947D2B38F00E94842B20F0952311F0FE
:105620000C94742B0C947A2B11240C94BF2B0E9495
:105630009C2B70F3959FC1F3950F50E0551F629F0F
:10564000F001729FBB27F00DB11D639FAA27F00DDB
:10565000B11DAA1F649F6627B00DA11D661F829F02
:105660002227B00DA11D621F739FB00DA11D621FE7
:10567000839FA00D611D221F749F3327A00D611D04
:10568000231F849F600D211D822F762F6A2F1124E6
:105690009F5750409AF0F1F088234AF0EE0FFF1F19
:1056A000BB1F661F771F881F91505040A9F79E3F70
:1056B000510580F00C94742B0C94BF2B5F3FE4F3E6
:1056C000983ED4F3869577956795B795F795E795C6
:1056D0009F5FC1F7FE2B880F911D9695879597F9CF
:1056E000089599278827089597F99F6780E870E0C3
:1056F00060E008959FEF80EC089500240A94161648
:10570000170618060906089500240A9412161306AF
:10571000140605060895092E0394000C11F488233D
:1057200052F0BB0F40F4BF2B11F460FF04C06F5F59
:105730007F4F8F4F9F4F089557FD9058440F551F2F
:1057400059F05F3F71F04795880F97FB991F61F003
:105750009F3F79F087950895121613061406551F7A
:10576000F2CF4695F1DF08C0161617061806991FE6
:10577000F1CF86957105610508940895E894BB27DB
:1057800066277727CB0197F90895DC01CB01FC014F
:10579000F999FECF06C0F2BDE1BDF89A319600B48A
:1057A0000D9241505040B8F70895F999FECF92BD3F
:1057B00081BDF89A992780B50895DC01A40FB51F23
:1057C0004150504048F0CB01840F951F2E910E940C
:1057D000EE2B41505040D0F70895262FF999FECF77
:1057E00092BD81BDF89A019700B4021639F01FBA34
:1057F00020BD0FB6F894FA9AF99A0FBE08950E9448
:10580000412CA59F900DB49F900DA49F800D911DDC
:10581000112408952F923F924F925F926F927F9240
:105820008F929F92AF92BF92CF92DF92EF92FF92B0
:105830000F931F93CF93DF93CDB7DEB7CA1BDB0B5C
:105840000FB6F894DEBF0FBECDBF09942A88398801
:1058500048885F846E847D848C849B84AA84B98408
:10586000C884DF80EE80FD800C811B81AA81B98114
:10587000CE0FD11D0FB6F894DEBF0FBECDBFED0128
:105880000895A29FB001B39FC001A39F700D811D19
:105890001124911DB29F700D811D1124911D089539
:1058A0005058BB27AA270E94682C0C948B2B0E946F
:1058B0007D2B38F00E94842B20F039F49F3F19F49F
:1058C00026F40C947A2B0EF4E095E7FB0C94742BE1
:1058D000E92F0E949C2B58F3BA17620773078407BD
:1058E000950720F079F4A6F50C94BE2B0EF4E09504
:1058F0000B2EBA2FA02D0B01B90190010C01CA018A
:10590000A0011124FF27591B99F0593F50F4503E34
:1059100068F11A16F040A22F232F342F4427585F26
:10592000F3CF469537952795A795F0405395C9F73E
:105930007EF41F16BA0B620B730B840BBAF09150F6
:10594000A1F0FF0FBB1F661F771F881FC2F70EC095
:10595000BA0F621F731F841F48F487957795679568
:10596000B795F7959E3F08F0B0CF9395880F08F054
:105970009927EE0F9795879508950E94D12C0C9446
:105980008B2B0E94842B58F00E947D2B40F029F431
:105990005F3F29F00C94742B51110C94BF2B0C9485
:1059A0007A2B0E949C2B68F39923B1F3552391F332
:1059B000951B550BBB27AA2762177307840738F07E
:1059C0009F5F5F4F220F331F441FAA1FA9F335D0DB
:1059D0000E2E3AF0E0E832D091505040E695001C8F
:1059E000CAF72BD0FE2F29D0660F771F881FBB1F49
:1059F000261737074807AB07B0E809F0BB0B802D27
:105A0000BF01FF2793585F4F3AF09E3F510578F052
:105A10000C94742B0C94BF2B5F3FE4F3983ED4F3AB
:105A2000869577956795B795F7959F5FC9F7880F26
:105A3000911D9695879597F90895E1E0660F771F78
:105A4000881FBB1F621773078407BA0720F0621B09
:105A5000730B840BBA0BEE1F88F7E09508950E9434
:105A6000362D6894B1110C94BF2B08950E94A42B7D
:105A700088F09F5798F0B92F9927B751B0F0E1F00F
:105A8000660F771F881F991F1AF0BA95C9F714C0BF
:105A9000B13091F00E94BE2BB1E008950C94BE2B62
:105AA000672F782F8827B85F39F0B93FCCF38695F8
:105AB00077956795B395D9F73EF490958095709555
:105AC00061957F4F8F4F9F4F089597FB16F40E946B
:105AD000A92D0C946C2DE894F92F96EBFF2381F0FF
