:100000000C949D000C944F100C9428100C94C50077
:100010000C94C5000C94C5000C944B040C94C500C2
:100020000C94C5000C94C5000C94C5000C94C5003C
:100030000C94C5000C94C5000C94C5000C94C5002C
:100040000C94DE0F0C94C5000C94300F0C940A0F26
:100050000C94C5000C94C5000C94C5000C94C5000C
:100060000C94C5000C94C5000000000800020100BB
:10007000000304070000000000000000322E332EB1
:10008000300A00207C5F5C2F602C0A0702200220CF
:10009000B287100340012000240222100222020233
:1000A00020022200222002022022271013410101F7
:1000B000010322203040203052034022140203105A
:1000C000522402217101001010121012221010028D
:1000D0002401010322030020010100322037121005
:1000E000012132260128403222121012122243220C
:1000F00024121001222470C122240F0F00000000DE
:10010000250028002B0000000000240027002A0002
:1001100004040404040404040202020202020303AD
:1001200003030303010204081020408001020408B5
:100130001020010204081020891111241FBECFEFE6
:10014000D8E0DEBFCDBF14E0A0E0B1E0E4EFF7E21D
:1001500002C005900D92AC35B107D9F726E0ACE5A9
:10016000B4E001C01D92A23BB207E1F710E0CDE977
:10017000D0E004C02197FE010E94DE13CC39D107E4
:10018000C9F70E948B100C94F8130C940000809116
:100190009404846080939404809195048078809383
:1001A0009504E0915D04F0915E04309709F00994A4
:1001B0000895E4E9F4E08081877F8F7E8083109248
:1001C00090041092910410929204109293040E9451
:1001D0009C0F6093990470939A0480939B0490936E
:1001E0009C0444E050E060E070E08DE994E00C9401
:1001F0007313E0918A04F0918B04309721F0028010
:10020000F381E02D09958091940484FD0C94FA0902
:1002100008950F931F930E949C0F00918C041091DE
:100220008D0420918E0430918F04601B710B820B22
:10023000930B1F910F9108959C0180918A049091D6
:100240008B048217930751F0909194049F719093BF
:10025000940430938B0420938A0405C08091940405
:10026000805E80939404E0918A04F0918B0430972F
:1002700021F00190F081E02D09950E949C0F609380
:100280008C0470938D0480938E0490938F04089552
:100290000F931F930E940901209195042077203726
:1002A00029F000E117E220E030E004C000E61AEE99
:1002B00020E030E0061717072807390730F489E1F6
:1002C00091E01F910F910C941C011F910F910895C3
:1002D000809195048F708B3020F084E191E00C9434
:1002E0001C010895809196048F3FA1F00E949C0FFD
:1002F000609390047093910480939204909393047C
:100300008091960490919F04891380939F0480E1CB
:1003100091E013C00E940901613D7740810591057C
:1003200070F080919404803618F48CE091E005C060
:10033000877F8093940484E191E00C941C010895DC
:1003400080919D048F3F19F08CE091E010C00E94D5
:100350000901613D77408105910558F08091940431
:10036000803618F488E091E002C08FE191E00C94AF
:100370001C0108950E940901613D774081059105A6
:1003800020F48091940481FF089580919E048F3F12
:1003900041F0809194048E7F8093940488E091E0F2
:1003A00009C080919404803618F484E191E002C081
:1003B0008FE191E00C941C0190E59CBD91E09DBD06
:1003C0002A988EBD00000DB407FEFDCF8EB5FB014F
:1003D0009FEF4150C8F0222361F09EBD00000DB494
:1003E00007FEFDCF8EB56115710599F380833196B7
:1003F000F0CFDF01119680818EBD00000DB407FEA5
:10040000FDCF8EB5FD01E5CF2A9A089521E041E0A8
:1004100060E070E086E00E94DC0190E020915F04E3
:10042000220F330B206230E02F5F3F4F821793077C
:1004300051F421E041E060E070E085E00E94DC01E1
:1004400091E0883609F090E0892F0895CF93DF93EB
:100450001F92CDB7DEB7698320E041E0BE016F5F38
:100460007F4F0E94DC010F90DF91CF910895809122
:100470009504982F9077903759F0982F92959F7008
:100480009F5F97709295907F8F78892B80939504CA
:10049000809194048B7F8F7E8093940429986CE0E4
:1004A00080E20C9426026FE080E20E9426026091B6
:1004B00018016F3F19F08AE20E942602299A0895D6
:1004C000CF939FEF980F9E3FB0F4C82F80939D0469
:1004D0008093180163E082E20E94260261E081E2DB
:1004E0000E9426020E9453026C2F80E090E00E943E
:1004F0009B1381E004C08FEF80939D0480E0CF9137
:10050000089520E040E060E070E00C94DC01EF92A0
:10051000FF921F93CF93DF937C01FC01C2818091F6
:10052000940480FF04C0CF3F09F05BC014C0C11128
:1005300003C0C0919E040FC0CF3F69F08C2F90E0A4
:1005400003960E9483138F3F29F480919E04F70144
:1005500090819813C82F80919D04F7018083438177
:1005600042FD06C0469546954695D7E0D40F01C09A
:10057000D0E21091A004117029988BE190E00197CE
:10058000F1F76EE080E20E94260283E190E001979D
:10059000F1F76C2F8AE20E9426026C2F80E30E9402
:1005A000260281EE0E948102CF3F21F0111102C08C
:1005B00080EA01C080EB4D2FD13208F040E220E00C
:1005C000B7010E94DC01299AE12CF12C8FEF0E94E7
:1005D0008102D82F807339F4F1E0EF1AF108B1F7F6
:1005E00002C010E027C0299860E387E20E9426023B
:1005F000D4FF03C081EE0E9481020E945302D5FD08
:1006000002C0117001C011E081E0CF3F09F080E02D
:10061000182B80919E04C8130DC090919504111160
:1006200006C081E0890F8F70907F982B01C0907F6A
:1006300090939504812FDF91CF911F91FF90EF90C0
:1006400008958FEF80939604E4E9F4E08081886058
:10065000808328E143E06FEF80E00E94050E61E0B7
:100660000E94A0050C94870280919D048F3FB1F4F5
:100670000E949C0F6F3F19F060931E0102C0109200
:100680001E0123E043E060911E0180E00E94050E00
:1006900066E173E00E94AC050C9487020895E4E9DA
:1006A000F4E08081897F81608083EDE9F4E08FEF61
:1006B0008283818327E043E06FEF0E94050E66E1AD
:1006C00073E00E94AC050C948702CF93219A229A82
:1006D00029982A9ACFB7F89480915C04811163C05D
:1006E0008AE191E0FC0124914EE251E0FA0164912B
:1006F00030E0220F331F2A5F3E4FF901A591B491DC
:100700002C91622309F040C0E2E7F0E02491FA0165
:100710004491FC0194919923B9F1222339F12330BA
:1007200091F038F42130A9F0223001F584B58F7DA5
:1007300012C0273091F02830A1F02430B9F4809114
:1007400080008F7D03C0809180008F778093800030
:100750000DC084B58F7784BD09C08091B0008F77BC
:1007600003C08091B0008F7D8093B000E92FF0E04E
:10077000EE0FFF1FE450FF4FA591B4918FB7F8948F
:100780009C91492B4C938FBF8AE00E94D80E8CB568
:1007900080618CBD8CB580648CBD8DE00E94D80ECC
:1007A0008BE00E94D80E80915C048F5F80935C0484
:1007B000CFBF6EE080E20E94260265E070E080E03C
:1007C00090E00E94620F63E083E20E9426026FE5E0
:1007D00084E20E94260268E685E20E942602609179
:1007E0005F04660F616286E20E94260263E780E58D
:1007F0000E94260264E08DE30E9426020E94060207
:10080000882309F440C062E082E20E94260260E090
:1008100081E20E94260263E08CE30E9426028FEFB1
:100820008093030120E045E063E071E08BE20E94E9
:10083000DC0120E045E063E071E08AE20E94DC0137
:1008400020E045E063E071E080E30E94DC0182EE9D
:100850000E94810281EE0E94810260E787E20E948D
:100860002602809194048061809394048091A00476
:100870008E7F8093A00480919D048F3F39F00E9469
:100880006002811103C08FE191E002C084E191E038
:10089000CF910C941C011F920F920FB60F9211244E
:1008A0000F900FBE0F901F901895EF92FF920F932D
:1008B0001F93CF93DF9382EB91E00E948313E82E86
:1008C00083EB91E00E948313082F84EB91E00E9458
:1008D0008313182F85EB91E00E948313C82F86EBBA
:1008E00091E00E948313D82F87EB91E00E9483133D
:1008F000F82E83E0E81609F474C089E391E00E94C1
:100900007A0E8AE491E00E94C10E80E090E00E949D
:10091000880E60E083EB91E00E949B1310926804C4
:100920001092690410926A0410926B0410926C0485
:1009300010926D0410926E0410926F041092710464
:1009400081E080936004109261041092620410921E
:10095000630410926404109265041092660410926D
:1009600067048EE591E00E94C10E1092890480E038
:1009700090E00E94880E60E084EB91E00E949B135F
:1009800082E791E00E94C10E82E090E00E94880E12
:1009900062E085EB91E00E949B1388E891E00E9461
:1009A000C10E80E090E00E94880E60E086EB91E04E
:1009B0000E949B1383EA91E00E94C10E85E090E0C3
:1009C0000E94880E65E087EB91E00E949B1385E012
:1009D0008093820463E082EB91E00E949B13D0E05D
:1009E00064C08AEB91E00E947A0E202F30E0A0E6EE
:1009F000BAEE0E94AD13609368047093690480930B
:100A00006A0490936B04DC01CB01BB0F880B982F19
:100A1000DC0180936C0480936D0480936E0480935A
:100A20006F040093710481E080936004109261046C
:100A30001092620410926304109264041092650490
:100A4000109266041092670483ED91E00E94C10E3B
:100A5000812F0E94F70E1093890489EE91E00E9485
:100A6000C10E8C2F0E94F70E80E092E00E94C10E12
:100A70008D2F0E94F70ED093700489E192E00E94BE
:100A8000C10E81E392E00E947A0EF0928204C1309E
:100A900049F028F0C23049F0C33021F006C010926E
:100AA0005F0406C0C0935F0403C082E080935F04CC
:100AB000D13051F48CE392E0DF91CF911F910F91EF
:100AC000FF90EF900C947A0EDF91CF911F910F91D0
:100AD000FF90EF9008958F929F92AF92BF92CF9226
:100AE000DF92EF92FF926B017C010E949C0F4B0101
:100AF0005C010E949C0FDC01CB0188199909AA09AD
:100B0000BB098C159D05AE05BF0520F4A8950E9474
:100B1000F900EFCFFF90EF90DF90CF90BF90AF90B4
:100B20009F908F900895FC0184818F7180648483ED
:100B3000838187708061838370876783CF01089585
:100B4000FC01838187708860838384818F718062D8
:100B500084836783CF0108950F931F93CF93DF930F
:100B6000EC016115710561F0FB0101900020E9F7CE
:100B70003197E61BF70BE931F10518F0E9E101C007
:100B8000E0E00E2F10E0C80123E0880F991F2A959E
:100B9000E1F79B819770892B8B838C818F718C837C
:100BA000EE2329F0A801CE0107960E94E913FE0169
:100BB000E00FF11F1782CE01DF91CF911F910F91AE
:100BC0000895FC019481929596959770923019F44E
:100BD000878190850895911104C0CF0107960C94E8
:100BE000161280E090E008952091940422FD0C9468
:100BF000870280E00895DF92EF92FF920F931F9398
:100C0000CF93DF93EC01E12CF12C01E010E0809117
:100C10008204082E000C990B08171907B4F580916F
:100C20009D0489839C81907F91609C83809188043E
:100C300080FF1BC0CE010E94F4058823B1F0809193
:100C4000830490918404A0918504B0918604019658
:100C5000A11DB11D8093830490938404A093850407
:100C6000B0938604DD24D39404C082E3E80EF11C23
:100C7000D12C0F5F1F4FB7010F2C000C880B990B65
:100C80000E946B05DD2019F213C080917E049091C3
:100C90007F04A0918004B09181040196A11DB11D33
:100CA00080937E0490937F04A0938004B09381048A
:100CB000DF91CF911F910F91FF90EF90DF900895FA
:100CC0000F931F938091760481110DC00E949C0F99
:100CD000609372047093730480937404909375040A
:100CE00081E08093760461E070E080E090E00E9413
:100CF0006B050E949C0F0091720410917304209167
:100D0000740430917504DC01CB01801B910BA20BA4
:100D1000B30B81369A4EA105B10508F4A5C08091A8
:100D20001D0120E4829FC001112480937C008091EA
:100D30007A00806480937A0080917A0086FDFCCFEF
:100D4000609178009091790080914906877088625F
:100D50008093490680914A06806E80934A0670E02F
:100D6000792B072E000C880B990B0E947A1229E030
:100D700037E64CE55BE30E94B51260934D06709335
:100D80004E0680934F069093500682E08093510662
:100D900086E496E00E94FB05809183058770886059
:100DA00080938305809184058F7180628093840590
:100DB00081E08093870580E895E00E94FB054091E3
:100DC000830450918404609185047091860480911D
:100DD00063058F71806880936305809162058770D9
:100DE0008062809362054093660550936705609327
:100DF0006805709369058FE595E00E94FB054091B9
:100E00007E0450917F0460918004709181048091F0
:100E100042058F71806880934205809141058770FB
:100E20008062809341054093450550934605609349
:100E30004705709348058EE395E00E94FB0560919D
:100E40007104062E000C770B81EA95E00E94930551
:100E50000E94FB050E949C0F6093720470937304C0
:100E600080937404909375041F910F910895CF930C
:100E700083E080931D0189E592E00E947A0E8BE861
:100E800092E00E947A0E89E592E00E947A0E8DEB44
:100E900092E00E94C10E80919E040E94F70E8EEC9B
:100EA00092E00E94C10E80915F04082E000C990B05
:100EB0000E94880E80917004811103C08CED92E035
:100EC00002C083EF92E00E947A0E60919E0470E06F
:100ED00080E090E00E947812209128062770286216
:100EE0002093280620912906206E209329066093DE
:100EF0002C0670932D0680932E0690932F06C1E04A
:100F0000C093300685E296E00E94FB0560915F0485
:100F1000062E000C770B880B990B0E947A122091F9
:100F20000706277028622093070620910806206E86
:100F30002093080660930B0670930C0680930D06B1
:100F400090930E06C0930F0684E096E00E94FB0586
:100F500060917004062E000C770B880B990B0E9491
:100F60007A122091E605277028622093E6052091E9
:100F7000E705206E2093E7056093EA057093EB0583
:100F80008093EC059093ED05C093EE0583EE95E01C
:100F90000E94FB0560918204062E000C770B82EC08
:100FA00095E00E9493050E94FB0560917104062E56
:100FB000000C770B81EA95E00E9493050E94FB05E7
:100FC0008091830587708862809383058091840572
:100FD000806E8093840580E090E0A0E8BFE380937A
:100FE000870590938805A0938905B0938A05C093DF
:100FF0008B0580E895E00E94FB0560918304709169
:10100000840480918504909186040E947A12209134
:101010006205277028622093620520916305206E87
:101020002093630560936605709367058093680558
:1010300090936905C0936A058FE595E00E94FB05D2
:1010400060917E0470917F0480918004909181046E
:101050000E947A1220914105277028622093410551
:1010600020914205206E20934205609345057093C0
:1010700046058093470590934805C09349058EE344
:1010800095E00E94FB0589E093E0CF910C947A0EE5
:101090002BE043E06FEF80E00E94050E67E173E014
:1010A0000E94AC050E94F4052CE043E06FEF80E065
:1010B0000E94050E64E273E00E94AC050E94F405F4
:1010C00049E253E06EE188EC0E94C30E64E670E0F2
:1010D00080E090E00E946B054DE253E067E18AEC0E
:1010E0000E94C30E64E670E080E090E00E946B0511
:1010F0004BE353E063E08EEF0E94C30E64E670E0C2
:1011000080E090E00E946B058CE493E00C947A0EF2
:10111000CF932FE043E06FEF80E00E94050E66E181
:1011200073E00E94AC05E7E6F6E08381877080619A
:10113000838384818F71806C848381E087831086B0
:10114000CF010E94F4058FE00E94A80F46E153E012
:1011500062E18FEF0E94C30EC0919E0426E043E03F
:101160006FEF80E00E94050E6C2F0E94A0050E9488
:10117000F40586E00E94A80FCF910C944808CF9305
:101180008091880481FD1FC00E9488088091880496
:10119000816080938804C4E02AE143E06FEF80E03F
:1011A0000E94050E62E00E94A0050E94F4058BE1FA
:1011B0000E94A80F811102C0C15071F7809188046C
:1011C000826080938804CF910895CF93DF93FC01D0
:1011D00026812A3C09F00BC124812770213009F0B7
:1011E00006C12581283161F02931D9F12A3109F46C
:1011F00069C02B3109F497C02C3109F0F8C0C5C083
:101200000E94E105EC018CE993E00E94C10ECE0141
:101210000E94880ECF3FD10588F48EE593E00E94AE
:101220007A0E6C2F84EB91E00E949B13BE0185E245
:1012300096E00E9493050E94FB0504C08CE793E0B2
:101240000E947A0E64EF71E080E090E00E946B05EE
:101250008091600088618093600088E080936000E6
:10126000FFCF0E94E105EC018CEB93E00E94C10EE0
:10127000CE010E94880EC430D10588F48EE593E03B
:101280000E947A0E6C2F85EB91E00E949B13BE01A9
:1012900084E096E00E9493050E94FB0504C08CE761
:1012A00093E00E947A0E64EF71E080E090E00E948B
:1012B0006B058091600088618093600088E0809376
:1012C0006000FFCF0E94E105EC0181EE93E00E94F7
:1012D000C10ECE010E94880EC230D10588F48EE581
:1012E00093E00E947A0E6C2F86EB91E00E949B1394
:1012F000BE0183EE95E00E9493050E94FB0504C0A9
:101300008CE793E00E947A0E64EF71E080E090E059
:101310000E946B058091600088618093600088E086
:1013200080936000FFCF0E94E105EC018BE094E028
:101330000E94C10ECE010E94880ECE010197CC976B
:1013400088F48EE593E00E947A0E6C2F87EB91E093
:101350000E949B13BE0182EC95E00E9493050E94BF
:10136000FB0504C08CE793E00E947A0E64EF71E005
:1013700080E090E00E946B0580916000886180931E
:10138000600088E080936000FFCF0E94E105EC01DF
:1013900080E394E00E94C10ECE010E94880ECE012F
:1013A0000197CC9788F48EE593E00E947A0E6C2F1B
:1013B00083EB91E00E949B13BE0181EA95E00E94BD
:1013C00093050E94FB0504C08CE793E00E947A0E0F
:1013D00064EF71E080E090E00E946B058091600016
:1013E00088618093600088E080936000FFCFDF9188
:1013F000CF9108958F929F92AF92BF92CF92DF923A
:10140000EF92FF920F931F93CF93DF930E949C0F55
:101410000091990410919A0420919B0430919C04AE
:10142000DC01CB01801B910BA20BB30B813A9B4BD0
:10143000AD40B10590F00E949C0F609399047093A9
:101440009A0480939B0490939C040E94060281114D
:1014500004C08FE191E00E941C0186E0D82E90E04C
:10146000E92E90E0F92E21E2C22E21E041E060E079
:1014700070E087E10E94DC0180FD88C2DA94DD2003
:1014800009F484C221E041E060E070E080E60E945F
:10149000DC01082F813220F082EE0E94810200E000
:1014A00021E0402F68E876E081E60E94DC0160E4FC
:1014B00087E20E94260290918B06192F16951695A9
:1014C00016951A3108F019E192FD03C087E0810FEB
:1014D00001C080E290908C06C0918D06D091890663
:1014E000B0908806A0908A060813BFCF9370923000
:1014F00009F0BBCF80919E04B81651F080919D04F5
:10150000D81731F08D2F90E06B2D03960E949B131E
:10151000092D0770809195048068809395048091CF
:101520009D04A81245C020918B06822F8695869532
:1015300086958A3108F089E138E0839FC001112443
:101540002770822B80938B06E12FF0E0E857F94F4C
:10155000178280918C0683FF1DC0E8E8F6E0A7E6BD
:10156000B6E08C2D01900D928A95E1F780916B0683
:10157000877F806180936B06A0926806D09369068E
:1015800062E070E080E090E00E94620F87E696E003
:101590000E94F40590918C0694FD27C0033029F534
:1015A00080918D0621EF280F233008F0BBC05DCF5E
:1015B0002FEFA2129FC00330E9F080919E04B81271
:1015C00054CF80919D04D81709F4DCC18091940414
:1015D00082FFD8C188E896E00E948702033009F4B0
:1015E00044CF80919E04B81240CF88E896E00E94D4
:1015F000E5083BCF8091940482FF5DC0C73009F0BD
:101600005AC080919E04D81709F42FCF0E949C0FD6
:1016100000919004109191042091920430919304D0
:10162000DC01CB01801B910BA20BB30B80319742E5
:10163000A105B10518F18091940483FD16CF909116
:101640009D04911167C11092960480919404877F44
:1016500080939404C0919604CF3F09F406CF0E9472
:101660009C0F6093900470939104809392049093E4
:10167000930480919F04C813C0939F040E949C0F01
:1016800060939004709391048093920490939304D8
:101690000E949C0F7370882799270E94620FC09147
:1016A0009F0428E043E06FEF8D2F0E94050E6C2F02
:1016B0000E94A00534C0C83009F4D7CEC43109F067
:1016C0007CCF80919E04B81278CF0E949C0F7370DB
:1016D000882799270E94620FC0919E0425E143E06C
:1016E0006FEF8D2F0E94050E6C2F0E94A0050E94A7
:1016F000870263CF8091940482FFB7CE033069F4F0
:10170000C851C23050F40E94140E8E3F31F061E097
:10171000680F88E896E00E94A00588E896E00E949D
:101720008702A3CEC43071F480918E0690911E0181
:10173000891719F08F3F09F098CE0E94140E0E946D
:10174000600293CEC83011F5C0919404C0FF8DCED5
:101750000E94140E8F3F09F488CE8F5F8F3F21F0D7
:1017600090919F04891720F090918904D9137DCE20
:10177000C1FD7BCE90918904D91303C0C260C09390
:10178000940480939F04D0939E046FCEC83141F49B
:1017900029E143E06FEF8D2F0E94050E61E088CFB5
:1017A000C93161F48091940483FF5FCE877F809379
:1017B00094040E94140E8093960457CE20918906BB
:1017C000211194C08D3059F498E088E10FB6F89457
:1017D000A895809360000FBE90936000FFCF8B317F
:1017E00069F40E94140E91E0811101C090E0809193
:1017F000880490FB80F98093880437CE863099F472
:1018000090918F0681E0992319F09D3409F080E0D2
:101810008093870441E050E063E071E087E894E062
:101820000E948B1322CE833119F40E9488081DCEAA
:101830008231C9F40E9409014B015C0126E143E0B9
:101840006FEF80E00E94050EFC0184818F71806A39
:101850008483838187708062838387829086A18658
:10186000B286CF013DC08130F9F4E114F10409F4EE
:10187000FCCD929596959770953049F460918F06BE
:101880007091900680919106909192060AC09111F4
:1018900005C08FE896E00E94341203C060E070E05B
:1018A000CB010E940000E1CD8A30E9F480918F06DF
:1018B000833409F0DACDC3E0D0E06FEFCE010E94AF
:1018C0009B132196C33081E0D807B9F72AE043E0A3
:1018D0006FEF80E00E94050E63E574E00E94AC05A6
:1018E0000E94F405C2CD8C3121F4BFCD8A3109F4B8
:1018F000BCCDCE3109F4B9CDCD3109F076CE2FE192
:1019000043E06FEF80E00E94050E60E07FEF0E94F1
:10191000930505CF886080939404A092960428E1F3
:1019200043E06FEF80E00E94050E61E00E94A00599
:101930000E9487020E949C0F4B015C0110928D0651
:10194000C0E00E949C0FDC01CB0188199909AA090B
:10195000BB09803D9740A105B10508F076CEC111C5
:1019600074CE8091940484FD0E94FA09A895809118
:101970008C068770833029F7C1E080918D0689310C
:10198000F9F6DFCF033009F030CE6FCDDF91CF9184
:101990001F910F91FF90EF90DF90CF90BF90AF908D
:1019A0009F908F900895CF92DF92EF92FF920F93C6
:1019B0001F93CF93DF936C017A018B01C0E0D0E0DD
:1019C000CE15DF0589F0D8016D918D01D601ED911D
:1019D000FC910190F081E02DC6010995892B11F44D
:1019E0007E0102C02196ECCFC701DF91CF911F91FC
:1019F0000F91FF90EF90DF90CF900895089580E0D1
:101A000090E00895FC01538D448D252F30E0842F04
:101A100090E0821B930B541710F0CF960895019716
:101A20000895FC01918D828D981761F0828DDF0100
:101A3000A80FB11D5D968C91928D9F5F9F73928FC1
:101A400090E008958FEF9FEF0895FC01918D828DB6
:101A5000981731F0828DE80FF11D858D90E0089583
:101A60008FEF9FEF0895FC01918D228D892F90E0DB
:101A7000805C9F4F821B91098F739927089581EA9B
:101A800094E00E94330D21E0892B09F420E0822F9D
:101A90000895FC01848DDF01A80FB11DA35ABF4F2B
:101AA0002C91848D90E001968F739927848FA6895D
:101AB000B7892C93A089B1898C9180648C93938D84
:101AC000848D981306C00288F389E02D80818F7D74
:101AD00080830895EF92FF920F931F93CF93DF932C
:101AE000EC0181E0888F9B8D8C8D981305C0E8896F
:101AF000F989808185FD24C0F62E0B8D10E00F5FE3
:101B00001F4F0F731127E02E8C8DE8120CC00FB6FB
:101B100007FCFACFE889F989808185FFF5CFCE01EE
:101B20000E94490DF1CF8B8DFE01E80FF11DE35AA4
:101B3000FF4FF0820B8FEA89FB898081806207C0AA
:101B4000EE89FF896083E889F989808180648083D8
:101B500081E090E0DF91CF911F910F91FF90EF9086
:101B60000895CF93DF93EC01888D8823C9F0EA892B
:101B7000FB89808185FD05C0A889B9898C9186FD86
:101B80000FC00FB607FCF5CF808185FFF2CFA88983
:101B9000B9898C9185FFEDCFCE010E94490DE7CF29
:101BA000DF91CF91089580E090E0892B29F00E9489
:101BB0003F0D81110C94000008953FB7F894809177
:101BC000AE069091AF06A091B006B091B10626B5D1
:101BD000A89B05C02F3F19F00196A11DB11D3FBF65
:101BE000BA2FA92F982F8827820F911DA11DB11DF3
:101BF000BC01CD0146E0660F771F881F991F4A95EB
:101C0000D1F7089508950E94E413E7E6F6E0909175
:101C10009D04918382836683258347708481807EBF
:101C2000482B4483CF01089580918C068295869538
:101C30008770813019F480918F060895811105C055
:101C40008FE896E00E941612089580E008950097AC
:101C500069F0FC0101900020E9F73197AF01481BC2
:101C6000590BBC0181EA94E00C94D30C80E090E025
:101C700008958F929F92AF92BF920F931F93CF932D
:101C8000DF93CDB7DEB7A1970FB6F894DEBF0FBED6
:101C9000CDBF19A2423008F44AE08E010F5D1F4FFC
:101CA000842E912CA12CB12CA50194010E94BC136F
:101CB000E62FB901CA0101501109EA3014F4E05DC0
:101CC00001C0E95CD801EC93232B242B252B61F771
:101CD000C8010E94270EA1960FB6F894DEBF0FBE72
:101CE000CDBFDF91CF911F910F91BF90AF909F908B
:101CF0008F900895CF93DF930E94270EEC0184E12B
:101D000093E00E94270E8C0F9D1FDF91CF910895C5
:101D1000CF92DF92EF92FF92CF93DF936C01990FF6
:101D2000EE08FF08F7FE1AC0E091A104F091A204AA
:101D30000190F081E02D6DE281EA94E00995EC01DB
:101D400066277727CB016C197D098E099F094AE028
:101D50000E94390E7C01EC0EFD1E06C04AE0C70150
:101D6000B6010E94390E7C0184E193E00E94270EA7
:101D70008E0D9F1DDF91CF91FF90EF90DF90CF9060
:101D800008950C94270ECF93DF93262F8F3F11F0E9
:101D9000EA0102C0C6E5D4E040E0682F80E00E947E
:101DA000050EBE010E94AC05DF91CF910C94F405A5
:101DB00090E0FC01EC5DFE4F2491FC01E05FFE4FE2
:101DC0008491882399F090E0880F991FFC01EA5FC5
:101DD000FE4FA591B491FC01E450FF4F8591949181
:101DE0008FB7F894EC91E22BEC938FBF0895CF93CB
:101DF000DF93682F70E080E090E04AE00E94390EA7
:101E0000EC0184E193E00E94270E8C0F9D1FDF916F
:101E1000CF9108951F920F920FB60F9211242F9316
:101E20003F934F935F936F937F938F939F93AF9362
:101E3000BF93EF93FF9381EA94E00E94490DFF91D5
:101E4000EF91BF91AF919F918F917F916F915F9132
:101E50004F913F912F910F900FBE0F901F901895AB
:101E60001F920F920FB60F9211242F938F939F936F
:101E7000EF93FF93E091B104F091B2048081E0917F
:101E8000B704F091B80482FD12C090818091BA0429
:101E90008F5F8F732091BB04821751F0E091BA04D9
:101EA000F0E0EF55FB4F958F8093BA0401C080811D
:101EB000FF91EF919F918F912F910F900FBE0F90F7
:101EC0001F9018958F929F92AF92BF92CF92DF9200
:101ED000EF92FF926B017C010E94DD0D4B015C01D2
:101EE000C114D104E104F104F1F00E94DD0DDC0124
:101EF000CB0188199909AA09BB09883E9340A1051D
:101F0000B10570F321E0C21AD108E108F10888EEAA
:101F1000880E83E0981EA11CB11CC114D104E104F9
:101F2000F10419F7DDCFFF90EF90DF90CF90BF90D5
:101F3000AF909F908F9008952FB7F8946091AA0664
:101F40007091AB068091AC069091AD062FBF0895BD
:101F5000CF92DF92EF92FF92CF93DF93D82F0E9420
:101F60009C0F6B017C0181E0D11180E080938D0694
:101F7000C0E00E949C0FAB01BC014C195D096E09C9
:101F80007F09403D57406105710580F4C1110EC0C5
:101F9000A8950E94F90090918C069770933049F7AC
:101FA000C1E080918D068D13E3CFE3CF8C2FDF91BD
:101FB000CF91FF90EF90DF90CF9008951F920F92F6
:101FC0000FB60F9211242F933F938F939F93AF934C
:101FD000BF938091AA069091AB06A091AC06B091F8
:101FE000AD063091A90620E3230F2D3720F440964B
:101FF000A11DB11D05C023EB230F4196A11DB11DED
:102000002093A9068093AA069093AB06A093AC06F2
:10201000B093AD068091AE069091AF06A091B00648
:10202000B091B1060196A11DB11D8093AE069093AB
:10203000AF06A093B006B093B106BF91AF919F9148
:102040008F913F912F910F900FBE0F901F90189579
:102050001F920F920FB60F9211242F933F934F931D
:102060005F936F937F938F939F93AF93BF93EF9300
:10207000FF93E0912501F09126010995FF91EF91E1
:10208000BF91AF919F918F917F916F915F914F9190
:102090003F912F910F900FBE0F901F9018951F9298
:1020A0000F920FB60F9211242F933F934F935F938C
:1020B0006F937F938F939F93AF93BF93EF93FF9310
:1020C000E0912301F09124010995FF91EF91BF91D7
:1020D000AF919F918F917F916F915F914F913F91C0
:1020E0002F910F900FBE0F901F901895CF93DF93F5
:1020F000FC01108211821282148215821682DC0188
:1021000017968AE1ED0119928A95E9F782E08383B7
:10211000DF91CF910895789484B5826084BD84B5B1
:10212000816084BD85B5826085BD85B5816085BDD2
:1021300080916E00816080936E001092810080918A
:102140008100826080938100809180008160809313
:1021500080008091B10084608093B1008091B000D4
:1021600081608093B00080917A008B7F80937A00A9
:1021700080917A00826080937A0080917A008160F9
:1021800080937A0080917A00806880937A00109220
:10219000C100A89580E090E0892B11F00E9400001A
:1021A000E091B104F091B20482E08083E091AD044B
:1021B000F091AE041082E091AF04F091B0048CE095
:1021C00080831092B904E091B504F091B60486E0E2
:1021D0008083E091B304F091B404808180618083B6
:1021E000E091B304F091B404808188608083E09131
:1021F000B304F091B404808180688083E091B304DB
:10220000F091B40480818F7D808300E110E0F12C97
:10221000F801F595E795ED57FF4FE49100FFE29542
:10222000EF70E83008F072C0F0E0ED57FF4FF49027
:10223000C1E0D0E0E091A104F091A2040190F0810E
:10224000E02D6F2D81EA94E00995DF5FDC13F2CF7A
:102250000F5F1F4F023F1105D9F60CE710E0F801A0
:10226000649161112FC084E193E00E94270E809158
:1022700088048D7F809388040E94550441E050E0DB
:1022800063E071E087E894E00E9473136091890431
:1022900081E090E00E949B13809195048F78809359
:1022A000950410928B0410928A0489E191E00E94B7
:1022B0001C018FEB98E090935E0480935D040E9474
:1022C0009C0F10C0E091A104F091A2040190F08154
:1022D000E02D81EA94E009950F5F1F4F892B09F0EB
:1022E000BECFC1CF0E949C0F0E94F900A89580919B
:1022F000940482FFF7CF0E943707A895A8950E9403
:10230000F9000E9460060E94D30DF8CFCBEFCE0FEC
:1023100090CF1F93CF93DF93E1EAF4E01382128210
:1023200088EE93E0A0E0B0E084839583A683B78332
:102330008BE291E09183808385EC90E095878487A0
:1023400084EC90E09787868780EC90E0918B808B7F
:1023500081EC90E0938B828B82EC90E0958B848B68
:1023600086EC90E0978B868B118E128E138E148ED6
:1023700088E896E00E94761087E696E00E94761044
:1023800086E496E00E947610E6E4F6E088EC868328
:1023900086E2858385E296E00E947610E5E2F6E02B
:1023A000CAECC68318E1158384E096E00E9476109B
:1023B000E4E0F6E0C683D9E1D58383EE95E00E94A0
:1023C0007610E3EEF5E0C6838AE1858382EC95E042
:1023D0000E947610E2ECF5E0C6838BE1858381EA0A
:1023E00095E00E947610E1EAF5E0C6838CE18583F2
:1023F00080E895E00E947610E0E8F5E0CEEFC68335
:1024000082E085838FE595E00E947610EFE5F5E0A8
:10241000C68315838EE395E00E947610EEE3F5E027
:10242000C683D583DF91CF911F910895FC01882742
:102430009927E89421912032E9F3293010F02E30C9
:10244000C8F32B3241F02D3239F4689404C00E9455
:102450007012820F911D219120532A30C0F31EF477
:10246000909581959F4F08951F93FC019927882788
:10247000BC01E89411911032E9F3193010F01E30CC
:10248000C8F31B3251F01D3249F4689406C00E9413
:102490005B12610F711D811D911D119110531A3036
:1024A000B0F33EF490958095709561957F4F8F4F76
:1024B0009F4F1F910895592F482F372F262F660FB2
:1024C000771F881F991F660F771F881F991F620F3C
:1024D000731F841F951F660F771F881F991F08950C
:1024E0007AE0979F902D879F802D910D112408955C
:1024F000E89409C097FB3EF490958095709561959E
:102500007F4F8F4F9F4F9923A9F0F92F96E9BB2753
:102510009395F695879577956795B795F111F8CFCF
:10252000FAF4BB0F11F460FF1BC06F5F7F4F8F4F3A
:102530009F4F16C0882311F096E911C0772321F030
:102540009EE8872F762F05C0662371F096E8862FC8
:1025500070E060E02AF09A95660F771F881FDAF71F
:10256000880F9695879597F908950E94C8120C9444
:1025700039130E942B1338F00E94321320F0952358
:1025800011F00C9422130C94281311240C946D1345
:102590000E944A1370F3959FC1F3950F50E0551FA9
:1025A000629FF001729FBB27F00DB11D639FAA27A8
:1025B000F00DB11DAA1F649F6627B00DA11D661FF7
:1025C000829F2227B00DA11D621F739FB00DA11D18
:1025D000621F839FA00D611D221F749F3327A00DD2
:1025E000611D231F849F600D211D822F762F6A2F6E
:1025F00011249F5750409AF0F1F088234AF0EE0FD3
:10260000FF1FBB1F661F771F881F91505040A9F7FF
:102610009E3F510580F00C9422130C946D135F3F84
:10262000E4F3983ED4F3869577956795B795F7953B
:10263000E7959F5FC1F7FE2B880F911D96958795B3
:1026400097F9089597F99F6780E870E060E0089532
:102650009FEF80EC089500240A94161617061806BA
:102660000906089500240A94121613061406050696
:102670000895092E0394000C11F4882352F0BB0F27
:1026800040F4BF2B11F460FF04C06F5F7F4F8F4F8A
:102690009F4F089557FD9058440F551F59F05F3FC5
:1026A00071F04795880F97FB991F61F09F3F79F074
:1026B00087950895121613061406551FF2CF4695F6
:1026C000F1DF08C0161617061806991FF1CF869578
:1026D0007105610508940895E894BB27662777275C
:1026E000CB0197F90895DC01CB01FC01F999FECFEC
:1026F00006C0F2BDE1BDF89A319600B40D9241508A
:102700005040B8F70895F999FECF92BD81BDF89A6F
:10271000992780B50895DC01A40FB51F41505040A2
:1027200048F0CB01840F951F2E910E949C134150BD
:102730005040D0F70895262FF999FECF92BD81BD64
:10274000F89A019700B4021639F01FBA20BD0FB6EF
:10275000F894FA9AF99A0FBE0895A29FB001B39F18
:10276000C001A39F700D811D1124911DB29F700D9A
:10277000811D1124911D0895A1E21A2EAA1BBB1BD5
:10278000FD010DC0AA1FBB1FEE1FFF1FA217B3073D
:10279000E407F50720F0A21BB30BE40BF50B661F53
:1027A000771F881F991F1A9469F760957095809517
:1027B00090959B01AC01BD01CF010895EE0FFF1F65
:1027C0000590F491E02D099481E090E0F8940C9448
:1027D000F813FB01DC014150504048F001900D928C
:1027E0000020C9F701C01D9241505040E0F7089504
:0427F000F894FFCF8B
:1027F400FFFFFF00FCE1A8A83403A001210372013C
:10280400C70068014F03BA01FFD900650301FF3710
:10281400024801020E020E000000006A0DD30C02F1
:102824000DB10D330D110D250D73657474696E674B
:102834002044656661756C74730053746F7265200F
:102844002D20536C65657074696D653A200053746E
:102854006F7265202D20506172656E742049443A70
:10286400200053746F7265202D20526164696F20BB
:102874004C6576656C3A200053746F7265202D2088
:10288400506172656E742069732073746174696336
:102894003A200053746F7265202D2053656E6420B6
:1028A400526570656174733A2000426F6F742C2016
:1028B4007265616420454550524F4D2056616C75D8
:1028C400657300706172656E746E6F646520696E05
:1028D400204570726F6D3A2000526164696F204C1C
:1028E4006576656C20696E204570726F6D3A2000C4
:1028F400506172656E742073746174696320696ECB
:10290400204570726F6D3A200053656E64205265E5
:10291400706561747320696E204570726F6D3A2022
:10292400006C6F61645374617465360044454255AC
:10293400473A20504152454E542049532053544164
:102944005449432121212121002D2D2D2D2D2D2DC3
:102954002D2D2D2D2D2D2D2D2D2D2D2D2D2D2D2DA3
:102964002D2D2D2D2D2D2D2D2D2D2D2D2D2D2D2D93
:102974002D2D2D2D2D2D2D2D2D2D002020202020F1
:102984002020202020202020202020204E65747725
:102994006F726B2053657474696E677320202020F6
:1029A4002020202020202020202020200050617280
:1029B400656E74204E6F64652049443A200052616C
:1029C40064696F20506F7765723A200050617265B8
:1029D4006E74204E6F64652069732064796E616D36
:1029E400696300506172656E74204E6F646520697E
:1029F4007320737461746963005365747570204443
:102A04006F6E65000D0A0052657065617465724EE3
:102A14006F646500312E323000564343005379739E
:102A240074656D2D436F6E666967005379737465C1
:102A34006D2D5265706F7274696E670050726573A4
:102A4400656E746174696F6E20446F6E65005245E3
:102A54004D4F54452D434F4E4649473A2056616CDD
:102A640075652069732076616C69640052454D4F29
:102A740054452D434F4E4649473A2056616C75657F
:102A840020697320696E76616C69640052454D4F0C
:102A940054452D434F4E4649473A20476F74206EA4
:102AA400657720706172656E743A200052454D4F0F
:102AB40054452D434F4E4649473A20476F74206E84
:102AC400657720526164696F204C6576656C3A20A5
:102AD4000052454D4F54452D434F4E4649473A20E9
:102AE400476F74206E657720506172656E7420693B
:102AF40073207374617469633A200052454D4F54D6
:102B0400452D434F4E4649473A20476F74206E6522
:102B1400772073656E64207265706561743A200075
:102B240052454D4F54452D434F4E4649473A204751
:102B34006F74206E657720736C65657074696D655C
:0C2B44003A20004F4B00322E332E3000A0
:00000001FF
