:100000000C94C4000C9423140C94FC130C94EC007A
:100010000C94EC000C94EC000C9471020C94EC0029
:100020000C94EC000C94EC000C94EC000C94EC00A0
:100030000C94EC000C94EC000C94EC000C94EC0090
:100040000C94B2130C94EC000C94A5120C947F1237
:100050000C94EC000C94EC000C94EC000C94EC0070
:100060000C944A140C94EC000000000023002600BD
:10007000290004040404040404040202020202022B
:10008000030303030303010204081020408001025C
:1000900004081020010204081020000000080002DB
:1000A0000100000304070000000000000000322EE1
:1000B000332E300A00207C5F5C2F602C0A07022060
:1000C0000220B287100340012000240222100222E5
:1000D00002022002220022200202202227101341C5
:1000E000010101032220304020305203402214023B
:1000F000031052240221710100101012101222105C
:1001000010022401010322030020010100322037E4
:10011000121001213226012840322212101212221E
:10012000432224121001222470C122240F0F436F96
:10013000756C64206E6F742066696E642061207631
:10014000616C696420424D453238302073656E73AE
:100150006F722C20636865636B20776972696E67C4
:10016000206F722049324320616464726573732189
:100170000000000000240027002A000000000025E5
:100180000028002B0000821711241FBECFEFD8E0FB
:10019000DEBFCDBF12E0A0E0B1E0EAE8FEE302C0BE
:1001A00005900D92AE33B107D9F724E0AEE3B2E08B
:1001B00001C01D92A53DB207E1F710E0C4ECD0E00C
:1001C00004C02197FE010E944F1EC33CD107C9F70E
:1001D0000E9405180C94431F0C9400008091480263
:1001E000846080934802809149028078809349021C
:1001F000E091F903F091FA03309709F0099408951A
:100200000F931F930E94A613009140021091410288
:100210002091420230914302601B710B820B930BC1
:100220001F910F910895E8E4F2E08081877F8F7E2F
:10023000808310924402109245021092460210925E
:10024000470244E050E060E070E083E592E00C9407
:10025000A21B0F931F93CF93DF93EC0161157105E0
:1002600061F0FB0101900020E9F73197E61BF70BE5
:10027000E931F10518F0E9E101C0E0E00E2F10E0EE
:10028000C80123E0880F991F2A95E1F79B81977099
:10029000892B8B838C818F718C83EE2329F0A801AD
:1002A000CE0107960E94341FFE01E00FF11F178256
:1002B000CE01DF91CF911F910F9108959C01809104
:1002C0003E0290913F028217930751F090914802AD
:1002D0009F719093480230933F0220933E0205C0E5
:1002E00080914802805E80934802E0913E02F09146
:1002F0003F02309721F00190F081E02D09950E9496
:10030000A61360934002709341028093420290933F
:10031000430208950F931F930E9400012091490208
:100320002077203729F000E117E220E030E004C018
:1003300000E61AEE20E030E0061717072807390715
:1003400030F48EE191E01F910F910C945E011F91AA
:100350000F910895809149028F70863020F087E1D7
:1003600091E00C945E01089580914A028F3FA1F0C4
:100370000E94A61360934402709345028093460244
:100380009093470280914A0290915502891380937D
:10039000550283E191E013C00E940001613D774066
:1003A0008105910570F080914802803618F48FE045
:1003B00091E005C0877F8093480287E191E00C942B
:1003C0005E010895809153028F3F19F08FE091E014
:1003D00010C00E940001613D77408105910558F0F1
:1003E00080914802803618F48BE091E002C087E0EB
:1003F00091E00C945E0108950E940001613D7740F8
:100400008105910520F48091480281FF0895809133
:1004100054028F3F41F0809148028E7F80934802C2
:100420008BE091E009C080914802803618F487E1A2
:1004300091E002C087E091E00C945E01CF93C82F59
:1004400087E592E00E94F71180917A008F77809380
:100450007A0090916000CF3FB1F0C3FD02C088E008
:1004600001C088E2C770C82B88E10FB6F894A89540
:10047000809360000FBEC093600080916000806533
:10048000809360000BC00FB6F894A895809160002F
:10049000886180936000109260000FBE83B7817FF7
:1004A000846083BFF89483B7816083BF85B780661B
:1004B00085BF8F7D85BF7894889583B78E7F83BFF6
:1004C000F894A89580916000886180936000909373
:1004D0006000789480917A00806880937A00CF9150
:1004E00008951F920F920FB60F9211240F900FBE16
:1004F0000F901F90189508958EBD00000DB407FE53
:10050000FDCF8EB508958CBD9DBD0895CF92DF922D
:10051000EF92FF920F931F93CF93DF93C82F7B012E
:10052000142F022F80E591E00E9483022A988C2FDD
:100530000E947C02E7011123A9F0002349F08FEF0C
:100540000E947C02E114F10459F08883219608C0CE
:100550006E018FEFC81AD80A88810E947C02E601DA
:100560001150E9CF2A9ADF91CF911F910F91FF90FF
:10057000EF90DF90CF900895CF93DF931F92CDB788
:10058000DEB7698320E041E0BE016F5F7F4F0E94CC
:1005900086020F90DF91CF91089529986CE080E258
:1005A0000C94BC0280914902982F9077903759F0B3
:1005B000982F92959F709F5F97709295907F8F78FC
:1005C000892B80934902809148028B7F8F7E809394
:1005D00048020C94CD026FE080E20E94BC02609160
:1005E0001C016F3F19F08AE20E94BC02299A08950B
:1005F000CF939FEF980F9E3FB0F4C82F8093530284
:1006000080931C0163E082E20E94BC0261E081E20F
:100610000E94BC020E94EB026C2F80E090E00E94DE
:10062000CA1B81E004C08FEF8093530280E0CF911A
:10063000089520E040E060E070E00C948602EF92C4
:10064000FF921F93CF93DF93FC0182819091480228
:1006500090FF04C08F3F09F04DC005C08F3F19F0D7
:10066000D091540201C0DFEF809153028083438117
:1006700042FD06C0469546954695C7E0C40F01C0A9
:10068000C0E27F0110915602117029988BE190E031
:100690000197F1F76EE080E20E94BC0283E190E0F6
:1006A0000197F1F76D2F8AE20E94BC026D2F80E363
:1006B0000E94BC0281EE0E941903DF3F21F011115C
:1006C00002C080EA01C080EB4C2FC13208F040E24A
:1006D00020E0B7010E948602299AE12CF12C8FEFCD
:1006E0000E941903C82F807339F481E0E81AF108D9
:1006F000B1F702C010E027C0299860E387E20E94AA
:10070000BC02C4FF03C081EE0E9419030E94EB02E9
:10071000C5FD02C0117001C011E081E0DF3F09F0AA
:1007200080E0182B80915402D8130DC0909149029B
:10073000111106C081E0890F8F70907F982B01C046
:10074000907F90934902812FDF91CF911F91FF906D
:10075000EF9008952091480222FD0C941F0380E041
:1007600008958FEF80934A02E8E4F2E08081886088
:10077000808328E143E06FEF80E00E94F50661E0AE
:100780000E94220E0C941F03809153028F3FB1F4FC
:100790000E94A6136F3F19F060931B0102C01092D4
:1007A0001B0123E043E060911B0180E00E94F506FD
:1007B00063E571E00E9429010C941F030895E8E4A9
:1007C000F2E08081897F81608083E3E5F2E08FEF52
:1007D0008283818327E043E06FEF0E94F50663E5A3
:1007E00071E00E9429010C941F037F928F929F92C7
:1007F000AF92BF92CF92DF92EF92FF920F931F932F
:10080000CF93DF931F92CDB7DEB7E0913E02F09118
:100810003F02309721F00280F381E02D099580910D
:10082000480284FBDD24D0F884FFB4C186E0782E32
:1008300000E01FEF90E0E92E90E0F92E21E2C22EB9
:1008400021E041E060E070E087E10E94860280FDE7
:10085000A1C17A94772009F49DC121E041E060E0D4
:1008600070E080E60E948602A82E80E28A1520F4BD
:1008700082EE0E941903A12C21E04A2D68ED73E05D
:1008800081E60E94860260E487E20E94BC029091A9
:10089000DB03292F2695269526952A3108F029E194
:1008A00092FD03C047E0420F01C040E25091DC03DB
:1008B0009090DD03B090D9033091D8038091DA0392
:1008C000A412BECF492F4370423009F0B9CF452F53
:1008D00047706091490260686093490260915302D9
:1008E00086133DC030E0B901E3E0660F771FEA955B
:1008F000E1F79770962B9093DB03F901E852FC4FD8
:10090000178253FF1FC0E8EDF3E0A7EBB3E09C2D87
:1009100001900D929A95E1F79091BB03977F9061BA
:100920009093BB038093B803B092B90362E070E088
:1009300080E090E049830E946C1387EB93E00E9473
:10094000AA0349812091DC0324FD12C0433081F4C5
:100950009091DD0381EF890F8330B8F571CF8F3F20
:1009600009F06ECF433049F080915402381368CFBC
:1009700088ED93E00E94031663CF8091480282FFC6
:1009800004C087E0981609F45BCF88E0981609F454
:1009900057CF84E1981254CF80915402381350CF2E
:1009A0000E94A6137370882799270E946C13A09049
:1009B000540225E143E06FEF8B2D0E94F5066A2D6E
:1009C0000E94220E0E941F033BCF84E098120EC0AB
:1009D0008091DE0390911B01891719F08F3F09F078
:1009E0002FCF0E94F2170E94F8022ACF88E09812B7
:1009F0001AC0A0904802A0FE23CF0E94F2178F3F9A
:100A000009F41ECF91E0980F9F3F09F419CF809110
:100A10005502981708F014CFA1FC12CF90935502FD
:100A2000B09254020DCF88E1981208C029E143E04A
:100A30006FEF8B2D0E94F50661E0C2CF89E198121D
:100A40000CC08091480283FFFBCE877F80934802D1
:100A50000E94F21780934A02F3CE8091D90381114C
:100A60007CC09D3059F498E088E10FB6F894A895C1
:100A7000809360000FBE90936000FFCF9B3169F4BC
:100A80000E94F21791E0811101C090E08091520222
:100A900090FB80F980935202D3CE9630A9F49091C6
:100AA000DF03992329F081E09D3419F080E001C033
:100AB0008D2D8093510241E050E063E071E081E5CB
:100AC00092E00E94BA1BBCCE933119F40E94F5103B
:100AD000B7CE9231D9F40E9400014B015C0126E1AE
:100AE00043E06FEF80E00E94F506FC0184818F7186
:100AF000806A848383818770806283838782908603
:100B0000A186B286CF010E94AA039ACE9130F9F451
:100B1000E114F10409F494CE22952695277025302E
:100B200049F46091DF037091E0038091E1039091BB
:100B3000E2030AC0211105C08FED93E00E943A1A2A
:100B400003C060E070E0CB010E94000079CE9A30D3
:100B500009F476CE9C3121F473CE9A3109F470CE2B
:100B60008EE1981609F46CCE8DE1981201CF2FE139
:100B700043E06FEF80E00E94F506FC0184818F71F5
:100B80008064848383818770806183831087078377
:100B9000CF0118CF0F90DF91CF911F910F91FF9050
:100BA000EF90DF90CF90BF90AF909F908F907F900D
:100BB0000895219A229A29982A9A0E9437176EE05E
:100BC00080E20E94BC0265E070E080E090E00E945C
:100BD0006C1363E083E20E94BC026FE584E20E9432
:100BE000BC026CE485E20E94BC0265E286E20E94DF
:100BF000BC0263E780E50E94BC0264E08DE30E94D2
:100C0000BC0221E041E060E070E086E00E948602E4
:100C1000853209F04AC021E041E060E070E085E003
:100C20000E9486028C3409F040C062E082E20E9499
:100C3000BC0260E081E20E94BC0263E08CE30E949F
:100C4000BC028FEF8093020120E045E062E071E09A
:100C50008BE20E94860220E045E062E071E08AE2D9
:100C60000E94860220E045E062E071E080E30E949D
:100C7000860282EE0E94190381EE0E94190360E74A
:100C800087E20E94BC028091480280618093480202
:100C9000809156028E7F80935602809153028F3F3F
:100CA00039F00E94F802811103C087E091E002C090
:100CB00087E191E00C945E01CF92DF92EF92FF9278
:100CC0000F931F93CF93DF936C017A018B01C0E0E8
:100CD000D0E0CE15DF0589F0D8016D918D01D601E8
:100CE000ED91FC910190F081E02DC6010995892BD1
:100CF00011F47E0102C02196ECCFC701DF91CF91A4
:100D00001F910F91FF90EF90DF90CF90089587E5AE
:100D100092E00E94831121E0892B09F420E0822FC8
:100D20000895CF92DF92EF92FF920F931F93CF938C
:100D3000DF93909192039F3F51F4DF91CF911F91E8
:100D40000F91FF90EF90DF90CF900C947C02E82EF3
:100D5000C7E0D0E0D12C01E010E0DD0C60E0809134
:100D600092030E940013B8010C2E01C0660F0A9472
:100D7000EAF76E21809190030E94001361E0809158
:100D800092030E9400132091910330E0F901E6568E
:100D9000FF4F8491F901EA57FF4FC490F901EE58D3
:100DA000FF4FF490FF2071F081110E94D712EF2DB8
:100DB000F0E0EE0FFF1FE859FF4FA591B491EC91C1
:100DC000EC2169F4219708F0C8CF8D2DDF91CF91E8
:100DD0001F910F91FF90EF90DF90CF9008958D2D90
:100DE0008160D82EEFCF0E941F1FE7EBF3E09091B8
:100DF0005302918382836683258347708481807E3A
:100E0000482B4483CF010895009769F0FC010190BD
:100E10000020E9F73197AF01481B590BBC0187E56A
:100E200092E00C945C0680E090E008950F931F938D
:100E3000CF93DF938C01C0E0D0E0F801EC0FFD1FF1
:100E40006491662371F0E0915702F091580201908D
:100E5000F081E02D87E592E00995892B11F021962C
:100E6000ECCF81E591E00E9404078C0F9D1FDF917C
:100E7000CF911F910F910895FC01809153028183BE
:100E80009481907F916094838091520280FF03C08F
:100E9000CF010C94AA0380E00895CF93DF93262F0F
:100EA0008F3F11F0EA0102C0C4E5D1E040E0682FB5
:100EB00080E00E94F506BE010E942901DF91CF91DA
:100EC0000C94AA03CF93DF93D82FC62F80918F0362
:100ED0008F3F59F58091860391E090935002809363
:100EE0004F0210924E0210924D0280918403909115
:100EF0008503DC01ED91FC910190F081E02D6D2FD7
:100F000009958091840390918503DC01ED91FC911A
:100F10000190F081E02D6C2F0995809184039091D0
:100F20008503DF91CF910C948F16809192038F3FB0
:100F300021F480E591E00E94830260E080918F03BC
:100F40000E9400138D2F8F770E9491068C2F0E9494
:100F5000910661E080918F030E94001380919203BB
:100F60008F3F21F4DF91CF910C947B02DF91CF91E1
:100F700008950F931F93CF93DF93C5EBD3E0829532
:100F8000880F880F807C67704770942F990F990F96
:100F9000990F482F462B492B4883E6EBF3E0922F1D
:100FA0009295990F907E80818F71892B808304EBBD
:100FB00013E0F8018081807C8083622F677082EF6C
:100FC0000E946207F8019081692F6770F0E26F9FBD
:100FD00090011124892F869586958695877048E023
:100FE000849FB0011124622B732B97FB992790F9F2
:100FF000692B85EF0E9462079881692F677080E2F4
:10100000689F90011124892F869586958695877013
:10101000E8E08E9FB0011124622B732B9295969578
:1010200096959370692B84EFDF91CF911F910F916B
:101030000C946207CF93C82F80918F038F3F99F54F
:101040008091860391E09093500280934F0210921A
:101050004E0210924D028091840390918503DC0131
:10106000ED91FC910190F081E02D6C2F099580911C
:101070008403909185030E948F1641E0609186035E
:1010800080918403909185030E94EC1680918403E3
:1010900090918503DC01ED91FC910284F385E02DB4
:1010A0000995C82F20C0809192038F3F21F480E5DD
:1010B00091E00E94830260E080918F030E94001300
:1010C0008C2F80680E94910680E00E949106C82FB4
:1010D00061E080918F030E940013809192038F3F03
:1010E00011F40E947B028C2FCF910895CF93DF9350
:1010F000C82F80918F038F3F09F044C080918603F1
:1011000091E09093500280934F0210924E02109201
:101110004D028091840390918503DC01ED91FC9157
:101120000190F081E02D6C2F0995809184039091BE
:1011300085030E948F1642E06091860380918403AC
:10114000909185030E94EC16809184039091850311
:10115000DC01ED91FC910284F385E02D0995C82F07
:101160008091840390918503DC01ED91FC910284D0
:10117000F385E02D099520E030E03C2FE901C82BF4
:10118000D92B29C0809192038F3F21F480E591E013
:101190000E94830260E080918F030E9400138C2FD5
:1011A00080680E94910680E00E949106C82F80E02E
:1011B0000E9491062C2F30E0322F2227E901C82B04
:1011C00061E080918F030E940013809192038F3F12
:1011D00011F40E947B02CE01DF91CF9108950E940D
:1011E000760898278927982708958F929F92AF9223
:1011F000BF920F931F93CF93DF93CDB7DEB7A19725
:101200000FB6F894DEBF0FBECDBF19A2423008F46E
:101210004AE08E010F5D1F4F842E912CA12CB12C22
:10122000A50194010E94A91DE62FB901CA01015030
:101230001109EA3014F4E05D01C0E95CD801EC93D7
:10124000232B242B252B61F7C8010E940407A196AC
:101250000FB6F894DEBF0FBECDBFDF91CF911F91C7
:101260000F91BF90AF909F908F900895CF92DF9293
:10127000EF92FF92CF93DF936B017C01E0915702D5
:10128000F09158020190F081E02D6DE287E592E047
:101290000995EC0166277727CB016C197D098E092A
:1012A0009F094AE00E94F5088C0F9D1FDF91CF91A6
:1012B000FF90EF90DF90CF900895CF93DF930E943F
:1012C0000407EC0181E591E00E9404078C0F9D1F4B
:1012D000DF91CF910895CF92DF92EF92FF92CF935B
:1012E000DF93D82F0E94A6136B017C0181E0D111FE
:1012F00080E08093DD03C0E00E94A613AB01BC0137
:101300004C195D096E097F09403D57406105710523
:1013100080F4C1110EC0A8950E94F5039091DC03E2
:101320009770933049F7C1E08091DD038D13E3CFCF
:10133000E3CF8C2FDF91CF91FF90EF90DF90CF9094
:1013400008954F925F926F927F928F929F92AF9289
:10135000BF92CF92DF92EF92FF920F931F93CF93A2
:10136000DF934B015C01D42F8091480282FD1FC0A6
:101370000E94A6136B017C0180E090E0DC012091CB
:10138000480222FDB3C088159905AA05BB0508F0DF
:10139000B3C0803127E29207A105B10508F49AC0D5
:1013A00075016401C81AD90AEA0AFB0A02C075016C
:1013B0006401DD2379F1D701C6010197A109B109C3
:1013C000873E9340A105B10528F4C501B4010E94F0
:1013D000FA0D92C020E243E06FEF80E00E94F50634
:1013E000FC0184818F71806A84838381877080622D
:1013F000838388EE93E0A0E0B0E087839087A187A5
:10140000B287CF010E94AA0368EE73E080E090E00B
:101410000E94FA0D0E94CD02C114D104E104F1042E
:1014200061F1460157018FE0880E911CA11CB11C8F
:1014300001E010E080911D018F3F11F520E182163F
:101440009104A104B104E0F089E094E0980F280130
:1014500002C0440C551C9A95E2F7612C712C84143F
:101460009504A604B70438F00E941E02841895085B
:10147000A608B708DFCF8150E8CF8FEF0E941E0289
:1014800080911D018F3F19F0C0911D0101C0CFEF68
:101490008FEF80931D0129986EE080E20E94BC02CC
:1014A000DD23B1F021E243E06FEF80E00E94F5061A
:1014B000FC0184818F71806A84838381877080625C
:1014C0008383C782D086E186F286CF010E94AA0379
:1014D0008C2F13C0A8950E94F5030E94A613DC016F
:1014E000CB018C199D09AE09BF0949CF8815990513
:1014F000AA05BB0508F454CF8EEFDF91CF911F9161
:101500000F91FF90EF90DF90CF90BF90AF909F90A2
:101510008F907F906F905F904F90089540E00C9473
:10152000A1098F929F92AF92BF92CF92DF92EF92DA
:10153000FF9280918F038F3F09F064C080918603F2
:1015400091E09093500280934F0210924E021092BD
:101550004D028091840390918503DC01ED91FC9113
:101560000190F081E02D6AEF0995809184039091BC
:1015700085030E948F1643E0609186038091840367
:10158000909185030E94EC168091840390918503CD
:10159000DC01ED91FC910284F385E02D09956C014D
:1015A000990FEE08FF08FE2CED2CDC2CCC2480914A
:1015B000840390918503DC01ED91FC910284F38515
:1015C000E02D0995AC01990F660B770BC42AD52A3B
:1015D000E62AF72AFE2CED2CDC2CCC248091840307
:1015E00090918503DC01ED91FC910284F385E02D5F
:1015F0000995AC01990F660B770BC42AD52AE62A08
:10160000F72A32C0809192038F3F21F480E591E068
:101610000E94830260E080918F030E9400138AEF92
:101620000E94910680E00E949106C82ED12CE12CE8
:10163000F12CFE2CED2CDC2CCC2480E00E949106B9
:10164000C82AFE2CED2CDC2CCC2480E00E949106D4
:10165000C82A61E080918F030E9400138091920359
:101660008F3F11F40E947B02C114D104B0E8EB0655
:10167000F10409F475C08091930390919403A0E064
:10168000B0E08D2C9E2CAF2CBB24A7FCBA94881AFA
:10169000990AAA0ABB0A37E0F594E794D794C7944D
:1016A0003A95D1F7880F991FAA1FBB1FA701960172
:1016B000281B390B4A0B5B0BA0919503B091960345
:1016C0000E94CB1D6B017C015BE0F594E794D794FD
:1016D000C7945A95D1F7A5019401C501B4010E94A0
:1016E000851D9B01AC016CE0559547953795279575
:1016F0006A95D1F7A0919703B09198030E94CB1DF2
:10170000DC01CB017EE0B595A795979587957A95F5
:10171000D1F7A7019601280F391F4A1F5B1F20939D
:101720008B0330938C0340938D0350938E03A5E07D
:10173000B0E00E94DC1BDC01CB0180589F4FAF4F13
:10174000BF4F692F7A2F8B2F992787FD9A950E947B
:10175000851A20E030E048EC52E40E949A1C04C054
:1017600060E070E080EC9FE7FF90EF90DF90CF901B
:10177000BF90AF909F908F9008952BE043E06FEF64
:1017800080E00E94F5066AE571E00E9429010E944E
:10179000AA032CE043E06FEF80E00E94F50663E6C9
:1017A00071E00E9429010E94AA0348E651E066E028
:1017B00081E00E944D0764E670E080E090E00E94C6
:1017C0008E0A44E751E067E082E00E944D0764E63C
:1017D00070E080E090E00E948E0A4DE751E06EE1FB
:1017E00088EC0E944D0764E670E080E090E00E9483
:1017F0008E0A41E851E067E189EC0C944D07CF92E5
:10180000DF92EF92FF92CF93DF938EE991E00E94F7
:10181000B21BD82F8FE991E00E94B21BC82FD230A3
:1018200009F45FC08FE891E00E945D098CEA91E0C5
:101830000E9404074AE062E070E080E090E00E94CD
:10184000F50881E591E00E94040762E08FE991E0EC
:101850000E94CA1B80EC8093FB0384ED8093FC0301
:1018600091E09093FD031092FE031092FF031092FB
:10187000000410920104109202048EE180930A0485
:1018800010920B0410920C0410920D0410920E048E
:1018900010920F041092100410921104809103030F
:1018A000877088628093030380910403806E809325
:1018B000040340E050E060E070E44093070350937D
:1018C00008036093090370930A0390930B0380E06D
:1018D00093E00E943C0762E08EE991E00E94CA1BFF
:1018E00063C080EC91E00E940407CC2ED12CE12C47
:1018F000F12C4AE0C701B6010E94F50881E591E0AC
:101900000E940407A0E6BAEEA70196010E94DC1B24
:101910006093FB037093FC038093FD039093FE039D
:10192000AB01BC01770F440B542FBA014093FF0366
:101930004093000440930104409302046C2F70E034
:101940008CE390E00E94951D60930A0470930B0451
:10195000770F770B70930C0470930D0470930E0443
:1019600070930F047093100470931104809103031B
:10197000877088628093030380910403806E809354
:101980000403C701B6010E94831A60930703709392
:1019900008038093090390930A0381E080930B036B
:1019A00080E093E00E943C0783E08093220186E779
:1019B0008093860384EF92E0909385038093840361
:1019C00080918F038F3F41F51092380410923704B5
:1019D00010924E0210924D0210923A0481E08093D0
:1019E0003C0410923B0461E082E10E94001361E03C
:1019F00083E10E9400138091B9008E7F8093B9002B
:101A00008091B9008D7F8093B9008DEF8093B800ED
:101A100085E48093BC001CC061E00E94001361E07B
:101A200080918F030E943013809192038F3F19F4AD
:101A30000E9437170DC061E00E94301361E0809171
:101A400090030E94301360E0809191030E94301354
:101A500080ED0E941A08803609F0C7C066EB80EE60
:101A60000E9462076CE271E080E090E00E946C13DB
:101A700083EF0E941A0880FF05C064E670E080E0F2
:101A800090E0F4CF88E80E94EF089093940380934D
:101A900093038AE80E94EF0890939603809395033E
:101AA0008CE80E94EF0890939803809397038EE848
:101AB0000E94EF0890939A038093990380E90E9413
:101AC000EF0890939C0380939B0382E90E94EF08A8
:101AD00090939E0380939D0384E90E94EF08909366
:101AE000A00380939F0386E90E94EF089093A203CE
:101AF0008093A10388E90E94EF089093A403809348
:101B0000A3038AE90E94EF089093A6038093A5039C
:101B10008CE90E94EF089093A8038093A7038EE9B5
:101B20000E94EF089093AA038093A90381EA0E9480
:101B30001A088093AB0381EE0E94EF089093AD03E7
:101B40008093AC0383EE0E941A088093AE0384EE68
:101B50000E941A08C82F85EE0E941A08282F2F709D
:101B600030E1C39FC0011124822B9093B003809376
:101B7000AF0386EE0E941A08C82F85EE0E941A084D
:101B800090E024E0959587952A95E1F740E1C49F80
:101B900090011124822B932B9093B2038093B10375
:101BA00087EE0E941A088093B30325E030E045E0F9
:101BB00050E065E070E083E090E00E94B90764E6E1
:101BC00070E080E090E00E946C1321E030E040E0A3
:101BD00050E061E070E081E090E0DF91CF91FF9014
:101BE000EF90DF90CF900C94B9078EE291E00E94C5
:101BF0001607FFCF8F929F92AF92BF92CF92DF9244
:101C0000EF92FF926B017C010E94A6134B015C01D5
:101C10000E94A613DC01CB0188199909AA09BB0906
:101C20008C159D05AE05BF0520F4A8950E94F5030F
:101C3000EFCFFF90EF90DF90CF90BF90AF909F904D
:101C40008F900895FC0183818770886083838481ED
:101C50008F71806284836783CF0108954F925F9272
:101C60006F927F928F929F92AF92BF92CF92DF92AC
:101C7000EF92FF920F931F93CF93DF939091B50351
:101C8000892F807C803479F00E94910A2B013C01DD
:101C90009B01AC010E94801D882351F185ED91E0EC
:101CA0000E945D0977C0692F677040E2649F9001D0
:101CB0001124892F869586958695877058E0859F93
:101CC000B0011124622B732B929596959695937083
:101CD000692B84EF0E94620783EF0E941A0883FF3A
:101CE000D3CF61E070E080E090E00E946C13F4CF0D
:101CF000209113043091140440911504509116045E
:101D0000C301B2010E947E1A81111CC0E09112042D
:101D1000A0900A04B0900B04C0900C04D0900D0465
:101D2000E0900E04F0900F04009110041091110443
:101D30002E2F30E040E050E060E070E090E00E9444
:101D4000321E29F540921304509214046092150437
:101D50007092160410921204809166038770886254
:101D60008093660380916703806E8093670340923F
:101D70006A0350926B0360926C0370926D0382E071
:101D800080936E0383E693E00E943C0703C0EF5FFD
:101D9000E09312040E94910A8DEF0E947608A0E061
:101DA000B0E0811520E89207A105B10509F4E2C071
:101DB00080908B0390908C03A0908D03B0908E0345
:101DC0003CE2931A31E0A30AB1083EE0880F991F64
:101DD000AA1FBB1F3A95D1F74091AF035091B003B2
:101DE000052E000C660B770BE4E1440F551F661FB0
:101DF000771FEA95D1F76C017D01C41AD50AE60A6E
:101E0000F70AA091B103B091B203A50194010E9419
:101E1000CB1DC61AD70AE80AF90A40E4D40EE11C21
:101E2000F11CFFE0F594E794D794C794FA95D1F7A5
:101E3000A091B3030A2E000CBB0BA50194010E94D4
:101E4000CB1D2B013C01AAE07594679457944794ED
:101E5000AA95D1F7A091AE03B0E00E94DC1BDC0193
:101E6000CB01CBE0B595A79597958795CA95D1F706
:101E7000BC01CD0170588F4F9F4FA30192010E946A
:101E8000851DDC01CB01DAE0B595A795979587957F
:101E9000DA95D1F79C01AD01405E5F4FA091AC0394
:101EA000B091AD030E94CB1DDC01CB01905EAF4F22
:101EB000BF4FBC01CD011EE095958795779567953D
:101EC0001A95D1F7A70196010E94851D6B017C012F
:101ED0000FE095958795779567950A95D1F79B01C2
:101EE000AC010E94851D9B01AC0187E0559547958B
:101EF000379527958A95D1F7A091AB03B0E00E9462
:101F0000DC1BDC01CB0124E0B595A795979587955F
:101F10002A95D1F7A7019601281B390B4A0B5B0BB9
:101F2000DA01C90157FF03C080E090E0DC01813095
:101F30009105A10539E1B30724F080E090E0A0E02D
:101F4000B9E1BC01CD012CE0959587957795679512
:101F50002A95D1F70E94851A20E030E040E85AE344
:101F60000E94E41A2B013C019B01AC010E94801DE0
:101F7000882329F08AEF91E00E945D0952C02091E8
:101F80000604309107044091080450910904C301EC
:101F9000B2010E947E1A81111CC0E0910504A0903C
:101FA0000A04B0900B04C0900C04D0900D04E09093
:101FB0000E04F0900F0400911004109111042E2FC4
:101FC00030E040E050E060E070E090E00E94321EBF
:101FD00029F540920604509207046092080470921A
:101FE00009041092050480914503877088628093EC
:101FF000450380914603806E8093460340924903D7
:1020000050924A0360924B0370924C0381E080939C
:102010004D0382E493E00E943C0703C0EF5FE0932E
:1020200005048091220140E4849FC0011124809323
:102030007C0080917A00806480937A0080917A009D
:1020400086FDFCCF609178008091790070E0782B5C
:10205000072E000C880B990B0E94851A29E037E6A1
:102060004CE55BE30E94E41A2B013C0126E636E6D0
:1020700046EE5FE30E942D1C24E333E343EB5FE372
:102080000E949A1C20E030E048EC52E40E94E41ADE
:102090000E940C1DEB01653671052CF477FF05C01D
:1020A000C0E0D0E002C0C4E6D0E08091030490918B
:1020B00004048C179D07E9F420910504A0900A04FC
:1020C000B0900B04C0900C04D0900D04E0900E046E
:1020D000F0900F04009110041091110430E040E0E2
:1020E00050E060E070E080E090E00E94321E09F075
:1020F00061C080912403877088628093240380915B
:102100002503806E80932503409228035092290373
:1021100060922A0370922B0382E080932C0381E269
:1021200093E00E943C072091FB033091FC03409117
:10213000FD035091FE036091FF037091000480E65F
:10214000A82E9AEEB92EC12CD12CE12CF12C00E056
:1021500010E080910104909102040E94D51D0E941C
:10216000421D2091030327702862209303032091CE
:102170000403206E20930403609307037093080305
:102180008093090390930A0381E080930B0380E01E
:1021900093E00E943C0720E043E06FEF80E00E9464
:1021A000F5066C2F0E94220E0E94AA03D09304040D
:1021B000C09303046091FB037091FC038091FD03C5
:1021C0009091FE0341E0DF91CF911F910F91FF901D
:1021D000EF90DF90CF90BF90AF909F908F907F90C7
:1021E0006F905F904F900C94A109CF932FE043E044
:1021F0006FEF80E00E94F50663E571E00E9429011F
:10220000E7EBF3E0838187708061838384818F7142
:10221000806C848381E087831086CF010E94AA03AB
:102220008FE00E946B0943E551E061E18FEF0E946E
:102230004D07C091540226E043E06FEF80E00E941A
:10224000F5066C2F0E94220E0E94AA0386E00E94CF
:102250006B09CF910C94BD0BCF938091520281FDFD
:102260001FC00E94F510809152028160809352023B
:10227000C4E02AE143E06FEF80E00E94F50662E0EF
:102280000E94220E0E94AA038BE10E946B09811119
:1022900002C0C15071F78091520282608093520255
:1022A000CF910895FC01538D448D252F30E0842F6C
:1022B00090E0821B930B541710F0CF96089501976E
:1022C0000895FC01918D828D981761F0828DDF0158
:1022D000A80FB11D5D968C91928D9F5F9F73928F19
:1022E00090E008958FEF9FEF0895FC01918D828D0E
:1022F000981731F0828DE80FF11D858D90E00895DB
:102300008FEF9FEF0895FC01918D228D892F90E032
:10231000805C9F4F821B91098F7399270895FC0160
:10232000848DDF01A80FB11DA35ABF4F2C91848D5E
:1023300090E001968F739927848FA689B7892C9393
:10234000A089B1898C9180648C93938D848D98132E
:1023500006C00288F389E02D80818F7D80830895F7
:10236000EF92FF920F931F93CF93DF93EC0181E0E5
:10237000888F9B8D8C8D981305C0E889F9898081A1
:1023800085FD24C0F62E0B8D10E00F5F1F4F0F73DD
:102390001127E02E8C8DE8120CC00FB607FCFACF87
:1023A000E889F989808185FFF5CFCE010E948F11E0
:1023B000F1CF8B8DFE01E80FF11DE35AFF4FF08244
:1023C0000B8FEA89FB898081806207C0EE89FF89D3
:1023D0006083E889F98980818064808381E090E06E
:1023E000DF91CF911F910F91FF90EF900895CF93C0
:1023F000DF93EC01888D8823C9F0EA89FB8980810D
:1024000085FD05C0A889B9898C9186FD0FC00FB6DE
:1024100007FCF5CF808185FFF2CFA889B9898C911F
:1024200085FFEDCFCE010E948F11E7CFDF91CF91D5
:10243000089580E090E0892B29F00E9487068111A1
:102440000C94000008953FB7F8948091AC049091EB
:10245000AD04A091AE04B091AF0426B5A89B05C011
:102460002F3F19F00196A11DB11D3FBFBA2FA92F13
:10247000982F8827820F911DA11DB11DBC01CD0190
:1024800046E0660F771F881F991F4A95D1F7089578
:10249000089585ED8093BC008091BC0084FDFCCF45
:1024A00010923A0408950895E09138048091370419
:1024B000E81730F4F0E0E95EFB4F808190E008958A
:1024C0008FEF9FEF0895909138048091370498170B
:1024D00050F4E92FF0E0E95EFB4F208130E09F5F90
:1024E0009093380402C02FEF3FEFC9010895809107
:1024F000370490E020913804821B910908951F92BF
:102500000F920FB60F9211242F933F934F935F9327
:102510006F937F938F939F93AF93BF93EF93FF93AB
:1025200087E592E00E948F11FF91EF91BF91AF91EB
:102530009F918F917F916F915F914F913F912F91DB
:102540000F900FBE0F901F9018951F920F920FB60D
:102550000F9211242F938F939F93EF93FF93E0910A
:102560006702F09168028081E0916D02F0916E0245
:1025700082FD12C09081809170028F5F8F732091D5
:102580007102821751F0E0917002F0E0E95AFD4FBC
:10259000958F8093700201C08081FF91EF919F9190
:1025A0008F912F910F900FBE0F901F901895833031
:1025B00081F028F4813099F08230A1F008958730BD
:1025C000A9F08830B9F08430D1F4809180008F7DFB
:1025D00003C0809180008F7780938000089584B538
:1025E0008F7702C084B58F7D84BD08958091B0003F
:1025F0008F7703C08091B0008F7D8093B0000895E5
:102600001F93CF93DF93282F30E0F901E656FF4F59
:102610008491F901EA57FF4FD491F901EE58FF4F29
:10262000C491CC23C9F0162F81110E94D712EC2F30
:10263000F0E0EE0FFF1FE558FE4FA591B4918FB764
:10264000F894111105C09C91ED2FE095E92302C08B
:10265000EC91ED2BEC938FBFDF91CF911F910895FB
:10266000CF93DF9390E0FC01EA57FF4F2491FC01E8
:10267000EE58FF4F8491882361F190E0880F991FF5
:10268000FC01EF58FE4FC591D491FC01E558FE4F77
:10269000A591B491611109C09FB7F89488812095E4
:1026A00082238883EC912E230BC0623061F49FB7A4
:1026B000F8943881822F809583238883EC912E2B88
:1026C0002C939FBF06C08FB7F894E8812E2B2883E8
:1026D0008FBFDF91CF9108958F929F92AF92BF925B
:1026E000CF92DF92EF92FF926B017C010E94231246
:1026F0004B015C01C114D104E104F104F1F00E942A
:102700002312DC01CB0188199909AA09BB09883E6B
:102710009340A105B10570F321E0C21AD108E10888
:10272000F10888EE880E83E0981EA11CB11CC1142C
:10273000D104E104F10419F7DDCFFF90EF90DF90B1
:10274000CF90BF90AF909F908F9008952FB7F8943F
:102750006091A8047091A9048091AA049091AB049F
:102760002FBF08951F920F920FB60F9211242F932F
:102770003F938F939F93AF93BF938091A8049091C1
:10278000A904A091AA04B091AB043091A70420E35E
:10279000230F2D3720F44096A11DB11D05C023EB5A
:1027A000230F4196A11DB11D2093A7048093A80477
:1027B0009093A904A093AA04B093AB048091AC04B5
:1027C0009091AD04A091AE04B091AF040196A11D0B
:1027D000B11D8093AC049093AD04A093AE04B0936C
:1027E000AF04BF91AF919F918F913F912F910F9027
:1027F0000FBE0F901F9018951F920F920FB60F9259
:1028000011242F933F934F935F936F937F938F93F5
:102810009F93AF93BF93EF93FF93E0912501F091C6
:1028200026010995FF91EF91BF91AF919F918F91F3
:102830007F916F915F914F913F912F910F900FBEBC
:102840000F901F9018951F920F920FB60F921124A0
:102850002F933F934F935F936F937F938F939F93A8
:10286000AF93BF93EF93FF93E0912301F091240185
:102870000995FF91EF91BF91AF919F918F917F91BA
:102880006F915F914F913F912F910F900FBE0F90DD
:102890001F9018951F920F920FB60F9211242F932D
:1028A0003F934F935F936F937F938F939F93AF93D8
:1028B000BF93EF93FF938091B900887F803609F42E
:1028C0009CC068F5883209F45BC090F4803109F44B
:1028D00054C038F4882309F4F6C0883009F44DC098
:1028E000F6C0883109F44CC0803209F45DC0EFC0F5
:1028F000803409F468C048F4803309F455C0883343
:1029000009F0E5C080933904D8C0803509F44FC080
:10291000883509F45DC0883409F0D9C0D6C088393B
:1029200009F4C7C0A8F4883709F467C038F48836BA
:1029300009F463C0803709F460C0C9C0883809F45D
:10294000B8C0803909F45FC0803809F0C0C05BC0EE
:10295000803B09F486C038F4803A09F466C0883AAE
:1029600009F47FC0B4C0803C09F4A7C0883C09F4D6
:10297000A4C0883B09F48AC0AAC080915F0410C03B
:1029800090915E0480915D04981770F5E0915E046B
:1029900081E08E0F80935E04F0E0E35CFB4F80816A
:1029A0008093BB0085EC86C0809339048EC0E09193
:1029B0005E0481E08E0F80935E048091BB00F0E0A6
:1029C000E35CFB4F808390915E0480915D046EC058
:1029D000E0915E0481E08E0F80935E048091BB00E5
:1029E000F0E0E35CFB4F808380913C0481116DC07B
:1029F00081E080933B0484EA61C083E080933A04E1
:102A00001092A604CFCF8091A604803208F051C066
:102A1000E091A60481E08E0F8093A6048091BB0014
:102A2000F0E0EA57FB4F8083BDCF85EC8093BC007C
:102A300010923A048091A604803230F4E091A6040A
:102A4000F0E0EA57FB4F10826091A60470E0E0913D
:102A50008404F091850486E894E009951092A60418
:102A600036C084E080933A0410928304109282046A
:102A7000E0918004F0918104099580918204811194
:102A800005C081E08093820410926004E091830489
:102A900081E08E0F80938304F0E0E05AFB4F808149
:102AA0008093BB009091830480918204981708F46E
:102AB00079CF85E88093BC000AC085EC8093BC0088
:102AC00010923A0404C0109239040E944912FF91F6
:102AD000EF91BF91AF919F918F917F916F915F9196
:102AE0004F913F912F910F900FBE0F901F9018950F
:102AF00040918204262F30E0240F311D2132310510
:102B0000DCF420913A042430C9F4FC0180E090E028
:102B1000861758F4309182042191DC01A05ABB4FF2
:102B2000A30FB11D2C930196F3CF80918204680FFF
:102B30006093820480E0089581E0089582E0089522
:102B4000089580E090E00895CF92DF92EF92FF9297
:102B50000F931F93CF93DF937C01262F972F8A012A
:102B600080915002882391F0C62FD72F6E01C40E9A
:102B7000D51ECC15DD0571F06991D701ED91FC9161
:102B80000190F081E02DC7010995F3CF642F822FCA
:102B90000E947815C801DF91CF911F910F91FF908E
:102BA000EF90DF90CF900895CF93DF931F92CDB732
:102BB000DEB76983209150022223D1F020914D028B
:102BC000203240F021E030E0FC013383228380E0BA
:102BD00090E015C080914E02E82FF0E0EF54FB4FDB
:102BE000998190838F5F80934E0280934D0205C040
:102BF00061E0CE0101960E94781581E090E00F908F
:102C0000DF91CF9108950F931F93CF93DF93FC0132
:102C10008681893C09F07EC08481982F977091301D
:102C200009F078C09581983109F074C08F018295C0
:102C300086958770B1F4095F1F4F99F0F8010190F4
:102C40000020E9F7BF01601B710B80E090E00E945B
:102C5000551EEC01009739F01882B8010E942D1F13
:102C600002C0C0E0D0E08BE192E00E940407209710
:102C700041F0CE010E943A1A97FF06C00E94360921
:102C800006C060E070E0CB014AE00E94F50881E5F3
:102C900091E00E940407209721F0CE010E943A1A89
:102CA00001C060E08FE991E00E94CA1B209721F0EB
:102CB000CE010E943A1A03C060E070E0CB0120917F
:102CC0000303277028622093030320910403206EDE
:102CD000209304030E94851A6093070370930803EE
:102CE0008093090390930A0381E080930B0380E0B3
:102CF00093E00E943C0764EF71E080E090E00E9466
:102D00008E0A8091600088618093600088E08093E3
:102D10006000FFCFDF91CF911F910F910895209117
:102D20004D0290914F02213208F04AC080913A043E
:102D30008111FCCF32E030933A0431E030933C040F
:102D40003FEF3093390410925E0420935D04A1EBB1
:102D5000B4E04DE354E0FA013E2F341B321718F46F
:102D60003D913193F9CF10925F0420915F04990F48
:102D7000922B90935F0490913B04913061F41092F8
:102D80003B0490915F049093BB009091BC0093FD35
:102D9000F8CF95EC01C095EE9093BC0090913A0469
:102DA0009230E1F3909139049F3F79F0809139049A
:102DB000803241F080913904803331F084E005C0E5
:102DC00081E003C082E001C083E010924E021092C5
:102DD0004D0210925002089580913A048111FCCF67
:102DE000842F413208F080E291E090933A0490936E
:102DF0003C042FEF2093390410925E04280F209397
:102E00005D0490935F0490915F04660F692B60935B
:102E10005F0490913B04913061F410923B049091D7
:102E20005F049093BB009091BC0093FDF8CF95ECAC
:102E300001C095EE9093BC0090913A049130E1F37B
:102E400090915E04981710F480915E04ADE3B4E0B5
:102E500027E134E0F9019E2F921B981718F49D91F9
:102E60009193F9CF10923804809337040895CF934B
:102E7000CFB7F8948091B004811127C0ECE7F0E05F
:102E80008491E0E9F0E09491E82FF0E0EE0FFF1F6D
:102E9000EF58FE4FA591B491EC91E92321F461E044
:102EA0008AE00E94001361E08AE00E9430138CB532
:102EB00080618CBD8CB580648CBD61E08DE00E942A
:102EC000301361E08BE00E9430138091B0048F5F7B
:102ED0008093B004CFBFCF910895CF93DF93FC01CF
:102EE000108211821282148215821682DC011796DA
:102EF0008AE1ED0119928A95E9F782E08383DF91F7
:102F0000CF910895CF93E7E5F2E01382128288EE25
:102F100093E0A0E0B0E084839583A683B78321E3A8
:102F200031E03183208325EC30E03587248724ECA1
:102F300030E03787268720EC30E0318B208B21EC86
:102F400030E0338B228B22EC30E0358B248B26EC67
:102F500030E0378B268B118E128E138E148EE4EF99
:102F6000F2E01382128284839583A683B78383E47D
:102F700091E09183808388ED93E00E946D1787EB49
:102F800093E00E946D17E4E8F3E08FEF8387848776
:102F90008587868783E693E00E946D17E3E6F3E07A
:102FA000C1E0C683158282E493E00E946D17E2E4DB
:102FB000F3E082E08683C58381E293E00E946D178F
:102FC000E1E2F3E088EC868386E2858380E093E0AB
:102FD0000E946D17E0E0F3E089EC868388E1858349
:102FE000CF9108958091DC0382958695877081301A
:102FF00019F48091DF030895811105C08FED93E0EE
:103000000E941C1A089580E00895789484B5826027
:1030100084BD84B5816084BD85B5826085BD85B57C
:10302000816085BD80916E00816080936E001092FA
:103030008100809181008260809381008091800076
:103040008160809380008091B10084608093B100A2
:103050008091B00081608093B00080917A008B7F76
:1030600080937A0080917A00826080937A008091C8
:103070007A00816080937A0080917A0080688093E2
:103080007A001092C100A89580E090E0892B11F0A1
:103090000E940000E0916702F091680282E0808364
:1030A000E0916302F09164021082E0916502F09178
:1030B00066028CE0808310926F02E0916B02F091C7
:1030C0006C0286E08083E0916902F0916A0280815F
:1030D00080618083E0916902F0916A02808188605A
:1030E0008083E0916902F0916A0280818068808328
:1030F000E0916902F0916A0280818F7D808300E116
:1031000010E0F12CF801F595E795EB54FF4FE491B1
:1031100000FFE295EF70E83008F05EC0F0E0EB549D
:10312000FF4FF490C1E0D0E0E0915702F0915802D7
:103130000190F081E02D6F2D87E592E00995DF5F2A
:10314000DC13F2CF0F5F1F4F023F1105D9F68EEA55
:1031500090E00E941607809152028D7F8093520268
:1031600080E090E0892B11F00E94000041E050E0E7
:1031700063E071E081E592E00E94A21B6FEF81E0C5
:1031800090E00E94CA1B809149028F788093490287
:1031900010923F0210923E028EE191E00E945E0189
:1031A0008CE291E19093FA038093F9030E94A613B5
:1031B0000E94A6130E94F503A8958091480282FF01
:1031C000F7CF0E94FF0BA895A8950E94F5030E94D7
:1031D0002E0E0E941912F8CFCBEFCE0FA4CFCF93B3
:1031E000DF938230910510F482E090E0E091D30407
:1031F000F091D40420E030E0C0E0D0E0309711F14D
:103200004081518148175907C0F04817590761F4A8
:1032100082819381209719F09B838A832BC090939E
:10322000D4048093D30426C02115310519F0421728
:10323000530718F49A01BE01DF01EF010280F38108
:10324000E02DDCCF2115310509F1281B390B243085
:10325000310590F412968D919C911397611571052B
:1032600021F0FB019383828304C09093D404809364
:10327000D304FD01329644C0FD01E20FF31F819398
:103280009193225031092D933C933AC02091D1045F
:103290003091D204232B41F42091290130912A014D
:1032A0003093D2042093D10420912701309128013A
:1032B0002115310541F42DB73EB740912B015091B6
:1032C0002C01241B350BE091D104F091D204E217BC
:1032D000F307A0F42E1B3F0B2817390778F0AC0139
:1032E0004E5F5F4F2417350748F04E0F5F1F509316
:1032F000D2044093D1048193919302C0E0E0F0E0C6
:10330000CF01DF91CF9108950F931F93CF93DF9358
:10331000009709F48CC0FC0132971382128200914D
:10332000D3041091D4040115110581F42081318159
:10333000820F931F2091D1043091D20428173907AE
:1033400079F5F093D204E093D10471C0D80140E044
:1033500050E0AE17BF0750F412962D913C91139791
:10336000AD012115310509F1D901F3CF9D01DA0134
:103370003383228360817181860F971F82179307A1
:1033800069F4EC0128813981260F371F2E5F3F4FEA
:10339000318320838A819B8193838283452B29F407
:1033A000F093D404E093D30442C01396FC93EE93BD
:1033B0001297ED01499159919E01240F351FE21793
:1033C000F30771F480819181840F951F0296119605
:1033D0009C938E938281938113969C938E931297E4
:1033E000E0E0F0E0D80112968D919C911397009740
:1033F00019F0F8018C01F6CF8D919C9198012E5F08
:103400003F4F820F931F2091D1043091D20428178F
:10341000390769F4309729F41092D4041092D30438
:1034200002C0138212821093D2040093D104DF9160
:10343000CF911F910F910895FC0188279927E89457
:1034400021912032E9F3293010F02E30C8F32B32CD
:1034500041F02D3239F4689404C00E94761A820F2C
:10346000911D219120532A30C0F31EF4909581952F
:103470009F4F08951F93FC0199278827BC01E8946A
:1034800011911032E9F3193010F01E30C8F31B32DD
:1034900051F01D3249F4689406C00E94611A610F10
:1034A000711D811D911D119110531A30B0F33EF41E
:1034B00090958095709561957F4F8F4F9F4F1F918D
:1034C0000895592F482F372F262F660F771F881FF3
:1034D000991F660F771F881F991F620F731F841F24
:1034E000951F660F771F881F991F08957AE0979F91
:1034F000902D879F802D910D112408950E94C01A50
:1035000008F481E00895E89409C097FB3EF4909593
:103510008095709561957F4F8F4F9F4F9923A9F0AC
:10352000F92F96E9BB279395F6958795779567953B
:10353000B795F111F8CFFAF4BB0F11F460FF1BC07F
:103540006F5F7F4F8F4F9F4F16C0882311F096E912
:1035500011C0772321F09EE8872F762F05C06623C0
:1035600071F096E8862F70E060E02AF09A95660F79
:10357000771F881FDAF7880F9695879597F9089532
:10358000990F0008550FAA0BE0E8FEEF1616170674
:10359000E807F907C0F012161306E407F50798F0DC
:1035A000621B730B840B950B39F40A2661F0232BF5
:1035B000242B252B21F408950A2609F4A140A69571
:1035C0008FEF811D811D08950E94F71A0C94681BCE
:1035D0000E945A1B38F00E94611B20F0952311F0C5
:1035E0000C94511B0C94571B11240C949C1B0E948F
:1035F000791B70F3959FC1F3950F50E0551F629FA3
:10360000F001729FBB27F00DB11D639FAA27F00D3B
:10361000B11DAA1F649F6627B00DA11D661F829F62
:103620002227B00DA11D621F739FB00DA11D621F47
:10363000839FA00D611D221F749F3327A00D611D64
:10364000231F849F600D211D822F762F6A2F112446
:103650009F5750409AF0F1F088234AF0EE0FFF1F79
:10366000BB1F661F771F881F91505040A9F79E3FD0
:10367000510580F00C94511B0C949C1B5F3FE4F3AC
:10368000983ED4F3869577956795B795F795E79526
:103690009F5FC1F7FE2B880F911D9695879597F92F
:1036A000089597F99F6780E870E060E008959FEFC4
:1036B00080EC089500240A941616170618060906C9
:1036C000089500240A941216130614060506089598
:1036D000092E0394000C11F4882352F0BB0F40F420
:1036E000BF2B11F460FF04C06F5F7F4F8F4F9F4F60
:1036F000089557FD9058440F551F59F05F3F71F0E2
:103700004795880F97FB991F61F09F3F79F0879548
:103710000895121613061406551FF2CF4695F1DFD1
:1037200008C0161617061806991FF1CF8695710561
:10373000610508940895E894BB2766277727CB0195
:1037400097F90895DC01CB01FC01F999FECF06C081
:10375000F2BDE1BDF89A319600B40D92415050404F
:10376000B8F70895F999FECF92BD81BDF89A9927CF
:1037700080B50895DC01A40FB51F4150504048F0BA
:10378000CB01840F951F2E910E94CB1B41505040BE
:10379000D0F70895262FF999FECF92BD81BDF89AF2
:1037A000019700B4021639F01FBA20BD0FB6F89485
:1037B000FA9AF99A0FBE08950E941E1CA59F900DBB
:1037C000B49F900DA49F800D911D112408952F92F8
:1037D0003F924F925F926F927F928F929F92AF92A1
:1037E000BF92CF92DF92EF92FF920F931F93CF93EE
:1037F000DF93CDB7DEB7CA1BDB0B0FB6F894DEBF85
:103800000FBECDBF09942A88398848885F846E84AA
:103810007D848C849B84AA84B984C884DF80EE80F4
:10382000FD800C811B81AA81B981CE0FD11D0FB6FD
:10383000F894DEBF0FBECDBFED010895A29FB00189
:10384000B39FC001A39F700D811D1124911DB29FD4
:10385000700D811D1124911D08955058BB27AA2772
:103860000E94451C0C94681B0E945A1B38F00E9451
:10387000611B20F039F49F3F19F426F40C94571B78
:103880000EF4E095E7FB0C94511BE92F0E94791B85
:1038900058F3BA17620773078407950720F079F485
:1038A000A6F50C949B1B0EF4E0950B2EBA2FA02DC1
:1038B0000B01B90190010C01CA01A0011124FF27DD
:1038C000591B99F0593F50F4503E68F11A16F040D8
:1038D000A22F232F342F4427585FF3CF46953795D7
:1038E0002795A795F0405395C9F77EF41F16BA0B9C
:1038F000620B730B840BBAF09150A1F0FF0FBB1F4A
:10390000661F771F881FC2F70EC0BA0F621F731F92
:10391000841F48F4879577956795B795F7959E3FEF
:1039200008F0B0CF9395880F08F09927EE0F979580
:10393000879508950E94AE1C0C94681B0E94611B21
:1039400058F00E945A1B40F029F45F3F29F00C9474
:10395000511B51110C949C1B0C94571B0E94791BFA
:1039600068F39923B1F3552391F3951B550BBB27AE
:10397000AA2762177307840738F09F5F5F4F220FF3
:10398000331F441FAA1FA9F335D00E2E3AF0E0E8EA
:1039900032D091505040E695001CCAF72BD0FE2F34
:1039A00029D0660F771F881FBB1F261737074807C8
:1039B000AB07B0E809F0BB0B802DBF01FF27935880
:1039C0005F4F3AF09E3F510578F00C94511B0C94D8
:1039D0009C1B5F3FE4F3983ED4F3869577956795FB
:1039E000B795F7959F5FC9F7880F911D96958795B5
:1039F00097F90895E1E0660F771F881FBB1F6217D4
:103A000073078407BA0720F0621B730B840BBA0B91
:103A1000EE1F88F7E09508950E94131D6894B11178
:103A20000C949C1B08950E94811B88F09F5798F06E
:103A3000B92F9927B751B0F0E1F0660F771F881FB3
:103A4000991F1AF0BA95C9F714C0B13091F00E94CD
:103A50009B1BB1E008950C949B1B672F782F882740
:103A6000B85F39F0B93FCCF3869577956795B395F4
:103A7000D9F73EF490958095709561957F4F8F4F63
:103A80009F4F0895E894F92F96EBFF2381F01216CB
:103A900013061406440B9395F695879577956795CD
:103AA00057954040FF23B9F71BC0992708958823F5
:103AB00051F49850D2F7872B762F652F542F432F30
:103AC000322F20E0B1F3121613061406440B88239C
:103AD0003AF09A95440F551F661F771F881FCAF743
:103AE00055234AF4440F551F11F460FF04C06F5F63
:103AF0007F4F8F4F9F4F880F9695879597F9089521
:103B00000E94C01A880B990B0895DB018F939F9335
:103B10000E94DC1BBF91AF91A29F800D911DA39FBE
:103B2000900DB29F900D1124089597FB072E16F467
:103B3000009407D077FD09D00E943B1E07FC05D0FA
:103B40003EF4909581959F4F0895709561957F4FB4
:103B50000895A1E21A2EAA1BBB1BFD010DC0AA1FCE
:103B6000BB1FEE1FFF1FA217B307E407F50720F0E6
:103B7000A21BB30BE40BF50B661F771F881F991F61
:103B80001A9469F760957095809590959B01AC01AA
:103B9000BD01CF010895B7FF0C94DC1B0E94DC1B14
:103BA000821B930B0895689401C0E8948F929F92B2
:103BB000CF93DF930E94E11DDF91CF919F908F9073
:103BC000089588249924F401E401B0E49F93AA277E
:103BD0009A158B049C04ED05FE05CF05D007A107BF
:103BE00098F4AD2FDC2FCF2FFE2FE92D982C892EA6
:103BF000982F872F762F652F542F432F322F222770
:103C0000B85031F7BF9127C01B2EBF91BB27220FA1
:103C1000331F441F551F661F771F881F991F881C5D
:103C2000991CEE1FFF1FCC1FDD1FAA1FBB1F8A148C
:103C30009B04EC05FD05CE05DF05A007B10748F0A4
:103C40008A189B08EC09FD09CE09DF09A00BB10B0E
:103C500021601A94E1F62EF49401AF01BE01CD016A
:103C6000000C08952A153B054C055D056E057F0582
:103C7000800791070895AA1BBB1B51E107C0AA1F2B
:103C8000BB1FA617B70710F0A61BB70B881F991FFD
:103C90005A95A9F780959095BC01CD010895EE0F36
:103CA000FF1F0590F491E02D0994A0E0B0E0EBE552
:103CB000FEE10C94EB1BEC01009721F4CB010E9478
:103CC000EF18B8C0FC01E60FF71F9C012250310924
:103CD000E217F30708F4ACC0D9010D911C911197BC
:103CE00006171707B0F00530110508F49FC0C8018A
:103CF00004978617970708F499C002501109061B0C
:103D0000170B019311936D937C93CF010E9484193B
:103D10008DC05B01A01AB10A4C01800E911EA091CA
:103D2000D304B091D40440E050E0E12CF12C109782
:103D300009F44AC0A815B905D1F56D907C9011978A
:103D4000630182E0C80ED11CCA14DB0480F1A30118
:103D50004A195B096A0182E0C80ED11C1296BC9018
:103D600012971396AC91B5E0CB16D10440F0B28215
:103D7000A38351834083D9016D937C930AC00E5F66
:103D80001F4FC301800F911FF90191838083EB2D99
:103D9000FA2FE114F10431F0D7011396FC93EE935E
:103DA000129744C0F093D404E093D3043FC08D91A4
:103DB0009C9111974817590708F4AC017D011296A0
:103DC0000D90BC91A02DB3CF8091D1049091D204DD
:103DD00088159905E1F446175707C8F48091270123
:103DE00090912801009741F48DB79EB740912B0127
:103DF00050912C01841B950BE817F907C8F4F09338
:103E0000D204E093D104F901718360830FC0CB0128
:103E10000E94EF187C01009759F0A801BE010E9492
:103E2000241FCE010E948419C70104C0CE0102C024
:103E300080E090E0CDB7DEB7EEE00C94071C81E0A7
:103E400090E0F8940C94431FFB01DC0102C0019048
:103E50000D9241505040D8F70895FB01DC010190CC
:103E60000D920020E1F70895FB01DC014150504024
:103E700048F001900D920020C9F701C01D924150F9
:0A3E80005040E0F70895F894FFCFDA
:103E8A00FFFF00FCE1A8A8D2028A01C403E201B143
:103E9A0003B401EE00AA01DF03FC01FFFFFF1301D7
:103EAA00D90501481248120000D50480000000001C
:103EBA0000B0115C065211F71183116111751100DE
:103ECA00000000D415A415A11553127712631254D9
:103EDA00120D0A00322E332E300054656D704E6F6B
:103EEA00646500312E31320054656D7065726174FB
:103EFA007572650048756D69646974790056434343
:103F0A00006366675F536C65657074696D6500462A
:103F1A006972737420426F6F742C207365747469AC
:103F2A006E672044656661756C74730053746F72B2
:103F3A0065202D20536C65657074696D653A2000A3
:103F4A00536C65657074696D6520696E2045707281
:103F5A006F6D3A20004661696C6564207265616420
:103F6A00696E672074656D7065726174757265201B
:103F7A0066726F6D2044485421004661696C65641D
:103F8A002072656164696E672068756D6964697419
:103F9A00792066726F6D204448540052454D4F5443
:103FAA00452D434F4E4649473A20476F74206E6568
:0E3FBA007720536C65657074696D653A200060
:00000001FF
