:100000000C94C4000C947C120C9455120C94EC00CB
:100010000C94EC000C94EC000C94D3030C94EC00C6
:100020000C94EC000C94EC000C94EC000C94EC00A0
:100030000C94EC000C94EC000C94EC000C94EC0090
:100040000C940B120C94EC000C94C9120C94A31297
:100050000C94EC000C94EC000C94EC000C94EC0070
:100060000C94BB130C94EC00436F756C64206E6FA2
:10007000742066696E6420612076616C6964204238
:100080004D453238302073656E736F722C20636873
:1000900065636B20776972696E67206F72204932E1
:1000A00043206164647265737321000000000024C2
:1000B0000027002A0000000000250028002B003245
:1000C0002E332E310A00207C5F5C2F602C0A070241
:1000D000200220B2871003400120002402221002D7
:1000E00022020220022200222002022022271013D4
:1000F00041010101032220304020305203402214EC
:100100000203105224022171010010101210122259
:1001100010100224010103220300200101003220FB
:1001200037121001213226012840322212101212F9
:1001300022432224121001222470C122240F0F0016
:100140000000002300260029000404040404040421
:100150000402020202020203030303030301020476
:100160000810204080010204081020010204081039
:100170002000000008000201000003040700000046
:10018000000000000000501B11241FBECFEFD8E07C
:10019000DEBFCDBF14E0A0E0B1E0E2E2FFE302C0C9
:1001A00005900D92A63BB107D9F728E0A6EBB4E085
:1001B00001C01D92AE33B207E1F710E0C4ECD0E00D
:1001C00004C02197FE010E94751FC33CD107C9F7E7
:1001D0000E94651A0C948F1F0C9400008091AA0550
:1001E00084608093AA058091AB0580788093AB05ED
:1001F000E0910105F0910205309709F00994089506
:10020000FC019481929596959770923019F48781AC
:1002100090850895911104C0CF0107960C94161C87
:1002200080E090E00895EAEAF5E08081877F8F7EA4
:1002300080831092A6051092A7051092A80510922F
:10024000A90544E050E060E070E081EB95E00C949B
:100250009C1DFC0184818F718064848383818770FD
:100260008061838370876783CF010895CF93DF9385
:10027000FC0126812A3C09F00BC124812770213022
:1002800009F006C12581283161F02931D9F12A31DF
:1002900009F469C02B3109F497C02C3109F0F8C07A
:1002A000C5C00E940001EC0189E891E00E94E317BB
:1002B000CE010E94F317CF3FD105B8F48BE491E053
:1002C0000E94E5176C2F84EB91E00E94C41DBE01D3
:1002D00085E497E00E9429010E94161764EF71E0FF
:1002E00080E090E00E948F1904C089E691E00E94AE
:1002F000E5178091600088618093600088E08093BA
:100300006000FFCF0E940001EC0189EA91E00E94A9
:10031000E317CE010E94F317C430D105B8F48BE483
:1003200091E00E94E5176C2F85EB91E00E94C41DBF
:10033000BE0184E297E00E9429010E94161764EF33
:1003400071E080E090E00E948F1904C089E691E09E
:100350000E94E5178091600088618093600088E0CA
:1003600080936000FFCF0E940001EC018EEC91E0D1
:100370000E94E317CE010E94F317C230D105B8F4F2
:100380008BE491E00E94E5176C2F86EB91E00E94D0
:10039000C41DBE0183E097E00E9429010E94161748
:1003A00064EF71E080E090E00E948F1904C089E65C
:1003B00091E00E94E5178091600088618093600061
:1003C00088E080936000FFCF0E940001EC0188EF7D
:1003D00091E00E94E317CE010E94F317CE0101972E
:1003E000CC97B8F48BE491E00E94E5176C2F87EB73
:1003F00091E00E94C41DBE0182EE96E00E94290198
:100400000E94161764EF71E080E090E00E948F195F
:1004100004C089E691E00E94E51780916000886140
:100420008093600088E080936000FFCF0E9400010D
:10043000EC018DE192E00E94E317CE010E94F317D8
:10044000CE010197CC97B8F48BE491E00E94E517B8
:100450006C2F83EB91E00E94C41DBE0181EC96E0FD
:100460000E9429010E94161764EF71E080E090E07D
:100470000E948F1904C089E691E00E94E5178091DF
:10048000600088618093600088E080936000FFCF07
:10049000DF91CF910895FC0184818F7180688483FE
:1004A00083818770806283834783508761877287E7
:1004B000CF010895FC0183818770886083838481E4
:1004C0008F71806284836783CF0108950F931F9398
:1004D000CF93DF93EC016115710561F0FB01019091
:1004E0000020E9F73197E61BF70BE931F10518F029
:1004F000E9E101C0E0E00E2F10E08B81282F27708A
:10050000C80133E0880F991F3A95E1F7822B8B835E
:100510008C818F718C83EE2329F0A801CE01079680
:100520000E94801FFE01E00FF11F1782CE01DF91B4
:10053000CF911F910F9108958091AA0584FD0C948D
:1005400039150895E091A005F091A105309721F0AB
:100550000280F381E02D099408950F931F930E9468
:10056000FF110091A2051091A3052091A4053091DF
:10057000A505601B710B820B930B1F910F910895C2
:100580009C018091A0059091A1058217930751F0DD
:100590009091AA059F719093AA053093A10520938D
:1005A000A00505C08091AA05805E8093AA05E09110
:1005B000A005F091A105309721F00190F081E02D88
:1005C00009950E94FF116093A2057093A305809383
:1005D000A4059093A50508950F931F930E94AD0263
:1005E0002091AB052077203729F000E117E220E0C9
:1005F00030E004C000E61AEE20E030E006171707EE
:100600002807390730F480E291E01F910F910C9494
:10061000C0021F910F9108958091AB058F708630B5
:1006200020F087E191E00C94C00208958091AC0520
:100630008F3FA1F00E94FF116093A6057093A7055C
:100640008093A8059093A9058091AC059091B3057E
:1006500089138093B30583E191E013C00E94AD023A
:10066000613D77408105910570F08091AA05803643
:1006700018F48FE091E005C0877F8093AA0587E199
:1006800091E00C94C00208958091B1058F3F19F05C
:100690008FE091E010C00E94AD02613D774081057E
:1006A000910558F08091AA05803618F48BE091E00E
:1006B00002C087E091E00C94C00208950E94AD0250
:1006C000613D77408105910520F48091AA0581FF65
:1006D00008958091B2058F3F41F08091AA058E7FE9
:1006E0008093AA058BE091E009C08091AA0580362D
:1006F00018F487E191E002C087E091E00C94C00219
:10070000CF93C82F85EB95E00E94F10D80917A0080
:100710008F7780937A0090916000CF3FB1F0C3FD56
:1007200002C088E001C088E2C770C82B88E10FB61C
:10073000F894A895809360000FBEC09360008091EC
:1007400060008065809360000BC00FB6F894A89598
:1007500080916000886180936000109260000FBEFD
:1007600083B7817F846083BFF89483B7816083BF40
:1007700085B7806685BF8F7D85BF7894889583B760
:100780008E7F83BFF894A8958091600088618093E4
:10079000600090936000789480917A0080688093E4
:1007A0007A00CF9108951F920F920FB60F921124E5
:1007B0000F900FBE0F901F90189508958EBD0000EA
:1007C0000DB407FEFDCF8EB508958CBD9DBD089577
:1007D000CF92DF92EF92FF920F931F93CF93DF930D
:1007E000C82F7B01142F022F80E591E00E94E503C2
:1007F0002A988C2F0E94DE03E7011123B1F0002319
:1008000059F08FEF0E94DE03E114F10411F411504E
:10081000F4CF88832196FBCF6E018FEFC81AD80AD8
:1008200088810E94DE03E601F2CF2A9ADF91CF9100
:100830001F910F91FF90EF90DF90CF900895CF938D
:10084000DF931F92CDB7DEB7698320E041E0BE01A0
:100850006F5F7F4F0E94E8030F90DF91CF91089563
:1008600029986EE080E20E941F048FE594E00197D2
:10087000F1F7089529986CE080E20C941F048091B0
:10088000AB05982F9077903759F0982F92959F70DD
:100890009F5F97709295907F8F78892B8093AB059F
:1008A0008091AA058B7F8F7E8093AA050C943A04D1
:1008B0006FE080E20E941F04609124016F3F19F0F5
:1008C0008AE20E941F04299A089521E041E060E035
:1008D00070E00C94E80320E040E060E070E00C94ED
:1008E000E803EF92FF921F93CF93DF93182F7B01C2
:1008F0008091B105FB018083438142FD06C046958E
:1009000046954695C7E0C40F01C0C0E2D091B4053A
:10091000D17029988BE190E00197F1F76EE080E2C9
:100920000E941F0483E190E00197F1F7612F8AE2B2
:100930000E941F04612F80E30E941F0481EE0E9429
:100940006B041F3F11F0DD2311F080EB01C080EA42
:100950004C2FC13208F040E220E0B7010E94E803CA
:10096000299AE12CF12C8FEF0E946B04C82F807321
:1009700021F4F1E0EF1AF108B1F7299860E387E27A
:100980000E941F04C4FF03C081EE0E946B040E94FA
:100990005804C5FDD1E081E01F3F09F080E08D2BB8
:1009A000DF91CF911F91FF90EF9008950F931F93C8
:1009B000CF938C01FC0182819091AA0590FF03C026
:1009C0008F3F39F50CC0882339F08F3F41F0B801D3
:1009D0000E94710481111EC0C091B20501C0CFEF09
:1009E000B8018C2F0E9471049091B205C91312C0F6
:1009F0009091AB05811108C081E0890F8F70907FC5
:100A0000982B9093AB0505C0907F9093AB0581E048
:100A100001C080E0CF911F910F9108952091AA0508
:100A200022FD0C94D60480E008958FEF8093AC05EE
:100A3000EAEAF5E080818860808328E143E06FEF97
:100A400080E00E94C11761E00E945A020C94D60413
:100A50008091B1058F3FB1F40E94FF116F3F19F0F3
:100A60006093250102C01092250123E043E06091CC
:100A7000250180E00E94C1176FEA74E00E946602BF
:100A80000C94D6040895EAEAF5E08081897F8160BC
:100A90008083E1EBF5E08FEF8283818327E043E001
:100AA0006FEF0E94C1176FEA74E00E9466020C9417
:100AB000D604CF93219A229A29982A9A0E94E9145F
:100AC0000E94300463E083E20E941F046FE584E229
:100AD0000E941F0468E685E20E941F046091B6042C
:100AE000660F616286E20E941F0464E08DE30E944B
:100AF0001F048DE10E946504843041F063E780E5C6
:100B00000E941F0464E08DE30E941F0486E00E949F
:100B100065049091B604990F916289134AC085E0EB
:100B20000E946504883609F044C062E082E20E94B7
:100B30001F0460E081E20E941F0463E08CE30E94D6
:100B40001F04CFEFC093020120E045E062E071E0B6
:100B50008BE20E94E80320E045E062E071E08AE277
:100B60000E94E80320E045E062E071E080E30E943B
:100B7000E80382EE0E946B0481EE0E946B0460E742
:100B800087E20E941F048091AA0580618093AA05D4
:100B90008091B4058E7F8093B4058091B1058F3F1D
:100BA00071F09FEF980F9E3F38F40E941F1581113E
:100BB00006C087E091E005C0C093B105FACF87E198
:100BC00091E0CF910C94C0024F925F926F927F920E
:100BD0008F929F92AF92BF92CF92DF92EF92FF924D
:100BE0000F931F93CF93DF939091FA07892F807C07
:100BF000803429F5692F677040E2649F90011124C9
:100C0000892F869586958695877058E0859FB001D7
:100C10001124622B732B9295969596959370692B60
:100C200084EF0E94C00E83EF0E94780F83FF07C0FD
:100C300061E070E080E090E00E94C511F4CF0E9476
:100C400053102B013C019B01AC010E94051F88231E
:100C500029F080E492E00E94E51793C02091D2042D
:100C60003091D3044091D4045091D504C301B20112
:100C70000E94781C81111DC0E091D104A090C9048C
:100C8000B090CA04C090CB04D090CC04E090CD04C6
:100C9000F090CE040091CF041091D0042E2F30E0BC
:100CA00040E050E060E070E090E00E94581F09F0E2
:100CB00065C04092D2045092D3046092D4047092E2
:100CC000D5041092D1048091AB078770886280931D
:100CD000AB078091AC07806E8093AC074092AF0762
:100CE0005092B0076092B1077092B20782E0809391
:100CF000B30788EA97E00E9416178091C804811113
:100D000040C08091A306877088608093A30680917D
:100D1000A4068F7180628093A406C1E0C093A706E9
:100D200080EA96E00E941617409107055091080549
:100D30006091090570910A058FE796E00E944B02C9
:100D40000E94161740910305509104056091050516
:100D5000709106058EE596E00E944B020E941617E0
:100D60006091C704062E000C770B81EC96E00E9480
:100D700029010E941617C093C80403C0EF5FE093D7
:100D8000D1040E9453108DEF0E94D40FA0E0B0E078
:100D9000811520E89207A105B10509F4E1C0809012
:100DA000D0079090D107A090D207B090D3073CE233
:100DB000931A31E0A30AB1083EE0880F991FAA1FD9
:100DC000BB1F3A95D1F74091F4075091F507052ED6
:100DD000000C660B770BE4E1440F551F661F771F6D
:100DE000EA95D1F76C017D01C41AD50AE60AF70A23
:100DF000A091F607B091F707A50194010E94501F3A
:100E0000C61AD70AE80AF90A40E4D40EE11CF11C1C
:100E1000FFE0F594E794D794C794FA95D1F7A091A1
:100E2000F307B0E0A50194010E94D61D2B013C01FF
:100E3000ABE07594679457944794AA95D1F750E81E
:100E4000550E611C711CA091F8070A2E000CBB0BFB
:100E5000A50194010E94501FBAE09595879577955A
:100E60006795BA95D1F7A30192010E940A1FDC0190
:100E7000CB01CAE0B595A79597958795CA95D1F707
:100E80009C01AD01405E5F4FA091F107B091F20768
:100E90000E94501FDC01CB01905EAF4FBF4FBC01E1
:100EA000CD01DEE09595879577956795DA95D1F731
:100EB000A70196010E940A1F6B017C011FE0959516
:100EC0008795779567951A95D1F79B01AC010E949C
:100ED0000A1F9B01AC0107E055954795379527956B
:100EE0000A95D1F7A091F007B0E00E94D61DDC0171
:100EF000CB0124E0B595A795979587952A95D1F7CD
:100F0000A7019601281B390B4A0B5B0BDA01C901BB
:100F100057FF03C080E090E0DC0181309105A1051E
:100F200039E1B30724F080E090E0A0E0B9E1BC0132
:100F3000CD012CE095958795779567952A95D1F702
:100F40000E947F1C20E030E040E85AE30E94DE1C53
:100F50002B013C019B01AC010E94051F882329F055
:100F600085E692E00E94E51792C0A301920160918C
:100F7000C3047091C4048091C5049091C6040E947A
:100F8000781C81111DC0E091C204A090C904B090EA
:100F9000CA04C090CB04D090CC04E090CD04F09073
:100FA000CE040091CF041091D0042E2F30E040E009
:100FB00050E060E070E090E00E94581F09F064C0CB
:100FC0004092C3045092C4046092C5047092C60457
:100FD0001092C20480918A078770886280938A0782
:100FE00080918B07806E80938B0740928E07509282
:100FF0008F076092900770929107C1E0C0939207AB
:1010000087E897E00E9416178091C80481113FC0BD
:101010008091A306877088608093A3068091A406C0
:101020008F7180628093A406C093A70680EA96E041
:101030000E94161740910705509108056091090517
:1010400070910A058FE796E00E944B020E941617E6
:1010500040910305509104056091050570910605C6
:101060008EE596E00E944B020E9416176091C7041D
:10107000062E000C770B81EC96E00E9429010E945D
:101080001617C093C80403C0EF5FE093C2048091B9
:101090001B0140E4849FC001112480937C00809157
:1010A0007A00806480937A0080917A0086FDFCCF7C
:1010B000609178008091790070E0782B072E000C09
:1010C000880B990B0E947F1C29E037E64CE55BE317
:1010D0000E94DE1C2B013C0126E636E646EE5FE36D
:1010E0000E94F01D24E333E343EB5FE30E945D1EA7
:1010F00020E030E048EC52E40E94DE1C0E94CF1E4B
:10110000EB01653671052CF477FF05C0C0E0D0E037
:1011100002C0C4E6D0E08091C0049091C104C81719
:10112000D907E9F42091C204A090C904B090CA0480
:10113000C090CB04D090CC04E090CD04F090CE04CD
:101140000091CF041091D00430E040E050E060E026
:1011500070E080E090E00E94581F09F067C0809125
:101160006907877088628093690780916A07806E3B
:1011700080936A0740926D0750926E0760926F07E6
:101180007092700782E08093710786E697E00E9474
:1011900045188091C80481113AC08091A3068770D8
:1011A00088608093A3068091A4068F7180628093EB
:1011B000A40681E08093A70680EA96E00E941617B5
:1011C00040910705509108056091090570910A0545
:1011D0008FE796E00E944B020E941617409103058C
:1011E0005091040560910505709106058EE596E025
:1011F0000E944B020E9416176091C704062E000C35
:10120000770B81EC96E00E9429010E94161720E0DE
:1012100043E06FEF80E00E94C1176C2F0E945A02DA
:101220000E940E05D093C104C093C0041092C8045C
:101230006091B8047091B9048091BA049091BB0494
:1012400041E0DF91CF911F910F91FF90EF90DF90E0
:10125000CF90BF90AF909F908F907F906F905F9056
:101260004F900C94A3182BE043E06FEF80E00E94B6
:10127000C11766E872E00E9466020E940E052CE02B
:1012800043E06FEF80E00E94C11766E972E00E94C0
:1012900066020E940E054BE952E066E081E00E9482
:1012A000561864E670E080E090E00E948F1947EAEB
:1012B00052E067E082E00E94561864E670E080E049
:1012C00090E00E948F1940EB52E06EE188EC0E94A2
:1012D000561864E670E080E090E00E948F1944EBBD
:1012E00052E067E18AEC0E94561864E670E080E004
:1012F00090E00E948F1942EC52E063E08EEF0E9472
:10130000561864E670E080E090E00E948F1983ED4B
:1013100092E00C94E517CF9383E080931B0186E75E
:101320008093CB0782E596E09093CA078093C90724
:101330008091D4078F3FA1F51092D7041092D60464
:1013400010927D0510929F0510927B0581E080939D
:101350007A051092550561E082E10E94910E61E0EC
:1013600083E10E94910E8091B9008E7F8093B90035
:101370008091B9008D7F8093B9008DEF8093B80084
:1013800085E48093BC008DE293E190930E058093F9
:101390000D058EE293E19093100580930F051CC01C
:1013A00061E00E94910E61E08091D4070E94891152
:1013B0008091D7078F3F19F40E94E9140DC061E0B6
:1013C0000E94891161E08091D5070E94891160E037
:1013D0008091D6070E94891180ED0E94780F803697
:1013E00009F052C166EB80EE0E94C00E6CE271E023
:1013F00080E090E00E94C51183EF0E94780F80FF8B
:1014000005C064E670E080E090E0F4CF88E80E94D8
:101410004D109093D9078093D8078AE80E944D1009
:101420009093DB078093DA078CE80E944D1090932D
:10143000DD078093DC078EE80E944D109093DF0754
:101440008093DE0780E90E944D109093E10780931E
:10145000E00782E90E944D109093E3078093E20732
:1014600084E90E944D109093E5078093E40786E994
:101470000E944D109093E7078093E60788E90E9449
:101480004D109093E9078093E8078AE90E944D1078
:101490009093EB078093EA078CE90E944D1090939C
:1014A000ED078093EC078EE90E944D109093EF07B3
:1014B0008093EE0781EA0E94780F8093F00781EE17
:1014C0000E944D109093F2078093F10783EE0E94E3
:1014D000780F8093F30784EE0E94780FC82F85EE73
:1014E0000E94780F90E1C99F900111248F70282BE2
:1014F0003093F5072093F40786EE0E94780FC82FEB
:1015000085EE0E94780F90E1C99F9001112490E030
:1015100044E0959587954A95E1F7822B932B90931C
:10152000F7078093F60787EE0E94780F8093F807FD
:1015300025E030E045E050E065E070E083E090E0D9
:101540000E94170F64E670E080E090E00E94C511F1
:1015500021E030E040E050E061E070E081E090E0C8
:101560000E94170F85EE92E00E94E51787E193E055
:101570000E94E51785EE92E00E94E51789E493E06A
:101580000E94E3178091B2050E94D0178AE593E08C
:101590000E94E3178091B604082E000C990B0E945C
:1015A000F3178091B704811103C088E693E002C06D
:1015B0008FE793E00E94E5176091B20585E497E01C
:1015C0000E945A020E9416176091B604062E000C63
:1015D000770B84E297E00E9429010E941617609120
:1015E000B704062E000C770B83E097E00E942901D8
:1015F0000E94161760910B05062E000C770B82EEE9
:1016000096E00E9429010E9416176091C704062ED9
:10161000000C770B81EC96E00E9429010E941617BE
:101620008091A306877088608093A3068091A406AA
:101630008F7180628093A40681E08093A70680EA80
:1016400096E00E9416174091070550910805609199
:10165000090570910A058FE796E00E944B020E94EF
:10166000161740910305509104056091050570918E
:1016700006058EE596E00E944B020E94161785E94A
:1016800093E0CF910C94E51788E690E00E9425182E
:10169000FFCFEF92FF920F931F93CF93DF9382EBD5
:1016A00091E00E94AC1DE82E83EB91E00E94AC1DFE
:1016B000D82F84EB91E00E94AC1DF82E85EB91E0D1
:1016C0000E94AC1DC82F86EB91E00E94AC1D082F34
:1016D00087EB91E00E94AC1D182F83E0E81609F417
:1016E00077C080EA93E00E94E51781EB93E00E94C7
:1016F000E31782E090E00E94F31762E083EB91E051
:101700000E94C41D80EC8093B80484ED8093B904DA
:1017100081E08093BA041092BB041092BC04109232
:10172000BD041092BE041092BF0482E08093C704EF
:101730008EE18093C9041092CA041092CB041092D7
:10174000CC041092CD041092CE041092CF041092CB
:10175000D00485EC93E00E94E31710920C0580E022
:1017600090E00E94F31760E084EB91E00E94C41DBA
:1017700089ED93E00E94E31782E090E00E94F31766
:1017800062E085EB91E00E94C41D8FEE93E00E9421
:10179000E31780E090E00E94F31760E086EB91E0B1
:1017A0000E94C41D8AE094E00E94E31785E090E067
:1017B0000E94F31765E087EB91E00E94C41D85E06D
:1017C00080930B0563E082EB91E00E94C41D72C020
:1017D00081E294E00E94E5178AE394E00E94E31717
:1017E0008D2F0E94D0172D2F30E0A0E6BAEE0E9478
:1017F000E11D6093B8047093B9048093BA04909388
:10180000BB04DC01CB01BB0F880B982FDC0180935C
:10181000BC048093BD048093BE048093BF04D09326
:10182000C7046D2FDD0F770B8CE390E00E941A1F29
:101830006093C9047093CA04770F770B7093CB043D
:101840007093CC047093CD047093CE047093CF0446
:101850007093D0048FE494E00E94E3178F2D0E94D0
:10186000D017F0920C0585E694E00E94E3178C2FC8
:101870000E94D0178CE794E00E94E317802F0E940B
:10188000D0170093B70485E994E00E94E317812FF5
:101890000E94D01710930B05C13049F028F0C230D8
:1018A00049F0C33021F006C01092B60406C0C093C0
:1018B000B60403C082E08093B604DF91CF911F91FC
:1018C0000F91FF90EF9008958F929F92AF92BF92E9
:1018D000CF92DF92EF92FF924B015C010E94FF11C9
:1018E0006B017C010E94FF11DC01CB018C199D0969
:1018F000AE09BF0988159905AA05BB0530F4A8955E
:101900000E94A2020E949C02EDCFFF90EF90DF9018
:10191000CF90BF90AF909F908F900895CF932FE07E
:1019200043E06FEF80E00E94C1176FEA74E00E940D
:101930006602ECEFF7E083818770806183838481A6
:101940008F71806C848381E087831086CF010E9431
:101950000E058FE00E946B184FEA54E061E18FEFB3
:101960000E945618C091B20526E043E06FEF80E078
:101970000E94C1176C2F0E945A020E940E0586E039
:101980000E946B18CF910C943309CF938091B005CE
:1019900081FD1FC00E948E0C8091B00581608093F4
:1019A000B005C4E02AE143E06FEF80E00E94C11778
:1019B00062E00E945A020E940E058BE10E946B18A1
:1019C000811102C0C15071F78091B005826080938F
:1019D000B005CF9108953FB7F8948091FD049091A0
:1019E000FE04A091FF04B091000526B5A89B05C098
:1019F0002F3F19F00196A11DB11D3FBFBA2FA92F8E
:101A0000982F8827820F911DA11DB11DBC01CD010A
:101A100046E0660F771F881F991F4A95D1F70895F2
:101A20000895CF92DF92EF92FF920F931F93CF937F
:101A3000DF936C017A018B01C0E0D0E0CE15DF05A9
:101A400081F0D8016D918D01D601ED91FC9101904D
:101A5000F081E02DC6010995892B11F02196EECF7A
:101A60007E01C701DF91CF911F910F91FF90EF9001
:101A7000DF90CF900895FC01538D448D252F30E0E9
:101A8000842F90E0821B930B541710F0CF9608958B
:101A900001970895FC01918D828D981761F0828DD8
:101AA000DF01A80FB11D5D968C91928D9F5F9F7392
:101AB000928F90E008958FEF9FEF0895FC01918D34
:101AC000828D981731F0828DE80FF11D858D90E0A1
:101AD00008958FEF9FEF0895FC01918D228D892F3E
:101AE00090E0805C9F4F821B91098F739927089526
:101AF00085EB95E00E946C0D21E0892B09F420E034
:101B0000822F0895FC01848DDF01A80FB11DA35A17
:101B1000BF4F2C91848D90E001968F739927848F0D
:101B2000A689B7892C93A089B1898C918370806430
:101B30008C93938D848D981306C00288F389E02DD1
:101B400080818F7D80830895EF92FF920F931F9382
:101B5000CF93DF93EC0181E0888F9B8D8C8D981360
:101B600005C0E889F989808185FD26C0F62E0B8D98
:101B700010E00F5F1F4F0F731127E02E8C8DE812BE
:101B80000CC00FB607FCFACFE889F989808185FF80
:101B9000F5CFCE010E94820DF1CF8B8DFE01E80FB3
:101BA000F11DE35AFF4FF0829FB7F8940B8FEA893B
:101BB000FB89808180620AC09FB7F894EE89FF8913
:101BC0006083E889F98980818370806480839FBF06
:101BD00081E090E0DF91CF911F910F91FF90EF9006
:101BE0000895CF93DF93EC01888D8823C9F0EA89AB
:101BF000FB89808185FD05C0A889B9898C9186FD06
:101C00000FC00FB607FCF5CF808185FFF2CFA88902
:101C1000B9898C9185FFEDCFCE010E94820DE7CF6F
:101C2000DF91CF91089580E090E0892B29F00E9408
:101C3000780D81110C940000089580917B0581112D
:101C4000FCCF413208F040E281E080937B05809335
:101C50007A059FEF9093790510927805940F9093F1
:101C600077058093560580915605660F682B609323
:101C7000560580915505813061F41092550580918B
:101C800056058093BB008091BC0083FDF8CF85ECA6
:101C900001C085EE8093BC0080917B058130E1F32B
:101CA00080917805841710F440917805E7E5F5E018
:101CB000A8EDB4E080E0841721F091919D938F5FAF
:101CC000FACF1092D7048093D60408950E947B1F08
:101CD000833081F028F4813099F08230A1F00895AA
:101CE0008730A9F08830B9F08430D1F48091800039
:101CF0008F7D03C0809180008F778093800008954E
:101D000084B58F7702C084B58F7D84BD089580919E
:101D1000B0008F7703C08091B0008F7D8093B000BA
:101D200008951F93CF93DF93282F30E0F901EF58E8
:101D3000FE4F8491F901E35AFE4FD491F901E75B1C
:101D4000FE4FC491CC23C1F0162F81110E94680E62
:101D5000EC2FF0E0EE0FFF1FEB54FF4FA591B49175
:101D60009FB7F894111104C08C91D095D82302C06C
:101D7000EC91DE2BDC939FBFDF91CF911F910895F3
:101D8000CF93DF93D82FC62F8091D4078F3F59F57B
:101D90008091CB0791E090937C0580939E051092F3
:101DA0007D0510929F058091C9079091CA07DC01BB
:101DB000ED91FC910190F081E02D6D2F09958091BE
:101DC000C9079091CA07DC01ED91FC910190F08167
:101DD000E02D6C2F09958091C9079091CA07DF917A
:101DE000CF910C94F4198091D7078F3F21F480E5AF
:101DF00091E00E94E50360E08091D4070E94910E7B
:101E00008D2F8F770E9492198C2F0E94921961E07A
:101E10008091D4070E94910E8091D7078F3F21F4C3
:101E2000DF91CF910C94DD03DF91CF9108950F9353
:101E30001F93CF93DF93CAEFD7E08295880F880F67
:101E4000807C67704770942F990F990F990F482FD6
:101E5000462B492B4883EBEFF7E0922F9295990F91
:101E6000907E80818F71892B808309EF17E0F801C4
:101E70008081807C8083622F677082EF0E94C00E19
:101E8000F8019081692F6770F0E26F9F9001112433
:101E9000892F869586958695877048E0849FB00146
:101EA0001124622B732B97FB992790F9692B85EFEF
:101EB0000E94C00E9881692F677080E2689F900130
:101EC0001124892F8695869586958770E8E08E9FE8
:101ED000B0011124622B732B929596959695937071
:101EE000692B84EFDF91CF911F910F910C94C00E5D
:101EF000CF93C82F8091D4078F3F99F58091CB075E
:101F000091E090937C0580939E0510927D05109240
:101F10009F058091C9079091CA07DC01ED91FC9162
:101F20000190F081E02D6C2F09958091C907909167
:101F3000CA070E94F41941E06091CB078091C9075C
:101F40009091CA070E941D0E8091C9079091CA07FF
:101F5000DC01ED91FC910284F385E02D0995C82FF9
:101F600020C08091D7078F3F21F480E591E00E9447
:101F7000E50360E08091D4070E94910E8C2F806869
:101F80000E94921980E00E949219C82F61E080910E
:101F9000D4070E94910E8091D7078F3F11F40E94C1
:101FA000DD038C2FCF910895CF93DF93C82F8091BD
:101FB000D4078F3F09F044C08091CB0791E0909304
:101FC0007C0580939E0510927D0510929F0580915F
:101FD000C9079091CA07DC01ED91FC910190F08155
:101FE000E02D6C2F09958091C9079091CA070E9436
:101FF000F41942E06091CB078091C9079091CA071C
:102000000E941D0E8091C9079091CA07DC01ED91D5
:10201000FC910284F385E02D0995C82F8091C907B2
:102020009091CA07DC01ED91FC910284F385E02DCB
:10203000099520E030E03C2FE901C82BD92B29C0BD
:102040008091D7078F3F21F480E591E00E94E5035E
:1020500060E08091D4070E94910E8C2F80680E94CE
:10206000921980E00E949219C82F80E00E94921974
:102070002C2F30E0322F2227E901C82B61E080911C
:10208000D4070E94910E8091D7078F3F11F40E94D0
:10209000DD03CE01DF91CF9108950E94D40F9827E0
:1020A0008927982708954F925F926F927F928F921F
:1020B0009F92AF92BF92CF92DF92EF92FF92809168
:1020C000D4078F3F09F064C08091CB0791E09093D3
:1020D0007C0580939E0510927D0510929F0580914E
:1020E000C9079091CA07DC01ED91FC910190F08144
:1020F000E02D6AEF09958091C9079091CA070E9467
:10210000F41943E06091CB078091C9079091CA0709
:102110000E941D0E8091C9079091CA07DC01ED91C4
:10212000FC910284F385E02D09952C01990F660836
:102130007708762C652C542C44248091C907909103
:10214000CA07DC01ED91FC910284F385E02D09952D
:102150006C01990FEE08FF08C428D528E628F72857
:1021600088249C2CAD2CBE2C8091C9079091CA0765
:10217000DC01ED91FC910284F385E02D09956C0161
:10218000990FEE08FF08C828D928EA28FB2832C092
:102190008091D7078F3F21F480E591E00E94E5030D
:1021A00060E08091D4070E94910E8AEF0E949219FC
:1021B00080E00E949219C82ED12CE12CF12CFE2C2B
:1021C000ED2CDC2CCC2480E00E949219C82AFE2C35
:1021D000ED2CDC2CCC2480E00E949219C82A61E00E
:1021E0008091D4070E94910E8091D7078F3F11F400
:1021F0000E94DD03C114D104B0E8EB06F10409F438
:1022000077C08091D8079091D907A0E0B0E08D2CDD
:102210009E2CAF2CBB24A7FCBA94881A990AAA0A50
:10222000BB0AB701A60137E07595679557954795A5
:102230003A95D1F7880F991FAA1FBB1F9A01AB01CE
:10224000281B390B4A0B5B0BA091DA07B091DB0717
:102250000E94501F6B017C01FBE0F594E794D7943A
:10226000C794FA95D1F7A5019401C501B4010E9464
:102270000A1F9B01AC01ACE0559547953795279512
:10228000AA95D1F7A091DC07B091DD070E94501FFD
:10229000DC01CB012EE0B595A795979587952A95FA
:1022A000D1F7A7019601280F391F4A1F5B1F209302
:1022B000D0073093D1074093D2075093D307A5E0BE
:1022C000B0E00E94D61DDC01CB0180589F4FAF4F7C
:1022D000BF4F692F7A2F8B2F992787FD9A950E94E0
:1022E0007F1C20E030E048EC52E40E945D1E04C0F8
:1022F00060E070E080EC9FE7FF90EF90DF90CF9080
:10230000BF90AF909F908F907F906F905F904F9015
:102310000895CF93DF9390E0FC01E35AFE4F2491A0
:10232000FC01E75BFE4F8491882361F190E0880F08
:10233000991FFC01E555FF4FC591D491FC01EB5469
:10234000FF4FA591B491611109C09FB7F89488819E
:10235000209582238883EC912E230BC0623061F498
:102360009FB7F8948881322F309583238883EC912E
:102370002E2B2C939FBF06C08FB7F894E8812E2B8D
:1023800028838FBFDF91CF9108958F929F92AF9254
:10239000BF92CF92DF92EF92FF926B017C010E947D
:1023A000EB0C4B015C01C114D104E104F104F1F028
:1023B0000E94EB0CDC01CB0188199909AA09BB0921
:1023C000883E9340A105B10570F321E0C21AD108FF
:1023D000E108F10888EE880E83E0981EA11CB11C6C
:1023E000C114D104E104F10419F7DDCFFF90EF909F
:1023F000DF90CF90BF90AF909F908F9008952FB7B0
:10240000F8946091F9047091FA048091FB04909122
:10241000FC042FBF08951F920F920FB60F92112444
:102420002F933F938F939F93AF93BF938091F90422
:102430009091FA04A091FB04B091FC043091F8044F
:1024400020E3230F2D3720F44096A11DB11D05C0B8
:1024500023EB230F4196A11DB11D2093F804809317
:10246000F9049093FA04A093FB04B093FC048091C8
:10247000FD049091FE04A091FF04B0910005019627
:10248000A11DB11D8093FD049093FE04A093FF0451
:10249000B0930005BF91AF919F918F913F912F9184
:1024A0000F900FBE0F901F9018951F920F920FB6AE
:1024B0000F9211242F933F934F935F936F937F93CA
:1024C0008F939F93AF93BF93EF93FF93E0911E0180
:1024D000F0911F010995FF91EF91BF91AF919F91ED
:1024E0008F917F916F915F914F913F912F910F90BD
:1024F0000FBE0F901F9018951F920F920FB60F925C
:1025000011242F933F934F935F936F937F938F93F8
:102510009F93AF93BF93EF93FF93E0911C01F091D2
:102520001D010995FF91EF91BF91AF919F918F91FF
:102530007F916F915F914F913F912F910F900FBEBF
:102540000F901F9018951F920F920FB60F921124A3
:102550002F933F934F935F936F937F938F939F93AB
:10256000AF93BF93EF93FF9385EB95E00E94820DAD
:10257000FF91EF91BF91AF919F918F917F916F915B
:102580005F914F913F912F910F900FBE0F901F9031
:1025900018951F920F920FB60F9211242F938F93BD
:1025A0009F93EF93FF93E091C505F091C60580815D
:1025B000E091CB05F091CC0582FD12C09081809115
:1025C000CE058F5F8F732091CF05821751F0E09178
:1025D000CE05F0E0EB54FA4F958F8093CE0501C005
:1025E0008081FF91EF919F918F912F910F900FBE5E
:1025F0000F901F90189585ED8093BC008091BC00D2
:1026000084FDFCCF10927B05089540913205262F62
:1026100030E0240F311D21323105DCF420917B059F
:102620002430C9F4FC0180E090E0861758F4309122
:1026300032052191DC01AE5EBA4FA30FB11D2C9380
:102640000196F3CF80913205680F6093320580E0E8
:10265000089581E0089582E0089508950895089509
:10266000E091D7048091D604E81730F4F0E0E85206
:10267000FB4F808190E008958FEF9FEF0895909138
:10268000D7048091D604981750F4E92FF0E0E8526F
:10269000FB4F208130E09F5F9093D70402C02FEF63
:1026A0003FEFC90108958091D60490E02091D704AE
:1026B000821B91090895CF92DF92EF92FF920F93C0
:1026C0001F93CF93DF937C01CB018A0120917C057E
:1026D000222389F0EB016B01C40ED51ECC15DD055C
:1026E00069F06991D701ED91FC910190F081E02DA5
:1026F000C7010995F3CF642F0E940513C801DF912C
:10270000CF911F910F91FF90EF90DF90CF900895A0
:10271000CF93DF931F92CDB7DEB7698320917C05FD
:102720002223D1F020919F05203240F021E030E0BB
:10273000FC013383228380E090E015C080917D0509
:10274000E82FF0E0E258FA4F998190838F5F8093F1
:102750007D0580939F0505C061E0CE0101960E9432
:10276000051381E090E00F90DF91CF9108950895D7
:1027700080E090E008951F920F920FB60F921124FF
:102780002F933F934F935F936F937F938F939F9379
:10279000AF93BF93EF93FF938091B900887F80360A
:1027A00009F49CC068F5883209F45BC090F480316C
:1027B00009F454C038F4882309F4F6C0883009F4C9
:1027C0004DC0F6C0883109F44CC0803209F45DC0B8
:1027D000EFC0803409F468C048F4803309F455C070
:1027E000883309F0E5C080937905D8C0803509F4B5
:1027F0004FC0883509F45DC0883409F0D9C0D6C00F
:10280000883909F4C7C0A8F4883709F467C038F4D8
:10281000883609F463C0803709F460C0C9C08838BD
:1028200009F4B8C0803909F45FC0803809F0C0C02D
:102830005BC0803B09F486C038F4803A09F466C076
:10284000883A09F47FC0B4C0803C09F4A7C0883C32
:1028500009F4A4C0883B09F48AC0AAC08091560537
:1028600010C09091780580917705981770F5E091E8
:10287000780581E08E0F80937805F0E0E95AFA4FF1
:1028800080818093BB0085EC86C0809379058EC0E3
:10289000E091780581E08E0F809378058091BB00F0
:1028A000F0E0E95AFA4F808390917805809177059E
:1028B0006EC0E091780581E08E0F8093780580915D
:1028C000BB00F0E0E95AFA4F808380917A058111CC
:1028D0006DC081E08093550584EA61C083E08093F8
:1028E0007B0510925405CFCF80915405803208F0BB
:1028F00051C0E091540581E08E0F80935405809182
:10290000BB00F0E0EC5CFA4F8083BDCF85EC809398
:10291000BC0010927B0580915405803230F4E09128
:102920005405F0E0EC5CFA4F10826091540570E0C1
:10293000E0910F05F091100584E395E00995109260
:10294000540536C084E080937B05109233051092C5
:102950003205E0910D05F0910E0509958091320543
:10296000811105C081E08093320510921205E0913B
:10297000330581E08E0F80933305F0E0EE5EFA4F71
:1029800080818093BB009091330580913205981728
:1029900008F479CF85E88093BC000AC085EC809369
:1029A000BC0010927B0504C0109279050E94FB12B6
:1029B000FF91EF91BF91AF919F918F917F916F9117
:1029C0005F914F913F912F910F900FBE0F901F90ED
:1029D0001895CF93CFB7F89480911105811127C036
:1029E000E3E5F1E08491E7E6F1E09491E82FF0E08F
:1029F000EE0FFF1FE555FF4FA591B491EC91E92330
:102A000021F461E08AE00E94910E61E08AE00E9478
:102A100089118CB580618CBD8CB580648CBD61E002
:102A20008DE00E94891161E08BE00E948911809104
:102A300011058F5F80931105CFBFCF910895CF937C
:102A4000C82F8093B1058F3F51F08093240163E03C
:102A500082E20E941F0461E081E20E941F040E9442
:102A600058046C2F80E090E00E94C41D81E0CF915B
:102A700008954F925F926F927F92BF92CF92DF92B2
:102A8000EF92FF920F931F93CF93DF9366E0B62EE2
:102A900000E010E0CC24CA94DD24D39473E0E72E48
:102AA00072E0F72E87E10E94650480FDB1C1BA94FF
:102AB000BB2009F4ADC121E041E060E070E080E6B8
:102AC0000E94E803C82F813220F082EE0E946B043E
:102AD000C0E021E04C2F6DE178E081E60E94E80340
:102AE00060E487E20E941F0430912008832F8695BE
:102AF000869586958A3108F089E132FD03C097E01A
:102B0000980F01C090E29C13CDCF932F9370923019
:102B100049F620912108922F9770792EC0912208B2
:102B2000D0911E0890911D0840911F085091AB054F
:102B300050685093AB055091B105451343C090E0E8
:102B40003770BC0153E0660F771F5A95E1F7362BBB
:102B500030932008FC01E35EF74F178223FF15C076
:102B600081E2EDE1F8E0ACEFB7E001900D928A95DB
:102B7000E1F7277F2061209300084093FD07D09361
:102B8000FE078CEF97E00E940E059091210894FDBE
:102B900014C083E0781211C08091220821EF280F21
:102BA000233008F040C07ECF813009F40EC18A3056
:102BB00009F478CF8C3109F475CF8DE198E00E944B
:102BC000360170CF4F3F09F06DCF83E0781226C0F9
:102BD0008091AA0582FF03C0C73009F463CFC830D3
:102BE00009F460CFC43109F05DCF8091B20598132C
:102BF00059CF0E94FF117370882799270E94C51131
:102C0000C091B20525E143E06FEF8D2F0E94C117FF
:102C10006C2F0E945A020E94D60444CF8091B205C4
:102C2000981340CFCACFC430B1F48091230890915B
:102C30002501891719F08F3F09F034CF0E94031C3A
:102C40009FEF980F9E3F18F40E941F152BCF8FEF18
:102C50008093B10527CFC83011F5C091AA05C0FFF8
:102C600021CF0E94031C8F3F09F41CCF8F5F8F3F41
:102C700021F09091B305891720F090910C05D9139C
:102C800011CFC1FD0FCF90910C05D91303C0C260C5
:102C9000C093AA058093B305D093B20503CFC83182
:102CA00041F429E143E06FEF8D2F0E94C11761E0ED
:102CB000B0CFC93161F48091AA0583FFF3CE877F3D
:102CC0008093AA050E94031C8093AC05EBCECE3105
:102CD00009F4E8CECD3159F42FE143E06FEF80E005
:102CE0000E94C11760E07FEF0E94290194CF2091DC
:102CF0001E08211189C08D3059F498E088E10FB683
:102D0000F894A895809360000FBE90936000FFCF69
:102D10008B3169F40E94031C91E0811101C090E0A5
:102D20008091B00590FB80F98093B005BBCE8630D2
:102D300099F49091240881E0992319F09D3409F0C9
:102D400080E08093AF0541E050E063E071E08FEAFE
:102D500095E00E94B41DA6CE833119F40E948E0C1A
:102D6000A1CE8231C1F40E94AD022B013C0126E1CB
:102D700043E06FEF80E00E94C117FC0184818F71F6
:102D8000806A8483838187708062838347825086D0
:102D90006186728616C0823009F006CF22E043E0D9
:102DA0006FEF80E00E94C117FC0184818F71806AFF
:102DB00084838381877080628383C782D086E18623
:102DC000F286CF010E940E056DCE0115110509F4A2
:102DD00069CE929596959770953049F46091240844
:102DE0007091250880912608909127080AC09111BA
:102DF00005C084E298E00E94341C03C060E070E0EB
:102E0000CB010E9400004ECE8A3109F0D6CE4ACEC8
:102E1000DF91CF911F910F91FF90EF90DF90CF90B6
:102E2000BF907F906F905F904F900895DF92EF92E8
:102E3000FF920F931F93CF93DF937C01C0E0D0E00C
:102E400001E010E080910B05082E000C990B08178B
:102E500019074CF5C7010E9445188823B1F08091ED
:102E6000070590910805A0910905B0910A05019602
:102E7000A11DB11D8093070590930805A093090536
:102E8000B0930A05DD24D39402C0E296D12C0F5FE3
:102E90001F4FBE010D2E000C880B990B0E94640C75
:102EA000DD2081F213C08091030590910405A0916B
:102EB0000505B09106050196A11DB11D809303057E
:102EC00090930405A0930505B0930605DF91CF917B
:102ED0001F910F91FF90EF90DF900895009769F098
:102EE000FC0101900020E9F73197AF01481B590B15
:102EF000BC0185EB95E00C94110D80E090E0089505
:102F00008F929F92AF92BF920F931F93CF93DF93B5
:102F1000CDB7DEB7A1970FB6F894DEBF0FBECDBF19
:102F200019A2423008F44AE08E010F5D1F4F842E33
:102F3000912CA12CB12CA50194010E942E1FE62FEB
:102F4000B901CA0101501109EA3014F4E05D01C071
:102F5000E95CD801EC93232B242B252B61F7C801C6
:102F60000E946E17A1960FB6F894DEBF0FBECDBFBC
:102F7000DF91CF911F910F91BF90AF909F908F9055
:102F80000895ECEFF7E09091B10591838283668319
:102F9000258384814770807E482B4483CF01089528
:102FA000CF93DF93682F70E080E090E04AE00E94CA
:102FB0008017EC018DEA94E00E946E178C0F9D1F24
:102FC000DF91CF9108950C946E17CF93DF930E94F9
:102FD0006E17EC018DEA94E00E946E178C0F9D1F16
:102FE000DF91CF910895CF92DF92EF92FF92CF932E
:102FF000DF936C01990FEE08FF08F7FE13C06DE236
:1030000085EB95E00E94A40DEC0166277727CB01A4
:103010006C197D098E099F094AE00E948017C80F2C
:10302000D91F06C04AE0C701B6010E948017EC0113
:103030008DEA94E00E946E178C0F9D1FDF91CF9157
:10304000FF90EF90DF90CF9008950F931F93CF9351
:10305000DF938C01C0E0D0E0F801EC0FFD1F64911C
:10306000662341F085EB95E00E94A40D892B11F0B9
:103070002196F2CF8DEA94E00E946E178C0F9D1F6F
:10308000DF91CF911F910F910895FC018091B105BF
:1030900081839481907F916094838091B00580FFBB
:1030A00003C0CF010C940E0580E00895CF93DF9309
:1030B000262F8F3F11F0EA0102C0C0EBD4E040E0C0
:1030C000682F80E00E94C117BE010E946602DF9156
:1030D000CF910C940E05CF92DF92EF92FF92CF9397
:1030E000DF93D82F0E94FF116B017C0181E0D11189
:1030F00080E080932208C0E00E94FF11DC01CB0138
:103100008C199D09AE09BF09803D9740A105B10505
:1031100090F4C11110C0A8950E94A2020E949C02C6
:10312000809121088770833039F7C1E080912208AF
:103130008D13E1CFE1CF8C2FDF91CF91FF90EF90F6
:10314000DF90CF9008954F925F926F927F928F920F
:103150009F92AF92BF92CF92DF92EF92FF920F9326
:103160001F93CF93DF936B017C01D42F8091AA052D
:1031700082FD1FC00E94FF114B015C0180E090E0C6
:10318000DC012091AA0522FDB2C08C159D05AE057B
:10319000BF0508F0B2C0803127E29207A105B10552
:1031A00008F497C046015701881A990AAA0ABB0A6F
:1031B00002C046015701DD2379F1D501C401019711
:1031C000A109B109833F9140A105B10528F4C701C8
:1031D000B6010E94640C91C020E243E06FEF80E0F2
:1031E0000E94C117FC0184818F71806A848383816E
:1031F00087708062838384EF91E0A0E0B0E08783F2
:103200009087A187B287CF010E940E0564EF71E01D
:1032100080E090E00E94640C0E943A0481149104C2
:10322000A104B10461F1750164018FE0C80ED11CE5
:10323000E11CF11C01E010E0809126018F3F11F5A7
:1032400020E1C216D104E104F104E0F089E094E049
:10325000980F280102C0440C551C9A95E2F7612C86
:10326000712CC414D504E604F70438F00E948003DE
:10327000C418D508E608F708DFCF8150E8CF8FEFF4
:103280000E948003809126018F3F19F0C091260192
:1032900001C0CFEF8FEF809326010E943004DD2321
:1032A000B1F021E243E06FEF80E00E94C117FC0122
:1032B00084818F71806A8483838187708062838335
:1032C00087829086A186B286CF010E940E058C2F40
:1032D00015C0A8950E94A2020E949C020E94FF11A4
:1032E000DC01CB0188199909AA09BB094ACF8C15C1
:1032F0009D05AE05BF0508F455CF8EEFDF91CF9148
:103300001F910F91FF90EF90DF90CF90BF90AF9003
:103310009F908F907F906F905F904F90089540E0C6
:103320000C94A318CF92DF92EF92FF920F931F930A
:10333000CF93DF939091D7079F3F51F4DF91CF91C7
:103340001F910F91FF90EF90DF90CF900C94DE03D0
:10335000E82EF12CC7E0D0E001E010E0FF0C60E0C7
:103360008091D7070E94910EB8010C2E01C0660F04
:103370000A94EAF76E218091D5070E94910E61E0D0
:103380008091D7070E94910E2091D60730E0F90175
:10339000EF58FE4F8491F901E35AFE4FD490F901A2
:1033A000E75BFE4FC490CC2071F081110E94680E43
:1033B000EC2DF0E0EE0FFF1FE15CFE4FA591B49104
:1033C000EC91DE2269F4219708F0C8CF8F2DDF91B0
:1033D000CF911F910F91FF90EF90DF90CF900895C4
:1033E0008F2D8160F82EEFCF30919F05313208F09C
:1033F0004BC080917B058111FCCF90919E0522E00E
:1034000020937B0521E020937A052FEF2093790507
:103410001092780530937705EEE7F5E0A7E5B5E083
:1034200020E0321721F041914D932F5FFACF109297
:10343000560520915605990F922B90935605909121
:103440005505913061F41092550590915605909371
:10345000BB009091BC0093FDF8CF95EC01C095EEB8
:103460009093BC0090917B059230E1F390917905A7
:103470009F3F79F080917905803241F08091790504
:10348000803331F084E005C081E003C082E001C0F8
:1034900083E010927D0510929F0510927C0508959F
:1034A000CF93DF93FC011082118212821482158265
:1034B0001682DC0117968AE1ED0119928A95E9F7E7
:1034C00082E08383DF91CF910895789484B5826000
:1034D00084BD84B5816084BD85B5826085BD85B5B8
:1034E000816085BD80916E00816080936E00109236
:1034F00081008091810082608093810080918000B2
:103500008160809380008091B10084608093B100DD
:103510008091B00081608093B00080917A008B7FB1
:1035200080937A0080917A00826080937A00809103
:103530007A00816080937A0080917A00806880931D
:103540007A001092C100A89580E090E0892B11F0DC
:103550000E940000E091C505F091C60582E08083DD
:10356000E091C105F091C2051082E091C305F09190
:10357000C4058CE080831092CD05E091C905F091DF
:10358000CA0586E08083E091C705F091C805808177
:1035900080618083E091C705F091C80580818860D3
:1035A0008083E091C705F091C805808180688083A1
:1035B000E091C705F091C80580818F7D8083C0E1CF
:1035C000D0E0F12CFE01F595E795EA53FF4FE49129
:1035D000C0FFE295EF70E83008F056C0F0E0EA5323
:1035E000FF4FF4906F2D85EB95E00E94A40D21967E
:1035F000C23FD10539F78FEB90E00E9425188091EA
:10360000B0058D7F8093B0050E94490B41E050E0EA
:1036100063E071E08FEA95E00E949C1D60910C05CB
:1036200081E090E00E94C41D8091AB058F7880936B
:10363000AB051092A1051092A00580E291E00E94D6
:10364000C00285EC9CE090930205809301050E94E6
:10365000FF110E94FF110E94A2020E949C02A895E5
:103660008091AA0582FFF5CF0E948B09A895A895A5
:103670000E94A2028091AA0584FD0E9439150E9431
:10368000E4050E94130EF3CF1BEF1E0F00E06F2D19
:1036900085EB95E00E94A40D0F5F0117C0F3A7CF43
:1036A0000F931F93CF93DF93E5EBF5E01382128224
:1036B00088EE93E0A0E0B0E084839583A683B7838F
:1036C0002BE231E03183208325EC30E035872487FD
:1036D00024EC30E03787268720EC30E0318B208BDC
:1036E00021EC30E0338B228B22EC30E0358B248BC5
:1036F00026EC30E0378B268B118E128E138E148EB3
:10370000E2E5F6E01382128284839583A683B78371
:103710008DE391E0918380838DE198E00E94501ABF
:103720008CEF97E00E94501AE9ECF7E08FEF838767
:1037300084878587868788EA97E00E94501AE8EA9E
:10374000F7E0C1E0C683158287E897E00E94501A2F
:10375000E7E8F7E002E00683C58386E697E00E948B
:10376000501AE6E6F7E088EC868386E2858385E4F6
:1037700097E00E94501AE5E4F7E0CAECC68318E12E
:10378000158384E297E00E94501AE4E2F7E0C683D2
:10379000D9E1D58383E097E00E94501AE3E0F7E097
:1037A000C6838AE1858382EE96E00E94501AE2EE9B
:1037B000F6E0C6838BE1858381EC96E00E94501A87
:1037C000E1ECF6E0C6838CE1858380EA96E00E9416
:1037D000501AE0EAF6E0CEEFC68305838FE796E065
:1037E0000E94501AEFE7F6E0C68315838EE596E057
:1037F0000E94501AEEE5F6E0C683D583DF91CF91A3
:103800001F910F9108958091210882958695877068
:10381000813019F4809124080895811105C084E253
:1038200098E00E94161C089580E00895FC01882706
:103830009927E89421912032E9F3293010F02E30B5
:10384000C8F32B3241F02D3239F4689404C00E9441
:10385000701C820F911D219120532A30C0F31EF459
:10386000909581959F4F08951F93FC019927882774
:10387000BC01E89411911032E9F3193010F01E30B8
:10388000C8F31B3251F01D3249F4689406C00E94FF
:103890005B1C610F711D811D911D119110531A3018
:1038A000B0F33EF490958095709561957F4F8F4F62
:1038B0009F4F1F910895592F482F372F262F660F9E
:1038C000771F881F991F660F771F881F991F620F28
:1038D000731F841F951F660F771F881F991F0895F8
:1038E0007AE0979F902D879F802D910D1124089548
:1038F0000E94BA1C08F481E00895E89409C097FB7F
:103900003EF490958095709561957F4F8F4F9F4FB6
:103910009923A9F0F92F96E9BB279395F6958795FA
:1039200077956795B795F111F8CFFAF4BB0F11F4BD
:1039300060FF1BC06F5F7F4F8F4F9F4F16C0882364
:1039400011F096E911C0772321F09EE8872F762F9A
:1039500005C0662371F096E8862F70E060E02AF0DB
:103960009A95660F771F881FDAF7880F96958795C7
:1039700097F90895990F0008550FAA0BE0E8FEEF9C
:1039800016161706E807F907C0F012161306E40723
:10399000F50798F0621B730B840B950B39F40A261C
:1039A00061F0232B242B252B21F408950A2609F4FA
:1039B000A140A6958FEF811D811D08950E94F11CE5
:1039C0000C94621D0E94541D38F00E945B1D20F073
:1039D000952311F00C944B1D0C94511D11240C9443
:1039E000961D0E94731D70F3959FC1F3950F50E0D3
:1039F000551F629FF001729FBB27F00DB11D639FA1
:103A0000AA27F00DB11DAA1F649F6627B00DA11D46
:103A1000661F829F2227B00DA11D621F739FB00DEC
:103A2000A11D621F839FA00D611D221F749F33275C
:103A3000A00D611D231F849F600D211D822F762FF5
:103A40006A2F11249F5750409AF0F1F088234AF0D2
:103A5000EE0FFF1FBB1F661F771F881F915050403E
:103A6000A9F79E3F510580F00C944B1D0C94961DB8
:103A70005F3FE4F3983ED4F3869577956795B795C5
:103A8000F795E7959F5FC1F7FE2B880F911D9695DF
:103A9000879597F9089597F99F6780E870E060E04F
:103AA00008959FEF80EC089500240A9416161706D7
:103AB00018060906089500240A941216130614061F
:103AC00005060895092E0394000C11F4882352F082
:103AD000BB0F40F4BF2B11F460FF04C06F5F7F4F3A
:103AE0008F4F9F4F089557FD9058440F551F59F021
:103AF0005F3F71F04795880F97FB991F61F09F3FDB
:103B000079F087950895121613061406551FF2CF03
:103B10004695F1DF08C0161617061806991FF1CF53
:103B200086957105610508940895E894BB2766277A
:103B30007727CB0197F90895DC01CB01FC01F999B6
:103B4000FECF06C0F2BDE1BDF89A319600B40D92E9
:103B500041505040B8F70895F999FECF92BD81BD0C
:103B6000F89A992780B50895DC01A40FB51F41503C
:103B7000504048F0CB01840F951F2E910E94C51D27
:103B800041505040D0F70895262FF999FECF92BDAD
:103B900081BDF89A019700B4021639F01FBA20BD12
:103BA0000FB6F894FA9AF99A0FBE08950E94E11D93
:103BB000A59F900DB49F900DA49F800D911D112481
:103BC0000895A29FB001B39FC001A39F700D811DF6
:103BD0001124911DB29F700D811D1124911D089516
:103BE0005058BB27AA270E94081E0C94621D0E94F1
:103BF000541D38F00E945B1D20F039F49F3F19F4EA
:103C000026F40C94511D0EF4E095E7FB0C944B1D2B
:103C1000E92F0E94731D58F3BA17620773078407D0
:103C2000950720F079F4A6F50C94951D0EF4E09517
:103C30000B2EBA2FA02D0B01B90190010C01CA0166
:103C4000A0011124FF27591B99F0593F50F4503E11
:103C500068F11A16F040A22F232F342F4427585F03
:103C6000F3CF469537952795A795F0405395C9F71B
:103C70007EF41F16BA0B620B730B840BBAF09150D3
:103C8000A1F0FF0FBB1F661F771F881FC2F70EC072
:103C9000BA0F621F731F841F48F487957795679545
:103CA000B795F7959E3F08F0B0CF9395880F08F031
:103CB0009927EE0F9795879508950E94711E0C9491
:103CC000621D0E945B1D58F00E94541D40F029F4B3
:103CD0005F3F29F00C944B1D51110C94961D0C94D0
:103CE000511D0E94731D68F39923B1F3552391F37D
:103CF000951B550BBB27AA2762177307840738F05B
:103D00009F5F5F4F220F331F441FAA1FA9F335D0B7
:103D10000E2E3AF0E0E832D091505040E695001C6B
:103D2000CAF72BD0FE2F29D0660F771F881FBB1F25
:103D3000261737074807AB07B0E809F0BB0B802D03
:103D4000BF01FF2793585F4F3AF09E3F510578F02F
:103D50000C944B1D0C94961D5F3FE4F3983ED4F3F6
:103D6000869577956795B795F7959F5FC9F7880F03
:103D7000911D9695879597F90895E1E0660F771F55
:103D8000881FBB1F621773078407BA0720F0621BE6
:103D9000730B840BBA0BEE1F88F7E09508950E9411
:103DA000D61E6894B1110C94961D08950E947B1D37
:103DB00088F09F5798F0B92F9927B751B0F0E1F0EC
:103DC000660F771F881F991F1AF0BA95C9F714C09C
:103DD000B13091F00E94951DB1E008950C94951DAD
:103DE000672F782F8827B85F39F0B93FCCF38695D5
:103DF00077956795B395D9F73EF490958095709532
:103E000061957F4F8F4F9F4F08950E94BA1C880B7A
:103E1000990B0895DB018F939F930E94D61DBF914C
:103E2000AF91A29F800D911DA39F900DB29F900D09
:103E30001124089597FB072E16F4009407D077FD00
:103E400009D00E94611F07FC05D03EF49095819532
:103E50009F4F0895709561957F4F0895A1E21A2EA6
:103E6000AA1BBB1BFD010DC0AA1FBB1FEE1FFF1F1E
:103E7000A217B307E407F50720F0A21BB30BE40B6E
:103E8000F50B661F771F881F991F1A9469F76095B5
:103E90007095809590959B01AC01BD01CF0108956F
:103EA000B7FF0C94D61D0E94D61D821B930B08955C
:103EB0002A153B054C055D056E057F0580079107BA
:103EC0000895AA1BBB1B51E107C0AA1FBB1FA61761
:103ED000B70710F0A61BB70B881F991F5A95A9F7B3
:103EE00080959095BC01CD010895EE0FFF1F0590C0
:103EF000F491E02D099481E090E0F8940C948F1FE8
:103F0000FB01DC014150504048F001900D9200202F
:103F1000C9F701C01D9241505040E0F70895F89450
:023F2000FFCFD1
:103F2200FFFF00FCE1A8A83F04EC022805440315AA
:103F3200051603EE000C0343055E0301100D100D80
:103F420013015905FFFFFF00000000A40D110D3BF6
:103F52000DF10D6C0D4A0D5E0D0000000088135B23
:103F620013B8132F1353133F13301352454D4F54AD
:103F7200452D434F4E4649473A2056616C756520A0
:103F820069732076616C69640052454D4F54452D2A
:103F9200434F4E4649473A2056616C756520697316
:103FA20020696E76616C69640052454D4F54452D0F
:103FB200434F4E4649473A20476F74206E6577203B
:103FC200706172656E743A200052454D4F54452D12
:103FD200434F4E4649473A20476F74206E6577201B
:103FE200526164696F204C6576656C3A20005245D7
:103FF2004D4F54452D434F4E4649473A20476F7423
:10400200206E657720506172656E7420697320732B
:1040120074617469633A200052454D4F54452D43F3
:104022004F4E4649473A20476F74206E657720739A
:10403200656E64207265706561743A200052454D68
:104042004F54452D434F4E4649473A20476F7420FF
:104052006E657720736C65657074696D653A2000D2
:104062004661696C65642072656164696E6720747B
:10407200656D70657261747572652066726F6D2010
:1040820044485421004661696C656420726561642C
:10409200696E672068756D69646974792066726FEC
:1040A2006D204448540054656D7065726174757278
:1040B200654E6F646500312E32310054656D706556
:1040C2007261747572650048756D6964697479000E
:1040D2005643430053797374656D2D436F6E666961
:1040E200670053797374656D2D5265706F727469D0
:1040F2006E670050726573656E746174696F6E20CD
:10410200446F6E65002D2D2D2D2D2D2D2D2D2D2D38
:104112002D2D2D2D2D2D2D2D2D2D2D2D2D2D2D2DCD
:104122002D2D2D2D2D2D2D2D2D2D2D2D2D2D2D2DBD
:104132002D2D2D2D2D2D002020202020202020204F
:1041420020202020202020204E6574776F726B2063
:1041520053657474696E677320202020202020200C
:10416200202020202020202000506172656E7420C3
:104172004E6F64652049443A2000526164696F20A1
:10418200506F7765723A2000506172656E74204EEE
:104192006F64652069732064796E616D6963005094
:1041A2006172656E74204E6F64652069732073744A
:1041B2006174696300536574757020446F6E6500A5
:1041C20073657474696E672044656661756C747397
:1041D2000053746F7265202D20536C65657074698D
:1041E2006D653A200053746F7265202D2050617204
:1041F200656E742049443A200053746F7265202D15
:1042020020526164696F204C6576656C3A200053D8
:10421200746F7265202D20506172656E742069730F
:10422200207374617469633A200053746F7265205D
:104232002D2053656E6420526570656174733A2057
:1042420000426F6F742C20726561642045455052A4
:104252004F4D2056616C75657300536C65657074C3
:10426200696D6520696E204570726F6D3A2000702D
:104272006172656E746E6F646520696E204570723E
:104282006F6D3A2000526164696F204C6576656CEF
:1042920020696E204570726F6D3A20005061726520
:1042A2006E742073746174696320696E2045707244
:1042B2006F6D3A200053656E6420526570656174BB
:1042C2007320696E204570726F6D3A20000D0A00EE
:0642D200322E332E3100F4
:00000001FF
