:100000000C9468030C94DB150C94B4150C949003B9
:100010000C9490030C9490030C94380B0C94900364
:100020000C9490030C9490030C9490030C94900304
:100030000C9490030C9490030C9490030C949003F4
:100040000C946A150C9490030C945A160C94341664
:100050000C9490030C9490030C9490030C949003D4
:100060000C9490030C94900300407A10F35A00A073
:10007000724E18090010A5D4E80000E87648170071
:1000800000E40B54020000CA9A3B000000E1F505B1
:10009000000080969800000040420F000000A086FB
:1000A00001000000102700000000E803000000002D
:1000B0006400000000000A000000000001000000D1
:1000C00000002C76D888DC674F0823DFC1DFAE59EB
:1000D000E1B1B796E5E3E453C63AE651997696E87E
:1000E000E6C28426EB898C9B62ED407C6FFCEFBC02
:1000F0009C9F40F2BAA56FA5F490055A2AF75C932D
:100100006B6CF9676DC11BFCE0E40D47FEF520E662
:10011000B500D0ED902E0300943577050080841E45
:10012000080000204E0A000000C80C333333330FA0
:10013000986E12831141EF8D2114893BE65516CF3D
:10014000FEE6DB18D1844B381BF77C1D901DA4BB49
:10015000E424203284725E228100C9F124ECA1E5FE
:100160003D27200054534D3A494E49540A0021542A
:10017000534D3A494E49543A545350204641494C04
:100180000A0054534D3A494E49543A545350204F63
:100190004B0A0054534D3A465041520A00215453E1
:1001A0004D3A465041523A4E4F205245504C590A12
:1001B000002154534D3A465041523A4641494C0A67
:1001C0000054534D3A465041523A4F4B0A00545353
:1001D0004D3A49443A5245510A0054534D3A494424
:1001E0000A002154534D3A49443A4641494C0A00C9
:1001F00054534D3A49443A4F4B0A0054534D3A55E3
:10020000504C0A002154534D3A55504C3A464149FE
:100210004C0A0054534D3A55504C3A444757432CDE
:100220004F3D25752C4E3D25750A0054534D3A55CA
:10023000504C3A4F4B0A0054534D3A5245414459A1
:100240003A49443D25752C5041523D25752C444971
:10025000533D25750A002154534D3A5245414459A6
:100260003A55504C204641494C2C534E500A0054AC
:10027000534D3A4641494C3A4449530A0054534D70
:100280003A4641494C3A434E543D25750A00545371
:100290004D3A4641494C3A52452D494E49540A007F
:1002A0005453463A5349443A4F4B2C49443D2575E3
:1002B0000A00215453463A5349443A4641494C2C8A
:1002C00049443D25750A00215453463A5254453A53
:1002D0004E324E204641494C0A005453463A52543D
:1002E000453A4E324E204F4B0A00215453463A5263
:1002F00054453A46504152204143544956450A001C
:10030000215453463A534E443A544E520A002573F0
:100310005453463A4D53473A53454E442C25752D78
:1003200025752D25752D25752C733D25752C633D63
:1003300025752C743D25752C70743D25752C6C3DF0
:1003400025752C73673D25752C66743D25752C73BA
:10035000743D25733A25730A004D434F3A52454781
:100360003A5245510A005453463A5444493A545378
:100370004C0A005453463A5452493A5453420A00E4
:100380004D434F3A534C503A5755503D25690A005A
:10039000214D434F3A534C503A4E544C0A004D4372
:1003A0004F3A534C503A4D533D256C750A00214D40
:1003B000434F3A534C503A544E520A004D434F3A31
:1003C000534C503A4D533D256C752C534D533D25A0
:1003D000752C49313D25752C4D313D25752C493203
:1003E0003D25752C4D323D25750A00000000002486
:1003F0000027002A0000000000250028002B000034
:10040000000000230026002900040404040404045E
:1004100004020202020202030303030303010204B3
:100420000810204080010204081020010204081076
:100430002000000008000201000003040700000083
:100440000000000000322E332E310A00207C5F5C59
:100450002F602C0A0702200220B2871003400120DF
:100460000024022210022202022002220022200284
:1004700002202227101341010101032220304020D5
:100480003052034022140203105224022171010051
:100490001010121012221010022401010322030076
:1004A000200101003220371210012132260128409C
:1004B000322212101212224322241210012224701E
:1004C000C122240F0F5453463A5755523A4D533DCB
:1004D000256C750A004D434F3A42474E3A494E4902
:1004E00054204F4B2C5453503D25750A004D434F1B
:1004F0003A42474E3A5354500A004D434F3A42470E
:100500004E3A4246520A004D434F3A42474E3A490C
:100510004E4954204E4F44452C43503D524E4E4E72
:10052000412D2D2D2C52454C3D25752C5645523DC7
:10053000322E332E310A00214D434F3A534E443A66
:100540004E4F4445204E4F54205245470A004D43DC
:100550004F3A50494D3A4E4F4445205245473D256C
:10056000750A00215453463A4D53473A52454C20A0
:100570004D53472C4E5245500A005453463A4D5362
:10058000473A5243562043420A005453463A4D5389
:10059000473A42430A005453463A4D53473A41437F
:1005A0004B0A00215453463A4D53473A504F4E4759
:1005B00020524543562C494E4143544956450A0062
:1005C0005453463A4D53473A504F4E4720524543B5
:1005D000562C48503D25750A005453463A4D534712
:1005E0003A50494E4745442C49443D25752C4850C6
:1005F0003D25750A00215453463A4D53473A46501B
:10060000415220494E4143544956450A00545346ED
:100610003A4D53473A46504152204F4B2C49443DA6
:1006200025752C443D25750A005453463A4D5347D1
:100630003A4650415220505245460A0021545346F2
:100640003A4D53473A494420544B20494E56414C69
:1006500049440A005453463A4D53473A41434B20CC
:100660005245510A00215453463A4D53473A505689
:1006700045522C2575213D25750A00215453463AD3
:100680004D53473A4C454E3D25752C4558503D2518
:10069000750A005453463A4D53473A524541442C4B
:1006A00025752D25752D25752C733D25752C633DE0
:1006B00025752C743D25752C70743D25752C6C3D6D
:1006C00025752C73673D25753A25730A0000DD19E1
:1006D00011241FBECFEFD8E0DEBFCDBF14E0A0E0F5
:1006E000B1E0E2E0F9E402C005900D92A838B1074C
:1006F000D9F727E0A8E8B4E001C01D92A834B207FA
:10070000E1F713E0C8E6D3E004C02197FE010E94A0
:100710006524C736D107C9F70E94A31A0C947F2419
:100720000C940000FC0194819295969597709230FC
:1007300019F4878190850895911104C0CF0107961F
:100740000C94F31B80E090E0089583B78E7F83BF05
:10075000809101010E94021680911C018F3F21F4BB
:100760008091010180931C01089583B78E7F83BF20
:10077000809100010E94021680911C018F3F21F49C
:100780008091000180931C010895FC0184818F7188
:1007900080648483838187708061838370876783AB
:1007A000CF010895CF93DF93FC0126812A3C09F005
:1007B0000BC124812770213009F006C12581283121
:1007C00061F02931D9F12A3109F469C02B3109F4DA
:1007D00097C02C3109F0F8C0C5C00E949203EC010B
:1007E00089E791E00E946F13CE010E947113CF3F01
:1007F000D10588F48BE391E00E940D136C2F84EBFC
:1008000091E00E94CD22BE018CE596E00E94C503D6
:100810000E94531904C089E591E00E940D1364EF12
:1008200071E080E090E00E94821480916000886115
:100830008093600088E080936000FFCF0E94920365
:10084000EC0189E991E00E946F13CE010E947113BF
:10085000C430D10588F48BE391E00E940D136C2F16
:1008600085EB91E00E94CD22BE018BE396E00E94D1
:10087000C5030E94531904C089E591E00E940D133D
:1008800064EF71E080E090E00E948214809160004B
:1008900088618093600088E080936000FFCF0E94B1
:1008A0009203EC018EEB91E00E946F13CE010E9447
:1008B0007113C230D10588F48BE391E00E940D13CF
:1008C0006C2F86EB91E00E94CD22BE018AE196E07A
:1008D0000E94C5030E94531904C089E591E00E945B
:1008E0000D1364EF71E080E090E00E94821480912B
:1008F000600088618093600088E080936000FFCF93
:100900000E949203EC0188EE91E00E946F13CE01E9
:100910000E947113CE010197CC9788F48BE391E08C
:100920000E940D136C2F87EB91E00E94CD22BE0137
:1009300089EF95E00E94C5030E94531904C089E520
:1009400091E00E940D1364EF71E080E090E00E945E
:1009500082148091600088618093600088E08093B9
:100960006000FFCF0E949203EC018DE092E00E94B4
:100970006F13CE010E947113CE010197CC9788F4BA
:100980008BE391E00E940D136C2F83EB91E00E94AA
:10099000CD22BE0188ED95E00E94C5030E94531947
:1009A00004C089E591E00E940D1364EF71E080E0DE
:1009B00090E00E94821480916000886180936000C2
:1009C00088E080936000FFCFDF91CF910895FC0114
:1009D000838187708860838384818F718062848340
:1009E0006783CF010895FC018381877088608383CA
:1009F00084818F71806284836783CF0108950F9310
:100A00001F93CF93DF93EC016115710561F0FB013A
:100A100001900020E9F73197E61BF70BE931F1056A
:100A200018F0E9E101C0E0E00E2F10E08B81282FE3
:100A30002770C80133E0880F991F3A95E1F7822BA0
:100A40008B838C818F718C83EE2329F0A801CE01DA
:100A500007960E947024FE01E00FF11F1782CE015D
:100A6000DF91CF911F910F9108958091430784FDED
:100A70000C948C160895E0913907F0913A0730975D
:100A800021F00280F381E02D099408950F931F93C4
:100A90000E94261500913B0710913C0720913D07CD
:100AA00030913E07601B710B820B930B1F910F91CE
:100AB00008959C018091390790913A078217930716
:100AC00051F0909143079F719093430730933A07F9
:100AD0002093390705C080914307805E80934307C8
:100AE000E0913907F0913A07309721F00190F081B9
:100AF000E02D09950E94261560933B0770933C07F3
:100B000080933D0790933E07089590E59CBD91E04A
:100B10009DBD2A988EBD00000DB407FEFDCF8EB599
:100B2000FB019FEF4150C8F0222361F09EBD000001
:100B30000DB407FEFDCF8EB56115710599F3808365
:100B40003196F0CFDF01119680818EBD00000DB48B
:100B500007FEFDCF8EB5FD01E5CF2A9A0895CF930C
:100B6000DF931F92CDB7DEB7698320E041E0BE017D
:100B70006F5F7F4F0E9485050F90DF91CF910895A1
:100B800029986EE080E20E94AF058FE594E001971E
:100B9000F1F7089529986CE080E20C94AF056FE0BE
:100BA00080E20E94AF0560911B016F3F19F08AE25D
:100BB0000E94AF05299A089521E041E060E070E0CD
:100BC0000C94850586E00E94DC0590918904990FBC
:100BD0009162891306C085E00E94DC0591E08836A9
:100BE00009F090E0892F089520E040E060E070E097
:100BF0000C948505EF92FF920F931F93CF93DF9391
:100C0000CDB7DEB7C857D1090FB6F894DEBF0FBE17
:100C1000CDBF8E010F571F4FF801E190F1908F016A
:100C20000E9426154AE00E941B1382E691E00E9472
:100C300052149801A70168E770E0CE0101960E9466
:100C4000AB1CCE0101960E946F1388ED94E00E94C8
:100C5000BE12C858DF4F0FB6F894DEBF0FBECDBF2F
:100C6000DF91CF911F910F91FF90EF900895CF9258
:100C7000DF92EF92FF920F931F93CF93DF93F82EA3
:100C8000EB018091D40488834B8142FD06C04695D8
:100C90004695469507E0040F01C000E21091D70485
:100CA000117029988BE190E00197F1F76EE080E2F6
:100CB0000E94AF0583E190E00197F1F76F2D8AE282
:100CC0000E94AF056F2D80E30E94AF0581EE0E9468
:100CD000F4058FEFF81611F0112311F080EB01C02D
:100CE00080EA402F013208F040E220E0BE010E947D
:100CF0008505299AC12CD12C8FEF0E94F405082F6D
:100D0000807321F491E0C91AD108B1F7299860E302
:100D100087E20E94AF0504FF03C081EE0E94F40544
:100D20000E94CF0505FD11E081E09FEFF91280E000
:100D3000182B8C818770833019F48D81813129F0D3
:100D4000CE010E94A313FC0102C0E0E3F2E0111106
:100D500003C06BE372E002C068E372E050914407A5
:100D60005F709B8192FBEE24E0F8492F46954695F3
:100D700046959C81C92EC294C69487E0C822DD8026
:100D800097700E81BA81A88189812091D70420FDB6
:100D900005C0111106C02CE734E005C020E432E0A4
:100DA00002C020E834E0FF93EF937F936F931F928C
:100DB0005F931F92EF921F924F931F92CF921F92B9
:100DC000DF921F929F931F920F931F92BF931F92C8
:100DD000FF921F92AF931F928F933F932F938EE0BA
:100DE00093E09F938F930E94FA058DB79EB74E961E
:100DF0000FB6F8949EBF0FBE8DBF812FDF91CF91AC
:100E00001F910F91FF90EF90DF90CF9008950F9377
:100E10001F93CF938C01FC0182819091430790FF37
:100E20000BC08F3F51F18AEE92E09F938F930E9407
:100E3000FA050F900F9035C0811103C0C091D50401
:100E40001DC08F3FD1F0B8010E943706C82F8823FC
:100E500049F08AED92E09F938F930E94FA050F90DC
:100E60000F9027C087EC92E09F938F930E94FA0522
:100E7000C091D5040F900F9001C0CFEFB8018C2F17
:100E80000E9437069091D504C91312C0909144076F
:100E9000811109C081E0890F8F70907F982B90930A
:100EA0004407C0E006C0907F90934407C1E001C0B2
:100EB000C82F8C2FCF911F910F9108952091430738
:100EC00022FD0C94070780E093E09F938F930E948C
:100ED000FA050F900F9080E00895CF93C82F8FEF01
:100EE0008C0F8E3F08F5C093D404C0931B0163E0C0
:100EF00082E20E94AF0561E081E20E94AF050E949C
:100F0000CF056C2F80E090E00E94CD221F92CF93FE
:100F100080EA92E09F938F930E94FA050F900F90C2
:100F20000F900F9081E010C01F92CF9382EB92E060
:100F30009F938F930E94FA058FEF8093D4040F90B4
:100F40000F900F900F9080E0CF9108950F931F9313
:100F50000E944605209144072077203729F000E1C0
:100F600017E220E030E004C000E61AEE20E030E0B6
:100F7000061717072807390770F48EE892E09F9349
:100F80008F930E94FA050F900F9084E291E01F91D9
:100F90000F910C9459051F910F910895809144076A
:100FA000982F9077903759F0982F92959F709F5F68
:100FB00097709295907F8F78892B809344078091CA
:100FC0004407829587701F928F938DE792E09F93DD
:100FD0008F930E94FA05809143078B7F8F7E8093C9
:100FE00043078FE692E09F938F930E94FA0586E66F
:100FF00093E09F938F930E94FA058DB79EB7089652
:101000000FB6F8949EBF0FBE8DBF0C94CA05809199
:1010100044078F70863060F086E592E09F938F934F
:101020000E94FA050F900F9087E191E00C9459050A
:1010300008958091D6041F928F938091D5041F92BA
:101040008F938091D4041F928F9387E392E09F93B4
:101050008F930E94FA058091430784608093430731
:1010600080914407807880934407E0912B07F091AA
:101070002C078DB79EB708960FB6F8949EBF0FBE8B
:101080008DBF309709F009940895809145078F3FEF
:1010900079F10E94261560933F0770934007809373
:1010A0004107909342078BE292E09F938F930E94B7
:1010B000FA05909145078091D6040F900F909817EC
:1010C000A1F01F929F931F928F9383E192E09F93D1
:1010D0008F930E94FA05809145078093D6040F9064
:1010E0000F900F900F900F900F9083E191E01DC033
:1010F0000E944605613D774081059105C0F08091D1
:101100004307803618F48FE091E00FC084E092E04E
:101110009F938F930E94FA0580914307877F809366
:1011200043070F900F9087E191E00C9459050895C3
:101130008BEF91E09F938F930E94FA058FEF80933E
:101140004507E3E4F7E080818860808328E143E09D
:101150006FEF80E00E94EC1261E00E94E7040F90C4
:101160000F900C9407078091D4048F3F59F080EFC3
:1011700091E09F938F930E94FA050F900F908FE05C
:1011800091E018C00E944605613D774081059105B8
:1011900098F080914307803618F48BE091E00AC004
:1011A00082EE91E09F938F930E94FA050F900F902B
:1011B00087E091E00C9459050895CF938AED91E072
:1011C0009F938F930E94FA050F900F908091D40403
:1011D0008F3F01F50E9426156F3F19F0609328019B
:1011E00002C010922801C09128018EEC91E09F93DB
:1011F0008F930E94FA0523E043E06C2F80E00E9469
:10120000EC1260E874E00E94FF040F900F90CF9101
:101210000C940707CF9108950E944605613D7740E1
:101220008105910520F48091430781FF0895809105
:10123000D5048F3F81F081EC91E09F938F930E94C2
:10124000FA05809143078E7F809343070F900F909C
:101250008BE091E019C080914307803658F48DE906
:1012600091E09F938F930E94FA050F900F9087E172
:1012700091E00AC081EB91E09F938F930E94FA0561
:101280000F900F9087E091E00C94590583E991E06D
:101290009F938F930E94FA05E3E4F7E08081897FB2
:1012A00081608083E4EDF4E08FEF8283818327E027
:1012B00043E06FEF0E94EC1260E874E00E94FF04CC
:1012C0000F900F900C940707CF93219A229A299898
:1012D0002A9ACFB7F89480918804811127C0E3E15E
:1012E000F4E08491E7E2F4E09491E82FF0E0EE0F6F
:1012F000FF1FE551FC4FA591B491EC91E92321F436
:1013000061E08AE00E94BB1461E08AE00E94EA1476
:101310008CB580618CBD8CB580648CBD61E08DE046
:101320000E94EA1461E08BE00E94EA148091880434
:101330008F5F80938804CFBF0E94C00563E083E283
:101340000E94AF056FE584E20E94AF0568E685E282
:101350000E94AF0560918904660F616286E20E9477
:10136000AF0564E08DE30E94AF058DE10E94DC05CE
:10137000843041F063E780E50E94AF0564E08DE3CF
:101380000E94AF050E94E205882309F449C062E08B
:1013900082E20E94AF0560E081E20E94AF0563E057
:1013A0008CE30E94AF058FEF8093020120E045E0BF
:1013B00062E071E08BE20E94850520E045E062E09A
:1013C00071E08AE20E94850520E045E062E071E07C
:1013D00080E30E94850582EE0E94F40581EE0E9462
:1013E000F40560E787E20E94AF0582E891E09F93F1
:1013F0008F930E94FA058091430780618093430791
:101400008091D7048E7F8093D7048091D4040F906D
:101410000F908F3F71F00E946D0781110AC00CC0C0
:101420008EE691E09F938F930E94FA050F900F90A4
:1014300003C087E191E002C087E091E0CF910C9476
:10144000590584E691E09F938F930E94FA05E3E4A7
:10145000F7E08081877F8F7E808310923F07109214
:10146000400710924107109242070F900F9044E0FE
:1014700050E060E070E084ED94E00C94A522CF93FE
:10148000C82F88ED94E00E94BE1280917A008F7779
:1014900080937A0090916000CF3FB1F0C3FD02C00D
:1014A00088E001C088E2C770C82B88E10FB6F894C5
:1014B000A895809360000FBEC0936000809160008B
:1014C0008065809360000BC00FB6F894A89580915A
:1014D0006000886180936000109260000FBE83B747
:1014E000817F846083BFF89483B7816083BF85B7B1
:1014F000806685BF8F7D85BF7894889583B78E7F02
:1015000083BFF894A8958091600088618093600003
:1015100090936000789480917A00806880937A003C
:10152000CF9108958F929F92AF92BF92CF92DF9208
:10153000EF92FF92CF93DF936B017C012FE0C20EFD
:10154000D11CE11CF11CC1E0D0E080911C018F3F57
:10155000F9F480E1C816D104E104F104C8F089E08F
:1015600094E0980F4E0102C0880C991C9A95E2F7FE
:10157000A12CB12CC814D904EA04FB0438F00E9451
:101580003F0AC818D908EA08FB08DFCF8150E8CF26
:10159000DF91CF91FF90EF90DF90CF90BF90AF9011
:1015A0009F908F9008958F929F92AF92BF92DF92FB
:1015B000EF92FF920F931F93CF93DF93D82FC42FF7
:1015C000D22E47015801F894809301014093000105
:1015D0008F3F79F081E090E00D2E01C0880F0A94D2
:1015E000EAF78CBB462F50E065EA73E08D2F0E942E
:1015F0001416CF3F79F081E090E00C2E01C0880FE7
:101600000A94EAF78CBB4D2D50E065EB73E08C2F0C
:101610000E94141681149104A104B10429F0C5019B
:10162000B4010E94920A03C08FEF0E943F0ADF3F7D
:1016300019F08D2F0E940216CF3F19F08C2F0E94B7
:10164000021680911C018F3F19F080911C0101C08E
:101650008FEF9FEF90931C01DF91CF911F910F911E
:10166000FF90EF90DF90BF90AF909F908F90089584
:101670001F920F920FB60F9211240F900FBE0F9072
:101680001F9018952BE043E06FEF80E00E94EC1272
:1016900062E472E00E94FF040E945E072CE043E0D7
:1016A0006FEF80E00E94EC126DE472E00E94FF0494
:1016B0000E945E0742E552E060E081E00E946D1406
:1016C00064E670E080E090E00E9482144BE552E016
:1016D00060E082E00E946D1464E670E080E090E0DB
:1016E0000E94821444E652E06EE188EC0E946D1480
:1016F00064E670E080E090E00E94821448E652E0E8
:1017000067E18AEC0E946D1464E670E080E090E08E
:101710000E94821446E752E063E08EEF0E946D144F
:1017200064E670E080E090E00E94821487E892E036
:101730000C940D13CF9360E082E00E94EA1460E005
:1017400083E00E94EA1461E082E00E94BB1461E041
:1017500083E00E94BB1483E080931D0189E992E03D
:101760000E940D138BEC92E00E940D1389E992E028
:101770000E940D138DEF92E00E946F138091D504AB
:101780000E945C138EE093E00E946F1380918904A5
:10179000082E000C990B0E94711380918A0481110C
:1017A00003C08CE193E002C083E393E00E940D1339
:1017B0006091D50470E080E090E00E94AA21209121
:1017C0005F062770286220935F0620916006206ED6
:1017D00020936006609363067093640680936506A9
:1017E00090936606C1E0C09367068CE596E00E9480
:1017F000531960918904062E000C770B880B990B06
:101800000E94AC2120913E062770286220933E065C
:1018100020913F06206E20933F066093420670930E
:1018200043068093440690934506C09346068BE397
:1018300096E00E94531960918A04062E000C770BE3
:10184000880B990B0E94AC2120911D0627702862FD
:1018500020931D0620911E06206E20931E06609385
:101860002106709322068093230690932406C0934A
:1018700025068AE196E00E94531960913507062EED
:10188000000C770B89EF95E00E94C5030E94531965
:1018900060919F04062E000C770B88ED95E00E9466
:1018A000C5030E9453198091BA058770886280939E
:1018B000BA058091BB05806E8093BB0580E090E007
:1018C000A0E8BFE38093BE059093BF05A093C00539
:1018D000B093C105C093C20587EB95E00E945319F0
:1018E00060913107709132078091330790913407EE
:1018F0000E94AC21209199052770286220939905B8
:1019000020919A05206E20939A0560939D0570930F
:101910009E0580939F059093A005C093A10586E93D
:1019200095E00E94531960912D0770912E078091C8
:101930002F07909130070E94AC21209178052770E5
:1019400028622093780520917905206E20937905EF
:1019500060937C0570937D0580937E0590937F0551
:10196000C093800585E795E00E94531989E493E0D0
:10197000CF910C940D13EF92FF920F931F93CF937F
:10198000DF9382EB91E00E94B522E82E83EB91E099
:101990000E94B522182F84EB91E00E94B522F82E08
:1019A00085EB91E00E94B522C82F86EB91E00E9462
:1019B000B522D82F87EB91E00E94B522082F83E053
:1019C000E81609F478C084E593E00E940D1385E6DB
:1019D00093E00E946F138CE390E00E9471136CE31C
:1019E00083EB91E00E94CD2280E880938B048EEE01
:1019F00080938C0486E380938D0410928E04109261
:101A00008F041092900410929104109292048CE32F
:101A100080939F0481E08093930410929404109229
:101A200095041092960410929704109298041092C4
:101A3000990410929A0489E793E00E946F13109220
:101A4000380780E090E00E94711360E084EB91E041
:101A50000E94CD228DE893E00E946F1382E090E017
:101A60000E94711362E085EB91E00E94CD2283EA2F
:101A700093E00E946F1380E090E00E94711360E099
:101A800086EB91E00E94CD228EEB93E00E946F13D3
:101A900085E090E00E94711365E087EB91E00E9481
:101AA000CD2285E08093350763E08EE991E00E94C6
:101AB000CD22D0E06AC085ED93E00E940D138EEE3A
:101AC00093E00E946F13812F0E945C13212F30E05E
:101AD000A0E6BAEE0E94162360938B0470938C04E8
:101AE00080938D0490938E04DC01CB01BB0F880B97
:101AF000982FDC0180938F0480939004809391044D
:101B00008093920410939F0481E080939304109239
:101B100094041092950410929604109297041092D7
:101B200098041092990410929A0483E094E00E9421
:101B30006F138F2D0E945C13F092380789E194E0B7
:101B40000E946F138C2F0E945C1380E394E00E942C
:101B50006F138D2F0E945C13D0938A0489E494E064
:101B60000E946F13802F0E945C1300933507C130D1
:101B700049F028F0C23049F0C33021F006C010927D
:101B8000890406C0C093890403C082E0809389045D
:101B9000D13051F481E694E0DF91CF911F910F9104
:101BA000FF90EF900C940D13DF91CF911F910F9147
:101BB000FF90EF9008958F929F92AF92BF92CF9235
:101BC000DF92EF92FF924B015C010E9426156B01A0
:101BD0007C010E942615DC01CB018C199D09AE0900
:101BE000BF0988159905AA05BB0530F4A8950E9480
:101BF0003B050E943505EDCFFF90EF90DF90CF9031
:101C0000BF90AF909F908F9008953F924F925F92B8
:101C10006F927F928F929F92AF92BF92CF92DF92FC
:101C2000EF92FF920F931F93CF93DF932B013C0111
:101C3000D42EC22F302EDE2D1F92CF921F92EF9204
:101C40001F920F931F922F931F924F937F926F9229
:101C50005F926F938CEB93E09F938F930E94FA05B2
:101C6000809143072DB73EB7205F3F4F0FB6F894E2
:101C70003EBF0FBE2DBF82FD37C08EEA93E09F931B
:101C80008F930E94FA050E9426154B015C010F906C
:101C90000F9080E090E0DC012091430722FDD8C046
:101CA00084159505A605B70508F0D8C0803137E240
:101CB0009307A105B10508F4BDC053014201881A7C
:101CC000990AAA0ABB0ABF92AF929F928F928EE99D
:101CD00093E09F938F930E94FA050F900F900F90BF
:101CE0000F900F900F9002C053014201DD20B9F117
:101CF000D501C4010197A109B109833F9140A10514
:101D0000B10568F4C301B2010E94DB0D80E993E0E4
:101D10009F938F930E94FA050F900F909FC020E22F
:101D200043E06FEF80E00E94EC12FC0184818F7130
:101D3000806A8483838187708062838384EF91E0EB
:101D4000A0E0B0E087839087A187B287CF010E948F
:101D50005E0764EF71E080E090E00E94DB0D86E6B4
:101D600093E09F938F930E94FA050E94CA050F90FB
:101D70000F90CF3F79F085017401DF3F19F02C2DD2
:101D80004D2F02C020E04FEF632D8C2F0E94D30A0D
:101D9000C82F1CC0DF3FC9F481149104A104B10411
:101DA00029F0C501B4010E94920A03C08FEF0E947E
:101DB0003F0A80911C018F3F19F0C0911C0101C0A6
:101DC000CFEF8FEF80931C0101C0CEEF8C2F0C2E34
:101DD000000C990B9F93CF9380E893E09F938F9390
:101DE0000E94FA0583E793E09F938F930E94FA0580
:101DF0000E94C0050F900F900F900F900F900F90C2
:101E0000DD20B1F021E243E06FEF80E00E94EC12B0
:101E1000FC0184818F71806A8483838187708062F2
:101E2000838387829086A186B286CF010E945E0757
:101E30008C2F15C0A8950E943B050E9435050E9475
:101E40002615DC01CB0188199909AA09BB0924CF01
:101E500084159505A605B70508F42FCF8EEFDF9101
:101E6000CF911F910F91FF90EF90DF90CF90BF9097
:101E7000AF909F908F907F906F905F904F903F902A
:101E800008954F925F926F927F92AF92BF92CF92DE
:101E9000DF92EF92FF920F931F93CF93DF9365E052
:101EA00070E080E090E00E94821482E00E94921430
:101EB000C82F80911F01C81709F465C061E0C130C7
:101EC00009F060E08FEB96E00E94F3040E94531942
:101ED000C0931F018091A004811155C061E087EB80
:101EE00095E00E94F3040E945319409131075091EC
:101EF0003207609133077091340780919A058F7192
:101F0000806880939A05809199058770806280939C
:101F1000990540939D0550939E0560939F0570938E
:101F2000A00586E995E00E94531940912D07509134
:101F30002E0760912F0770913007809179058F717E
:101F4000806880937905809178058770806280939E
:101F5000780540937C0550937D0560937E057093D2
:101F60007F0585E795E00E94531960919F04062E36
:101F7000000C770B88ED95E00E94C5030E94531971
:101F800081E08093A00483E00E949214C82F809186
:101F90001E01C81709F465C061E0C13009F060E0B6
:101FA0008EE996E00E94F3040E945319C0931E012B
:101FB0008091A004811155C061E087EB95E00E94FB
:101FC000F3040E94531940913107509132076091F8
:101FD00033077091340780919A058F7180688093E0
:101FE0009A05809199058770806280939905409346
:101FF0009D0550939E0560939F057093A00586E90B
:1020000095E00E94531940912D0750912E07609141
:102010002F0770913007809179058F7180688093C8
:102020007905809178058770806280937805409368
:102030007C0550937D0560937E0570937F0585E751
:1020400095E00E94531960919F04062E000C770BB7
:1020500088ED95E00E94C5030E94531981E08093AA
:10206000A00480911D0120E4829FC001112480936F
:102070007C0080917A00806480937A0080917A005D
:1020800086FDFCCF609178008091790070E0782B1C
:10209000072E000C880B990B0E94AC2129E037E633
:1020A0004CE55BE30E94E7212B013C0126E636E686
:1020B00046EE5FE30E94252324E333E343EB5FE333
:1020C0000E94922320E030E048EC52E40E94E72195
:1020D0000E940424EB01653671052CF477FF05C0DE
:1020E000C0E0D0E002C0C4E6D0E080919D049091B1
:1020F0009E04C817D90709F5E0919B04F0919C0450
:102100009F2F990F990BA0909304B0909404C090C6
:102110009504D0909604E0909704F0909804009174
:10212000990410919A049F01492F592F692F792FF3
:10213000892F0E945C2409F087C0809180068770F7
:1021400088628093800680918106806E80938106EC
:1021500040928406509285066092860670928706A9
:1021600082E0809388068DE796E00E945319809163
:10217000A004811155C061E087EB95E00E94F30453
:102180000E945319409131075091320760913307F3
:102190007091340780919A058F71806880939A05B9
:1021A00080919905877080628093990540939D0581
:1021B00050939E0560939F057093A00586E995E076
:1021C0000E94531940912D0750912E0760912F07BF
:1021D00070913007809179058F71806880937905BF
:1021E00080917805877080628093780540937C05A4
:1021F00050937D0560937E0570937F0585E795E09C
:102200000E94531960919F04062E000C770B88EDF5
:1022100095E00E94C5030E94531981E08093A004B9
:1022200020E043E06FEF80E00E94EC126C2F0E94F0
:10223000E7040E945E07D0939E04C0939D04109211
:102240009C0410929B0405C03196F0939C04E0938B
:102250009B041092A00460918B0470918C04809177
:102260008D0490918E04CC24C394EE24E39401E079
:1022700020E041E00E94050EDF91CF911F910F9168
:10228000FF90EF90DF90CF90BF90AF907F906F90D6
:102290005F904F900895CF932FE043E06FEF80E081
:1022A0000E94EC1260E874E00E94FF04E0EEF6E0A9
:1022B000838187708061838384818F71806C848344
:1022C00081E087831086CF010E945E078FE00E9425
:1022D000321540E854E061E18FEF0E946D14C09127
:1022E000D50426E043E06FEF80E00E94EC126C2FF3
:1022F0000E94E7040E945E0786E00E943215CF919B
:102300000C94420BCF938091370781FD27C00E9428
:102310004B1189E593E09F938F930E94FA0580917A
:1023200037078160809337070F900F90C4E02AE150
:1023300043E06FEF80E00E94EC1262E00E94E7044D
:102340000E945E078BE10E943215811102C0C150CC
:1023500071F780913707826080933707CF91089596
:10236000833081F028F4813099F08230A1F0089513
:102370008730A9F08830B9F08430D1F480918000A2
:102380008F7D03C0809180008F77809380000895B7
:1023900084B58F7702C084B58F7D84BD0895809108
:1023A000B0008F7703C08091B0008F7D8093B00024
:1023B00008950895CF92DF92EF92FF920F931F93AB
:1023C000CF93DF936C017A018B01C0E0D0E0CE1592
:1023D000DF0581F0D8016D918D01D601ED91FC9161
:1023E0000190F081E02DC6010995892B11F021960D
:1023F000EECF7E01C701DF91CF911F910F91FF902A
:10240000EF90DF90CF900895089580E090E00895D8
:10241000FC01538D448D252F30E0842F90E0821BEA
:10242000930B541710F0CF96089501970895FC016F
:10243000918D828D981761F0828DDF01A80FB11DFB
:102440005D968C91928D9F5F9F73928F90E008951F
:102450008FEF9FEF0895FC01918D828D981731F0D9
:10246000828DE80FF11D858D90E008958FEF9FEF2D
:102470000895FC01918D228D892F90E0805C9F4F03
:10248000821B91098F739927089588ED94E00E942B
:10249000391221E0892B09F420E0822F0895FC01F4
:1024A000848DDF01A80FB11DA35ABF4F2C91848DDD
:1024B00090E001968F739927848FA689B7892C9312
:1024C000A089B1898C91837080648C93938D848D65
:1024D000981306C00288F389E02D80818F7D808368
:1024E0000895EF92FF920F931F93CF93DF93EC0128
:1024F00081E0888F9B8D8C8D981305C0E889F989C0
:10250000808185FD26C0F62E0B8D10E00F5F1F4FDA
:102510000F731127E02E8C8DE8120CC00FB607FC4C
:10252000FACFE889F989808185FFF5CFCE010E9435
:102530004F12F1CF8B8DFE01E80FF11DE35AFF4FD3
:10254000F0829FB7F8940B8FEA89FB8980818062C3
:102550000AC09FB7F894EE89FF896083E889F989FA
:1025600080818370806480839FBF81E090E0DF91F1
:10257000CF911F910F91FF90EF900895CF93DF932C
:10258000EC01888D8823C9F0EA89FB89808185FD6B
:1025900005C0A889B9898C9186FD0FC00FB607FCCC
:1025A000F5CF808185FFF2CFA889B9898C9185FF0D
:1025B000EDCFCE010E944F12E7CFDF91CF9108956A
:1025C00080E090E0892B29F00E94451281110C9443
:1025D000000008950E946B24E0EEF6E09091D40490
:1025E000918382836683258384814770807E482B14
:1025F0004483CF010895009769F0FC010190002009
:10260000E9F73197AF01481B590BBC0188ED94E005
:102610000C94DA1180E090E00895CF93DF930E944C
:10262000FB12EC018EE794E00E94FB128C0F9D1FC1
:10263000DF91CF9108958F929F92AF92BF920F93A7
:102640001F93CF93DF93CDB7DEB7A1970FB6F89462
:10265000DEBF0FBECDBF19A2423008F44AE08E01A2
:102660000F5D1F4F842E912CA12CB12CA50194013C
:102670000E943A24E62FB901CA0101501109EA303B
:1026800014F4E05D01C0E95CD801EC93232B242B0A
:10269000252B61F7C8010E94FB12A1960FB6F89492
:1026A000DEBF0FBECDBFDF91CF911F910F91BF90C5
:1026B000AF909F908F900895CF93DF93682F70E035
:1026C00080E090E04AE00E941B13EC018EE794E06A
:1026D0000E94FB128C0F9D1FDF91CF9108950C94E7
:1026E000FB12CF92DF92EF92FF92CF93DF936C01B8
:1026F000990FEE08FF08F7FE13C06DE288ED94E035
:102700000E947112EC0166277727CB016C197D09B5
:102710008E099F094AE00E941B13C80FD91F06C0EB
:102720004AE0C701B6010E941B13EC018EE794E05A
:102730000E94FB128C0F9D1FDF91CF91FF90EF90B5
:10274000DF90CF9008950F931F93CF93DF93EC0109
:102750008C8182958695877091F44B81469546953C
:10276000469550E0BE01695F7F4F81EA94E00E9488
:102770007024EB81E695E695E695F0E076C0813031
:1027800031F48F814AE061EA74E090E007C0823062
:1027900041F44AE061EA74E08F8198850E94381C18
:1027A00067C0833041F44AE061EA74E08F81988524
:1027B0000E94911C5DC0843051F46F8178858985B9
:1027C0009A852AE041EA54E00E94431C51C08530BA
:1027D00051F46F81788589859A852AE041EA54E031
:1027E0000E946F1C45C0873011F020E030C02B855F
:1027F000293008F028E06F81788589859A8501EA7B
:1028000014E042E00E94D31B33C0E22FF0E0AF019E
:10281000440F551FDA01AF55BB4FEC0FFD1F8781E9
:10282000082E000C990B34E0959587953A95E1F7C1
:102830008F708A3098F4805D8C93DA01AE55BB4F6F
:1028400087818F708A3060F4805D8C932F5FEB817D
:10285000E695E695E6952E17C0F204C0895CECCFAC
:10286000895CF3CFF0E0EE0FFF1FEF55FB4F1082B6
:1028700081EA94E0DF91CF911F910F9108958091AB
:102880000507829586958770813019F48091080735
:102890000895811105C088E097E00E94F31B089518
:1028A00080E008950F931F93CF93DF938C01C0E0D6
:1028B000D0E0F801EC0FFD1F6491662341F088ED34
:1028C00094E00E947112892B11F02196F2CFCE0173
:1028D000DF91CF911F910F910895CF93DF93262F12
:1028E0008F3F11F0EA0102C0C1E8D4E040E0682F58
:1028F00080E00E94EC12BE010E94FF04DF91CF91A4
:102900000C945E07CF92EF920F93CC24CA94EE24DE
:10291000EA940FEF2FEF40E00E94050E0F91EF9029
:10292000CF900895CF93DF93282F30E0F901EF5C2B
:10293000FB4F8491F901E35EFB4FD491F901E75F0E
:10294000FB4FC491CC2391F081110E94B011EC2F68
:10295000F0E0EE0FFF1FE150FC4FA591B491EC9118
:10296000ED2381E090E021F480E002C080E090E07F
:10297000DF91CF9108951F93CF93DF93282F30E0FD
:10298000F901EF5CFB4F8491F901E35EFB4FD491B9
:10299000F901E75FFB4FC491CC23C1F0162F8111E1
:1029A0000E94B011EC2FF0E0EE0FFF1FEB50FC4F38
:1029B000A591B4919FB7F894111104C08C91D09552
:1029C000D82302C0EC91DE2BDC939FBFDF91CF9127
:1029D0001F910895CF93DF9390E0FC01E35EFB4FDE
:1029E0002491FC01E75FFB4F8491882361F190E023
:1029F000880F991FFC01E551FC4FC591D491FC0152
:102A0000EB50FC4FA591B491611109C09FB7F894A8
:102A10008881209582238883EC912E230BC062301D
:102A200061F49FB7F8948881322F3095832388838F
:102A3000EC912E2B2C939FBF06C08FB7F894E881A2
:102A40002E2B28838FBFDF91CF9108952FB7F89455
:102A500060912307709124078091250790912607A4
:102A60002FBF0895CF92DF92EF92FF92CF93DF9323
:102A7000D82F0E9426156B017C0181E0D11180E0E6
:102A800080930607C0E00E942615DC01CB018C195B
:102A90009D09AE09BF09803D9740A105B10590F49D
:102AA000C11110C0A8950E943B050E943505809178
:102AB00005078770833039F7C1E0809106078D13D1
:102AC000E1CFE1CF8C2FDF91CF91FF90EF90DF909E
:102AD000CF9008951F920F920FB60F9211242F934B
:102AE0003F938F939F93AF93BF93809123079091D0
:102AF0002407A0912507B09126073091220720E3F3
:102B0000230F2D3720F44096A11DB11D05C023EBE6
:102B1000230F4196A11DB11D209322078093230707
:102B200090932407A0932507B09326078091270749
:102B300090912807A0912907B0912A070196A11D1D
:102B4000B11D8093270790932807A0932907B0937E
:102B50002A07BF91AF919F918F913F912F910F9035
:102B60000FBE0F901F9018951F920F920FB60F92E5
:102B700011242F933F934F935F936F937F938F9382
:102B80009F93AF93BF93EF93FF93E0912201F09156
:102B900023010995FF91EF91BF91AF919F918F9183
:102BA0007F916F915F914F913F912F910F900FBE49
:102BB0000F901F9018951F920F920FB60F9211242D
:102BC0002F933F934F935F936F937F938F939F9335
:102BD000AF93BF93EF93FF93E0912001F091210118
:102BE0000995FF91EF91BF91AF919F918F917F9147
:102BF0006F915F914F913F912F910F900FBE0F906A
:102C00001F901895823078F4813011F0E89801C057
:102C1000E998E82FF0E0EE0FFF1FE05EFE4F89ED30
:102C200091E19183808308958230E8F4E82FF0E009
:102C3000EE0FFF1FE05EFE4F71836083813041F035
:102C4000809169008C7F482B40936900E89A089531
:102C500080916900837F440F551F440F551F482BF7
:102C600040936900E99A08951F920F920FB60F9250
:102C700011242F933F934F935F936F937F938F9381
:102C80009F93AF93BF93EF93FF9388ED94E00E94DF
:102C90004F12FF91EF91BF91AF919F918F917F91D3
:102CA0006F915F914F913F912F910F900FBE0F90B9
:102CB0001F9018951F920F920FB60F9211242F9309
:102CC0008F939F93EF93FF93E091E804F091E904D1
:102CD0008081E091EE04F091EF0482FD12C09081BA
:102CE0008091F1048F5F8F732091F204821751F06D
:102CF000E091F104F0E0E852FB4F958F8093F104EE
:102D000001C08081FF91EF919F918F912F910F9042
:102D10000FBE0F901F9018952F923F924F925F9287
:102D20007F928F929F92AF92BF92CF92DF92EF925B
:102D3000FF920F931F93CF93DF9336E0732E882477
:102D40008A949924939443E0A42E42E0B42E87E120
:102D50000E94DC0580FD95C27A94772009F491C227
:102D600021E041E060E070E080E60E948505082FE8
:102D7000813220F082EE0E94F40500E021E0402F35
:102D800061E077E081E60E94850560E487E20E94C9
:102D9000AF0580910407F82EF694F694F69429E195
:102DA0002F1510F429E1F22E82FD04C097E0492E80
:102DB0004F0C02C080E2482E109105071770C09199
:102DC0000607D0910207E0900107509003071330E7
:102DD00011F4C13129F081E097E00E94A31302C0F1
:102DE00080E392E0CF2CD12C9F938F9380910407A6
:102DF00082FB882780F91F928F931F92FF92809108
:102E000005078295869587701F928F931F92CF93A7
:102E10001F921F93809107071F928F931F925F92BB
:102E20001F92EF921F92DF9383E996E09F938F9317
:102E30000E94FA058DB79EB746960FB6F8949EBFCE
:102E40000FBE8DBF401639F01F924F921F920F9305
:102E50008BE796E00DC020910407822F83708230AB
:102E600091F01F9292E09F931F928F9385E696E0D8
:102E70009F938F930E94FA050F900F900F900F90E1
:102E80000F900F9064CF809144078068809344072F
:102E90008091D404581253C0822F869586958695CA
:102EA0008A3108F089E138E0839FC001112427703E
:102EB000822B80930407F601EF5FF84F1782809111
:102EC000050783FF21C084E596E09F938F930E94BE
:102ED000FA0581E2E1E0F7E0A0EEB6E001900D92A4
:102EE0008A95E1F78091E406877F80618093E4060C
:102EF0008091D4048093E106D093E20680EE96E0C0
:102F00000E945E070F900F909091050794FD0AC0F4
:102F1000133081F48091060721EF280F233008F049
:102F200082C015CF86E995E09F938F930E94FA05A2
:102F30000F900F9081E097E00E94D20308CF3FEFFF
:102F4000531268C08AE895E09F938F930E94FA0518
:102F50000F900F90133009F04EC08091430782FF0D
:102F600003C0C73009F4F3CEC83009F4F0CEC43141
:102F700009F0EDCE8091D504E812E9CE0E94261525
:102F80006B017C0133E0D322EE24FF240E947E1AE1
:102F90001B012C01C114D104E104F104F1F00E94E1
:102FA0007E1ADC01CB0182199309A409B509883E78
:102FB0009340A105B10570F381E0C81AD108E1087A
:102FC000F10898EE290E93E0391E411C511CC114E2
:102FD000D104E104F10419F7DDCFC091D50425E156
:102FE00043E06FEF8D2F0E94EC126C2F0E94E704DC
:102FF0000E940707ACCE8091D504E812A8CE8AE7DC
:1030000095E09F938F930E94FA0581E097E00E94DC
:10301000D20306C083E695E09F938F930E94FA0542
:103020000F900F9094CEC43081F480910707909157
:103030002801891711F08F3F29F40E943F140E9444
:103040006D0785CE8CE396E035C0C830A9F51091A8
:10305000430710FF2DC00E943F148F3F09F477CE25
:10306000C1E0C80FCF3F21F08091D604C81720F0EF
:1030700080913807D8136BCE11FD69CE8091380747
:10308000D8130BC012601093430789E296E09F9318
:103090008F930E94FA050F900F90C093D604D0939F
:1030A000D5041F92CF931F92DF938DE096E0E0CE80
:1030B00085EF95E09F93B1CFC831C1F40E943F14D2
:1030C0001F928F931F92DF9389ED95E09F938F93CB
:1030D0000E94FA0529E143E06FEF8D2F0E94EC1268
:1030E00061E00E94E7040E940707C6CEC93199F447
:1030F0008091430783FF0CC0877F809343070E9422
:103100003F14809345071F928F9380EC95E036C063
:1031100083EA95E081CFCE3109F419CECD3159F44F
:103120002FE143E06FEF80E00E94EC1260E07FEF60
:103130000E94C5035DCF2091020721119EC08D30F2
:1031400059F498E088E10FB6F894A8958093600050
:103150000FBE90936000FFCF8B31C9F40E943F14E3
:1031600091E0811101C090E08091370790FB80F9D8
:10317000809337071F929F938EE495E09F938F93E0
:103180000E94FA050F900F900F900F90E0CD8630BF
:1031900099F49091080781E0992319F09D3409F082
:1031A00080E08093360741E050E063E071E086E321
:1031B00097E00E94BD22CBCD833119F40E944B11C0
:1031C000C6CD8231C1F40E9446056B017C0126E127
:1031D00043E06FEF80E00E94EC12FC0184818F716C
:1031E000806A84838381877080628383C782D0866C
:1031F000E186F28615C08230B9F422E043E06FEF39
:1032000080E00E94EC12FC0184818F71806A8483CB
:10321000838187708062838387829086A186B2864D
:10322000CF010E945E0793CD813001F520E030E0B0
:10323000232B09F48CCD929596959770953049F48F
:10324000609108077091090780910A0790910B0718
:103250000AC0911105C088E097E00E94111C03C0CC
:1032600060E070E0CB010E94000071CD8A3009F46B
:103270006ECD8C3109F05ECE6ACD8A3109F05ACE1E
:1032800066CDDF91CF911F910F91FF90EF90DF906E
:10329000CF90BF90AF909F908F907F905F904F9016
:1032A0003F902F900895BF92CF92DF92EF92FF92BE
:1032B0000F931F93CF93DF93EC0100E010E0EE2417
:1032C000E394F12C97E3C92E95E0D92E8091350730
:1032D000082E000C990BE816F906ECF58091D40441
:1032E00089838C81807F81608C838091370780FF08
:1032F0001BC0CE010E945E078823E1F08091310758
:1033000090913207A0913307B09134070196A11D27
:10331000B11D8093310790933207A0933307B09388
:103320003407BB24B39409C0DF92CF920E94FA0500
:103330000F900F900E5C1F4FB12C8FEFE81AF80A18
:10334000B801012E000C880B990B0E94DB0DBB20ED
:1033500009F4BCCF13C080912D0790912E07A09146
:103360002F07B09130070196A11DB11D80932D0745
:1033700090932E07A0932F07B0933007DF91CF9142
:103380001F910F91FF90EF90DF90CF90BF90089525
:10339000CF93DF93FC011082118212821482158276
:1033A0001682DC0117968AE1ED0119928A95E9F7F8
:1033B00082E08383DF91CF9108950F931F93CF9382
:1033C000DF93E8EDF4E01382128288EE93E0A0E050
:1033D000B0E084839583A683B7838DE291E09183E7
:1033E000808385EC90E09587848784EC90E09787D4
:1033F000868780EC90E0918B808B81EC90E0938BC2
:10340000828B82EC90E0958B848B86EC90E0978B9E
:10341000868B118E128E138E148E81E097E00E949F
:10342000C81980EE96E00E94C8198FEB96E00E94C2
:10343000C819EFEBF6E081E08683C0E1C5838EE931
:1034400096E00E94C819EEE9F6E002E00683C58323
:103450008DE796E00E94C819EDE7F6E088EC8683D8
:1034600086E285838CE596E00E94C819ECE5F6E0DB
:10347000CAECC68318E115838BE396E00E94C81955
:10348000EBE3F6E0C683D9E1D5838AE196E00E94BA
:10349000C819EAE1F6E0C6838AE1858389EF95E001
:1034A0000E94C819E9EFF5E0C6838BE1858388EDBA
:1034B00095E00E94C819E8EDF5E0C6838CE18583AC
:1034C00087EB95E00E94C819E7EBF5E0CEEFC683E5
:1034D000058386E995E00E94C819E6E9F5E0C68310
:1034E000158385E795E00E94C819E5E7F5E0C683F6
:1034F000D583DF91CF911F910F9108953FB7F89435
:103500008091270790912807A0912907B0912A0759
:1035100026B5A89B05C02F3F19F00196A11DB11D2E
:103520003FBFBA2FA92F982F8827820F911DA11D69
:10353000B11DBC01CD0146E0660F771F881F991FA2
:103540004A95D1F70895789484B5826084BD84B596
:10355000816084BD85B5826085BD85B5816085BD8E
:1035600080916E00816080936E0010928100809146
:1035700081008260809381008091800081608093CF
:1035800080008091B10084608093B1008091B00090
:1035900081608093B00080917A008B7F80937A0065
:1035A00080917A00826080937A0080917A008160B5
:1035B00080937A0080917A00806880937A001092DC
:1035C000C100A89580E090E0892B11F00E940000D6
:1035D000E091E804F091E90482E08083E091E40462
:1035E000F091E5041082E091E604F091E7048CE0AC
:1035F00080831092F004E091EC04F091ED0486E0F9
:103600008083E091EA04F091EB0480818061808303
:10361000E091EA04F091EB04808188608083E0917E
:10362000EA04F091EB04808180688083E091EA04F1
:10363000F091EB0480818F7D8083C0E1D0E0F12C9C
:10364000FE01F595E795E45BFB4FE491C0FFE29541
:10365000EF70E83008F09BC0F0E0E45BFB4FF490C3
:103660006F2D88ED94E00E9471122196C23FD10522
:1036700039F785E494E00E9452148EE794E00E94AA
:10368000FB121F928FEF8F9387E095E09F938F93AC
:103690000E94FA05809137078D7F809337070F903E
:1036A0000F900F900F908AEF94E09F938F930E945A
:1036B000FA050E94BB0C0F900F9041E050E063E0D0
:1036C00071E086E397E00E94A5226091380781E0CF
:1036D00090E00E94CD22809144078F788093440728
:1036E00010923A071092390784E291E00E9459053E
:1036F00082E891E190932C0780932B071F921F92F1
:103700001F921F9285EC94E09F938F930E94FA057D
:103710000E9426150F900F900F900F900F900F9012
:103720000E9426150E943B050E943505A8958091B0
:10373000430782FFF5CF8DEE94E09F938F930E9415
:10374000FA050E949A0B0F900F909091430792FBFD
:10375000882780F992FD0E94E2051F928F9385EDE4
:1037600094E09F938F930E94FA05A8950F900F9075
:103770000F900F90A8950E943B058091430784FD10
:103780000E948C160E94410F0E94E012F3CF1BEFA3
:103790001E0F00E06F2D88ED94E00E9471120F5F04
:1037A0000117C0F362CFEF920F931F93CF93DF9374
:1037B000E80147FD02C034E001C034E1042E000CF2
:1037C000550B57FF03C0519541955109E32E022F28
:1037D000242FAE010E94B81ECE01DF91CF911F9120
:1037E0000F91EF900895FC0188279927E894219183
:1037F0002032E9F3293010F02E30C8F32B3241F09B
:103800002D3239F4689404C00E94671C820F911D08
:10381000219120532A30C0F31EF4909581959F4F3B
:1038200008951F93FC0199278827BC01E894119102
:103830001032E9F3193010F01E30C8F31B3251F08A
:103840001D3249F4689406C00E94521C610F711D1C
:10385000811D911D119110531A30B0F33EF49095D3
:103860008095709561957F4F8F4F9F4F1F91089561
:10387000BB274A3031F4992322F4BDE2909581951B
:103880009F4F0C94921CBB272A3051F4992342F489
:10389000BDE290958095709561957F4F8F4F9F4FBA
:1038A0000C94701C592F482F372F262F660F771F27
:1038B000881F991F660F771F881F991F620F731F3C
:1038C000841F951F660F771F881F991F08957AE040
:1038D000979F902D879F802D910D11240895BB27D0
:1038E000FA01A62F6217710581059105330B30FB94
:1038F00066F0AA27660F771F881F991FAA1FA217B5
:1039000010F0A21B63953850A9F7A05DAA3308F008
:10391000A95DA19336F7B111B1931082CA010C943D
:103920000021BB27FB015527AA27880F991FAA1F33
:10393000A41710F0A41B83955051B9F7A05DAA33CA
:1039400008F0A95DA193009779F7B111B193119295
:10395000CB010C940021AEE0B0E0E1EBFCE10C9473
:10396000ED228C01FA018EE08C831A83098377FFA4
:1039700002C060E070E8CB0101979E838D83A901AE
:10398000BF01CE0101960E94D71C4D815E8157FD7B
:103990000AC02F813885421753070CF49A01F801A9
:1039A000E20FF31F10822E96E4E00C940923ABE0A3
:1039B000B0E0EDEDFCE10C94DF226C017B018A01AB
:1039C000FC0117821682838181FFCCC1CE01019652
:1039D0003C01F6019381F70193FD859193FF81915D
:1039E0007F01882309F4BAC1853239F493FD8591AA
:1039F00093FF81917F01853229F4B60190E00E9406
:103A00001021E7CF912C212C312CFFE1F315D8F0B8
:103A10008B3279F038F4803279F08332A1F4232D9F
:103A200020611DC08D3261F0803369F4232D216047
:103A300016C0832D8260382EE32DE4603E2E2AC00E
:103A4000F32DF8601DC037FC2DC020ED280F2A3063
:103A500040F08E32B9F436FC81C1232D2064322E21
:103A600019C036FE06C08AE0989E200D1124922EC1
:103A700011C0EAE02E9E200D1124222EF32DF062BB
:103A80003F2E08C08C3621F4832D8068382E02C06A
:103A9000883641F4F70193FD859193FF81917F0171
:103AA0008111B3CF982F9F7D9554933028F40C5FEC
:103AB0001F4F9FE399830DC0833631F0833771F038
:103AC000833509F059C021C0F801808189830E5FD8
:103AD0001F4F88248394912C530113C02801F2E0D6
:103AE0004F0E511CF801A080B18036FE03C0692D35
:103AF00070E002C06FEF7FEFC5010E94F5204C011E
:103B00008201F32DFF773F2E16C0280122E0420EDE
:103B1000511CF801A080B18036FE03C0692D70E011
:103B200002C06FEF7FEFC5010E94EA204C01F32D28
:103B3000F0683F2E820133FC1BC0822D90E0881676
:103B40009906B0F4B60180E290E00E9410212A9418
:103B5000F4CFF50137FC859137FE81915F01B60105
:103B600090E00E94102121102A9421E0821A9108ED
:103B70008114910471F7E8C0843611F0893641F55B
:103B8000F80137FE07C060817181828193810C5FEB
:103B90001F4F08C060817181072E000C880B990BA4
:103BA0000E5F1F4FF32DFF763F2E97FF09C09095B4
:103BB0008095709561957F4F8F4F9F4FF0683F2E96
:103BC0002AE030E0A3010E944C21882E861845C0CF
:103BD000853731F4232D2F7EB22E2AE030E025C028
:103BE000932D997FB92E8F36C1F018F4883579F06E
:103BF000B5C0803719F0883721F0B0C0E92FE061F7
:103C0000BE2EB4FE0DC0FB2DF460BF2E09C034FEE5
:103C10000AC0292F2660B22E06C028E030E005C079
:103C200020E130E002C020E132E0F801B7FE07C039
:103C300060817181828193810C5F1F4F06C060811A
:103C4000718180E090E00E5F1F4FA3010E944C2124
:103C5000882E8618FB2DFF773F2E36FE0DC0232DB4
:103C60002E7FA22E891458F434FE0BC032FC09C0FA
:103C7000832D8E7EA82E05C0B82CA32C03C0B82C93
:103C800001C0B92CA4FE0FC0FE01E80DF11D80811A
:103C9000803321F49A2D997EA92E09C0A2FE06C078
:103CA000B394B39404C08A2D867809F0B394A3FC2E
:103CB00011C0A0FE06C0B21488F4280C922C9B18E8
:103CC0000EC0B21460F4B60180E290E00E941021B0
:103CD000B394F7CFB21418F42B1802C0982C212CEF
:103CE000A4FE10C0B60180E390E00E941021A2FE65
:103CF00017C0A1FC03C088E790E002C088E590E00F
:103D0000B6010CC08A2D867859F0A1FE02C08BE264
:103D100001C080E2A7FC8DE2B60190E00E94102174
:103D2000891438F4B60180E390E00E9410219A943F
:103D3000F7CF8A94F301E80DF11D8081B60190E080
:103D40000E9410218110F5CF222009F442CEB60145
:103D500080E290E00E9410212A94F6CFF60186813D
:103D6000978102C08FEF9FEF2B96E2E10C94FB222C
:103D7000A9E0B0E0EEEBFEE10C94E5226A01122F1F
:103D8000B02E2BE3201720F0FF24F394F00E02C096
:103D90002CE3F22E0F2D27E0AE014F5F5F4F0E9404
:103DA0001220BC014981842F8970813031F0E1FCFF
:103DB00006C0E0FE06C090E205C09DE203C09BE2A3
:103DC00001C090E05E2D507143FF3CC0911102C0D4
:103DD00083E001C084E0811718F4212F281B01C063
:103DE00020E051110BC0F601822F30E2882319F038
:103DF00031938150FBCFC20ED11C20E0992329F0D2
:103E0000D6019C93F60131966F01C6010396E2FE3E
:103E10000AC03EE4D6013C9341E411964C931197BD
:103E200012963C9306C03EE6F601308341E641839C
:103E30003283FC01322F40E2332309F442C0419324
:103E40003150FACF42FF44C0911102C083E001C05B
:103E500084E0811718F4212F281B01C020E05111A4
:103E60000BC0F601822F30E2882319F03193815084
:103E7000FBCFC20ED11C20E0992329F0D6019C93E0
:103E8000F60131966F01C6010396E2FE0BC039E4DC
:103E9000D6013C933EE411963C93119736E412967A
:103EA0003C9307C039E6F60130833EE6318336E6BF
:103EB0003283FC01322F40E2332319F04193315019
:103EC000FBCFFC01E20FF11D10828EEF9FEFA6C029
:103ED00021E030E0911102C020E030E01616170614
:103EE0001CF4FB01319602C0E1E0F0E02E0F3F1F11
:103EF000BB2021F0EB2DF0E0319602C0E0E0F0E0D5
:103F00002E0F3F1FE12FF0E02E173F071CF4121B6E
:103F1000212F01C020E08E2D887159F4F601822FE7
:103F200030E2882319F031938150FBCFC20ED11CAF
:103F300020E0992329F0D6019C93F60131966F0178
:103F400051110BC0F601822F90E3882319F0919351
:103F50008150FBCFC20ED11C20E00F2D060F9A819D
:103F6000342F307144FF03C0913309F4015010160F
:103F700024F4093018F008E001C001E0AB0177FF3C
:103F800002C040E050E0FB01E41BF50BA1E0B0E013
:103F9000AC0FBD1FEA0FFB1F8EE2A82E4B01801A4B
:103FA00091080B2D10E01195019511094F3FBFEFBE
:103FB0005B0721F4D601AC9211966D016417750769
:103FC0002CF08416950614F4818101C080E34150E1
:103FD00051093196D60111967D014017510724F001
:103FE000D6018C936701E2CF6417750739F49633D5
:103FF00020F4953319F4311101C081E3F601808377
:10400000F701822F90E2882319F091938150FBCF22
:10401000F701E20FF11D108280E090E02996ECE0BC
:104020000C940123283008F027E03327DA01990F98
:10403000311D87FD916000966105710539F432608C
:104040002E5F3D9330E32A95E1F708959F3F30F0CE
:1040500080387105610509F03C5F3C5F3D9391300C
:1040600008F08068911DDF93CF931F930F93FF9209
:10407000EF92192F987F9695E92F96959695E90FCF
:10408000FF27EE53FF4F99273327EE24FF24A70184
:10409000E70105900894079428F4360FE71EF81EF0
:1040A000491F511D660F771F881F991F0694A1F79E
:1040B0000590079428F4E70EF81E491F561FC11DEE
:1040C000770F881F991F661F0694A1F70590079424
:1040D00028F4F80E491F561FC71FD11D880F991FBE
:1040E000661F771F0694A1F70590079420F4490FE7
:1040F000561FC71FD81F990F661F771F881F06946A
:10410000A9F784911095177041F0D695C7955795EA
:104110004795F794E7941A95C1F7E8E6F0E06894BC
:104120001590159135916591959105907FE2739564
:10413000E118F10A430B560BC90BD009C0F7E10C8B
:10414000F11E431F561FC91FD01D7EF4703311F49A
:104150008A95E6CFE894015030F0080F0AF4002762
:10416000021708F4202F2395022F7A3328F079E3E1
:104170007D932A95E9F710C07D932A9589F60694D8
:1041800097956795379517951794E118F10A430BA2
:10419000560BC90BD00998F023957E9173957A330D
:1041A00008F070E37C932013B8F77E9170617D93E3
:1041B00030F0839571E37D9370E32A95E1F7112444
:1041C000EF90FF900F911F91CF91DF91992787FD7D
:1041D00090950895FC010590615070400110D8F74A
:1041E000809590958E0F9F1F0895FC01615070403F
:1041F00001900110D8F7809590958E0F9F1F08951C
:10420000DC01FC01672F71917723E1F7329704C03D
:104210007C916D9370836291AE17BF07C8F30895C8
:104220000F931F93CF93DF93FB01238121FD03C0E5
:104230008FEF9FEF2CC022FF16C04681578124814B
:1042400035814217530744F4A081B1819D012F5F4E
:104250003F4F318320838C93268137812F5F3F4FDF
:104260003783268314C08B01EC01FB010084F185A8
:10427000E02D0995892BE1F6D80116968D919C9138
:104280001797019617969C938E931697CE01DF9100
:10429000CF911F910F910895FA01AA27283051F16B
:1042A000203181F1E8946F936E7F6E5F7F4F8F4F67
:1042B0009F4FAF4FB1E03ED0B4E03CD0670F781FC6
:1042C000891F9A1FA11D680F791F8A1F911DA11DAB
:1042D0006A0F711D811D911DA11D20D009F46894E4
:1042E0003F912AE0269F11243019305D3193DEF68C
:1042F000CF010895462F4770405D4193B3E00FD042
:10430000C9F7F6CF462F4F70405D4A3318F0495D2C
:1043100031FD4052419302D0A9F7EACFB4E0A6950F
:104320009795879577956795BA95C9F70097610531
:10433000710508959B01AC010A2E06945795479587
:1043400037952795BA95C9F7620F731F841F951F7C
:10435000A01D0895E89409C097FB3EF490958095C0
:10436000709561957F4F8F4F9F4F9923A9F0F92F3B
:1043700096E9BB279395F695879577956795B795B9
:10438000F111F8CFFAF4BB0F11F460FF1BC06F5F9F
:104390007F4F8F4F9F4F16C0882311F096E911C0B1
:1043A000772321F09EE8872F762F05C0662371F0D2
:1043B00096E8862F70E060E02AF09A95660F771FE6
:1043C000881FDAF7880F9695879597F908950E94C8
:1043D000FA210C946B220E945D2238F00E94642224
:1043E00020F0952311F00C9454220C945A2211249D
:1043F0000C949F220E947C2270F3959FC1F3950F2D
:1044000050E0551F629FF001729FBB27F00DB11D58
:10441000639FAA27F00DB11DAA1F649F6627B00DE8
:10442000A11D661F829F2227B00DA11D621F739FD1
:10443000B00DA11D621F839FA00D611D221F749FDF
:104440003327A00D611D231F849F600D211D822F26
:10445000762F6A2F11249F5750409AF0F1F088234D
:104460004AF0EE0FFF1FBB1F661F771F881F91507A
:104470005040A9F79E3F510580F00C9454220C94B3
:104480009F225F3FE4F3983ED4F386957795679536
:10449000B795F795E7959F5FC1F7FE2B880F911DA4
:1044A0009695879597F9089597F99F6780E870E04A
:1044B00060E008959FEF80EC089500240A9416169A
:1044C000170618060906089500240A941216130602
:1044D000140605060895092E0394000C11F4882390
:1044E00052F0BB0F40F4BF2B11F460FF04C06F5FAC
:1044F0007F4F8F4F9F4F089557FD9058440F551F82
:1045000059F05F3F71F04795880F97FB991F61F055
:104510009F3F79F087950895121613061406551FCC
:10452000F2CF4695F1DF08C0161617061806991F38
:10453000F1CF86957105610508940895E894BB272D
:1045400066277727CB0197F90895DC01CB01FC01A1
:10455000F999FECF06C0F2BDE1BDF89A319600B4DC
:104560000D9241505040B8F70895F999FECF92BD91
:1045700081BDF89A992780B50895DC01A40FB51F75
:104580004150504048F0CB01840F951F2E910E945E
:10459000CE2241505040D0F70895262FF999FECFF2
:1045A00092BD81BDF89A019700B4021639F01FBA86
:1045B00020BD0FB6F894FA9AF99A0FBE08952F927B
:1045C0003F924F925F926F927F928F929F92AF92A3
:1045D000BF92CF92DF92EF92FF920F931F93CF93F0
:1045E000DF93CDB7DEB7CA1BDB0B0FB6F894DEBF87
:1045F0000FBECDBF09942A88398848885F846E84AD
:104600007D848C849B84AA84B984C884DF80EE80F6
:10461000FD800C811B81AA81B981CE0FD11D0FB6FF
:10462000F894DEBF0FBECDBFED010895A29FB0018B
:10463000B39FC001A39F700D811D1124911DB29FD6
:10464000700D811D1124911D08955058BB27AA2774
:104650000E943D230C946B220E945D2238F00E9440
:10466000642220F039F49F3F19F426F40C945A2266
:104670000EF4E095E7FB0C945422E92F0E947C2273
:1046800058F3BA17620773078407950720F079F487
:10469000A6F50C949E220EF4E0950B2EBA2FA02DB9
:1046A0000B01B90190010C01CA01A0011124FF27DF
:1046B000591B99F0593F50F4503E68F11A16F040DA
:1046C000A22F232F342F4427585FF3CF46953795D9
:1046D0002795A795F0405395C9F77EF41F16BA0B9E
:1046E000620B730B840BBAF09150A1F0FF0FBB1F4C
:1046F000661F771F881FC2F70EC0BA0F621F731F95
:10470000841F48F4879577956795B795F7959E3FF1
:1047100008F0B0CF9395880F08F09927EE0F979582
:10472000879508950E94A6230C946B220E94642210
:1047300058F00E945D2240F029F45F3F29F00C946C
:10474000542251110C949F220C945A220E947C22D4
:1047500068F39923B1F3552391F3951B550BBB27B0
:10476000AA2762177307840738F09F5F5F4F220FF5
:10477000331F441FAA1FA9F335D00E2E3AF0E0E8EC
:1047800032D091505040E695001CCAF72BD0FE2F36
:1047900029D0660F771F881FBB1F261737074807CA
:1047A000AB07B0E809F0BB0B802DBF01FF27935882
:1047B0005F4F3AF09E3F510578F00C9454220C94D0
:1047C0009F225F3FE4F3983ED4F3869577956795F3
:1047D000B795F7959F5FC9F7880F911D96958795B7
:1047E00097F90895E1E0660F771F881FBB1F6217D6
:1047F00073078407BA0720F0621B730B840BBA0B94
:10480000EE1F88F7E09508950E940B246894B1117B
:104810000C949F2208950E94842288F09F5798F05C
:10482000B92F9927B751B0F0E1F0660F771F881FB5
:10483000991F1AF0BA95C9F714C0B13091F00E94CF
:104840009E22B1E008950C949E22672F782F88272E
:10485000B85F39F0B93FCCF3869577956795B395F6
:10486000D9F73EF490958095709561957F4F8F4F65
:104870009F4F0895A1E21A2EAA1BBB1BFD010DC07C
:10488000AA1FBB1FEE1FFF1FA217B307E407F50700
:1048900020F0A21BB30BE40BF50B661F771F881FDC
:1048A000991F1A9469F760957095809590959B0172
:1048B000AC01BD01CF0108952A153B054C055D05EE
:1048C0006E057F05800791070895EE0FFF1F059085
:1048D000F491E02D099481E090E0F8940C947F2409
:1048E000FB01DC014150504048F001900D92002046
:1048F000C9F701C01D9241505040E0F70895F89467
:02490000FFCFE7
:10490200FFFF00FCE1A8A8CE07A607DD08B30898C0
:104912000845081908070846090C09FFFF010202A9
:10492200D911D911210A6409FF000000007112DABD
:10493200110812BE12391217122B1252454D4F5442
:10494200452D434F4E4649473A2056616C756520C6
:1049520069732076616C69640052454D4F54452D50
:10496200434F4E4649473A2056616C75652069733C
:1049720020696E76616C69640052454D4F54452D35
:10498200434F4E4649473A20476F74206E65772061
:10499200706172656E743A200052454D4F54452D38
:1049A200434F4E4649473A20476F74206E65772041
:1049B200526164696F204C6576656C3A20005245FD
:1049C2004D4F54452D434F4E4649473A20476F7449
:1049D200206E657720506172656E74206973207352
:1049E20074617469633A200052454D4F54452D431A
:1049F2004F4E4649473A20476F74206E65772073C1
:104A0200656E64207265706561743A200052454D8E
:104A12004F54452D434F4E4649473A20476F742025
:104A22006E657720736C65657074696D653A2000F8
:104A32003C4E4F4E43453E004F4B004E41434B00D0
:104A42003F0057696E646F774E6F646500312E3296
:104A5200310057696E646F7720310057696E646F59
:104A6200772032005643430053797374656D2D43AA
:104A72006F6E6669670053797374656D2D52657048
:104A82006F7274696E670050726573656E746174DB
:104A9200696F6E20446F6E65002D2D2D2D2D2D2DED
:104AA2002D2D2D2D2D2D2D2D2D2D2D2D2D2D2D2D34
:104AB2002D2D2D2D2D2D2D2D2D2D2D2D2D2D2D2D24
:104AC2002D2D2D2D2D2D2D2D2D2D00202020202082
:104AD2002020202020202020202020204E657477B6
:104AE2006F726B2053657474696E67732020202087
:104AF2002020202020202020202020200050617211
:104B0200656E74204E6F64652049443A20005261FC
:104B120064696F20506F7765723A20005061726548
:104B22006E74204E6F64652069732064796E616DC6
:104B3200696300506172656E74204E6F646520690E
:104B420073207374617469630053657475702044D3
:104B52006F6E650073657474696E67204465666183
:104B6200756C74730053746F7265202D20536C65DD
:104B7200657074696D653A200053746F7265202DFB
:104B820020506172656E742049443A200053746F5C
:104B92007265202D20526164696F204C6576656CC8
:104BA2003A200053746F7265202D20506172656E39
:104BB20074206973207374617469633A20005374BA
:104BC2006F7265202D2053656E6420526570656199
:104BD20074733A2000426F6F742C207265616420F6
:104BE200454550524F4D2056616C75657300536CAC
:104BF20065657074696D6520696E204570726F6DB0
:104C02003A2000706172656E746E6F646520696E21
:104C1200204570726F6D3A2000526164696F204CBA
:104C22006576656C20696E204570726F6D3A200062
:104C3200506172656E742073746174696320696E69
:104C4200204570726F6D3A200053656E6420526584
:104C5200706561747320696E204570726F6D3A20C1
:104C62000044454255473A20504152454E5420494E
:104C720053205354415449432121212121000D0A3B
:084C820000322E332E31000038
:00000001FF
