:100000000C94A2000C94EE090C94C7090C94CA003D
:100010000C94CA000C94CA000C9424070C94CA00D7
:100020000C94CA000C94CA000C94CA000C94CA0028
:100030000C94CA000C94CA000C94CA000C94CA0018
:100040000C947D090C94CA000C94BB0E0C94950E74
:100050000C94CA000C94CA000C94CA000C94CA00F8
:100060000C94CA000C94CA00322E332E300A0020A1
:100070007C5F5C2F602C0A0702200220B2871003ED
:10008000400120002402221002220202200222004B
:100090002220020220222710134101010103222005
:1000A0003040203052034022140203105224022117
:1000B000710100101012101222101002240101030D
:1000C00022030020010100322037121001213226C4
:1000D000012840322212101212224322241210014F
:1000E000222470C122240F0F0000000024002700EA
:1000F0002A0000000000250028002B00000000005E
:100100002300260029000404040404040404020259
:100110000202020203030303030301020408102086
:100120004080010204081020010204081020000091
:1001300000080002010000030407000000000000A6
:100140000000021011241FBECFEFD8E0DEBFCDBFEC
:1001500011E0A0E0B1E0E6EDF6E202C005900D92FC
:10016000A43AB107D9F723E0A4EAB1E001C01D9297
:10017000AB31B207E1F710E0C2EAD0E004C021974A
:10018000FE010E944F13C13AD107C9F70E94020F26
:100190000C9469130C9400008091CE0184608093CC
:1001A000CE018091CF0180788093CF01E091A501AD
:1001B000F091A601309709F00994089590E59CBD4F
:1001C00091E09DBD2A988EBD00000DB407FEFDCFC5
:1001D0008EB5FB019FEF4150C8F0222361F09EBD18
:1001E00000000DB407FEFDCF8EB56115710599F3C2
:1001F00080833196F0CFDF01119680818EBD0000A3
:100200000DB407FEFDCF8EB5FD01E5CF2A9A089506
:1002100020E040E060E070E00C94DE000F931F935C
:100220000E9449090091C6011091C7012091C8019F
:100230003091C901601B710B820B930B1F910F91C1
:100240000895EEECF1E08081877F8F7E80831092AD
:10025000CA011092CB011092CC011092CD0144E062
:1002600050E060E070E085ED91E00C94C61183B73A
:100270008E7F83BF809120010E94150A8091280102
:100280008F3F21F48091200180932801089583B746
:100290008E7F83BF809121010E94150A80912801E1
:1002A0008F3F21F480912101809328010895FC0162
:1002B000838187708860838384818F718062848367
:1002C0006783CF0108950F931F93CF93DF93EC01C2
:1002D0006115710561F0FB0101900020E9F731978C
:1002E000E61BF70BE931F10518F0E9E101C0E0E0A8
:1002F0000E2F10E0C80123E0880F991F2A95E1F71F
:100300009B819770892B8B838C818F718C83EE23DB
:1003100029F0A801CE0107960E945A13FE01E00FB2
:10032000F11F1782CE01DF91CF911F910F91089598
:100330009C018091C4019091C5018217930751F0EF
:100340009091CE019F719093CE013093C50120937F
:10035000C40105C08091CE01805E8093CE01E09102
:10036000C401F091C501309721F00190F081E02D9A
:1003700009950E9449096093C6017093C701809353
:10038000C8019093C90108950F931F930E940E0115
:100390002091CF012077203729F000E117E220E0FB
:1003A00030E004C000E61AEE20E030E00617170740
:1003B0002807390730F48BE191E01F910F910C94DD
:1003C00098011F910F9108958091CF018F70863011
:1003D00020F085E191E00C94980108958091D0017E
:1003E0008F3FA1F00E9449096093CA017093CB012D
:1003F0008093CC019093CD018091D0019091D70151
:1004000089138093D70181E191E013C00E940E010E
:10041000613D77408105910570F08091CE01803675
:1004200018F48DE091E005C0877F8093CE0185E1CF
:1004300091E00C94980108958091D5018F3F19F0B7
:100440008DE091E010C00E940E01613D7740810572
:10045000910558F08091CE01803618F489E091E042
:1004600002C085E091E00C94980108950E940E016D
:10047000613D77408105910520F48091CE0181FF97
:1004800008958091D6018F3F41F08091CE018E7FFB
:100490008093CE0189E091E009C08091CE01803641
:1004A00018F485E191E002C085E091E00C94980198
:1004B000CF93DF931F92CDB7DEB7698320E041E091
:1004C000BE016F5F7F4F0E94DE000F90DF91CF91E2
:1004D000089529986CE080E20C9458028091CF0135
:1004E000982F9077903759F0982F92959F709F5F33
:1004F00097709295907F8F78892B8093CF01809110
:10050000CE018B7F8F7E8093CE010C9469026FE0C9
:1005100080E20E94580260911A016F3F19F08AE24E
:100520000E945802299A0895EF92FF921F93CF9349
:10053000DF93FC0182819091CE0190FF04C08F3F38
:1005400009F04DC005C08F3F19F0D091D60101C010
:10055000DFEF8091D5018083438142FD06C046953F
:1005600046954695C7E0C40F01C0C0E27F011091D7
:10057000D801117029988BE190E00197F1F76EE0B6
:1005800080E20E94580283E190E00197F1F76D2F1D
:100590008AE20E9458026D2F80E30E94580281EE89
:1005A0000E940801DF3F21F0111102C080EA01C062
:1005B00080EB4C2FC13208F040E220E0B7010E94EE
:1005C000DE00299AE12CF12C8FEF0E940801C82F40
:1005D000807339F481E0E81AF108B1F702C010E045
:1005E00027C0299860E387E20E945802C4FF03C035
:1005F00081EE0E9408010E948702C5FD02C01170B1
:1006000001C011E081E0DF3F09F080E0182B80910C
:10061000D601D8130DC09091CF01111106C081E011
:10062000890F8F70907F982B01C0907F9093CF019E
:10063000812FDF91CF911F91FF90EF90089520912E
:10064000CE0122FD0C94940280E00895CF932FE018
:1006500043E06FEF80E00E94E20C60E871E00E94EE
:100660006301E9EDF2E08381877080618383848197
:100670008F71806C848381E087831086CF010E9414
:100680001F038FE00E94DE0D40E851E061E18FEF33
:100690000E94140DC091D60126E043E06FEF80E088
:1006A0000E94E20C6C2F0E9457010E941F0386E0FB
:1006B0000E94DE0DCF910C94D007CF938091D4018E
:1006C00081FD1FC00E9426038091D4018160809328
:1006D000D401C4E02AE143E06FEF80E00E94E20C25
:1006E00062E00E9457010E941F038BE10E94DE0D11
:1006F000811102C0C15071F78091D4018260809352
:10070000D401CF9108958FEF8093D001EEECF1E00A
:1007100080818860808328E143E06FEF80E00E9461
:10072000E20C61E00E9457010C9494028091D50183
:100730008F3FB1F40E9449096F3F19F0609319018E
:1007400002C01092190123E043E06091190180E09A
:100750000E94E20C60E871E00E9463010C94940234
:100760000895EEECF1E08081897F81608083E5ED82
:10077000F1E08FEF8283818327E043E06FEF0E94F7
:10078000E20C60E871E00E9463010C949402CF9344
:100790009FEF980F9E3FB0F4C82F8093D5018093B0
:1007A0001A0163E082E20E94580261E081E20E9445
:1007B00058020E9487026C2F80E090E00E94EE11A8
:1007C00081E004C08FEF8093D50180E0CF91089540
:1007D0004F925F926F927F928F929F92AF92BF9251
:1007E000CF92DF92EF92FF920F931F93CF93DF93FD
:1007F0001F92CDB7DEB7E091C401F091C5013097EB
:1008000021F00280F381E02D09958091CE0184FBD7
:10081000BB24B0F884FFBCC186E0882E00E010E065
:10082000E12CFF24FA9420E0C22E20E0D22E31E207
:10083000A32E21E041E060E070E087E10E94DE004D
:1008400080FDA6C18A94882009F4A2C121E041E07C
:1008500060E070E080E60E94DE00782E90E298175B
:1008600020F482EE0E940801712C21E0472D6AEFEE
:1008700072E081E60E94DE0060E487E20E94580296
:100880009091FD02292F2695269526952A3108F06C
:1008900029E192FD03C037E0320F01C030E2E09160
:1008A000FE026090FF029090FB028091FA0250914C
:1008B000FC027312BECF392F3370323009F0B9CF3A
:1008C0004E2F47703091CF0130683093CF01309177
:1008D000D50153133EC030E0B901F3E0660F771F36
:1008E000FA95E1F79770962B9093FD02D901A650E7
:1008F000BD4F17961C92E3FF1FC0EAEFF2E0A9ED8F
:10090000B2E08A2D01900D928A95E1F78091DD0287
:10091000877F80618093DD025093DA029092DB0240
:1009200062E070E080E090E049830E940F0989ED69
:1009300092E00E941F0349818091FE0284FD12C053
:10094000433081F49091FF0221EF290F2330D8F535
:1009500070CF5F3F09F06DCF433069F09091D601C1
:10096000891367CF0115110509F463CF8AEF92E06F
:100970000E9400005ECF9091CE0192FF04C097E0EC
:10098000691609F456CF28E0621609F452CF94E1B3
:1009900069124FCF9091D60189134BCF0E9449091C
:1009A0007370882799270E940F097090D60125E15E
:1009B00043E06FEF892D0E94E20C672D0E945701E2
:1009C0000E94940236CF24E062120EC08091000390
:1009D00090911901891719F08F3F09F02ACF0E94D1
:1009E00056100E94C70325CF28E062121AC07090EB
:1009F000CE0170FE1ECF0E9456108F3F09F419CF12
:100A000091E0980F9F3F09F414CF8091D701981778
:100A100008F00FCF71FC0DCF9093D7019092D601C3
:100A200008CF28E1621208C029E143E06FEF892D69
:100A30000E94E20C61E0C2CF29E162120CC08091F9
:100A4000CE0183FFF6CE877F8093CE010E945610A1
:100A50008093D001EECE2091FB0221117CC09D300D
:100A600059F498E088E10FB6F894A8958093600057
:100A70000FBE90936000FFCF9B3169F40E94561027
:100A800091E0811101C090E08091D40190FB80F948
:100A90008093D401CECE9630A9F49091010399238E
:100AA00029F081E09D3419F080E001C08B2D809306
:100AB000D30141E050E063E071E083ED91E00E94FA
:100AC000DE11B7CE933119F40E942603B2CE9231D3
:100AD000D9F40E940E012B013C0126E143E06FEFA7
:100AE00080E00E94E20CFC0184818F71806A848323
:100AF0008381877080628383478250866186728695
:100B0000CF010E941F0395CE9130F9F4C114D10496
:100B100009F48FCE829586958770853049F460916F
:100B200001037091020380910303909104030AC0B2
:100B3000811105C081E093E00E94871003C060E04E
:100B400070E0CB010E94000074CE9A3009F471CE9F
:100B50009C3121F46ECE9A3109F46BCE8EE1681689
:100B600009F467CE8DE16812FDCE2FE143E06FEF0F
:100B700080E00E94E20CFC0184818F718064848398
:100B80008381877080618383F086E782CF0118CFED
:100B90000F90DF91CF911F910F91FF90EF90DF9019
:100BA000CF90BF90AF909F908F907F906F905F900D
:100BB0004F900895CF93219A229A29982A9ACFB7D5
:100BC000F8948091A401811127C0E0E1F1E08491C3
:100BD000E4E2F1E09491E82FF0E0EE0FFF1FE8511E
:100BE000FF4FA591B491EC91E92321F461E08AE0F3
:100BF0000E94270861E08AE00E9457088CB5806156
:100C00008CBD8CB580648CBD61E08DE00E9457087E
:100C100061E08BE00E9457088091A4018F5F809370
:100C2000A401CFBF6EE080E20E94580265E070E050
:100C300080E090E00E940F0963E083E20E94580286
:100C40006FE584E20E94580268E685E20E9458023D
:100C500065E286E20E94580263E780E50E9458023E
:100C600064E08DE30E94580221E041E060E070E022
:100C700086E00E94DE00853209F04AC021E041E0B2
:100C800060E070E085E00E94DE00883609F040C038
:100C900062E082E20E94580260E081E20E94580213
:100CA00063E08CE30E9458028FEF8093000120E004
:100CB00045E060E071E08BE20E94DE0020E045E06C
:100CC00060E071E08AE20E94DE0020E045E060E042
:100CD00071E080E30E94DE0082EE0E94080181EE56
:100CE0000E94080160E787E20E9458028091CE01CD
:100CF00080618093CE018091D8018E7F8093D8014E
:100D00008091D5018F3F39F00E94C703811103C044
:100D100085E091E002C085E191E0CF910C949801CB
:100D2000CF93C82F89ED91E00E94C00C80917A008A
:100D30008F7780937A0090916000CF3FB1F0C3FD30
:100D400002C088E001C088E2C770C82B88E10FB6F6
:100D5000F894A895809360000FBEC09360008091C6
:100D600060008065809360000BC00FB6F894A89572
:100D700080916000886180936000109260000FBED7
:100D800083B7817F846083BFF89483B7816083BF1A
:100D900085B7806685BF8F7D85BF7894889583B73A
:100DA0008E7F83BFF894A8958091600088618093BE
:100DB000600090936000789480917A0080688093BE
:100DC0007A00CF9108958F929F92AF92BF92CF9267
:100DD000DF92EF92FF92CF93DF936B017C012FE0C4
:100DE000C20ED11CE11CF11CC1E0D0E080912801B1
:100DF0008F3FF9F480E1C816D104E104F104C8F092
:100E000089E094E0980F4E0102C0880C991C9A95D5
:100E1000E2F7A12CB12CC814D904EA04FB0438F081
:100E20000E949006C818D908EA08FB08DFCF815055
:100E3000E8CFDF91CF91FF90EF90DF90CF90BF9000
:100E4000AF909F908F9008951F920F920FB60F92C0
:100E500011240F900FBE0F901F90189580E090E026
:100E6000892B29F00E946D0C81110C9400000895CB
:100E7000833081F028F4813099F08230A1F0089518
:100E80008730A9F08830B9F08430D1F480918000A7
:100E90008F7D03C0809180008F77809380000895BC
:100EA00084B58F7702C084B58F7D84BD089580910D
:100EB000B0008F7703C08091B0008F7D8093B00029
:100EC0000895CF93DF93282F30E0F901E25DFE4FC4
:100ED0008491F901E65EFE4FD491F901EA5FFE4F7D
:100EE000C491CC2391F081110E943807EC2FF0E0DF
:100EF000EE0FFF1FE450FF4FA591B491EC91ED234D
:100F000081E090E021F480E002C080E090E0DF9199
:100F1000CF9108953FB7F8948091C0019091C1019D
:100F2000A091C201B091C30126B5A89B05C02F3F77
:100F300019F00196A11DB11D3FBFBA2FA92F982FFF
:100F40008827820F911DA11DB11DBC01CD0146E076
:100F5000660F771F881F991F4A95D1F70895089546
:100F60008230E8F4E82FF0E0EE0FFF1FEC5DFE4F5B
:100F700071836083813041F0809169008C7F482BC0
:100F800040936900E89A089580916900440F551FC5
:100F9000440F551F837F482B40936900E99A0895B9
:100FA0002BE043E06FEF80E00E94E20C6BE371E026
:100FB0000E9463010E941F032CE043E06FEF80E07A
:100FC0000E94E20C66E471E00E9463010E941F032C
:100FD0004BE451E060E081E00E94140D64E670E0B3
:100FE00080E090E00E94140E44E551E060E082E071
:100FF0000E94140D64E670E080E090E00E94140E00
:101000004DE551E06EE188EC0C94140DFC01848DEB
:10101000DF01A80FB11DA35ABF4F2C91848D90E022
:1010200001968F739927848FA689B7892C93A089FD
:10103000B1898C9180648C93938D848D981306C0B4
:101040000288F389E02D80818F7D808308951F932E
:10105000CF93DF93282F30E0F901E25DFE4F8491BA
:10106000F901E65EFE4FD491F901EA5FFE4FC491AB
:10107000CC23C9F0162F81110E943807EC2FF0E025
:10108000EE0FFF1FEE50FF4FA591B4918FB7F8946C
:10109000111105C09C91ED2FE095E92302C0EC9160
:1010A000ED2BEC938FBFDF91CF911F910895CF93DC
:1010B000DF9390E0FC01E65EFE4F2491FC01EA5FC5
:1010C000FE4F8491882361F190E0880F991FFC0105
:1010D000E851FF4FC591D491FC01EE50FF4FA5910F
:1010E000B491611109C09FB7F8948881209582233B
:1010F0008883EC912E230BC0623061F49FB7F89483
:101100003881822F809583238883EC912E2B2C931A
:101110009FBF06C08FB7F894E8812E2B28838FBF1E
:10112000DF91CF910895CF938EE991E00E94D6117F
:10113000C82F8FE991E00E94D611C23071F181E68B
:1011400091E00E94F10C8EE791E00E94F10C81E8A1
:1011500091E00E94F10C8CE390E00E94290D6CE379
:101160008FE991E00E94EE1162E08EE991E00E9429
:10117000EE1180E88093A7018EEE8093A80186E3AC
:101180008093A9011092AA011092AB011092AC01B8
:101190001092AD011092AE011CC0282F30E0A0E6E5
:1011A000BAEE0E9400126093A7017093A801809389
:1011B000A9019093AA01DC01CB01BB0F880B982FEA
:1011C000DC018093AB018093AC018093AD018093EF
:1011D000AE0181E08093AF011092B0011092B10195
:1011E0001092B2011092B3011092B4011092B501A5
:1011F0001092B60160E082E00E94570860E083E050
:101200000E94570861E082E00E94270861E083E0C5
:101210000E94270883E080931F01CF9108958F9249
:101220009F92AF92BF92CF92DF92EF92FF926B01AB
:101230007C010E948A074B015C01C114D104E104C6
:10124000F104F1F00E948A07DC01CB0188199909A9
:10125000AA09BB09883E9340A105B10570F321E0BE
:10126000C21AD108E108F10888EE880E83E0981EC2
:10127000A11CB11CC114D104E104F10419F7DDCFA4
:10128000FF90EF90DF90CF90BF90AF909F908F90A6
:1012900008952FB7F8946091BC017091BD018091C1
:1012A000BE019091BF012FBF08958F929F92AF9280
:1012B000BF92CF92DF92EF92FF926B017C010E946E
:1012C00049094B015C010E944909DC01CB018819E5
:1012D0009909AA09BB098C159D05AE05BF0520F427
:1012E000A8950E94E803EFCFFF90EF90DF90CF909A
:1012F000BF90AF909F908F9008951F920F920FB65E
:101300000F9211242F933F938F939F93AF93BF938B
:101310008091BC019091BD01A091BE01B091BF012F
:101320003091BB0120E3230F2D3720F44096A11DFF
:10133000B11D05C023EB230F4196A11DB11D2093C4
:10134000BB018093BC019093BD01A093BE01B093FB
:10135000BF018091C0019091C101A091C201B091E3
:10136000C3010196A11DB11D8093C0019093C101DD
:10137000A093C201B093C301BF91AF919F918F9190
:101380003F912F910F900FBE0F901F9018951F92B5
:101390000F920FB60F9211242F933F934F935F93A9
:1013A0006F937F938F939F93AF93BF93EF93FF932D
:1013B000E0912601F09127010995FF91EF91BF91EE
:1013C000AF919F918F917F916F915F914F913F91DD
:1013D0002F910F900FBE0F901F9018951F920F9294
:1013E0000FB60F9211242F933F934F935F936F93F8
:1013F0007F938F939F93AF93BF93EF93FF93E0916E
:101400002401F09125010995FF91EF91BF91AF91D2
:101410009F918F917F916F915F914F913F912F910C
:101420000F900FBE0F901F901895823078F4813086
:1014300011F0E89801C0E998E82FF0E0EE0FFF1FE7
:10144000EC5DFE4F8FEA97E09183808308954F9281
:101450005F926F927F92AF92BF92CF92DF92EF92A4
:10146000FF920F931F93CF93DF9365E070E080E0CE
:1014700090E00E94140E82E00E946107C82F8091C4
:101480002301C817C1F09091BB02977098609093A8
:10149000BB029091BC029F7190629093BC0281E06C
:1014A000C13009F080E08093BF0288EB92E00E9497
:1014B000AB0DC093230183E00E946107C82F809188
:1014C0002201C817C1F090919A029770986090938A
:1014D0009A0290919B029F71906290939B0281E08F
:1014E000C13009F080E080939E0287E992E00E947B
:1014F000AB0DC093220180911F0120E4829FC001A7
:10150000112480937C0080917A00806480937A001B
:1015100080917A0086FDFCCF6091780080917900FF
:1015200070E0782B072E000C880B990B0E94CD10D1
:1015300029E037E64CE55BE30E9408112B013C01F2
:1015400026E636E646EE5FE30E940F1224E333E31D
:1015500043EB5FE30E947C1220E030E048EC52E471
:101560000E9408110E94EE12EB01653671052CF401
:1015700077FF05C0C0E0D0E002C0C4E6D0E08091B3
:10158000B9019091BA018C179D0701F5E091B7015F
:10159000F091B8019F2F990F990BA090AF01B090D7
:1015A000B001C090B101D090B201E090B301F090D1
:1015B000B4010091B5011091B6019F01492F592F37
:1015C000692F792F892F0E94461371F58091790236
:1015D000877088628093790280917A02806E80930E
:1015E0007A0240927D0250927E0260927F02709257
:1015F000800282E08093810286E792E00E94030DE0
:1016000020E043E06FEF80E00E94E20C6C2F0E942C
:1016100057010E941F03D093BA01C093B9011092E1
:10162000B8011092B70105C03196F093B801E0936C
:10163000B7014090A7015090A8016090A901709057
:10164000AA018091CE0182FD1FC00E9449096B0151
:101650007C0180E090E0DC012091CE0122FDBCC045
:1016600084159505A605B70508F0BCC0803127E2B2
:101670009207A105B10508F4A3C073016201C81A5D
:10168000D90AEA0AFB0A02C073016201D701C60146
:101690000197A109B109873E9340A105B10590F4D6
:1016A000C301B201DF91CF911F910F91FF90EF9095
:1016B000DF90CF90BF90AF907F906F905F904F90F2
:1016C0000C94550920E243E06FEF80E00E94E20CA9
:1016D000FC0184818F71806A84838381877080623A
:1016E000838388EE93E0A0E0B0E087839087A187B2
:1016F000B287CF010E941F0368EE73E080E090E0A4
:101700000E9455090E946902F8941092210181E01B
:10171000809320018CBB41E050E067E471E080E001
:101720000E94B00782E08CBB41E050E067E371E0CB
:1017300081E00E94B007C114D104E104F10429F052
:10174000C701B6010E94E30603C08FEF0E94900616
:1017500080E00E94150A81E00E94150A809128010C
:101760008F3F11F0809128018FEF809328012998F5
:101770006EE080E20E94580221E243E06FEF80E0D9
:101780000E94E20CFC0184818F71806A84838381D2
:10179000877080628383C782D086E186F286CF011C
:1017A000DF91CF911F910F91FF90EF90DF90CF903D
:1017B000BF90AF907F906F905F904F900C941F03FD
:1017C000A8950E94E8030E944909DC01CB018C190D
:1017D0009D09AE09BF0940CF84159505A605B7053B
:1017E00008F44BCFDF91CF911F910F91FF90EF90B5
:1017F000DF90CF90BF90AF907F906F905F904F90B1
:101800000895CF92DF92EF92FF920F931F93CF93A1
:10181000DF936C017A018B01C0E0D0E0CE15DF05CB
:1018200089F0D8016D918D01D601ED91FC91019067
:10183000F081E02DC6010995892B11F47E0102C0CB
:101840002196ECCFC701DF91CF911F910F91FF90AF
:10185000EF90DF90CF900895089580E090E0089594
:10186000FC01538D448D252F30E0842F90E0821BA6
:10187000930B541710F0CF96089501970895FC012B
:10188000918D828D981761F0828DDF01A80FB11DB7
:101890005D968C91928D9F5F9F73928F90E00895DB
:1018A0008FEF9FEF0895FC01918D828D981731F095
:1018B000828DE80FF11D858D90E008958FEF9FEFE9
:1018C0000895FC01918D228D892F90E0805C9F4FBF
:1018D000821B91098F739927089589ED91E00E94E9
:1018E000610C21E0892B09F420E0822F08950E94E9
:1018F0005513EF92FF920F931F93CF93DF93EC0159
:1019000081E0888F9B8D8C8D981305C0E889F989BB
:10191000808185FD24C0F62E0B8D10E00F5F1F4FD8
:101920000F731127E02E8C8DE8120CC00FB607FC48
:10193000FACFE889F989808185FFF5CFCE010E9431
:101940000608F1CF8B8DFE01E80FF11DE35AFF4F22
:10195000F0820B8FEA89FB898081806207C0EE8963
:10196000FF896083E889F98980818064808381E0D0
:1019700090E0DF91CF911F910F91FF90EF9008952C
:10198000CF93DF93EC01888D8823C9F0EA89FB8926
:10199000808185FD05C0A889B9898C9186FD0FC01D
:1019A0000FB607FCF5CF808185FFF2CFA889B989F2
:1019B0008C9185FFEDCFCE010E940608E7CFDF9125
:1019C000CF910895E9EDF2E09091D5019183828362
:1019D0006683258347708481807E482B4483CF01B2
:1019E0000895009769F0FC0101900020E9F7319714
:1019F000AF01481B590BBC0189ED91E00C94010C1F
:101A000080E090E00895FC018091D501818394816C
:101A1000907F916094838091D40180FF03C0CF01B7
:101A20000C941F0380E00895CF93DF93262F8F3F00
:101A300011F0EA0102C0C5E9D1E040E0682F80E082
:101A40000E94E20CBE010E946301DF91CF910C94D1
:101A50001F038F929F92AF92BF92CF92DF92EF922D
:101A6000FF920F931F93CF93DF93CDB7DEB7A1976C
:101A70000FB6F894DEBF0FBECDBF6C01990FEE0814
:101A8000FF08F7FE31C0E091D901F091DA01019031
:101A9000F081E02D6DE289ED91E009958C0122271E
:101AA0003327A9012C193D094E095F0919A2CE015E
:101AB00081967C019AE0892E912CA12CB12CCA012F
:101AC000B901A50194010E942413605DF70162939E
:101AD0007F01211531054105510589F7CF010E948C
:101AE000F10C080F191F1EC0A701960119A28E0143
:101AF0000F5D1F4F8AE0C82ED12CE12CF12CCA01BA
:101B0000B901A70196010E942413605DF801629358
:101B10008F01211531054105510589F7CF010E943B
:101B2000F10C8C018EE791E00E94F10C800F911F67
:101B3000A1960FB6F894DEBF0FBECDBFDF91CF9157
:101B40001F910F91FF90EF90DF90CF90BF90AF90DB
:101B50009F908F900895CF92DF92FF920F931F93E3
:101B6000CF93DF936C0100E010E0C1E0D0E0C6014C
:101B70000E94030D81110BC08BE991E00E94F10CD2
:101B8000CE010E94290D06501F4FF12C02C0FF24E8
:101B9000F3942196B801012E000C880B990B0E943A
:101BA0000F09F11003C0C530D10509F7DF91CF91BE
:101BB0001F910F91FF90DF90CF900895CF92DF9209
:101BC000EF92FF92CF93DF93D82F0E9449096B01C8
:101BD0007C0181E0D11180E08093FF02C0E00E948F
:101BE0004909AB01BC014C195D096E097F09403DF3
:101BF00057406105710580F4C1110EC0A8950E947F
:101C0000E8039091FE029770933049F7C1E080910C
:101C1000FF028D13E3CFE3CF8C2FDF91CF91FF90A5
:101C2000EF90DF90CF9008958F929F92AF92BF92E6
:101C3000CF92DF92EF92FF921F93CF93DF9300D06A
:101C400000D0CDB7DEB76B017C018091CE0182FD63
:101C500020C00E9449094B015C0180E090E0DC015A
:101C60002091CE0122FD4AC08C159D05AE05BF0511
:101C700008F04AC0803127E29207A105B10590F132
:101C8000A7019601281B390B4A0B5B0BCA01B9014E
:101C900002C0C701B60169837A838B839C830E944B
:101CA000690269817A818B819C8161157105810549
:101CB000910519F00E94E30603C08FEF0E94900681
:101CC000809128018F3F19F01091280101C01FEF6A
:101CD0008FEF8093280129986EE080E20E945802DD
:101CE000812F13C0A8950E94E8030E944909DC01D6
:101CF000CB0188199909AA09BB09B2CF8C159D059A
:101D0000AE05BF0508F4BCCF8EEF0F900F900F907B
:101D10000F90DF91CF911F91FF90EF90DF90CF90C8
:101D2000BF90AF909F908F9008951F920F920FB623
:101D30000F9211242F933F934F935F936F937F9351
:101D40008F939F93AF93BF93EF93FF9389ED91E0B0
:101D50000E940608FF91EF91BF91AF919F918F91E3
:101D60007F916F915F914F913F912F910F900FBE97
:101D70000F901F9018951F920F920FB60F9211247B
:101D80002F938F939F93EF93FF93E091E901F0914D
:101D9000EA018081E091EF01F091F00182FD12C033
:101DA00090818091F2018F5F8F732091F3018217F0
:101DB00051F0E091F201F0E0E752FE4F958F8093F1
:101DC000F20101C08081FF91EF919F918F912F913E
:101DD0000F900FBE0F901F901895CF93DF93FC01CB
:101DE000108211821282148215821682DC011796EB
:101DF0008AE1ED0119928A95E9F782E08383DF9108
:101E0000CF910895789484B5826084BD84B5816053
:101E100084BD85B5826085BD85B5816085BD8091B5
:101E20006E00816080936E0010928100809181002D
:101E30008260809381008091800081608093800027
:101E40008091B10084608093B1008091B000816086
:101E50008093B00080917A008B7F80937A0080918C
:101E60007A00826080937A0080917A00816080930A
:101E70007A0080917A00806880937A001092C10085
:101E8000A89580E090E0892B11F00E940000E0917D
:101E9000E901F091EA0182E08083E091E501F091AF
:101EA000E6011082E091E701F091E8018CE0808387
:101EB0001092F101E091ED01F091EE0186E0808356
:101EC000E091EB01F091EC01808180618083E091F1
:101ED000EB01F091EC01808188608083E091EB015F
:101EE000F091EC01808180688083E091EB01F091BA
:101EF000EC0180818F7D808300E110E0F12CF801FE
:101F0000F595E795E159FF4FE49100FFE295EF70F9
:101F1000E83008F074C0F0E0E159FF4FF490C1E000
:101F2000D0E0E091D901F091DA010190F081E02D4B
:101F30006F2D89ED91E00995DF5FDC13F2CF0F5F24
:101F40001F4F023F1105D9F608E610E0F801649131
:101F5000611110C08EE791E00E94F10C8091D401D4
:101F60008D7F8093D40180E090E0892B91F00E94D6
:101F700000000FC0E091D901F091DA010190F081E9
:101F8000E02D89ED91E009950F5F1F4F892BF1F648
:101F9000E1CF41E050E063E071E083ED91E00E9429
:101FA000C6116FEF81E090E00E94EE118091CF01A9
:101FB0008F788093CF011092C5011092C4018BE1FC
:101FC00091E00E9498018DE593E09093A6018093A3
:101FD000A5010E9449090E9449090E94E803A895A9
:101FE0008091CE0182FFF7CF0E949308A895A89513
:101FF0000E94E8030E94270A0E942E07F8CFCBEF29
:10200000CE0F8ECFCF93E9EDF1E01382128288EEEE
:1020100093E0A0E0B0E084839583A683B7838DE24C
:1020200091E09183808385EC90E09587848784ECB0
:1020300090E09787868780EC90E0918B808B81EC95
:1020400090E0938B828B82EC90E0958B848B86EC76
:1020500090E0978B868B118E128E138E148E8AEFE2
:1020600092E00E94ED0E89ED92E00E94ED0E88EB69
:1020700092E00E94ED0EE8EBF2E081E08683C0E1A1
:10208000C58387E992E00E94ED0EE7E9F2E082E085
:102090008683C58386E792E00E94ED0EE6E7F2E0D4
:1020A00088EC868386E28583CF9108958091FE0235
:1020B000829586958770813019F480910103089587
:1020C000811105C081E093E00E946910089580E0CD
:1020D0000895FC0188279927E89421912032E9F39B
:1020E000293010F02E30C8F32B3241F02D3239F464
:1020F000689404C00E94C310820F911D2191205347
:102100002A30C0F31EF4909581959F4F08951F9338
:10211000FC0199278827BC01E89411911032E9F35A
:10212000193010F01E30C8F31B3251F01D3249F443
:10213000689406C00E94AE10610F711D811D911D33
:10214000119110531A30B0F33EF49095809570952C
:1021500061957F4F8F4F9F4F1F910895592F482FA3
:10216000372F262F660F771F881F991F660F771F3F
:10217000881F991F620F731F841F951F660F771F9B
:10218000881F991F08957AE0979F902D879F802D33
:10219000910D11240895E89409C097FB3EF49095A1
:1021A0008095709561957F4F8F4F9F4F9923A9F030
:1021B000F92F96E9BB279395F695879577956795BF
:1021C000B795F111F8CFFAF4BB0F11F460FF1BC003
:1021D0006F5F7F4F8F4F9F4F16C0882311F096E996
:1021E00011C0772321F09EE8872F762F05C0662344
:1021F00071F096E8862F70E060E02AF09A95660FFD
:10220000771F881FDAF7880F9695879597F90895B5
:102210000E941B110C948C110E947E1138F00E94B8
:10222000851120F0952311F00C9475110C947B11FD
:1022300011240C94C0110E949D1170F3959FC1F35D
:10224000950F50E0551F629FF001729FBB27F00D64
:10225000B11D639FAA27F00DB11DAA1F649F6627B9
:10226000B00DA11D661F829F2227B00DA11D621F08
:10227000739FB00DA11D621F839FA00D611D221FC2
:10228000749F3327A00D611D231F849F600D211DA6
:10229000822F762F6A2F11249F5750409AF0F1F029
:1022A00088234AF0EE0FFF1FBB1F661F771F881F92
:1022B00091505040A9F79E3F510580F00C94751144
:1022C0000C94C0115F3FE4F3983ED4F38695779564
:1022D0006795B795F795E7959F5FC1F7FE2B880F38
:1022E000911D9695879597F9089597F99F6780E8CE
:1022F00070E060E008959FEF80EC089500240A9458
:102300001616170618060906089500240A941216D0
:102310001306140605060895092E0394000C11F403
:10232000882352F0BB0F40F4BF2B11F460FF04C0B0
:102330006F5F7F4F8F4F9F4F089557FD9058440F09
:10234000551F59F05F3F71F04795880F97FB991F14
:1023500061F09F3F79F087950895121613061406D1
:10236000551FF2CF4695F1DF08C01616170618065E
:10237000991FF1CF86957105610508940895E89439
:10238000BB2766277727CB0197F90895DC01CB019E
:10239000FC01F999FECF06C0F2BDE1BDF89A319675
:1023A00000B40D9241505040B8F70895F999FECF0E
:1023B00092BD81BDF89A992780B50895DC01A40FDC
:1023C000B51F4150504048F0CB01840F951F2E910E
:1023D0000E94EF1141505040D0F70895262FF999EF
:1023E000FECF92BD81BDF89A019700B4021639F074
:1023F0001FBA20BD0FB6F894FA9AF99A0FBE089545
:10240000A29FB001B39FC001A39F700D811D112435
:10241000911DB29F700D811D1124911D089550587A
:10242000BB27AA270E9427120C948C110E947E11B0
:1024300038F00E94851120F039F49F3F19F426F4FA
:102440000C947B110EF4E095E7FB0C947511E92FC9
:102450000E949D1158F3BA17620773078407950706
:1024600020F079F4A6F50C94BF110EF4E0950B2E34
:10247000BA2FA02D0B01B90190010C01CA01A001D6
:102480001124FF27591B99F0593F50F4503E68F131
:102490001A16F040A22F232F342F4427585FF3CF72
:1024A000469537952795A795F0405395C9F77EF443
:1024B0001F16BA0B620B730B840BBAF09150A1F08C
:1024C000FF0FBB1F661F771F881FC2F70EC0BA0F12
:1024D000621F731F841F48F4879577956795B7959A
:1024E000F7959E3F08F0B0CF9395880F08F0992795
:1024F000EE0F9795879508950E9490120C948C1179
:102500000E94851158F00E947E1140F029F45F3F2F
:1025100029F00C94751151110C94C0110C947B117D
:102520000E949D1168F39923B1F3552391F3951BF4
:10253000550BBB27AA2762177307840738F09F5FE4
:102540005F4F220F331F441FAA1FA9F335D00E2E51
:102550003AF0E0E832D091505040E695001CCAF7BE
:102560002BD0FE2F29D0660F771F881FBB1F261781
:1025700037074807AB07B0E809F0BB0B802DBF0158
:10258000FF2793585F4F3AF09E3F510578F00C9427
:1025900075110C94C0115F3FE4F3983ED4F3869517
:1025A00077956795B795F7959F5FC9F7880F911D48
:1025B0009695879597F90895E1E0660F771F881F34
:1025C000BB1F621773078407BA0720F0621B730BE7
:1025D000840BBA0BEE1F88F7E09508950E94F51260
:1025E0006894B1110C94C01108950E94A51188F04F
:1025F0009F5798F0B92F9927B751B0F0E1F0660FC7
:10260000771F881F991F1AF0BA95C9F714C0B13007
:1026100091F00E94BF11B1E008950C94BF11672F93
:10262000782F8827B85F39F0B93FCCF38695779536
:102630006795B395D9F73EF490958095709561951F
:102640007F4F8F4F9F4F0895A1E21A2EAA1BBB1BED
:10265000FD010DC0AA1FBB1FEE1FFF1FA217B3076E
:10266000E407F50720F0A21BB30BE40BF50B661F84
:10267000771F881F991F1A9469F760957095809548
:1026800090959B01AC01BD01CF0108952A153B0532
:102690004C055D056E057F05800791070895EE0FD7
:1026A000FF1F0590F491E02D099481E090E0F894EB
:1026B0000C946913FB01DC014150504048F001903B
:1026C0000D920020C9F701C01D9241505040E0F723
:0626D0000895F894FFCF0D
:1026D60000FCE1A8A86E02C40196031C028303EE67
:1026E60001CC00E401B1033602FFFF2101DA050146
:1026F600FFFF0202AF07AF07FF00000000790C01E1
:102706000C300CC00C610C3F0C530C57696E646F97
:10271600774E6F646500312E31330057696E646FF2
:102726007720310057696E646F7720320056434335
:1027360000466972737420426F6F742C207365743F
:1027460074696E672044656661756C7473000D0A62
:102756000053746F7265202D20536C656570746923
:102766006D653A2000322E332E30004645484C45E2
:0427760052200000ED
:00000001FF
