:100000000C94C4000C94370B0C94100B0C94EC0063
:100010000C94EC000C94EC000C94AC020C94EC00EE
:100020000C94EC000C94EC000C94EC000C94EC00A0
:100030000C94EC000C94EC000C94EC000C94EC0090
:100040000C94C60A0C94EC000C940E080C94E8076F
:100050000C94EC000C94EC000C94EC000C94EC0070
:100060000C945E0B0C94EC000000000024002700B0
:100070002A0000000000250028002B0000000000DE
:1000800023002600290004040404040404040202DA
:100090000202020203030303030301020408102007
:1000A0004080010204081020010204081020000012
:1000B0000008000201000003040700000000000027
:1000C0000000322E332E300A00207C5F5C2F602C23
:1000D0000A0702200220B2871003400120002402F8
:1000E00022100222020220022200222002022022EA
:1000F0002710134101010103222030402030520318
:100100004022140203105224022171010010101227
:100110001012221010022401010322030020010109
:1001200000322037121001213226012840322212DB
:1001300010121222432224121001222470C1222400
:100140000F0F436F756C64206E6F742066696E6468
:1001500020612076616C696420424D453238302040
:1001600073656E736F722C20636865636B207769AB
:1001700072696E67206F7220493243206164647235
:10018000657373210000341A11241FBECFEFD8E02D
:10019000DEBFCDBF14E0A0E0B1E0E8EBFEE302C0BB
:1001A00005900D92A63BB107D9F728E0A6EBB4E085
:1001B00001C01D92AE33B207E1F710E0C4ECD0E00D
:1001C00004C02197FE010E94401FC33CD107C9F71C
:1001D0000E94FA1A0C945A1F0C9400008091A505F5
:1001E00084608093A5058091A60580788093A605FC
:1001F000E0913908F0913A08309709F00994089590
:100200000F931F930E94BA0A00919D0510919E05BD
:1002100020919F053091A005601B710B820B930B01
:100220001F910F910895E5EAF5E08081877F8F7E29
:1002300080831092A1051092A2051092A30510923E
:10024000A40544E050E060E070E08CEA95E00C9496
:10025000671DFC0184818F71806484838381877032
:100260008061838370876783CF010895FC01848157
:100270008F718068848383818770806283834783E2
:10028000508761877287CF010895FC018381877051
:100290008860838384818F71806284836783CF01C8
:1002A00008950F931F93CF93DF93EC0161157105B0
:1002B00061F0FB0101900020E9F73197E61BF70B95
:1002C000E931F10518F0E9E101C0E0E00E2F10E09E
:1002D000C80123E0880F991F2A95E1F79B81977049
:1002E000892B8B838C818F718C83EE2329F0A8015D
:1002F000CE0107960E944B1FFE01E00FF11F1782EF
:10030000CE01DF91CF911F910F910895FC0194814F
:10031000929596959770923019F4878190850895FB
:10032000911104C0CF0107960C94E11B80E090E08E
:1003300008959C0180919B0590919C0582179307DD
:1003400051F09091A5059F719093A50530939C0560
:1003500020939B0505C08091A505805E8093A5052F
:10036000E0919B05F0919C05309721F00190F08180
:10037000E02D09950E94BA0A60939D0570939E0531
:1003800080939F059093A00508950F931F930E945B
:1003900000012091A6052077203729F000E117E21F
:1003A00020E030E004C000E61AEE20E030E006175E
:1003B00017072807390730F483E291E01F910F9166
:1003C0000C9499011F910F9108958091A6058F704B
:1003D000863020F087E191E00C9499010895809196
:1003E000A7058F3FA1F00E94BA0A6093A105709300
:1003F000A2058093A3059093A4058091A7059091F1
:10040000AE0589138093AE0583E191E013C00E948D
:100410000001613D77408105910570F08091A5054F
:10042000803618F48FE091E005C0877F8093A505A2
:1004300087E191E00C94990108958091AC058F3F7C
:1004400019F08FE091E010C00E940001613D7740FB
:100450008105910558F08091A505803618F48BE050
:1004600091E002C087E091E00C94990108950E9408
:100470000001613D77408105910520F48091A5053B
:1004800081FF08958091AD058F3F41F08091A505D2
:100490008E7F8093A5058BE091E009C08091A50532
:1004A000803618F487E191E002C087E091E00C9477
:1004B0009901CF93C82F80EB95E00E947A07809135
:1004C0007A008F7780937A0090916000CF3FB1F0EF
:1004D000C3FD02C088E001C088E2C770C82B88E174
:1004E0000FB6F894A895809360000FBEC09360008B
:1004F000809160008065809360000BC00FB6F89417
:10050000A8958091600088618093600010926000DF
:100510000FBE83B7817F846083BFF89483B7816007
:1005200083BF85B7806685BF8F7D85BF78948895AA
:1005300083B78E7F83BFF894A8958091600088610F
:100540008093600090936000789480917A00806836
:1005500080937A00CF9108951F920F920FB60F9259
:1005600011240F900FBE0F901F90189508958EBD07
:1005700000000DB407FEFDCF8EB508958CBD9DBD66
:100580000895CF92DF92EF92FF920F931F93CF9334
:10059000DF93C82F7B01142F022F80E591E00E948A
:1005A000BE022A988C2F0E94B702E7011123A9F0FE
:1005B000002349F08FEF0E94B702E114F10459F0D3
:1005C0008883219608C06E018FEFC81AD80A8881E7
:1005D0000E94B702E6011150E9CF2A9ADF91CF912C
:1005E0001F910F91FF90EF90DF90CF900895CF93E0
:1005F000DF931F92CDB7DEB7698320E041E0BE01F3
:100600006F5F7F4F0E94C1020F90DF91CF910895DD
:1006100029986CE080E20C94F7028091A605982F4F
:100620009077903759F0982F92959F709F5F9770B1
:100630009295907F8F78892B8093A6058091A50550
:100640008B7F8F7E8093A5050C9408036FE080E27A
:100650000E94F70260911C016F3F19F08AE20E942C
:10066000F702299A0895CF939FEF980F9E3FB0F419
:10067000C82F8093AC0580931C0163E082E20E9446
:10068000F70261E081E20E94F7020E9426036C2FCC
:1006900080E090E00E948F1D81E004C08FEF809386
:1006A000AC0580E0CF91089520E040E060E070E08C
:1006B0000C94C102EF92FF921F93CF93DF93FC0142
:1006C00082819091A50590FF04C08F3F09F04DC035
:1006D00005C08F3F19F0D091AD0501C0DFEF8091CB
:1006E000AC058083438142FD06C0469546954695FC
:1006F000C7E0C40F01C0C0E27F011091AF051170C7
:1007000029988BE190E00197F1F76EE080E20E947A
:10071000F70283E190E00197F1F76D2F8AE20E94E2
:10072000F7026D2F80E30E94F70281EE0E945403CE
:10073000DF3F21F0111102C080EA01C080EB4C2F95
:10074000C13208F040E220E0B7010E94C102299ABC
:10075000E12CF12C8FEF0E945403C82F807339F4E1
:1007600081E0E81AF108B1F702C010E027C029982B
:1007700060E387E20E94F702C4FF03C081EE0E949B
:1007800054030E942603C5FD02C0117001C011E090
:1007900081E0DF3F09F080E0182B8091AD05D81390
:1007A0000DC09091A605111106C081E0890F8F70D0
:1007B000907F982B01C0907F9093A605812FDF91A9
:1007C000CF911F91FF90EF9008952091A50522FDF4
:1007D0000C945A0380E008958FEF8093A705E5EA13
:1007E000F5E080818860808328E143E06FEF80E05E
:1007F0000E94791361E00E9445010C945A03809194
:10080000AC058F3FB1F40E94BA0A6F3F19F06093B4
:100810001B0102C010921B0123E043E060911B0109
:1008200080E00E94791367EE72E00E9451010C94FF
:100830005A030895E5EAF5E08081897F816080832D
:10084000ECEAF5E08FEF8283818327E043E06FEFEE
:100850000E94791367EE72E00E9451010C945A03D2
:100860008F929F92AF92BF92CF92DF92EF92FF92C0
:100870000F931F93CF93DF931F92CDB7DEB7E09115
:100880009B05F0919C05309721F00280F381E02DCB
:1008900009958091A50584FBEE24E0F884FFB2C1A0
:1008A00086E0F82E00E010E091E2D92E21E041E050
:1008B00060E070E087E10E94C10280FDA3C1FA946C
:1008C000FF2009F49FC121E041E060E070E080E694
:1008D0000E94C102C82E90E2981720F482EE0E9476
:1008E0005403C12C21E04C2D68E178E081E60E94A0
:1008F000C10260E487E20E94F70290911B08292F51
:100900002695269526952A3108F029E192FD03C007
:1009100037E0320F01C030E2E0911C08B0901D08B2
:10092000A09019088091180840911A08C312BECFF0
:10093000392F3370323009F0B9CF5E2F57703091B4
:10094000A60530683093A6053091AC0543133EC030
:1009500030E0B901F3E0660F771FFA95E1F7977081
:10096000962B90931B08D901A85EB74F17961C923F
:10097000E3FF1FC0E8E1F8E0A7EFB7E08D2D01909D
:100980000D928A95E1F78091FB07877F80618093C4
:10099000FB074093F807A092F90762E070E080E05F
:1009A00090E059830E94800A87EF97E00E94E50358
:1009B000598180911C0884FD12C0533081F49091BC
:1009C0001D0821EF290F2330B8F570CF4F3F09F0F4
:1009D0006DCF533049F09091AD05891367CF88E111
:1009E00098E00E94C10E62CF9091A50592FF04C0CD
:1009F00097E0B91609F45ACF28E0B21609F456CF99
:100A000094E1B91253CF9091AD0589134FCF0E9455
:100A1000BA0A7370882799270E94800AC090AD0592
:100A200025E143E06FEF8A2D0E9479136C2D0E941F
:100A300045010E945A033ACF24E0B2120EC08091C1
:100A40001E0890911B01891719F08F3F09F02ECFD6
:100A50000E94E71A0E94330329CF28E0B21223C074
:100A6000C090A505C0FE22CF0E94E71A8F3F09F46F
:100A70001DCF8F5F8F3F21F09091AE05891720F039
:100A800090913B08A91212CFC1FC10CF90913B0866
:100A9000A91204C06894C1F8C092A5058093AE0560
:100AA000A092AD0503CF28E1B21208C029E143E0CE
:100AB0006FEF8A2D0E94791361E0B9CF29E1B2125C
:100AC0000CC08091A50583FFF1CE877F8093A5059B
:100AD0000E94E71A8093A705E9CE209119082111F9
:100AE0007CC09D3059F498E088E10FB6F894A89541
:100AF000809360000FBE90936000FFCF9B3169F43C
:100B00000E94E71A91E0811101C090E08091AB054D
:100B100090FB80F98093AB05C9CE9630A9F49091F3
:100B20001F08992329F081E09D3419F080E001C06D
:100B30008E2D8093AA0541E050E063E071E08AEADF
:100B400095E00E947F1DB2CE933119F40E94C21924
:100B5000ADCE9231D9F40E9400014B015C0126E137
:100B600043E06FEF80E00E947913FC0184818F7174
:100B7000806A848383818770806283838782908682
:100B8000A186B286CF010E94E50390CE9130F9F4A0
:100B90000115110509F48ACE8295869587708530F6
:100BA00049F460911F08709120088091210890916C
:100BB00022080AC0811105C08FE198E00E94FF1B46
:100BC00003C060E070E0CB010E9400006FCE9A305D
:100BD00009F46CCE9C3121F469CE9A3109F466CEC9
:100BE0008EE1B81609F462CE8DE1B812F8CE2FE18D
:100BF00043E06FEF80E00E94791360E07FEF0E9496
:100C0000290117CF0F90DF91CF911F910F91FF9086
:100C1000EF90DF90CF90BF90AF909F908F9008950E
:100C2000219A229A29982A9A0E94330E6EE080E235
:100C30000E94F70265E070E080E090E00E94800A88
:100C400063E083E20E94F7026FE584E20E94F7020C
:100C500068E685E20E94F70260913C08660F6162D7
:100C600086E20E94F70263E780E50E94F70264E0F3
:100C70008DE30E94F70221E041E060E070E086E051
:100C80000E94C10290E020913C08220F330B2062A9
:100C900030E02F5F3F4F8217930709F04AC021E0F1
:100CA00041E060E070E085E00E94C102883609F012
:100CB00040C062E082E20E94F70260E081E20E94AE
:100CC000F70263E08CE30E94F7028FEF809302014A
:100CD00020E045E062E071E08BE20E94C10220E08A
:100CE00045E062E071E08AE20E94C10220E045E056
:100CF00062E071E080E30E94C10282EE0E94540330
:100D000081EE0E94540360E787E20E94F70280911F
:100D1000A50580618093A5058091AF058E7F8093A6
:100D2000AF058091AC058F3F39F00E9433038111EC
:100D300003C087E091E002C087E191E00C94990143
:100D4000CF92DF92EF92FF920F931F93CF93DF9397
:100D50006C017A018B01C0E0D0E0CE15DF0589F08F
:100D6000D8016D918D01D601ED91FC910190F0813A
:100D7000E02DC6010995892B11F47E0102C0219650
:100D8000ECCFC701DF91CF911F910F91FF90EF90B2
:100D9000DF90CF900895FC01538D448D252F30E0D6
:100DA000842F90E0821B930B541710F0CF96089578
:100DB00001970895FC01918D828D981761F0828DC5
:100DC000DF01A80FB11D5D968C91928D9F5F9F737F
:100DD000928F90E008958FEF9FEF0895FC01918D21
:100DE000828D981731F0828DE80FF11D858D90E08E
:100DF00008958FEF9FEF0895FC01918D228D892F2B
:100E000090E0805C9F4F821B91098F739927089512
:100E100080EB95E00E94FC0621E0892B09F420E09C
:100E2000822F0895FC01848DDF01A80FB11DA35A04
:100E3000BF4F2C91848D90E001968F739927848FFA
:100E4000A689B7892C93A089B1898C9180648C93F1
:100E5000938D848D981306C00288F389E02D8081DC
:100E60008F7D80830895EF92FF920F931F93CF930E
:100E7000DF93EC0181E0888F9B8D8C8D981305C0EA
:100E8000E889F989808185FD24C0F62E0B8D10E05C
:100E90000F5F1F4F0F731127E02E8C8DE8120CC0CF
:100EA0000FB607FCFACFE889F989808185FFF5CF75
:100EB000CE010E941207F1CF8B8DFE01E80FF11DCC
:100EC000E35AFF4FF0820B8FEA89FB8980818062B1
:100ED00007C0EE89FF896083E889F9898081806491
:100EE000808381E090E0DF91CF911F910F91FF907F
:100EF000EF900895CF93DF93EC01888D8823C9F09C
:100F0000EA89FB89808185FD05C0A889B9898C9112
:100F100086FD0FC00FB607FCF5CF808185FFF2CFAD
:100F2000A889B9898C9185FFEDCFCE010E94120767
:100F3000E7CFDF91CF91089580E090E0892B29F0F1
:100F40000E94080781110C94000008953FB7F8949F
:100F500080914B0590914C05A0914D05B0914E05A7
:100F600026B5A89B05C02F3F19F00196A11DB11D04
:100F70003FBFBA2FA92F982F8827820F911DA11D3F
:100F8000B11DBC01CD0146E0660F771F881F991F78
:100F90004A95D1F70895089585ED8093BC0080911E
:100FA000BC0084FDFCCF1092D90408950895E0910F
:100FB000D7048091D604E81730F4F0E0EA54FB4FF0
:100FC000808190E008958FEF9FEF08950E94461F63
:100FD0001F920F920FB60F9211242F933F934F93AE
:100FE0005F936F937F938F939F93AF93BF93EF9391
:100FF000FF9380EB95E00E941207FF91EF91BF9164
:10100000AF919F918F917F916F915F914F913F91A0
:101010002F910F900FBE0F901F9018951F920F9257
:101020000FB60F9211242F938F939F93EF93FF93FB
:10103000E091C005F091C1058081E091C605F09175
:10104000C70582FD12C090818091C9058F5F8F73A3
:101050002091CA05821751F0E091C905F0E0E055F2
:10106000FA4F958F8093C90501C08081FF91EF9160
:101070009F918F912F910F900FBE0F901F901895F9
:10108000833081F028F4813099F08230A1F0089506
:101090008730A9F08830B9F08430D1F48091800095
:1010A0008F7D03C0809180008F77809380000895AA
:1010B00084B58F7702C084B58F7D84BD08958091FB
:1010C000B0008F7703C08091B0008F7D8093B00017
:1010D00008951F93CF93DF93282F30E0F901E25555
:1010E000FF4F8491F901E656FF4FD491F901EA5779
:1010F000FF4FC491CC23C9F0162F81110E944008E4
:10110000EC2FF0E0EE0FFF1FEE58FF4FA591B491CA
:101110008FB7F894111105C09C91ED2FE095E9234C
:1011200002C0EC91ED2BEC938FBFDF91CF911F911B
:101130000895CF93DF93C82F8091CF078F3F09F099
:1011400044C08091C60791E090939A0580939905D9
:1011500010929805109297058091C4079091C50749
:10116000DC01ED91FC910190F081E02D6C2F09954F
:101170008091C4079091C5070E948B0D42E0609159
:10118000C6078091C4079091C5070E94E80D809121
:10119000C4079091C507DC01ED91FC910284F385B1
:1011A000E02D0995C82F8091C4079091C507DC01F7
:1011B000ED91FC910284F385E02D099520E030E06B
:1011C0003C2FE901C82BD92B29C08091D2078F3F32
:1011D00021F480E591E00E94BE0260E08091CF079B
:1011E0000E9469088C2F80680E94561580E00E943A
:1011F0005615C82F80E00E9456152C2F30E0322F54
:101200002227E901C82B61E08091CF070E9469087D
:101210008091D2078F3F11F40E94B602CE01DF9178
:10122000CF9108950E9499089827892798270895B3
:101230008F929F92AF92BF92CF92DF92EF92FF92E6
:101240008091CF078F3F09F064C08091C60791E07D
:1012500090939A058093990510929805109297059E
:101260008091C4079091C507DC01ED91FC9101903C
:10127000F081E02D6AEF09958091C4079091C50730
:101280000E948B0D43E06091C6078091C407909146
:10129000C5070E94E80D8091C4079091C507DC0145
:1012A000ED91FC910284F385E02D09956C01990F75
:1012B000EE08FF08FE2CED2CDC2CCC248091C4071A
:1012C0009091C507DC01ED91FC910284F385E02D3E
:1012D0000995AC01990F660B770BC42AD52AE62A2B
:1012E000F72AFE2CED2CDC2CCC248091C4079091A5
:1012F000C507DC01ED91FC910284F385E02D099591
:10130000AC01990F660B770BC42AD52AE62AF72A77
:1013100032C08091D2078F3F21F480E591E00E9496
:10132000BE0260E08091CF070E9469088AEF0E94A8
:10133000561580E00E945615C82ED12CE12CF12CB8
:10134000FE2CED2CDC2CCC2480E00E945615C82A03
:10135000FE2CED2CDC2CCC2480E00E945615C82AF3
:1013600061E08091CF070E9469088091D2078F3F8A
:1013700011F40E94B602C114D104B0E8EB06F104E6
:1013800009F475C08091D3079091D407A0E0B0E034
:101390008D2C9E2CAF2CBB24A7FCBA94881A990ADA
:1013A000AA0ABB0A37E0F594E794D794C7943A9514
:1013B000D1F7880F991FAA1FBB1FA7019601281BF1
:1013C000390B4A0B5B0BA091D507B091D6070E9451
:1013D0001B1F6B017C015BE0F594E794D794C794E5
:1013E0005A95D1F7A5019401C501B4010E94D51EFB
:1013F0009B01AC016CE055954795379527956A950B
:10140000D1F7A091D707B091D8070E941B1FDC012C
:10141000CB017EE0B595A795979587957A95D1F7FD
:10142000A7019601280F391F4A1F5B1F2093CB0786
:101430003093CC074093CD075093CE07A5E0B0E0A2
:101440000E94A11DDC01CB0180589F4FAF4FBF4FC1
:10145000692F7A2F8B2F992787FD9A950E944A1C16
:1014600020E030E048EC52E40E94281E04C060E016
:1014700070E080EC9FE7FF90EF90DF90CF90BF90FF
:10148000AF909F908F900895CF93DF9390E0FC01F1
:10149000E656FF4F2491FC01EA57FF4F84918823C1
:1014A00061F190E0880F991FFC01E859FF4FC59149
:1014B000D491FC01EE58FF4FA591B491611109C080
:1014C0009FB7F8948881209582238883EC912E23FE
:1014D0000BC0623061F49FB7F8943881822F8095F9
:1014E00083238883EC912E2B2C939FBF06C08FB74C
:1014F000F894E8812E2B28838FBFDF91CF91089538
:101500008F929F92AF92BF92CF92DF92EF92FF9213
:101510006B017C010E94A6074B015C01C114D10440
:10152000E104F104F1F00E94A607DC01CB01881967
:101530009909AA09BB09883E9340A105B10570F33A
:1015400021E0C21AD108E108F10888EE880E83E094
:10155000981EA11CB11CC114D104E104F10419F7B7
:10156000DDCFFF90EF90DF90CF90BF90AF909F9036
:101570008F9008952FB7F8946091470570914805B2
:101580008091490590914A052FBF08951F920F92AF
:101590000FB60F9211242F933F938F939F93AF9386
:1015A000BF938091470590914805A0914905B0915E
:1015B0004A053091460520E3230F2D3720F440964D
:1015C000A11DB11D05C023EB230F4196A11DB11D27
:1015D000209346058093470590934805A0934905BD
:1015E000B0934A0580914B0590914C05A0914D0513
:1015F000B0914E050196A11DB11D80934B059093AE
:101600004C05A0934D05B0934E05BF91AF919F91AE
:101610008F913F912F910F900FBE0F901F901895B3
:101620001F920F920FB60F9211242F933F934F9357
:101630005F936F937F938F939F93AF93BF93EF933A
:10164000FF93E0911F01F09120010995FF91EF9127
:10165000BF91AF919F918F917F916F915F914F91CA
:101660003F912F910F900FBE0F901F9018951F92D2
:101670000F920FB60F9211242F933F934F935F93C6
:101680006F937F938F939F93AF93BF93EF93FF934A
:10169000E0911D01F0911E010995FF91EF91BF911D
:1016A000AF919F918F917F916F915F914F913F91FA
:1016B0002F910F900FBE0F901F9018951F920F92B1
:1016C0000FB60F9211242F933F934F935F936F9315
:1016D0007F938F939F93AF93BF93EF93FF938091EB
:1016E000B900887F803609F49CC068F5883209F417
:1016F0005BC090F4803109F454C038F4882309F4B5
:10170000F6C0883009F44DC0F6C0883109F44CC0E9
:10171000803209F45DC0EFC0803409F468C048F439
:10172000803309F455C0883309F0E5C08093D804AC
:10173000D8C0803509F44FC0883509F45DC08834BD
:1017400009F0D9C0D6C0883909F4C7C0A8F48837D1
:1017500009F467C038F4883609F463C0803709F4A7
:1017600060C0C9C0883809F4B8C0803909F45FC0C6
:10177000803809F0C0C05BC0803B09F486C038F4F3
:10178000803A09F466C0883A09F47FC0B4C0803C4E
:1017900009F4A7C0883C09F4A4C0883B09F48AC0B6
:1017A000AAC08091FE0410C09091FD048091FC04B9
:1017B000981770F5E091FD0481E08E0F8093FD0491
:1017C000F0E0E452FB4F80818093BB0085EC86C043
:1017D0008093D8048EC0E091FD0481E08E0F809349
:1017E000FD048091BB00F0E0E452FB4F80839091B8
:1017F000FD048091FC046EC0E091FD0481E08E0F39
:101800008093FD048091BB00F0E0E452FB4F8083A5
:101810008091DB0481116DC081E08093DA0484EA59
:1018200061C083E08093D90410924505CFCF8091A9
:101830004505803208F051C0E091450581E08E0FEA
:10184000809345058091BB00F0E0EB5DFA4F80830B
:10185000BDCF85EC8093BC001092D90480914505E2
:10186000803230F4E0914505F0E0EB5DFA4F1082F4
:101870006091450570E0E0912305F091240585E233
:1018800095E009951092450536C084E08093D9040F
:101890001092220510922105E0911F05F09120057C
:1018A000099580912105811105C081E08093210572
:1018B0001092FF04E091220581E08E0F80932205B3
:1018C000F0E0E150FB4F80818093BB0090912205B6
:1018D00080912105981708F479CF85E88093BC00A2
:1018E0000AC085EC8093BC001092D90404C0109209
:1018F000D8040E94CC07FF91EF91BF91AF919F91C7
:101900008F917F916F915F914F913F912F910F90A8
:101910000FBE0F901F90189540912105262F30E0A3
:10192000240F311D21323105DCF42091D9042430FB
:10193000C9F4FC0180E090E0861758F4309121054D
:101940002191DC01A150BB4FA30FB11D2C93019637
:10195000F3CF80912105680F6093210580E0089501
:1019600081E0089582E008959091D7048091D60493
:10197000981750F4E92FF0E0EA54FB4F208130E053
:101980009F5F9093D70402C02FEF3FEFC9010895E6
:101990008091D60490E02091D704821B910908958C
:1019A000089580E090E00895CF92DF92EF92FF9249
:1019B0000F931F93CF93DF937C01262F972F8A01DC
:1019C00080919A05882391F0C62FD72F6E01C40EFF
:1019D000D51ECC15DD0571F06991D701ED91FC9113
:1019E0000190F081E02DC7010995F3CF642F822F7C
:1019F0000E948C0CC801DF91CF911F910F91FF9035
:101A0000EF90DF90CF900895CF93DF931F92CDB7E3
:101A1000DEB7698320919A052223D1F020919705A2
:101A2000203240F021E030E0FC013383228380E06B
:101A300090E015C080919805E82FF0E0E958FA4F42
:101A4000998190838F5F809398058093970505C057
:101A500061E0CE0101960E948C0C81E090E00F9035
:101A6000DF91CF9108952BE043E06FEF80E00E947B
:101A700079136BE471E00E9451010E94E5032CE0B0
:101A800043E06FEF80E00E9479136BE571E00E9404
:101A900051010E94E50340E651E066E081E00E94CA
:101AA000D11364E670E080E090E00E941A154CE6E5
:101AB00051E067E082E00E94D11364E670E080E0CC
:101AC00090E00E941A1545E751E06EE188EC0E9413
:101AD000D11364E670E080E090E00E941A1549E7B7
:101AE00051E067E18AEC0E94D11364E670E080E087
:101AF00090E00E941A1547E851E063E08EEF0E94E3
:101B0000D11364E670E080E090E00E941A1588E945
:101B100091E00C94881320919705909199052132BA
:101B200008F04AC08091D9048111FCCF32E0309393
:101B3000D90431E03093DB043FEF3093D8041092A6
:101B4000FD042093FC04A7E7B5E04CED54E0FA0156
:101B50003E2F341B321718F43D913193F9CF109278
:101B6000FE042091FE04990F922B9093FE04909115
:101B7000DA04913061F41092DA049091FE049093AB
:101B8000BB009091BC0093FDF8CF95EC01C095EEA1
:101B90009093BC009091D9049230E1F39091D804D5
:101BA0009F3F79F08091D804803241F08091D80431
:101BB000803331F084E005C081E003C082E001C0E1
:101BC00083E0109298051092970510929A05089557
:101BD0008091D9048111FCCF842F413208F080E23A
:101BE00091E09093D9049093DB042FEF2093D804D5
:101BF0001092FD04280F2093FC049093FE04909112
:101C0000FE04660F692B6093FE049091DA04913014
:101C100061F41092DA049091FE049093BB009091CD
:101C2000BC0093FDF8CF95EC01C095EE9093BC00FD
:101C30009091D9049130E1F39091FD04981710F43C
:101C40008091FD04ACEDB4E026EB34E0F9019E2F69
:101C5000921B981718F49D919193F9CF1092D70485
:101C60008093D6040895CF93CFB7F89480917605EA
:101C7000811127C0E0E9F0E08491E4EAF0E094917A
:101C8000E82FF0E0EE0FFF1FE859FF4FA591B49148
:101C9000EC91E92321F461E08AE00E94690861E0A7
:101CA0008AE00E94440A8CB580618CBD8CB580644A
:101CB0008CBD61E08DE00E94440A61E08BE00E94EF
:101CC000440A809176058F5F80937605CFBFCF91D0
:101CD0000895DF92EF92FF920F931F93CF93DF93BC
:101CE0007C0100E010E0C1E0D0E020916405022E0C
:101CF000000C330BC217D3074CF5C7010E94E61343
:101D00008823B1F08091650590916605A0916705E3
:101D1000B09168050196A11DB11D80936505909352
:101D20006605A0936705B0936805DD24D39403C0CE
:101D30000E5C1F4FD12C2196B801012E000C880B90
:101D4000990B0E949A19DD2081F213C080916005E1
:101D500090916105A0916205B09163050196A11D66
:101D6000B11D8093600590936105A0936205B093C7
:101D70006305DF91CF911F910F91FF90EF90DF905E
:101D80000895CF93DF93FC0126812A3C09F00BC113
:101D900024812770213009F006C12581283161F0A6
:101DA0002931D9F12A3109F469C02B3109F497C0DE
:101DB0002C3109F0F8C0C5C00E948601EC0188EE04
:101DC00091E00E94CF13CE010E949613CF3FD10520
:101DD00088F48AEA91E00E9488136C2F84EB91E0EA
:101DE0000E948F1DBE0180E497E00E9429010E949D
:101DF000690E04C088EC91E00E94881364EF71E0E2
:101E000080E090E00E941A158091600088618093C4
:101E1000600088E080936000FFCF0E948601EC01A3
:101E200088E092E00E94CF13CE010E949613C43046
:101E3000D10588F48AEA91E00E9488136C2F85EB23
:101E400091E00E948F1DBE018FE197E00E94290161
:101E50000E94690E04C088EC91E00E94881364EF30
:101E600071E080E090E00E941A1580916000886126
:101E70008093600088E080936000FFCF0E9486011D
:101E8000EC018DE292E00E94CF13CE010E949613E6
:101E9000C230D10588F48AEA91E00E9488136C2F41
:101EA00086EB91E00E948F1DBE018EEF96E00E94AE
:101EB00029010E94690E04C088EC91E00E948813F9
:101EC00064EF71E080E090E00E941A15809160005C
:101ED00088618093600088E080936000FFCF0E945B
:101EE0008601EC0187E592E00E94CF13CE010E94AB
:101EF0009613CE010197CC9788F48AEA91E00E946C
:101F000088136C2F87EB91E00E948F1DBE018DED31
:101F100096E00E9429010E94690E04C088EC91E0BD
:101F20000E94881364EF71E080E090E00E941A152F
:101F30008091600088618093600088E080936000F9
:101F4000FFCF0E948601EC018CE792E00E94CF1344
:101F5000CE010E949613CE010197CC9788F48AEAAD
:101F600091E00E9488136C2F83EB91E00E948F1DFB
:101F7000BE018CEB96E00E9429010E94690E04C00C
:101F800088EC91E00E94881364EF71E080E090E0BB
:101F90000E941A158091600088618093600088E03B
:101FA00080936000FFCFDF91CF9108954F925F92B1
:101FB0006F927F928F929F92AF92BF92CF92DF9259
:101FC000EF92FF920F931F93CF93DF939091F507BA
:101FD000892F807C803479F00E9418092B013C0104
:101FE0009B01AC010E94D01E882351F18FE992E041
:101FF0000E948813B8C0692F677040E2649F900107
:102000001124892F869586958695877058E0859F3F
:10201000B0011124622B732B92959695969593702F
:10202000692B84EF0E94B81583EF0E94701683FF1E
:10203000D3CF61E070E080E090E00E94800AF4CFAE
:10204000209172053091730540917405509175058A
:10205000C301B2010E94431C81111DC0E0917105B2
:10206000A0905805B0905905C0905A05D0905B05D6
:10207000E0905C05F0905D0500915E0510915F05B4
:102080002E2F30E040E050E060E070E090E00E94F1
:10209000231F09F065C0409272055092730560924B
:1020A000740570927505109271058091A60787706E
:1020B00088628093A6078091A707806E8093A70708
:1020C0004092AA075092AB076092AC077092AD079E
:1020D00082E08093AE0783EA97E00E94690E8091C8
:1020E0007005811140C080919E0687708860809342
:1020F0009E0680919F068F71806280939F06C1E04B
:10210000C093A2068BE996E00E94690E4091650596
:102110005091660560916705709168058AE796E0C1
:102120000E9436010E94690E409160055091610540
:10213000609162057091630589E596E00E94360121
:102140000E94690E60915705062E000C770B8CEBF0
:1021500096E00E9429010E94690EC093700503C099
:10216000EF5FE09371050E9418098DEF0E949908B6
:10217000A0E0B0E0811520E89207A105B10509F4BF
:10218000E2C08090CB079090CC07A090CD07B09094
:10219000CE073CE2931A31E0A30AB1083EE0880F73
:1021A000991FAA1FBB1F3A95D1F74091EF07509195
:1021B000F007052E000C660B770BE4E1440F551F6A
:1021C000661F771FEA95D1F76C017D01C41AD50A05
:1021D000E60AF70AA091F107B091F207A501940170
:1021E0000E941B1FC61AD70AE80AF90A40E4D40E57
:1021F000E11CF11CFFE0F594E794D794C794FA959D
:10220000D1F7A091F3070A2E000CBB0BA501940196
:102210000E941B1F2B013C01AAE075946794579400
:102220004794AA95D1F7A091EE07B0E00E94A11DB6
:10223000DC01CB01CBE0B595A79597958795CA951D
:10224000D1F7BC01CD0170588F4F9F4FA301920170
:102250000E94D51EDC01CB01DAE0B595A7959795D4
:102260008795DA95D1F79C01AD01405E5F4FA09153
:10227000EC07B091ED070E941B1FDC01CB01905EC3
:10228000AF4FBF4FBC01CD011EE095958795779567
:1022900067951A95D1F7A70196010E94D51E6B018B
:1022A0007C010FE095958795779567950A95D1F70D
:1022B0009B01AC010E94D51E9B01AC0187E05595A6
:1022C0004795379527958A95D1F7A091EB07B0E010
:1022D0000E94A11DDC01CB0124E0B595A79597953F
:1022E00087952A95D1F7A7019601281B390B4A0B30
:1022F0005B0BDA01C90157FF03C080E090E0DC010D
:1023000081309105A10539E1B30724F080E090E028
:10231000A0E0B9E1BC01CD012CE0959587957795BA
:1023200067952A95D1F70E944A1C20E030E040E8EA
:102330005AE30E94A91C2B013C019B01AC010E94A5
:10234000D01E882329F084EC92E00E94881392C06A
:1023500020916C0530916D0540916E0550916F058F
:10236000C301B2010E94431C81111DC0E0916B05A5
:10237000A0905805B0905905C0905A05D0905B05C3
:10238000E0905C05F0905D0500915E0510915F05A1
:102390002E2F30E040E050E060E070E090E00E94DE
:1023A000231F09F064C040926C0550926D05609245
:1023B0006E0570926F0510926B058091850787708E
:1023C00088628093850780918607806E8093860758
:1023D0004092890750928A0760928B0770928C070F
:1023E000C1E0C0938D0782E897E00E94690E80915A
:1023F000700581113FC080919E0687708860809330
:102400009E0680919F068F71806280939F06C09385
:10241000A2068BE996E00E94690E409165055091F5
:10242000660560916705709168058AE796E00E94ED
:1024300036010E94690E40916005509161056091DE
:1024400062057091630589E596E00E9436010E945D
:10245000690E60915705062E000C770B8CEB96E009
:102460000E9429010E94690EC093700503C0EF5FAE
:10247000E0936B058091210140E4849FC001112409
:1024800080937C0080917A00806480937A008091B0
:102490007A0086FDFCCF609178008091790070E031
:1024A000782B072E000C880B990B0E944A1C29E000
:1024B00037E64CE55BE30E94A91C2B013C0126E6B4
:1024C00036E646EE5FE30E94BB1D24E333E343EBB5
:1024D0005FE30E94281E20E030E048EC52E40E94B6
:1024E000A91C0E949A1EEB01653671052CF477FF3A
:1024F00005C0C0E0D0E002C0C4E6D0E0809169052C
:1025000090916A058C179D07E9F420916B05A090C6
:102510005805B0905905C0905A05D0905B05E090E1
:102520005C05F0905D0500915E0510915F0530E05F
:1025300040E050E060E070E080E090E00E94231F07
:1025400009F067C080916407877088628093640790
:1025500080916507806E809365074092680750926E
:10256000690760926A0770926B0782E080936C073C
:1025700081E697E00E94E6138091700581113AC0D0
:1025800080919E068770886080939E0680919F064A
:102590008F71806280939F0681E08093A2068BE911
:1025A00096E00E94690E4091650550916605609124
:1025B0006705709168058AE796E00E9436010E94DF
:1025C000690E4091600550916105609162057091BE
:1025D000630589E596E00E9436010E94690E6091CC
:1025E0005705062E000C770B8CEB96E00E94290114
:1025F0000E94690E20E043E06FEF80E00E947913B3
:102600006C2F0E9445010E94E503D0936A05C09398
:1026100069051092700560914F0570915005809189
:1026200051059091520541E0DF91CF911F910F919B
:10263000FF90EF90DF90CF90BF90AF909F908F90E2
:102640007F906F905F904F900C942D14009769F0DD
:10265000FC0101900020E9F73197AF01481B590BAD
:10266000BC0180EB95E00C94A00680E090E008951A
:102670008F929F92AF92BF920F931F93CF93DF934E
:10268000CDB7DEB7A1970FB6F894DEBF0FBECDBFB2
:1026900019A2423008F44AE08E010F5D1F4F842ECC
:1026A000912CA12CB12CA50194010E94F91EE62FBA
:1026B000B901CA0101501109EA3014F4E05D01C00A
:1026C000E95CD801EC93232B242B252B61F7C8015F
:1026D0000E942613A1960FB6F894DEBF0FBECDBFA1
:1026E000DF91CF911F910F91BF90AF909F908F90EE
:1026F0000895E7EFF7E09091AC05918382836683BC
:10270000258347708481807E482B4483CF010895C0
:10271000CF93DF930E942613EC0185EE92E00E9496
:1027200026138C0F9D1FDF91CF910895CF92DF92DA
:10273000EF92FF92CF93DF936C01990FEE08FF08A1
:10274000F7FE1AC0E091B005F091B1050190F0815B
:10275000E02D6DE280EB95E00995EC016627772787
:10276000CB016C197D098E099F094AE00E9438133C
:102770007C01EC0EFD1E06C04AE0C701B6010E94B6
:1027800038137C0185EE92E00E9426138E0D9F1D6A
:10279000DF91CF91FF90EF90DF90CF9008950C9450
:1027A0002613CF93DF93262F8F3F11F0EA0102C04B
:1027B000C8EED2E040E0682F80E00E947913BE01AD
:1027C0000E945101DF91CF910C94E503FC018091AF
:1027D000AC0581839481907F916094838091AB0557
:1027E00080FF03C0CF010C94E50380E00895CF92F1
:1027F000DF92EF92FF92CF93DF93D82F0E94BA0A15
:102800006B017C0181E0D11180E080931D08C0E064
:102810000E94BA0AAB01BC014C195D096E097F091F
:10282000403D57406105710580F4C1110EC0A89567
:102830000E94300490911C089770933049F7C1E0D2
:1028400080911D088D13E3CFE3CF8C2FDF91CF91C3
:10285000FF90EF90DF90CF9008954F925F926F922C
:102860007F928F929F92AF92BF92CF92DF92EF9220
:10287000FF920F931F93CF93DF934B015C01D42FF3
:102880008091A50582FD1FC00E94BA0A6B017C01E0
:1028900080E090E0DC012091A50522FDB3C0881501
:1028A0009905AA05BB0508F0B3C0803127E292075D
:1028B000A105B10508F49AC075016401C81AD90AC6
:1028C000EA0AFB0A02C075016401DD2379F1D70130
:1028D000C6010197A109B109873E9340A105B10541
:1028E00028F4C501B4010E949A1992C020E243E085
:1028F0006FEF80E00E947913FC0184818F71806A00
:102900008483838187708062838388EE93E0A0E074
:10291000B0E087839087A187B287CF010E94E5034B
:1029200068EE73E080E090E00E949A190E9408032C
:10293000C114D104E104F10461F1460157018FE0B3
:10294000880E911CA11CB11C01E010E080912201B5
:102950008F3F11F520E182169104A104B104E0F04B
:1029600089E094E0980F280102C0440C551C9A9508
:10297000E2F7612C712C84149504A604B70438F096
:102980000E94590284189508A608B708DFCF815025
:10299000E8CF8FEF0E945902809122018F3F19F0FA
:1029A000C091220101C0CFEF8FEF809322012998BF
:1029B0006EE080E20E94F702DD23B1F021E243E005
:1029C0006FEF80E00E947913FC0184818F71806A2F
:1029D00084838381877080628383C782D086E18607
:1029E000F286CF010E94E5038C2F13C0A8950E94A8
:1029F00030040E94BA0ADC01CB018C199D09AE0992
:102A0000BF0949CF88159905AA05BB0508F454CF1D
:102A10008EEFDF91CF911F910F91FF90EF90DF909C
:102A2000CF90BF90AF909F908F907F906F905F906E
:102A30004F90089540E00C942D140F931F93CF9363
:102A4000DF938C01C0E0D0E0F801EC0FFD1F649132
:102A5000662371F0E091B005F091B1050190F0812D
:102A6000E02D80EB95E00995892B11F02196ECCFB4
:102A700085EE92E00E9426138C0F9D1FDF91CF916F
:102A80001F910F910895CF93DF93682F70E080E03E
:102A900090E04AE00E943813EC0185EE92E00E943B
:102AA00026138C0F9D1FDF91CF910895CF92DF9257
:102AB000EF92FF920F931F93CF93DF939091D207E2
:102AC0009F3F51F4DF91CF911F910F91FF90EF90B5
:102AD000DF90CF900C94B702E82EC7E0D0E0D12C65
:102AE00001E010E0DD0C60E08091D2070E946908EF
:102AF000B8010C2E01C0660F0A94EAF76E2180918E
:102B0000D0070E94690861E08091D2070E9469089D
:102B10002091D10730E0F901E255FF4F8491F9018E
:102B2000E656FF4FC490F901EA57FF4FF490FF209B
:102B300071F081110E944008EF2DF0E0EE0FFF1FB1
:102B4000E458FF4FA591B491EC91EC2169F42197E1
:102B500008F0C8CF8D2DDF91CF911F910F91FF907D
:102B6000EF90DF90CF9008958D2D8160D82EEFCF1C
:102B7000CF93DF93D82FC62F8091CF078F3F59F582
:102B80008091C60791E090939A05809399051092E1
:102B90009805109297058091C4079091C507DC01B4
:102BA000ED91FC910190F081E02D6D2F09958091C0
:102BB000C4079091C507DC01ED91FC910190F08173
:102BC000E02D6C2F09958091C4079091C507DF9186
:102BD000CF910C948B0D8091D2078F3F21F480E52B
:102BE00091E00E94BE0260E08091CF070E946908D8
:102BF0008D2F8F770E9456158C2F0E94561561E0FD
:102C00008091CF070E9469088091D2078F3F21F4FD
:102C1000DF91CF910C94B602DF91CF9108950F937D
:102C20001F93CF93DF93C5EFD7E08295880F880F6E
:102C3000807C67704770942F990F990F990F482FD8
:102C4000462B492B4883E6EFF7E0922F9295990F98
:102C5000907E80818F71892B808304EF17E0F801CB
:102C60008081807C8083622F677082EF0E94B8151C
:102C7000F8019081692F6770F0E26F9F9001112435
:102C8000892F869586958695877048E0849FB00148
:102C90001124622B732B97FB992790F9692B85EFF1
:102CA0000E94B8159881692F677080E2689F900133
:102CB0001124892F8695869586958770E8E08E9FEA
:102CC000B0011124622B732B929596959695937073
:102CD000692B84EFDF91CF911F910F910C94B81560
:102CE000CF93C82F8091CF078F3F99F58091C6076A
:102CF00091E090939A05809399051092980510920F
:102D000097058091C4079091C507DC01ED91FC9176
:102D10000190F081E02D6C2F09958091C40790916E
:102D2000C5070E948B0D41E06091C6078091C407E2
:102D30009091C5070E94E80D8091C4079091C50746
:102D4000DC01ED91FC910284F385E02D0995C82FFB
:102D500020C08091D2078F3F21F480E591E00E944E
:102D6000BE0260E08091CF070E9469088C2F8068C6
:102D70000E94561580E00E945615C82F61E0809190
:102D8000CF070E9469088091D2078F3F11F40E94FB
:102D9000B6028C2FCF910895CF9383E080932101C9
:102DA00086E78093C6078DE496E09093C5078093ED
:102DB000C4078091CF078F3F41F51092D70410923E
:102DC000D60410929805109297051092D90481E0CC
:102DD0008093DB041092DA0461E082E10E946908CA
:102DE00061E083E10E9469088091B9008E7F809341
:102DF000B9008091B9008D7F8093B9008DEF8093E9
:102E0000B80085E48093BC001CC061E00E946908A2
:102E100061E08091CF070E94440A8091D2078F3FE2
:102E200019F40E94330E0DC061E00E94440A61E073
:102E30008091D0070E94440A60E08091D1070E94EF
:102E4000440A80ED0E947016803609F053C166EB8B
:102E500080EE0E94B8156CE271E080E090E00E9484
:102E6000800A83EF0E94701680FF05C064E670E060
:102E700080E090E0F4CF88E80E9412099093D40794
:102E80008093D3078AE80E9412099093D607809313
:102E9000D5078CE80E9412099093D8078093D70732
:102EA0008EE80E9412099093DA078093D90780E98F
:102EB0000E9412099093DC078093DB0782E90E944D
:102EC00012099093DE078093DD0784E90E941209BE
:102ED0009093E0078093DF0786E90E9412099093A0
:102EE000E2078093E10788E90E9412099093E407C2
:102EF0008093E3078AE90E9412099093E607809382
:102F0000E5078CE90E9412099093E8078093E70790
:102F10008EE90E9412099093EA078093E90781EAFB
:102F20000E9470168093EB0781EE0E941209909325
:102F3000ED078093EC0783EE0E9470168093EE07F6
:102F400084EE0E947016C82F85EE0E947016282FFE
:102F50002F7030E1C39FC0011124822B9093F007A2
:102F60008093EF0786EE0E947016C82F85EE0E94B0
:102F7000701690E024E0959587952A95E1F740E159
:102F8000C49F90011124822B932B9093F20780937E
:102F9000F10787EE0E9470168093F30725E030E07A
:102FA00045E050E065E070E083E090E00E940F169D
:102FB00064E670E080E090E00E94800A21E030E06A
:102FC00040E050E061E070E081E090E00E940F1688
:102FD0008EEE92E00E94881380E293E00E948813B4
:102FE0008EEE92E00E94881382E593E00E94CF1358
:102FF0008091AD050E94431583E693E00E94CF13B4
:1030000080913C08082E000C990B0E949613809129
:103010003D08811103C081E793E002C088E893E096
:103020000E9488136091AD0580E497E00E944501FD
:103030000E94690E60913C08062E000C770B8FE110
:1030400097E00E9429010E94690E60913D08062EBA
:10305000000C770B8EEF96E00E9429010E94690E0A
:1030600060916405062E000C770B8DED96E00E94B2
:1030700029010E94690E60915705062E000C770BFE
:103080008CEB96E00E9429010E94690E80919E06B9
:103090008770886080939E0680919F068F71806202
:1030A00080939F0681E08093A2068BE996E00E94C0
:1030B000690E4091650550916605609167057091B4
:1030C00068058AE796E00E9436010E94690E4091E9
:1030D000600550916105609162057091630589E515
:1030E00096E00E9436010E94690E8EE993E0CF912E
:1030F0000C94881382E491E00E941D15FFCFEF929B
:10310000FF920F931F93CF93DF9382EB91E00E9486
:10311000771DE82E83EB91E00E94771DD82F84EB7A
:1031200091E00E94771DF82E85EB91E00E94771DBB
:10313000C82F86EB91E00E94771D082F87EB91E066
:103140000E94771D182F83E0E81609F477C089EAFA
:1031500093E00E9488138AEB93E00E94CF1382E0F1
:1031600090E00E94961362E083EB91E00E948F1D35
:1031700080EC80934F0584ED8093500581E080932F
:103180005105109252051092530510925405109259
:1031900055051092560582E0809357058EE1809385
:1031A00058051092590510925A0510925B0510921D
:1031B0005C0510925D0510925E0510925F058EEC25
:1031C00093E00E94CF1310923B0880E090E00E94B1
:1031D000961360E084EB91E00E948F1D82EE93E0F5
:1031E0000E94CF1382E090E00E94961362E085EB8C
:1031F00091E00E948F1D88EF93E00E94CF1380E042
:1032000090E00E94961360E086EB91E00E948F1D93
:1032100083E194E00E94CF1385E090E00E94961332
:1032200065E087EB91E00E948F1D85E08093640547
:1032300063E082EB91E00E948F1D72C08AE294E00D
:103240000E94881383E494E00E94CF138D2F0E9484
:1032500043152D2F30E0A0E6BAEE0E94AC1D60931E
:103260004F05709350058093510590935205DC01F2
:10327000CB01BB0F880B982FDC0180935305809303
:1032800054058093550580935605D09357056D2FAF
:10329000DD0F770B8CE390E00E94E51E60935805EC
:1032A00070935905770F770B70935A0570935B05F0
:1032B00070935C0570935D0570935E0570935F0578
:1032C00088E594E00E94CF138F2D0E944315F09261
:1032D0003B088EE694E00E94CF138C2F0E9443158A
:1032E00085E894E00E94CF13802F0E94431500933D
:1032F0003D088EE994E00E94CF13812F0E94431570
:1033000010936405C13049F028F0C23049F0C33051
:1033100021F006C010923C0806C0C0933C0803C0D0
:1033200082E080933C08DF91CF911F910F91FF9035
:10333000EF9008958F929F92AF92BF92CF92DF92BB
:10334000EF92FF926B017C010E94BA0A4B015C0173
:103350000E94BA0ADC01CB0188199909AA09BB09A4
:103360008C159D05AE05BF0520F4A8950E9430047C
:10337000EFCFFF90EF90DF90CF90BF90AF909F90F6
:103380008F900895CF932FE043E06FEF80E00E948D
:10339000791367EE72E00E945101E7EFF7E0838155
:1033A00087708061838384818F71806C848381E0E6
:1033B00087831086CF010E94E5038FE00E94F713F8
:1033C00047EE52E061E18FEF0E94D113C091AD054D
:1033D00026E043E06FEF80E00E9479136C2F0E949B
:1033E00045010E94E50386E00E94F713CF910C94FB
:1033F000330DCF938091AB0581FD1FC00E94C21990
:103400008091AB0581608093AB05C4E02AE143E085
:103410006FEF80E00E94791362E00E9445010E94F4
:10342000E5038BE10E94F713811102C0C15071F7CF
:103430008091AB0582608093AB05CF910895CF93C7
:10344000DF93FC011082118212821482158216828F
:10345000DC0117968AE1ED0119928A95E9F782E07D
:103460008383DF91CF9108950F931F93CF93DF93C1
:10347000E0EBF5E01382128288EE93E0A0E0B0E08A
:1034800084839583A683B7832BE231E03183208345
:1034900025EC30E03587248724EC30E03787268719
:1034A00020EC30E0318B208B21EC30E0338B228B11
:1034B00022EC30E0358B248B26EC30E0378B268BEA
:1034C000118E128E138E148EEDE4F6E013821282AA
:1034D00084839583A683B7838DE391E09183808372
:1034E00088E198E00E941F1A87EF97E00E941F1A58
:1034F000E4ECF7E08FEF838784878587868783EA0C
:1035000097E00E941F1AE3EAF7E0C1E0C683158244
:1035100082E897E00E941F1AE2E8F7E002E00683E3
:10352000C58381E697E00E941F1AE1E6F7E088EC88
:10353000868386E2858380E497E00E941F1AE0E498
:10354000F7E0CAECC68318E115838FE197E00E948B
:103550001F1AEFE1F7E0C683D9E1D5838EEF96E03D
:103560000E941F1AEEEFF6E0C6838AE185838DED97
:1035700096E00E941F1AEDEDF6E0C6838BE185838D
:103580008CEB96E00E941F1AECEBF6E0C6838CE110
:1035900085838BE996E00E941F1AEBE9F6E0CEEFF7
:1035A000C68305838AE796E00E941F1AEAE7F6E0E1
:1035B000C683158389E596E00E941F1AE9E5F6E0C7
:1035C000C683D583DF91CF911F910F91089580918C
:1035D0001C08829586958770813019F480911F08A8
:1035E0000895811105C08FE198E00E94E11B0895C4
:1035F00080E00895789484B5826084BD84B581604C
:1036000084BD85B5826085BD85B5816085BD8091AD
:103610006E00816080936E00109281008091810025
:10362000826080938100809180008160809380001F
:103630008091B10084608093B1008091B00081607E
:103640008093B00080917A008B7F80937A00809184
:103650007A00826080937A0080917A008160809302
:103660007A0080917A00806880937A001092C1007D
:10367000A89580E090E0892B11F00E940000E09175
:10368000C005F091C10582E08083E091BC05F09116
:10369000BD051082E091BE05F091BF058CE08083EE
:1036A0001092C805E091C405F091C50586E08083BD
:1036B000E091C205F091C305808180618083E09133
:1036C000C205F091C305808188608083E091C205C6
:1036D000F091C305808180688083E091C205F091FC
:1036E000C30580818F7D808300E110E0F12CF8011B
:1036F000F595E795E753FF4FE49100FFE295EF70F2
:10370000E83008F05BC0F0E0E753FF4FF490C1E011
:10371000D0E0E091B005F091B1050190F081E02D8D
:103720006F2D80EB95E00995DF5FDC13F2CF0F5F23
:103730001F4F023F1105D9F682EC90E00E941D1543
:103740008091AB058D7F8093AB050E947F1841E08F
:1037500050E063E071E08AEA95E00E94671D6091A5
:103760003B0881E090E00E948F1D8091A6058F7834
:103770008093A60510929C0510929B0583E291E030
:103780000E94990189EF99E190933A088093390852
:103790000E94BA0A0E94BA0A0E943004A895809139
:1037A000A50582FFF7CF0E94CC16A895A8950E9488
:1037B00030040E94D60F0E949C07F8CFCBEFCE0FAB
:1037C000A7CFFC0188279927E89421912032E9F3BB
:1037D000293010F02E30C8F32B3241F02D3239F45D
:1037E000689404C00E943B1C820F911D21912053BC
:1037F0002A30C0F31EF4909581959F4F08951F9332
:10380000FC0199278827BC01E89411911032E9F353
:10381000193010F01E30C8F31B3251F01D3249F43C
:10382000689406C00E94261C610F711D811D911DA8
:10383000119110531A30B0F33EF490958095709525
:1038400061957F4F8F4F9F4F1F910895592F482F9C
:10385000372F262F660F771F881F991F660F771F38
:10386000881F991F620F731F841F951F660F771F94
:10387000881F991F08957AE0979F902D879F802D2C
:10388000910D112408950E94851C08F481E008958B
:10389000E89409C097FB3EF49095809570956195EA
:1038A0007F4F8F4F9F4F9923A9F0F92F96E9BB27A0
:1038B0009395F695879577956795B795F111F8CF1C
:1038C000FAF4BB0F11F460FF1BC06F5F7F4F8F4F87
:1038D0009F4F16C0882311F096E911C0772321F07D
:1038E0009EE8872F762F05C0662371F096E8862F15
:1038F00070E060E02AF09A95660F771F881FDAF76C
:10390000880F9695879597F90895990F0008550F98
:10391000AA0BE0E8FEEF16161706E807F907C0F055
:1039200012161306E407F50798F0621B730B840B5D
:10393000950B39F40A2661F0232B242B252B21F437
:1039400008950A2609F4A140A6958FEF811D811DD7
:1039500008950E94BC1C0C942D1D0E941F1D38F060
:103960000E94261D20F0952311F00C94161D0C9436
:103970001C1D11240C94611D0E943E1D70F3959F27
:10398000C1F3950F50E0551F629FF001729FBB2756
:10399000F00DB11D639FAA27F00DB11DAA1F649FF2
:1039A0006627B00DA11D661F829F2227B00DA11DA5
:1039B000621F739FB00DA11D621F839FA00D611D2B
:1039C000221F749F3327A00D611D231F849F600D4C
:1039D000211D822F762F6A2F11249F5750409AF075
:1039E000F1F088234AF0EE0FFF1FBB1F661F771F01
:1039F000881F91505040A9F79E3F510580F00C94CC
:103A0000161D0C94611D5F3FE4F3983ED4F3869538
:103A100077956795B795F795E7959F5FC1F7FE2B6B
:103A2000880F911D9695879597F9089597F99F6747
:103A300080E870E060E008959FEF80EC0895002436
:103A40000A941616170618060906089500240A9403
:103A500012161306140605060895092E0394000C89
:103A600011F4882352F0BB0F40F4BF2B11F460FF18
:103A700004C06F5F7F4F8F4F9F4F089557FD905841
:103A8000440F551F59F05F3F71F04795880F97FB22
:103A9000991F61F09F3F79F08795089512161306DC
:103AA0001406551FF2CF4695F1DF08C0161617060B
:103AB0001806991FF1CF8695710561050894089540
:103AC000E894BB2766277727CB0197F90895DC0197
:103AD000CB01FC01F999FECF06C0F2BDE1BDF89A19
:103AE000319600B40D9241505040B8F70895F999BD
:103AF000FECF92BD81BDF89A992780B50895DC016B
:103B0000A40FB51F4150504048F0CB01840F951FC2
:103B10002E910E94901D41505040D0F70895262FBD
:103B2000F999FECF92BD81BDF89A019700B40216B3
:103B300039F01FBA20BD0FB6F894FA9AF99A0FBE61
:103B400008950E94AC1DA59F900DB49F900DA49F59
:103B5000800D911D11240895A29FB001B39FC00153
:103B6000A39F700D811D1124911DB29F700D811DA9
:103B70001124911D08955058BB27AA270E94D31DD8
:103B80000C942D1D0E941F1D38F00E94261D20F050
:103B900039F49F3F19F426F40C941C1D0EF4E095A3
:103BA000E7FB0C94161DE92F0E943E1D58F3BA172F
:103BB000620773078407950720F079F4A6F50C9443
:103BC000601D0EF4E0950B2EBA2FA02D0B01B9014C
:103BD00090010C01CA01A0011124FF27591B99F083
:103BE000593F50F4503E68F11A16F040A22F232F8F
:103BF000342F4427585FF3CF469537952795A795DF
:103C0000F0405395C9F77EF41F16BA0B620B730B85
:103C1000840BBAF09150A1F0FF0FBB1F661F771FF6
:103C2000881FC2F70EC0BA0F621F731F841F48F4AB
:103C3000879577956795B795F7959E3F08F0B0CF34
:103C40009395880F08F09927EE0F9795879508951B
:103C50000E943C1E0C942D1D0E94261D58F00E94AF
:103C60001F1D40F029F45F3F29F00C94161D5111DF
:103C70000C94611D0C941C1D0E943E1D68F3992339
:103C8000B1F3552391F3951B550BBB27AA27621758
:103C90007307840738F09F5F5F4F220F331F441F65
:103CA000AA1FA9F335D00E2E3AF0E0E832D0915099
:103CB0005040E695001CCAF72BD0FE2F29D0660F86
:103CC000771F881FBB1F261737074807AB07B0E8C9
:103CD00009F0BB0B802DBF01FF2793585F4F3AF0CF
:103CE0009E3F510578F00C94161D0C94611D5F3FAA
:103CF000E4F3983ED4F3869577956795B795F79555
:103D00009F5FC9F7880F911D9695879597F908953C
:103D1000E1E0660F771F881FBB1F621773078407D8
:103D2000BA0720F0621B730B840BBA0BEE1F88F7E7
:103D3000E09508950E94A11E6894B1110C94611D34
:103D400008950E94461D88F09F5798F0B92F992733
:103D5000B751B0F0E1F0660F771F881F991F1AF076
:103D6000BA95C9F714C0B13091F00E94601DB1E05E
:103D700008950C94601D672F782F8827B85F39F05D
:103D8000B93FCCF3869577956795B395D9F73EF40F
:103D900090958095709561957F4F8F4F9F4F0895B7
:103DA0000E94851C880B990B0895DB018F939F93CC
:103DB0000E94A11DBF91AF91A29F800D911DA39F55
:103DC000900DB29F900D1124089597FB072E16F4C5
:103DD000009407D077FD09D00E942C1F07FC05D066
:103DE0003EF4909581959F4F0895709561957F4F12
:103DF0000895A1E21A2EAA1BBB1BFD010DC0AA1F2C
:103E0000BB1FEE1FFF1FA217B307E407F50720F043
:103E1000A21BB30BE40BF50B661F771F881F991FBE
:103E20001A9469F760957095809590959B01AC0107
:103E3000BD01CF010895B7FF0C94A11D0E94A11DE3
:103E4000821B930B08952A153B054C055D056E05F5
:103E50007F05800791070895AA1BBB1B51E107C08E
:103E6000AA1FBB1FA617B70710F0A61BB70B881F0A
:103E7000991F5A95A9F780959095BC01CD01089599
:103E8000EE0FFF1F0590F491E02D099481E090E082
:103E9000F8940C945A1FFB01DC014150504048F04B
:103EA00001900D920020C9F701C01D924150504071
:083EB000E0F70895F894FFCF3C
:103EB800FFFF00FCE1A8A80D03C501FF031D02ECEC
:103EC80003EF01EE00E5011A043702FFFFCB07CB31
:103ED8000701FF13011006000000003307A006CBFE
:103EE800067A07FC06DA06EE0600000000040DD488
:103EF8000CD10CD607C80CB40CD70754656D706587
:103F08007261747572654E6F646500312E323000CF
:103F180054656D70657261747572650048756D6978
:103F280064697479005643430053797374656D2D41
:103F3800436F6E6669670053797374656D2D5265BA
:103F4800706F7274696E670050726573656E746124
:103F580074696F6E20446F6E650052454D4F54452D
:103F68002D434F4E4649473A2056616C7565206986
:103F7800732076616C69640052454D4F54452D435A
:103F88004F4E4649473A2056616C75652069732043
:103F9800696E76616C69640052454D4F54452D43F6
:103FA8004F4E4649473A20476F74206E6577207018
:103FB8006172656E743A200052454D4F54452D4349
:103FC8004F4E4649473A20476F74206E6577205216
:103FD8006164696F204C6576656C3A200052454DE6
:103FE8004F54452D434F4E4649473A20476F74205A
:103FF8006E657720506172656E74206973207374E2
:10400800617469633A200052454D4F54452D434F22
:104018004E4649473A20476F74206E65772073658E
:104028006E64207265706561743A200052454D4F88
:1040380054452D434F4E4649473A20476F74206EEA
:10404800657720736C65657074696D653A20004604
:1040580061696C65642072656164696E6720746566
:104068006D70657261747572652066726F6D20443B
:10407800485421004661696C656420726561646911
:104088006E672068756D69646974792066726F6DF2
:1040980020444854000D0A00322E332E30002D2DB6
:1040A8002D2D2D2D2D2D2D2D2D2D2D2D2D2D2D2D38
:1040B8002D2D2D2D2D2D2D2D2D2D2D2D2D2D2D2D28
:1040C8002D2D2D2D2D2D2D2D2D2D2D2D2D2D2D0045
:1040D80020202020202020202020202020202020D8
:1040E800204E6574776F726B2053657474696E67C0
:1040F8007320202020202020202020202020202065
:104108002000506172656E74204E6F6465204944CA
:104118003A2000526164696F20506F7765723A20C7
:1041280000506172656E74204E6F6465206973205B
:1041380064796E616D696300506172656E74204EBA
:104148006F646520697320737461746963005365D3
:1041580074757020446F6E650073657474696E675A
:104168002044656661756C74730053746F726520C2
:104178002D20536C65657074696D653A2000537421
:104188006F7265202D20506172656E742049443A23
:10419800200053746F7265202D20526164696F206E
:1041A8004C6576656C3A200053746F7265202D203B
:1041B800506172656E7420697320737461746963E9
:1041C8003A200053746F7265202D2053656E642069
:1041D800526570656174733A2000426F6F742C20C9
:1041E8007265616420454550524F4D2056616C758B
:1041F800657300536C65657074696D6520696E2020
:104208004570726F6D3A2000706172656E746E6FE2
:10421800646520696E204570726F6D3A20005261A6
:1042280064696F204C6576656C20696E20457072F4
:104238006F6D3A2000506172656E742073746174FA
:10424800696320696E204570726F6D3A200053656E
:104258006E64205265706561747320696E204570C4
:06426800726F6D3A2000A8
:00000001FF
