:100000000C949D000C94F40E0C94CD0E0C94C50031
:100010000C94C5000C94C5000C9428040C94C500E5
:100020000C94C5000C94C5000C94C5000C94C5003C
:100030000C94C5000C94C5000C94C5000C94C5002C
:100040000C94830E0C94C5000C94410F0C941B0F60
:100050000C94C5000C94C5000C94C5000C94C5000C
:100060000C94C5000C94C5000000000800020100BB
:10007000000304070000000000000000322E332EB1
:10008000310A00207C5F5C2F602C0A0702200220CE
:10009000B287100340012000240222100222020233
:1000A00020022200222002022022271013410101F7
:1000B000010322203040203052034022140203105A
:1000C000522402217101001010121012221010028D
:1000D0002401010322030020010100322037121005
:1000E000012132260128403222121012122243220C
:1000F00024121001222470C122240F0F00000000DE
:10010000250028002B0000000000240027002A0002
:1001100004040404040404040202020202020303AD
:1001200003030303010204081020408001020408B5
:1001300010200102040810205F1111241FBECFEF10
:10014000D8E0DEBFCDBF14E0A0E0B1E0E2E8F7E226
:1001500002C005900D92AC35B107D9F726E0ACE5A9
:10016000B4E001C01D92A23AB207E1F710E0CDE978
:10017000D0E004C02197FE010E94A513CC39D1071D
:10018000C9F70E9408100C94BF130C9400008091D2
:100190006C04846080936C0480916D0480788093FB
:1001A0006D04E0917104F0917204309709F00994A4
:1001B0000895ECE6F4E08081877F8F7E8083109243
:1001C00068041092690410926A0410926B040E94F1
:1001D0003F0E60935D0470935E0480935F04909380
:1001E000600444E050E060E070E08DE894E00C943E
:1001F0004913E0916204F0916304309721F002808A
:10020000F381E02D099408950F931F930E943F0EF0
:100210000091640410916504209166043091670494
:10022000601B710B820B930B1F910F9108959C0122
:1002300080916204909163048217930751F090912A
:100240006C049F7190936C04309363042093620458
:1002500005C080916C04805E80936C04E091620420
:10026000F0916304309721F00190F081E02D099521
:100270000E943F0E6093640470936504809366044B
:100280009093670408950F931F930E940401209197
:100290006D042077203729F000E117E220E030E0FC
:1002A00004C000E61AEE20E030E006171707280722
:1002B000390730F48EE191E01F910F910C941701F2
:1002C0001F910F91089580916D048F708B3020F0F5
:1002D00084E191E00C941701089580916E048F3FA2
:1002E000A1F00E943F0E60936804709369048093AC
:1002F0006A0490936B0480916E0490918F0489132B
:1003000080938F0480E191E013C00E940401613D5D
:1003100077408105910570F080916C04803618F467
:100320008CE091E005C0877F80936C0484E191E0CC
:100330000C941701089580918D048F3F19F08CE083
:1003400091E010C00E940401613D77408105910554
:1003500058F080916C04803618F488E091E002C077
:1003600089E191E00C94170108950E940401613D18
:1003700077408105910520F480916C0481FF0895F8
:1003800080918E048F3F41F080916C048E7F80932A
:100390006C0488E091E009C080916C04803618F408
:1003A00084E191E002C089E191E00C94170190E5AD
:1003B0009CBD91E09DBD2A988EBD00000DB407FE46
:1003C000FDCF8EB5FB019FEF4150C8F0222361F0B5
:1003D0009EBD00000DB407FEFDCF8EB56115710501
:1003E00099F380833196F0CFDF01119680818EBD25
:1003F00000000DB407FEFDCF8EB5FD01E5CF2A9AB2
:100400000895CF93DF931F92CDB7DEB7698320E0C5
:1004100041E0BE016F5F7F4F0E94D7010F90DF91D7
:10042000CF91089580916D04982F9077903759F06F
:10043000982F92959F709F5F97709295907F8F787D
:10044000892B80936D0480916C048B7F8F7E8093C9
:100450006C0429986CE080E20C9401026FE080E269
:100460000E940102609122016F3F19F08AE20E940E
:100470000102299A089521E041E060E070E00C94C7
:10048000D70186E00E943B0290916104990F91622E
:10049000891306C085E00E943B0291E0883609F08E
:1004A00090E0892F089520E040E060E070E00C9437
:1004B000D701EF92FF921F93CF93DF937C01FC0152
:1004C000C28180916C0480FF04C0CF3F09F05BC003
:1004D00014C0C11103C0C0918E040FC0CF3F69F09A
:1004E0008C2F90E003960E9459138F3F29F480913E
:1004F0008E04F70190819813C82F80918D04F70125
:100500008083438142FD06C046954695469517E097
:10051000140F01C010E2D0919004D17029988BE1A2
:1005200090E00197F1F76EE080E20E94010283E122
:1005300090E00197F1F76C2F8AE20E9401026C2F84
:1005400080E30E94010281EE0E945302CF3F11F02E
:10055000DD2311F080EB01C080EA412F113208F059
:1005600040E220E0B7010E94D701299AE12CF12C4A
:100570008FEF0E945302182F807339F4F1E0EF1AC5
:10058000F108B1F702C080E024C0299860E387E257
:100590000E94010214FF03C081EE0E9453020E94D8
:1005A0002E0215FDD1E081E0CF3F09F080E08D2BD8
:1005B00090918E04C9130DC090916D04811106C0F5
:1005C00021E0290F2F70907F922B01C0907F909394
:1005D0006D04DF91CF911F91FF90EF9008958FEF01
:1005E00080936E04ECE6F4E080818860808328E1EB
:1005F00043E06FEF80E00E94410D61E00E946705DB
:100600000C94590280918D048F3FB1F40E943F0EEB
:100610006F3F19F06093180102C01092180123E097
:1006200043E06091180180E00E94410D6EE074E0AB
:100630000E9473050C9459020895ECE6F4E0808161
:10064000897F81608083EDE8F4E08FEF828381838E
:1006500027E043E06FEF0E94410D6EE074E00E94DE
:1006600073050C945902CF93219A229A29982A9AB9
:10067000CFB7F89480915C04811163C08AE191E066
:10068000FC0124914EE251E0FA013491E22FF0E0B6
:10069000EE0FFF1FEA5FFE4FA591B4912C9123232B
:1006A00009F040C0E2E7F0E02491FA014491FC0136
:1006B00094919923B9F1222339F1233091F038F440
:1006C0002130A9F0223001F584B58F7D12C027308A
:1006D00091F02830A1F02430B9F4809180008F7D12
:1006E00003C0809180008F77809380000DC084B517
:1006F0008F7784BD09C08091B0008F7703C080914F
:10070000B0008F7D8093B000E92FF0E0EE0FFF1F67
:10071000E450FF4FA591B4919FB7F8948C91482B6A
:100720004C939FBF8AE00E94F80D8CB580618CBD10
:100730008CB580648CBD8DE00E94F80D8BE00E942A
:10074000F80D80915C048F5F80935C04CFBF299883
:100750006EE080E20E9401028FE594E00197F1F7DC
:1007600063E083E20E9401026FE584E20E940102DD
:1007700068E685E20E94010260916104660F616291
:1007800086E20E94010264E08DE30E9401028DE195
:100790000E943B02843041F063E780E50E94010241
:1007A00064E08DE30E9401020E944102882309F463
:1007B00047C062E082E20E94010260E081E20E94A2
:1007C000010263E08CE30E940102CFEFC0930301BA
:1007D00020E045E063E071E08BE20E94D70120E079
:1007E00045E063E071E08AE20E94D70120E045E045
:1007F00063E071E080E30E94D70182EE0E94530221
:1008000081EE0E94530260E787E20E94010280911C
:100810006C04806180936C04809190048E7F80933F
:10082000900480918D048F3F71F09FEF980F9E3F51
:1008300028F40E94730F811106C002C0C0938D047A
:1008400089E191E002C084E191E0CF910C9417011D
:100850001F920F920FB60F9211240F900FBE0F90A0
:100860001F901895FC0194819295969597709230FF
:1008700019F4878190850895911104C0CF010796DE
:100880000C94EC1180E090E00895FC0184818F715C
:1008900080648483838187708061838370876783AA
:1008A000CF010895CF93DF93FC0126812A3C09F004
:1008B0000BC124812770213009F006C12581283120
:1008C00061F02931D9F12A3109F469C02B3109F4D9
:1008D00097C02C3109F0F8C0C5C00E943204EC0169
:1008E00087E791E00E94B10DCE010E94C60DCF3F77
:1008F000D10588F489E391E00E94A30D6C2F84EB6D
:1009000091E00E947113BE0185E196E00E944504CA
:100910000E948D0F04C087E591E00E94A30D64EF53
:1009200071E080E090E00E94900A80916000886110
:100930008093600088E080936000FFCF0E943204C3
:10094000EC0187E991E00E94B10DCE010E94C60D35
:10095000C430D10588F489E391E00E94A30D6C2F87
:1009600085EB91E00E947113BE0184EF95E00E9437
:1009700045040E948D0F04C087E591E00E94A30DFD
:1009800064EF71E080E090E00E94900A8091600046
:1009900088618093600088E080936000FFCF0E94B0
:1009A0003204EC018CEB91E00E94B10DCE010E946B
:1009B000C60DC230D10588F489E391E00E94A30DF1
:1009C0006C2F86EB91E00E947113BE0183ED95E0E0
:1009D0000E9445040E948D0F04C087E591E00E94AB
:1009E000A30D64EF71E080E090E00E94900A809196
:1009F000600088618093600088E080936000FFCF92
:100A00000E943204EC0186EE91E00E94B10DCE010D
:100A10000E94C60DCE010197CC9788F489E391E03E
:100A20000E94A30D6C2F87EB91E00E947113BE0111
:100A300082EB95E00E9445040E948D0F04C087E57B
:100A400091E00E94A30D64EF71E080E090E00E94CD
:100A5000900A8091600088618093600088E08093B4
:100A60006000FFCF0E943204EC018BE092E00E9414
:100A7000B10DCE010E94C60DCE010197CC9788F42E
:100A800089E391E00E94A30D6C2F83EB91E00E941B
:100A90007113BE0181E995E00E9445040E948D0F0B
:100AA00004C087E591E00E94A30D64EF71E080E04F
:100AB00090E00E94900A80916000886180936000BD
:100AC00088E080936000FFCFDF91CF910895FC0113
:100AD000838187708860838384818F71806284833F
:100AE0006783CF0108950F931F93CF93DF93EC019A
:100AF0006115710561F0FB0101900020E9F7319764
:100B0000E61BF70BE931F10518F0E9E101C0E0E07F
:100B10000E2F10E08B81282F2770C80133E0880F3B
:100B2000991F3A95E1F7822B8B838C818F718C838F
:100B3000EE2329F0A801CE0107960E94B013FE0112
:100B4000E00FF11F1782CE01DF91CF911F910F911E
:100B5000089520916C0422FD0C94590280E00895C0
:100B60002F923F924F925F926F927F928F929F92BD
:100B7000AF92BF92CF92DF92EF92FF920F931F93AB
:100B8000CF93DF9380916C0484FB772470F884FF0B
:100B9000DBC20E943F0E00915D0410915E04209123
:100BA0005F0430916004DC01CB01801B910BA20B30
:100BB000B30B813A9B4BAD40B10590F00E943F0EC4
:100BC00060935D0470935E0480935F04909360046F
:100BD0000E944102811104C089E191E00E94170145
:100BE00086E0C82E90E0E92E90E0F92E88248A94C1
:100BF0009924939423E0A22E22E0B22E87E10E9452
:100C00003B0280FDA1C2CA94CC2009F49DC221E020
:100C100041E060E070E080E60E94D701C82F813299
:100C200020F082EE0E945302C0E021E04C2F68E7E2
:100C300076E081E60E94D70160E487E20E9401022B
:100C400080917B06182F1695169516951A3108F087
:100C500019E182FD03C097E0910F01C090E29C135F
:100C6000CDCF8370823051F600917C06C0917D0615
:100C7000D091790660907806D0907A0680918E04A3
:100C8000681651F080918D04D81731F08D2F90E0C7
:100C9000662D03960E947113077080916D04806821
:100CA00080936D0480918D04D81242C020917B0600
:100CB000822F8695869586958A3108F089E138E0FD
:100CC000839FC00111242770822B80937B06E12F24
:100CD000F0E0E858F94F178280917C0683FF15C039
:100CE00091E2E8E7F6E0A7E5B6E001900D929A956B
:100CF000E1F7877F806180935B06D0925806D0939E
:100D0000590687E596E00E94A90590917C0694FF1C
:100D100005C088E796E00E94520470CF0330C9F7FF
:100D200080917D0621EF280F233008F06AC066CF3E
:100D30002FEFD21250C0033009F03FC080916C04F5
:100D400082FF1EC0C730E1F480918E04D81709F4E9
:100D500055CF0E943F0E00916804109169042091C4
:100D60006A0430916B04DC01CB01801B910BA20B58
:100D7000B30B80319742A105B10508F4B5C15AC142
:100D8000C83009F43BCFC431C1F480918E0468129D
:100D900014C00E943F0E7370882799270E94251166
:100DA000C0918E0425E143E06FEF8D2F0E94410D2D
:100DB0006C2F0E9467050E94590280918E04681270
:100DC0001DCF80918D04D81709F4BAC180916C04AD
:100DD00082FDA9C1B5C180916C0482FF0FCF0330A1
:100DE00069F4C851C23050F40E94170E8E3F31F0A2
:100DF00061E0680F88E796E00E94670588E796E063
:100E00008FC1C430B1F480917E069091180189178A
:100E100019F08F3F09F0F2CE0E94170E9FEF980F46
:100E20009E3F18F40E94730FE9CE8FEF80938D04DC
:100E3000E5CEC83011F5C0916C04C0FFDFCE0E9432
:100E4000170E8F3F09F4DACE8F5F8F3F21F090911C
:100E50008F04891720F090917304D913CFCEC1FD70
:100E6000CDCE90917304D91303C0C260C0936C04BB
:100E700080938F04D0938E04C1CEC83141F429E110
:100E800043E06FEF8D2F0E94410D61E047C1C931F2
:100E900061F480916C0483FFB1CE877F80936C04F2
:100EA0000E94170E80936E04A9CECE3109F4A6CE0F
:100EB000CD3159F42FE143E06FEF80E00E94410D06
:100EC00060E07FEF0E9445042BC12091790621113B
:100ED000ADC08D3059F498E088E10FB6F894A8952C
:100EE000809360000FBE90936000FFCF8B3169F458
:100EF0000E94170E91E0811101C090E0809183045F
:100F000090FB80F98093830479CE8630A9F4909188
:100F10007F06992329F081E09D3419F080E001C01B
:100F2000872D8093820441E050E063E071E082E825
:100F300094E00E94611362CE833119F40E94D10BB8
:100F40005DCE8231C1F40E9404011B012C0126E117
:100F500043E06FEF80E00E94410DFC0184818F71BE
:100F6000806A84838381877080628383278230864E
:100F70004186528615C08230B9F422E043E06FEF1B
:100F800080E00E94410DFC0184818F71806A84831E
:100F9000838187708062838387829086A186B286F0
:100FA000CF010E94A9052ACE8130F9F4E114F104A1
:100FB00009F424CE929596959770953049F46091F6
:100FC0007F067091800680918106909182060AC00A
:100FD000911105C08FE796E00E940A1203C060E0FD
:100FE00070E0CB010E94000009CE8A30D9F48091D4
:100FF0007F06833409F002CEC3E0D0E06FEFCE016C
:101000000E9471132196C33081E0D807B9F72AE016
:1010100043E06FEF80E00E94410D6EE272E00E94BB
:101020007305BFCF8C3109F074CEE8CD8A3109F059
:1010300070CEE4CD80916C0483FDE0CD90918D0461
:10104000911103C010926E0426C0886080936C04D6
:10105000D0926E0428E143E06FEF80E00E94410DE2
:1010600061E00E9467050E9459020E943F0E1B0129
:101070002C0110927D06C0E00E943F0EDC01CB01E6
:1010800082199309A409B509803D9740A105B105CE
:1010900010F4CC23D9F080916C04877F80936C048A
:1010A000C0916E04CF3F09F4A9CD0E943F0E60931A
:1010B00068047093690480936A0490936B04809130
:1010C0008F048C1789F0C0938F040EC00E94B00566
:1010D000A89580917C068770833071F6C1E080917D
:1010E0007D06893141F6C8CF0E943F0E60936804A7
:1010F0007093690480936A0490936B040E943F0E7E
:101100007370882799270E942511C0918F0428E0C9
:1011100043E06FEF8D2F0E94410D6C2F0E946705F9
:101120000E9459026BCD88E796E00E945902033075
:1011300009F464CD80918E04681609F4EACD5ECD81
:10114000033009F0E6CD5ACDDF91CF911F910F9179
:10115000FF90EF90DF90CF90BF90AF909F908F90D7
:101160007F906F905F904F903F902F900895EF92F7
:10117000FF920F931F93CF93DF9382EB91E00E9436
:101180005913E82E83EB91E00E945913F82E84EB5B
:1011900091E00E945913182F85EB91E00E9459139A
:1011A000C82F86EB91E00E945913D82F87EB91E06E
:1011B0000E945913082F83E0E81609F453C081E315
:1011C00092E00E94A30D82E492E00E94B10D80E0C3
:1011D00090E00E94C60D60E083EB91E00E947113E5
:1011E0001092750486E592E00E94B10D109273048E
:1011F00080E090E00E94C60D60E084EB91E00E94E8
:1012000071138AE692E00E94B10D82E090E00E94A4
:10121000C60D62E085EB91E00E94711380E892E0D8
:101220000E94B10D80E090E00E94C60D60E086EB68
:1012300091E00E9471138BE992E00E94B10D85E06C
:1012400090E00E94C60D65E087EB91E00E9471136B
:1012500085E080938C0463E082EB91E00E9471133F
:10126000D0E037C082EB92E00E94A30DF0927504AB
:101270008BEC92E00E94B10D812F0E94B30D109370
:10128000730481EE92E00E94B10D8C2F0E94B30D89
:1012900088EF92E00E94B10D8D2F0E94B30DD09384
:1012A000740481E193E00E94B10D89E293E00E9411
:1012B000A30D00938C04C13049F028F0C23049F0EE
:1012C000C33021F006C01092610406C0C0936104CF
:1012D00003C082E080936104D13051F484E393E051
:1012E000DF91CF911F910F91FF90EF900C94A30D80
:1012F000DF91CF911F910F91FF90EF900895CF93C1
:1013000083E080931D0181E593E00E94A30D83E8B3
:1013100093E00E94A30D81E593E00E94A30D85EB6D
:1013200093E00E94B10D80918E040E94B30D86EC73
:1013300093E00E94B10D80916104082E000C990B7E
:101340000E94C60D80917404811103C084ED93E066
:1013500002C08BEE93E00E94A30D60918E0470E0BA
:1013600080E090E00E944E122091180627702862BB
:101370002093180620911906206E20931906609379
:101380001C0670931D0680931E0690931F06C1E0F5
:10139000C093200685E196E00E948D0F6091610464
:1013A000062E000C770B880B990B0E94501220918F
:1013B000F705277028622093F7052091F805206E25
:1013C0002093F8056093FB057093FC058093FD0561
:1013D0009093FE05C093FF0584EF95E00E948D0F6A
:1013E00060917404062E000C770B880B990B0E94F9
:1013F00050122091D605277028622093D60520919F
:10140000D705206E2093D7056093DA057093DB052E
:101410008093DC059093DD05C093DE0583ED95E0B8
:101420000E948D0F60918C04062E000C770B82EBCE
:1014300095E00E9445040E948D0F60917504062E70
:10144000000C770B81E995E00E9445040E948D0F06
:10145000809173058770886280937305809174050D
:10146000806E8093740580E090E0A0E8BFE38093F5
:10147000770590937805A0937905B0937A05C0938A
:101480007B0580E795E00E948D0F60918804709144
:10149000890480918A0490918B040E9450122091BB
:1014A0005205277028622093520520915305206E23
:1014B0002093530560935605709357058093580504
:1014C00090935905C0935A058FE495E00E948D0FC3
:1014D00060918404709185048091860490918704C2
:1014E0000E94501220913105277028622093310507
:1014F00020913205206E209332056093350570935C
:1015000036058093370590933805C09339058EE2F0
:1015100095E00E948D0F81E094E0CF910C94A30D93
:101520008F929F92AF92BF92CF92DF92EF92FF92F3
:101530004B015C010E943F0E6B017C010E943F0E3B
:10154000DC01CB018C199D09AE09BF0988159905ED
:10155000AA05BB0530F4A8950E94F9000E94B005C9
:10156000EDCFFF90EF90DF90CF90BF90AF909F9026
:101570008F9008950F931F9380917A0481110DC06D
:101580000E943F0E609376047093770480937804F2
:101590009093790481E080937A0461E070E080E0C8
:1015A00090E00E94900A0E943F0E009176041091F4
:1015B00077042091780430917904DC01CB01801B01
:1015C000910BA20BB30B81369A4EA105B10508F41D
:1015D000A5C080911D0120E4829FC0011124809349
:1015E0007C0080917A00806480937A0080917A00F8
:1015F00086FDFCCF6091780090917900809139064A
:10160000877088628093390680913A06806E809355
:101610003A0670E0792B072E000C880B990B0E947C
:10162000501229E037E64CE55BE30E948B12609391
:101630003D0670933E0680933F069093400682E0FD
:101640008093410686E396E00E948D0F809173059A
:101650008770886080937305809174058F718062B4
:101660008093740581E08093770580E795E00E9480
:101670008D0F409188045091890460918A04709183
:101680008B04809153058F718068809353058091FE
:10169000520587708062809352054093560550939F
:1016A000570560935805709359058FE495E00E94A3
:1016B0008D0F40918404509185046091860470914F
:1016C0008704809132058F71806880933205809104
:1016D00031058770806280933105409335055093C2
:1016E000360560933705709338058EE295E00E94C9
:1016F0008D0F60917504062E000C770B81E995E043
:101700000E9445040E948D0F0E943F0E6093760454
:101710007093770480937804909379041F910F91CC
:1017200008952BE043E06FEF80E00E94410D6FE0F1
:1017300074E00E9473050E94A9052CE043E06FEF5E
:1017400080E00E94410D6CE174E00E9473050E94EC
:10175000A90541E254E06EE188EC0E942A0E64E69D
:1017600070E080E090E00E94900A45E254E067E17A
:101770008AEC0E942A0E64E670E080E090E00E940D
:10178000900A43E354E063E08EEF0E942A0E64E681
:1017900070E080E090E00E94900A84E494E00C9471
:1017A000A30DCF932FE043E06FEF80E00E94410D47
:1017B0006EE074E00E947305E7E5F6E083818770D0
:1017C0008061838384818F71806C848381E08783CF
:1017D0001086CF010E94A9058FE00E944B0E4EE0BB
:1017E00054E062E18FEF0E942A0EC0918E0426E041
:1017F00043E06FEF80E00E94410D6C2F0E9467056F
:101800000E94A90586E00E944B0ECF910C94910B8B
:10181000CF938091830481FD1FC00E94D10B8091E2
:101820008304816080938304C4E02AE143E06FEF86
:1018300080E00E94410D62E00E9467050E94A905B8
:101840008BE10E944B0E811102C0C15071F7809153
:101850008304826080938304CF9108950895CF928A
:10186000DF92EF92FF920F931F93CF93DF936C0160
:101870007A018B01C0E0D0E0CE15DF0581F0D80100
:101880006D918D01D601ED91FC910190F081E02DDB
:10189000C6010995892B11F02196EECF7E01C70173
:1018A000DF91CF911F910F91FF90EF90DF90CF903C
:1018B0000895089580E090E00895FC01538D448DD3
:1018C000252F30E0842F90E0821B930B541710F0EB
:1018D000CF96089501970895FC01918D828D9817F8
:1018E00061F0828DDF01A80FB11D5D968C91928D04
:1018F0009F5F9F73928F90E008958FEF9FEF089501
:10190000FC01918D828D981731F0828DE80FF11DC9
:10191000858D90E008958FEF9FEF0895FC01918DE4
:10192000228D892F90E0805C9F4F821B91098F73DD
:101930009927089581E994E00E948E0C21E0892B7B
:1019400009F420E0822F0895FC01848DDF01A80FA7
:10195000B11DA35ABF4F2C91848D90E001968F73D7
:101960009927848FA689B7892C93A089B1898C91F6
:10197000837080648C93938D848D981306C0028845
:10198000F389E02D80818F7D80830895EF92FF920F
:101990000F931F93CF93DF93EC0181E0888F9B8D92
:1019A0008C8D981305C0E889F989808185FD26C052
:1019B000F62E0B8D10E00F5F1F4F0F731127E02ED7
:1019C0008C8DE8120CC00FB607FCFACFE889F989B4
:1019D000808185FFF5CFCE010E94A40CF1CF8B8DC5
:1019E000FE01E80FF11DE35AFF4FF0829FB7F89414
:1019F0000B8FEA89FB89808180620AC09FB7F894C7
:101A0000EE89FF896083E889F98980818370806429
:101A100080839FBF81E090E0DF91CF911F910F9174
:101A2000FF90EF900895CF93DF93EC01888D88238A
:101A3000C9F0EA89FB89808185FD05C0A889B9893B
:101A40008C9186FD0FC00FB607FCF5CF808185FF16
:101A5000F2CFA889B9898C9185FFEDCFCE010E9484
:101A6000A40CE7CFDF91CF91089580E090E0892B1F
:101A700029F00E949A0C81110C94000008950E9494
:101A8000AB13E7E5F6E090918D0491838283668342
:101A9000258384814770807E482B4483CF0108953D
:101AA000009769F0FC0101900020E9F73197AF0140
:101AB000481B590BBC0181E994E00C942F0C80E089
:101AC00090E008958F929F92AF92BF920F931F93D1
:101AD000CF93DF93CDB7DEB7A1970FB6F894DEBFF3
:101AE0000FBECDBF19A2423008F44AE08E010F5D4F
:101AF0001F4F842E912CA12CB12CA50194010E9482
:101B00008313E62FB901CA0101501109EA3014F418
:101B1000E05D01C0E95CD801EC93232B242B252B3D
:101B200061F7C8010E94500DA1960FB6F894DEBF70
:101B30000FBECDBFDF91CF911F910F91BF90AF909E
:101B40009F908F900895CF93DF930E94500DEC01EA
:101B50008CE094E00E94500D8C0F9D1FDF91CF917F
:101B600008950C94500DCF93DF93682F70E080E0C0
:101B700090E04AE00E94620DEC018CE094E00E944B
:101B8000500D8C0F9D1FDF91CF910895CF92DF9262
:101B9000EF92FF92CF93DF936C01990FEE08FF084D
:101BA000F7FE13C06DE281E994E00E94C60CEC01DF
:101BB00066277727CB016C197D098E099F094AE0BA
:101BC0000E94620DC80FD91F06C04AE0C701B601C6
:101BD0000E94620DEC018CE094E00E94500D8C0F8D
:101BE0009D1FDF91CF91FF90EF90DF90CF900895F0
:101BF00090E0FC01EC5DFE4F2491FC01E05FFE4FA4
:101C00008491882399F090E0880F991FFC01EA5F86
:101C1000FE4FA591B491FC01E450FF4F8591949142
:101C20008FB7F894EC91E22BEC938FBF08958091DD
:101C30007C06829586958770813019F480917F06A5
:101C40000895811105C08FE796E00E94EC11089578
:101C500080E00895CF93DF93262F8F3F11F0EA01A4
:101C600002C0C6E5D4E040E0682F80E00E94410D4C
:101C7000BE010E947305DF91CF910C94A9052FB787
:101C8000F89460919A0670919B0680919C069091C1
:101C90009D062FBF0895CF92DF92EF92FF92CF93D0
:101CA000DF93D82F0E943F0E6B017C0181E0D111A0
:101CB00080E080937D06C0E00E943F0EDC01CB01F6
:101CC0008C199D09AE09BF09803D9740A105B1055A
:101CD00090F4C11110C0A8950E94F9000E94B005AF
:101CE00080917C068770833039F7C1E080917D0652
:101CF0008D13E1CFE1CF8C2FDF91CF91FF90EF904B
:101D0000DF90CF9008951F920F920FB60F9211247B
:101D10002F933F938F939F93AF93BF9380919A0696
:101D200090919B06A0919C06B0919D0630919906DA
:101D300020E3230F2D3720F44096A11DB11D05C0CF
:101D400023EB230F4196A11DB11D2093990680938B
:101D50009A0690939B06A0939C06B0939D06809153
:101D60009E0690919F06A091A006B091A1060196B3
:101D7000A11DB11D80939E0690939F06A093A0067F
:101D8000B093A106BF91AF919F918F913F912F91F9
:101D90000F900FBE0F901F9018951F920F920FB6C5
:101DA0000F9211242F933F934F935F936F937F93E1
:101DB0008F939F93AF93BF93EF93FF93E091250190
:101DC000F09126010995FF91EF91BF91AF919F91FD
:101DD0008F917F916F915F914F913F912F910F90D4
:101DE0000FBE0F901F9018951F920F920FB60F9273
:101DF00011242F933F934F935F936F937F938F9310
:101E00009F93AF93BF93EF93FF93E0912301F091E2
:101E100024010995FF91EF91BF91AF919F918F910F
:101E20007F916F915F914F913F912F910F900FBED6
:101E30000F901F9018951F920F920FB60F921124BA
:101E40002F933F934F935F936F937F938F939F93C2
:101E5000AF93BF93EF93FF9381E994E00E94A40CAA
:101E6000FF91EF91BF91AF919F918F917F916F9172
:101E70005F914F913F912F910F900FBE0F901F9048
:101E800018951F920F920FB60F9211242F938F93D4
:101E90009F93EF93FF93E091A104F091A2048081BE
:101EA000E091A704F091A80482FD12C09081809176
:101EB000AA048F5F8F732091AB04821751F0E091D9
:101EC000AA04F0E0EF56FB4F958F8093AA0401C05F
:101ED0008081FF91EF919F918F912F910F900FBE75
:101EE0000F901F901895CF93C82F80938D048F3F2C
:101EF00051F08093220163E082E20E94010261E0DE
:101F000081E20E9401020E942E026C2F80E090E08C
:101F10000E94711381E0CF910895DF92EF92FF92BA
:101F20000F931F93CF93DF93EC0100E010E0EE24BA
:101F3000E394F12C80918C04082E000C990BE81688
:101F4000F906B4F580918D0489838C81807F81604E
:101F50008C838091830480FF1BC0CE010E94A90561
:101F60008823B1F08091880490918904A0918A041B
:101F7000B0918B040196A11DB11D809388049093AC
:101F80008904A0938A04B0938B04DD24D39403C006
:101F90000E5C1F4FD12C8FEFE81AF80AB801012E02
:101FA000000C880B990B0E94900ADD2019F213C0D7
:101FB0008091840490918504A0918604B091870457
:101FC0000196A11DB11D8093840490938504A09374
:101FD0008604B0938704DF91CF911F910F91FF90FA
:101FE000EF90DF900895CF93DF93FC011082118270
:101FF0001282148215821682DC0117968AE1ED01A5
:1020000019928A95E9F782E08383DF91CF91089551
:10201000789484B5826084BD84B5816084BD85B5C3
:10202000826085BD85B5816085BD80916E008160CF
:1020300080936E0010928100809181008260809375
:102040008100809180008160809380008091B10048
:1020500084608093B1008091B00081608093B00073
:1020600080917A008B7F80937A0080917A008260E1
:1020700080937A0080917A00816080937A008091C9
:102080007A00806880937A001092C100A89580E061
:1020900090E0892B11F00E940000E091A104F091E2
:1020A000A20482E08083E0919D04F0919E0410825E
:1020B000E0919F04F091A0048CE080831092A90429
:1020C000E091A504F091A60486E08083E091A3044A
:1020D000F091A404808180618083E091A304F09159
:1020E000A404808188608083E091A304F091A4041B
:1020F000808180688083E091A304F091A4048081B2
:102100008F7D8083C0E1D0E0F12CFE01F595E7954D
:10211000ED57FF4FE491C0FFE295EF70E83008F013
:1021200056C0F0E0ED57FF4FF4906F2D81E994E039
:102130000E94C60C2196C23FD10539F7CCE7D0E00A
:10214000FE01649161112FC08CE094E00E94500D5B
:10215000809183048D7F809383040E94B70841E0BF
:1021600050E063E071E082E894E00E9449136091DE
:10217000730481E090E00E94711380916D048F7868
:1021800080936D0410926304109262048EE191E0DA
:102190000E94170188E09CE0909372048093710480
:1021A0000E943F0E08C081E994E00E94C60C21966F
:1021B000892B31F6C9CF0E943F0E0E94F9000E9480
:1021C000B005A89580916C0482FFF5CF0CC01BEF81
:1021D0001E0F00E06F2D81E994E00E94C60C0F5F96
:1021E0000117C0F3A7CF0E947F09A895A8950E9468
:1021F000F9000E94B0050E94BA0A0E94350DF6CF80
:102200003FB7F89480919E0690919F06A091A006FA
:10221000B091A10626B5A89B05C02F3F19F00196E5
:10222000A11DB11D3FBFBA2FA92F982F8827820F5C
:10223000911DA11DB11DBC01CD0146E0660F771FA8
:10224000881F991F4A95D1F708958F929F92AF9258
:10225000BF92CF92DF92EF92FF926B017C010E94BE
:1022600000114B015C01C114D104E104F104F1F04F
:102270000E940011DC01CB0188199909AA09BB0948
:10228000883E9340A105B10570F321E0C21AD10840
:10229000E108F10888EE880E83E0981EA11CB11CAD
:1022A000C114D104E104F10419F7DDCFFF90EF90E0
:1022B000DF90CF90BF90AF909F908F9008951F9325
:1022C000CF93DF93E1E9F4E01382128288EE93E08A
:1022D000A0E0B0E084839583A683B7838BE291E08E
:1022E0009183808385EC90E09587848784EC90E0EF
:1022F0009787868780EC90E0918B808B81EC90E0D3
:10230000938B828B82EC90E0958B848B86EC90E0B3
:10231000978B868B118E128E138E148E88E796E023
:102320000E94F30F87E596E00E94F30F86E396E0A4
:102330000E94F30FE6E3F6E088EC868386E285836D
:1023400085E196E00E94F30FE5E1F6E0CAECC68372
:1023500018E1158384EF95E00E94F30FE4EFF5E0B8
:10236000C683D9E1D58383ED95E00E94F30FE3EDB9
:10237000F5E0C6838AE1858382EB95E00E94F30F46
:10238000E2EBF5E0C6838BE1858381E995E00E946D
:10239000F30FE1E9F5E0C6838CE1858380E795E002
:1023A0000E94F30FE0E7F5E0CEEFC68382E085837D
:1023B0008FE495E00E94F30FEFE4F5E0C683158308
:1023C0008EE295E00E94F30FEEE2F5E0C683D5833E
:1023D000DF91CF911F910895FC0188279927E894F8
:1023E00021912032E9F3293010F02E30C8F32B323E
:1023F00041F02D3239F4689404C00E944612820FD5
:10240000911D219120532A30C0F31EF4909581959F
:102410009F4F08951F93FC0199278827BC01E894DA
:1024200011911032E9F3193010F01E30C8F31B324D
:1024300051F01D3249F4689406C00E943112610FB8
:10244000711D811D911D119110531A30B0F33EF48E
:1024500090958095709561957F4F8F4F9F4F1F91FD
:102460000895592F482F372F262F660F771F881F63
:10247000991F660F771F881F991F620F731F841F94
:10248000951F660F771F881F991F08957AE0979F01
:10249000902D879F802D910D11240895E89409C0F7
:1024A00097FB3EF490958095709561957F4F8F4F87
:1024B0009F4F9923A9F0F92F96E9BB279395F6959D
:1024C000879577956795B795F111F8CFFAF4BB0F1B
:1024D00011F460FF1BC06F5F7F4F8F4F9F4F16C07F
:1024E000882311F096E911C0772321F09EE8872F09
:1024F000762F05C0662371F096E8862F70E060E0C5
:102500002AF09A95660F771F881FDAF7880F96953D
:10251000879597F908950E949E120C940F130E94BC
:10252000011338F00E94081320F0952311F00C9449
:10253000F8120C94FE1211240C9443130E942013E1
:1025400070F3959FC1F3950F50E0551F629FF00106
:10255000729FBB27F00DB11D639FAA27F00DB11D1F
:10256000AA1F649F6627B00DA11D661F829F2227A8
:10257000B00DA11D621F739FB00DA11D621F839F2F
:10258000A00D611D221F749F3327A00D611D231F05
:10259000849F600D211D822F762F6A2F11249F5753
:1025A00050409AF0F1F088234AF0EE0FFF1FBB1F56
:1025B000661F771F881F91505040A9F79E3F510515
:1025C00080F00C94F8120C9443135F3FE4F3983EB0
:1025D000D4F3869577956795B795F795E7959F5FBF
:1025E000C1F7FE2B880F911D9695879597F9089551
:1025F00097F99F6780E870E060E008959FEF80ECB6
:10260000089500240A941616170618060906089558
:1026100000240A9412161306140605060895092EBE
:102620000394000C11F4882352F0BB0F40F4BF2B2D
:1026300011F460FF04C06F5F7F4F8F4F9F4F08956D
:1026400057FD9058440F551F59F05F3F71F0479563
:10265000880F97FB991F61F09F3F79F08795089548
:10266000121613061406551FF2CF4695F1DF08C067
:10267000161617061806991FF1CF86957105610584
:1026800008940895E894BB2766277727CB0197F92C
:102690000895DC01CB01FC01F999FECF06C0F2BD23
:1026A000E1BDF89A319600B40D9241505040B8F710
:1026B0000895F999FECF92BD81BDF89A992780B50A
:1026C0000895DC01A40FB51F4150504048F0CB01E4
:1026D000840F951F2E910E94721341505040D0F7E5
:1026E0000895262FF999FECF92BD81BDF89A0197E2
:1026F00000B4021639F01FBA20BD0FB6F894FA9A4A
:10270000F99A0FBE0895A1E21A2EAA1BBB1BFD0168
:102710000DC0AA1FBB1FEE1FFF1FA217B307E407C0
:10272000F50720F0A21BB30BE40BF50B661F771F18
:10273000881F991F1A9469F76095709580959095F8
:102740009B01AC01BD01CF010895EE0FFF1F059065
:10275000F491E02D099481E090E0F8940C94BF137B
:10276000FB01DC014150504048F001900D920020E7
:10277000C9F701C01D9241505040E0F70895F89408
:02278000FFCF89
:10278200FFFFFF00FCE1A8A802039B01EF026D011D
:10279200C70063011D03B501FF1202430101D90005
:1027A2003303FF2E0C2E0C00000000C60C2F0C5D14
:1027B2000C130D8E0C6C0C800C52454D4F54452D54
:1027C200434F4E4649473A2056616C7565206973FE
:1027D2002076616C69640052454D4F54452D434F3C
:1027E2004E4649473A2056616C75652069732069E7
:1027F2006E76616C69640052454D4F54452D434FCE
:102802004E4649473A20476F74206E6577207061C3
:1028120072656E743A200052454D4F54452D434F18
:102822004E4649473A20476F74206E6577205261C1
:1028320064696F204C6576656C3A200052454D4FB5
:1028420054452D434F4E4649473A20476F74206EF8
:10285200657720506172656E7420697320737461AC
:102862007469633A200052454D4F54452D434F4EF3
:102872004649473A20476F74206E65772073656E2C
:1028820064207265706561743A200052454D4F5460
:10289200452D434F4E4649473A20476F74206E6597
:1028A2007720736C65657074696D653A20004F4BD3
:1028B2000073657474696E672044656661756C7433
:1028C200730053746F7265202D20536C65657074AC
:1028D200696D653A200053746F7265202D20506136
:1028E20072656E742049443A200053746F726520F9
:1028F2002D20526164696F204C6576656C3A200028
:1029020053746F7265202D20506172656E74206958
:1029120073207374617469633A200053746F726533
:10292200202D2053656E6420526570656174733A80
:102932002000426F6F742C207265616420454550FF
:10294200524F4D2056616C75657300706172656EF1
:10295200746E6F646520696E204570726F6D3A20E7
:1029620000526164696F204C6576656C20696E2047
:102972004570726F6D3A2000506172656E742073FB
:10298200746174696320696E204570726F6D3A20BC
:102992000053656E64205265706561747320696EC0
:1029A200204570726F6D3A20006C6F6164537461E0
:1029B2007465360044454255473A20504152454ECF
:1029C2005420495320535441544943212121212168
:1029D200002D2D2D2D2D2D2D2D2D2D2D2D2D2D2D52
:1029E2002D2D2D2D2D2D2D2D2D2D2D2D2D2D2D2D15
:1029F2002D2D2D2D2D2D2D2D2D2D2D2D2D2D2D2D05
:102A02002D2D0020202020202020202020202020CA
:102A1200202020204E6574776F726B20536574748A
:102A2200696E677320202020202020202020202073
:102A32002020202000506172656E74204E6F646504
:102A42002049443A2000526164696F20506F7765D3
:102A5200723A2000506172656E74204E6F64652078
:102A620069732064796E616D696300506172656E8D
:102A720074204E6F64652069732073746174696396
:102A820000536574757020446F6E65000D0A005224
:102A9200657065617465724E6F646500312E323106
:102AA200005643430053797374656D2D436F6E6610
:102AB20069670053797374656D2D5265706F727416
:102AC200696E670050726573656E746174696F6ECA
:0C2AD20020446F6E6500322E332E310060
:00000001FF
